{"abi":[{"type":"constructor","inputs":[{"name":"jumpMultiplierPerYear","type":"uint256","internalType":"uint256"},{"name":"kink_","type":"uint256","internalType":"uint256"},{"name":"pot_","type":"address","internalType":"address"},{"name":"jug_","type":"address","internalType":"address"},{"name":"owner_","type":"address","internalType":"address"}],"stateMutability":"nonpayable"},{"type":"function","name":"assumedOneMinusReserveFactorMantissa","inputs":[],"outputs":[{"name":"","type":"uint256","internalType":"uint256"}],"stateMutability":"view"},{"type":"function","name":"baseRatePerBlock","inputs":[],"outputs":[{"name":"","type":"uint256","internalType":"uint256"}],"stateMutability":"view"},{"type":"function","name":"blocksPerYear","inputs":[],"outputs":[{"name":"","type":"uint256","internalType":"uint256"}],"stateMutability":"view"},{"type":"function","name":"dsrPerBlock","inputs":[],"outputs":[{"name":"","type":"uint256","internalType":"uint256"}],"stateMutability":"view"},{"type":"function","name":"gapPerBlock","inputs":[],"outputs":[{"name":"","type":"uint256","internalType":"uint256"}],"stateMutability":"view"},{"type":"function","name":"getBorrowRate","inputs":[{"name":"cash","type":"uint256","internalType":"uint256"},{"name":"borrows","type":"uint256","internalType":"uint256"},{"name":"reserves","type":"uint256","internalType":"uint256"}],"outputs":[{"name":"","type":"uint256","internalType":"uint256"}],"stateMutability":"view"},{"type":"function","name":"getSupplyRate","inputs":[{"name":"cash","type":"uint256","internalType":"uint256"},{"name":"borrows","type":"uint256","internalType":"uint256"},{"name":"reserves","type":"uint256","internalType":"uint256"},{"name":"reserveFactorMantissa","type":"uint256","internalType":"uint256"}],"outputs":[{"name":"","type":"uint256","internalType":"uint256"}],"stateMutability":"view"},{"type":"function","name":"isInterestRateModel","inputs":[],"outputs":[{"name":"","type":"bool","internalType":"bool"}],"stateMutability":"view"},{"type":"function","name":"jumpMultiplierPerBlock","inputs":[],"outputs":[{"name":"","type":"uint256","internalType":"uint256"}],"stateMutability":"view"},{"type":"function","name":"kink","inputs":[],"outputs":[{"name":"","type":"uint256","internalType":"uint256"}],"stateMutability":"view"},{"type":"function","name":"multiplierPerBlock","inputs":[],"outputs":[{"name":"","type":"uint256","internalType":"uint256"}],"stateMutability":"view"},{"type":"function","name":"owner","inputs":[],"outputs":[{"name":"","type":"address","internalType":"address"}],"stateMutability":"view"},{"type":"function","name":"poke","inputs":[],"outputs":[],"stateMutability":"nonpayable"},{"type":"function","name":"updateJumpRateModel","inputs":[{"name":"baseRatePerYear","type":"uint256","internalType":"uint256"},{"name":"gapPerYear","type":"uint256","internalType":"uint256"},{"name":"jumpMultiplierPerYear","type":"uint256","internalType":"uint256"},{"name":"kink_","type":"uint256","internalType":"uint256"}],"outputs":[],"stateMutability":"nonpayable"},{"type":"function","name":"utilizationRate","inputs":[{"name":"cash","type":"uint256","internalType":"uint256"},{"name":"borrows","type":"uint256","internalType":"uint256"},{"name":"reserves","type":"uint256","internalType":"uint256"}],"outputs":[{"name":"","type":"uint256","internalType":"uint256"}],"stateMutability":"pure"},{"type":"event","name":"NewInterestParams","inputs":[{"name":"baseRatePerBlock","type":"uint256","indexed":false,"internalType":"uint256"},{"name":"multiplierPerBlock","type":"uint256","indexed":false,"internalType":"uint256"},{"name":"jumpMultiplierPerBlock","type":"uint256","indexed":false,"internalType":"uint256"},{"name":"kink","type":"uint256","indexed":false,"internalType":"uint256"}],"anonymous":false}],"bytecode":{"object":"0x608060405234801561001057600080fd5b50604051610edd380380610edd83398101604081905261002f9161045f565b600080546001600160a01b0319166001600160a01b03831617815580868684838084848461005f848085856100c4565b5050505050505050505062201480668e1bc9bf04000061007f91906104cd565b600555600680546001600160a01b038086166001600160a01b03199283161790925560078054928516929091169190911790556100ba61016c565b505050505061056f565b6100d162201480856104cd565b6002556100e181622014806104ef565b6100f3670de0b6b3a7640000856104ef565b6100fd91906104cd565b60015561010d62201480836104cd565b60038190556004829055600254600154604080519283526020830191909152810191909152606081018290527f6960ab234c7ef4b0c9197100f5393cfcde7c453ac910a27bd2000aa1dd4c068d9060800160405180910390a150505050565b600754604051636cb1c69b60e11b8152644554482d4160d81b60048201526000916001600160a01b03169063d9638d36906024016040805180830381865afa1580156101bc573d6000803e3d6000fd5b505050506040513d601f19601f820116820180604052508101906101e0919061050c565b5090506000600f633b9aca006b033b2e3c9fd0803ce8000000600760009054906101000a90046001600160a01b03166001600160a01b0316635001f3b56040518163ffffffff1660e01b8152600401602060405180830381865afa15801561024c573d6000803e3d6000fd5b505050506040513d601f19601f820116820180604052508101906102709190610530565b61027a9086610549565b610284919061055c565b61028e91906104cd565b61029891906104ef565b9050670d2f13f7789f0000670de0b6b3a76400006102b4610393565b6102be91906104ef565b6102c891906104cd565b600281905581111561031757600454670de0b6b3a7640000600554600254846102f1919061055c565b6102fb9190610549565b61030591906104ef565b61030f91906104cd565b60015561033e565b600454670de0b6b3a764000060055461033091906104ef565b61033a91906104cd565b6001555b6002546001546003546004546040805194855260208501939093529183015260608201527f6960ab234c7ef4b0c9197100f5393cfcde7c453ac910a27bd2000aa1dd4c068d9060800160405180910390a15050565b6000600f633b9aca006b033b2e3c9fd0803ce8000000600660009054906101000a90046001600160a01b03166001600160a01b031663487bf0826040518163ffffffff1660e01b8152600401602060405180830381865afa1580156103fc573d6000803e3d6000fd5b505050506040513d601f19601f820116820180604052508101906104209190610530565b61042a919061055c565b61043491906104cd565b61043e91906104ef565b905090565b80516001600160a01b038116811461045a57600080fd5b919050565b600080600080600060a0868803121561047757600080fd5b85516020870151909550935061048f60408701610443565b925061049d60608701610443565b91506104ab60808701610443565b90509295509295909350565b634e487b7160e01b600052601160045260246000fd5b6000826104ea57634e487b7160e01b600052601260045260246000fd5b500490565b8082028115828204841417610506576105066104b7565b92915050565b6000806040838503121561051f57600080fd5b505080516020909101519092909150565b60006020828403121561054257600080fd5b5051919050565b80820180821115610506576105066104b7565b81810381811115610506576105066104b7565b61095f8061057e6000396000f3fe608060405234801561001057600080fd5b50600436106100f55760003560e01c80638da5cb5b11610097578063b9f9850a11610066578063b9f9850a146101d0578063f14039de146101d9578063f52d21f3146101e2578063fd2da339146101eb57600080fd5b80638da5cb5b1461018057806396456c5c146101ab578063a385fb96146101b3578063b8168816146101bd57600080fd5b80632191f92a116100d35780632191f92a1461013d5780636dac7cd5146101555780636e71e2d8146101645780638726bb891461017757600080fd5b806315f24053146100fa57806318178358146101205780632037f3e71461012a575b600080fd5b61010d610108366004610813565b6101f4565b6040519081526020015b60405180910390f35b61012861020b565b005b61012861013836600461083f565b610432565b610145600181565b6040519015158152602001610117565b61010d670d2f13f7789f000081565b61010d610172366004610813565b6104ca565b61010d60015481565b600054610193906001600160a01b031681565b6040516001600160a01b039091168152602001610117565b61010d61050d565b61010d6220148081565b61010d6101cb36600461083f565b6105bd565b61010d60035481565b61010d60025481565b61010d60055481565b61010d60045481565b6000610201848484610630565b90505b9392505050565b600754604051636cb1c69b60e11b8152644554482d4160d81b60048201526000916001600160a01b03169063d9638d36906024016040805180830381865afa15801561025b573d6000803e3d6000fd5b505050506040513d601f19601f8201168201806040525081019061027f9190610871565b5090506000600f633b9aca006b033b2e3c9fd0803ce8000000600760009054906101000a90046001600160a01b03166001600160a01b0316635001f3b56040518163ffffffff1660e01b8152600401602060405180830381865afa1580156102eb573d6000803e3d6000fd5b505050506040513d601f19601f8201168201806040525081019061030f9190610895565b61031990866108c4565b61032391906108dd565b61032d91906108f0565b6103379190610912565b9050670d2f13f7789f0000670de0b6b3a764000061035361050d565b61035d9190610912565b61036791906108f0565b60028190558111156103b657600454670de0b6b3a76400006005546002548461039091906108dd565b61039a91906108c4565b6103a49190610912565b6103ae91906108f0565b6001556103dd565b600454670de0b6b3a76400006005546103cf9190610912565b6103d991906108f0565b6001555b6002546001546003546004546040805194855260208501939093529183015260608201527f6960ab234c7ef4b0c9197100f5393cfcde7c453ac910a27bd2000aa1dd4c068d9060800160405180910390a15050565b6000546001600160a01b0316331461049f5760405162461bcd60e51b815260206004820152602660248201527f6f6e6c7920746865206f776e6572206d61792063616c6c20746869732066756e60448201526531ba34b7b71760d11b606482015260840160405180910390fd5b6104ac62201480846108f0565b6005556104bc60008084846106fb565b6104c461020b565b50505050565b6000826000036104dc57506000610204565b816104e784866108c4565b6104f191906108dd565b610503670de0b6b3a764000085610912565b61020191906108f0565b6000600f633b9aca006b033b2e3c9fd0803ce8000000600660009054906101000a90046001600160a01b03166001600160a01b031663487bf0826040518163ffffffff1660e01b8152600401602060405180830381865afa158015610576573d6000803e3d6000fd5b505050506040513d601f19601f8201168201806040525081019061059a9190610895565b6105a491906108dd565b6105ae91906108f0565b6105b89190610912565b905090565b6000806105cc868686866107a3565b90506000846105db87896108c4565b6105e591906108dd565b9050806000036105f757509050610628565b60008161060261050d565b61060c908a610912565b61061691906108f0565b905061062283826108c4565b93505050505b949350505050565b60008061063e8585856104ca565b9050600454811161067f57600254670de0b6b3a7640000600154836106639190610912565b61066d91906108f0565b61067791906108c4565b915050610204565b6000600254670de0b6b3a764000060015460045461069d9190610912565b6106a791906108f0565b6106b191906108c4565b90506000600454836106c391906108dd565b905081670de0b6b3a7640000600354836106dd9190610912565b6106e791906108f0565b6106f191906108c4565b9350505050610204565b61070862201480856108f0565b6002556107188162201480610912565b61072a670de0b6b3a764000085610912565b61073491906108f0565b60015561074462201480836108f0565b60038190556004829055600254600154604080519283526020830191909152810191909152606081018290527f6960ab234c7ef4b0c9197100f5393cfcde7c453ac910a27bd2000aa1dd4c068d9060800160405180910390a150505050565b6000806107b883670de0b6b3a76400006108dd565b905060006107c7878787610630565b90506000670de0b6b3a76400006107de8484610912565b6107e891906108f0565b9050670de0b6b3a7640000816107ff8a8a8a6104ca565b6108099190610912565b61062291906108f0565b60008060006060848603121561082857600080fd5b505081359360208301359350604090920135919050565b6000806000806080858703121561085557600080fd5b5050823594602084013594506040840135936060013592509050565b6000806040838503121561088457600080fd5b505080516020909101519092909150565b6000602082840312156108a757600080fd5b5051919050565b634e487b7160e01b600052601160045260246000fd5b808201808211156108d7576108d76108ae565b92915050565b818103818111156108d7576108d76108ae565b60008261090d57634e487b7160e01b600052601260045260246000fd5b500490565b80820281158282048414176108d7576108d76108ae56fea2646970667358221220b86780fa4e9f6a9b1796f40120d7609c36d8345e395db86b8ed672880783c93f64736f6c634300081b0033","linkReferences":{}},"methodIdentifiers":{"assumedOneMinusReserveFactorMantissa()":"6dac7cd5","baseRatePerBlock()":"f14039de","blocksPerYear()":"a385fb96","dsrPerBlock()":"96456c5c","gapPerBlock()":"f52d21f3","getBorrowRate(uint256,uint256,uint256)":"15f24053","getSupplyRate(uint256,uint256,uint256,uint256)":"b8168816","isInterestRateModel()":"2191f92a","jumpMultiplierPerBlock()":"b9f9850a","kink()":"fd2da339","multiplierPerBlock()":"8726bb89","owner()":"8da5cb5b","poke()":"18178358","updateJumpRateModel(uint256,uint256,uint256,uint256)":"2037f3e7","utilizationRate(uint256,uint256,uint256)":"6e71e2d8"},"id":35}