{"abi":[{"type":"constructor","inputs":[],"stateMutability":"nonpayable"},{"type":"function","name":"decrement","inputs":[{"name":"key","type":"uint256","internalType":"uint256"}],"outputs":[],"stateMutability":"nonpayable"},{"type":"function","name":"getMaxKeys","inputs":[],"outputs":[{"name":"maxKey","type":"uint256[]","internalType":"uint256[]"}],"stateMutability":"view"},{"type":"function","name":"getMinKeys","inputs":[],"outputs":[{"name":"minKey","type":"uint256[]","internalType":"uint256[]"}],"stateMutability":"view"},{"type":"function","name":"increment","inputs":[{"name":"key","type":"uint256","internalType":"uint256"}],"outputs":[],"stateMutability":"nonpayable"}],"bytecode":{"object":"0x6080604052348015600f57600080fd5b506105a68061001f6000396000f3fe608060405234801561001057600080fd5b506004361061004c5760003560e01c806321441645146100515780633a9ebefd1461006f57806342fca70b146100845780637cf5dab01461008c575b600080fd5b61005961009f565b60405161006691906104a2565b60405180910390f35b61008261007d3660046104e5565b61024c565b005b610059610283565b61008261009a3660046104e5565b610427565b60025460609060009067ffffffffffffffff8111156100c0576100c06104fe565b6040519080825280602002602001820160405280156100e9578160200160208202803683370190505b50905060008060005b60025481101561024357600160006002838154811061011357610113610514565b90600052602060002001548152602001908152602001600020546000031561023b5782600160006002848154811061014d5761014d610514565b906000526020600020015481526020019081526020016000205411156101f157600160006002838154811061018457610184610514565b9060005260206000200154815260200190815260200160002054925060009150600281815481106101b7576101b7610514565b90600052602060002001548483815181106101d4576101d4610514565b6020908102919091010152816101e981610540565b92505061023b565b82600160006002848154811061020957610209610514565b90600052602060002001548152602001908152602001600020540361023b57600281815481106101b7576101b7610514565b6001016100f2565b50919392505050565b6000818152600160205260409020541561028057600081815260016020526040812080549161027a83610559565b91905055505b50565b60025460609060009067ffffffffffffffff8111156102a4576102a46104fe565b6040519080825280602002602001820160405280156102cd578160200160208202803683370190505b50905060008060005b6002548110156102435760016000600283815481106102f7576102f7610514565b90600052602060002001548152602001908152602001600020546000031561041f5782600160006002848154811061033157610331610514565b906000526020600020015481526020019081526020016000205411156103d557600160006002838154811061036857610368610514565b90600052602060002001548152602001908152602001600020549250600091506002818154811061039b5761039b610514565b90600052602060002001548483815181106103b8576103b8610514565b6020908102919091010152816103cd81610540565b92505061041f565b8260016000600284815481106103ed576103ed610514565b90600052602060002001548152602001908152602001600020540361041f576002818154811061039b5761039b610514565b6001016102d6565b60008181526020819052604090205460ff16610488576002805460018181019092557f405787fa12a823e0f2b7631cc41b3ba8828b3321ca811111fa75cd3aa3bb5ace018290556000828152602081905260409020805460ff191690911790555b600081815260016020526040812080549161027a83610540565b602080825282518282018190526000918401906040840190835b818110156104da5783518352602093840193909201916001016104bc565b509095945050505050565b6000602082840312156104f757600080fd5b5035919050565b634e487b7160e01b600052604160045260246000fd5b634e487b7160e01b600052603260045260246000fd5b634e487b7160e01b600052601160045260246000fd5b6000600182016105525761055261052a565b5060010190565b6000816105685761056861052a565b50600019019056fea26469706673582212203cbac7747fd09940e78d49e9d2991c505afcdb666a06b26e2f47fe73b2c1735564736f6c634300081b0033","linkReferences":{}},"methodIdentifiers":{"decrement(uint256)":"3a9ebefd","getMaxKeys()":"21441645","getMinKeys()":"42fca70b","increment(uint256)":"7cf5dab0"},"id":34}