{"abi":[{"type":"function","name":"cTokenBalances","inputs":[{"name":"cToken","type":"address","internalType":"contract CToken"},{"name":"account","type":"address","internalType":"address payable"}],"outputs":[{"name":"","type":"tuple","internalType":"struct CompoundLens.CTokenBalances","components":[{"name":"cToken","type":"address","internalType":"address"},{"name":"balanceOf","type":"uint256","internalType":"uint256"},{"name":"borrowBalanceCurrent","type":"uint256","internalType":"uint256"},{"name":"balanceOfUnderlying","type":"uint256","internalType":"uint256"},{"name":"tokenBalance","type":"uint256","internalType":"uint256"},{"name":"tokenAllowance","type":"uint256","internalType":"uint256"}]}],"stateMutability":"nonpayable"},{"type":"function","name":"cTokenBalancesAll","inputs":[{"name":"cTokens","type":"address[]","internalType":"contract CToken[]"},{"name":"account","type":"address","internalType":"address payable"}],"outputs":[{"name":"","type":"tuple[]","internalType":"struct CompoundLens.CTokenBalances[]","components":[{"name":"cToken","type":"address","internalType":"address"},{"name":"balanceOf","type":"uint256","internalType":"uint256"},{"name":"borrowBalanceCurrent","type":"uint256","internalType":"uint256"},{"name":"balanceOfUnderlying","type":"uint256","internalType":"uint256"},{"name":"tokenBalance","type":"uint256","internalType":"uint256"},{"name":"tokenAllowance","type":"uint256","internalType":"uint256"}]}],"stateMutability":"nonpayable"},{"type":"function","name":"cTokenMetadata","inputs":[{"name":"cToken","type":"address","internalType":"contract CToken"}],"outputs":[{"name":"","type":"tuple","internalType":"struct CompoundLens.CTokenMetadata","components":[{"name":"cToken","type":"address","internalType":"address"},{"name":"exchangeRateCurrent","type":"uint256","internalType":"uint256"},{"name":"supplyRatePerBlock","type":"uint256","internalType":"uint256"},{"name":"borrowRatePerBlock","type":"uint256","internalType":"uint256"},{"name":"reserveFactorMantissa","type":"uint256","internalType":"uint256"},{"name":"totalBorrows","type":"uint256","internalType":"uint256"},{"name":"totalReserves","type":"uint256","internalType":"uint256"},{"name":"totalSupply","type":"uint256","internalType":"uint256"},{"name":"totalCash","type":"uint256","internalType":"uint256"},{"name":"isListed","type":"bool","internalType":"bool"},{"name":"collateralFactorMantissa","type":"uint256","internalType":"uint256"},{"name":"underlyingAssetAddress","type":"address","internalType":"address"},{"name":"cTokenDecimals","type":"uint256","internalType":"uint256"},{"name":"underlyingDecimals","type":"uint256","internalType":"uint256"},{"name":"compSupplySpeed","type":"uint256","internalType":"uint256"},{"name":"compBorrowSpeed","type":"uint256","internalType":"uint256"},{"name":"borrowCap","type":"uint256","internalType":"uint256"}]}],"stateMutability":"nonpayable"},{"type":"function","name":"cTokenMetadataAll","inputs":[{"name":"cTokens","type":"address[]","internalType":"contract CToken[]"}],"outputs":[{"name":"","type":"tuple[]","internalType":"struct CompoundLens.CTokenMetadata[]","components":[{"name":"cToken","type":"address","internalType":"address"},{"name":"exchangeRateCurrent","type":"uint256","internalType":"uint256"},{"name":"supplyRatePerBlock","type":"uint256","internalType":"uint256"},{"name":"borrowRatePerBlock","type":"uint256","internalType":"uint256"},{"name":"reserveFactorMantissa","type":"uint256","internalType":"uint256"},{"name":"totalBorrows","type":"uint256","internalType":"uint256"},{"name":"totalReserves","type":"uint256","internalType":"uint256"},{"name":"totalSupply","type":"uint256","internalType":"uint256"},{"name":"totalCash","type":"uint256","internalType":"uint256"},{"name":"isListed","type":"bool","internalType":"bool"},{"name":"collateralFactorMantissa","type":"uint256","internalType":"uint256"},{"name":"underlyingAssetAddress","type":"address","internalType":"address"},{"name":"cTokenDecimals","type":"uint256","internalType":"uint256"},{"name":"underlyingDecimals","type":"uint256","internalType":"uint256"},{"name":"compSupplySpeed","type":"uint256","internalType":"uint256"},{"name":"compBorrowSpeed","type":"uint256","internalType":"uint256"},{"name":"borrowCap","type":"uint256","internalType":"uint256"}]}],"stateMutability":"nonpayable"},{"type":"function","name":"cTokenUnderlyingPrice","inputs":[{"name":"cToken","type":"address","internalType":"contract CToken"}],"outputs":[{"name":"","type":"tuple","internalType":"struct CompoundLens.CTokenUnderlyingPrice","components":[{"name":"cToken","type":"address","internalType":"address"},{"name":"underlyingPrice","type":"uint256","internalType":"uint256"}]}],"stateMutability":"nonpayable"},{"type":"function","name":"cTokenUnderlyingPriceAll","inputs":[{"name":"cTokens","type":"address[]","internalType":"contract CToken[]"}],"outputs":[{"name":"","type":"tuple[]","internalType":"struct CompoundLens.CTokenUnderlyingPrice[]","components":[{"name":"cToken","type":"address","internalType":"address"},{"name":"underlyingPrice","type":"uint256","internalType":"uint256"}]}],"stateMutability":"nonpayable"},{"type":"function","name":"getAccountLimits","inputs":[{"name":"comptroller","type":"address","internalType":"contract ComptrollerLensInterface"},{"name":"account","type":"address","internalType":"address"}],"outputs":[{"name":"","type":"tuple","internalType":"struct CompoundLens.AccountLimits","components":[{"name":"markets","type":"address[]","internalType":"contract CToken[]"},{"name":"liquidity","type":"uint256","internalType":"uint256"},{"name":"shortfall","type":"uint256","internalType":"uint256"}]}],"stateMutability":"nonpayable"},{"type":"function","name":"getCompBalanceMetadata","inputs":[{"name":"comp","type":"address","internalType":"contract Comp"},{"name":"account","type":"address","internalType":"address"}],"outputs":[{"name":"","type":"tuple","internalType":"struct CompoundLens.CompBalanceMetadata","components":[{"name":"balance","type":"uint256","internalType":"uint256"},{"name":"votes","type":"uint256","internalType":"uint256"},{"name":"delegate","type":"address","internalType":"address"}]}],"stateMutability":"view"},{"type":"function","name":"getCompBalanceMetadataExt","inputs":[{"name":"comp","type":"address","internalType":"contract Comp"},{"name":"comptroller","type":"address","internalType":"contract ComptrollerLensInterface"},{"name":"account","type":"address","internalType":"address"}],"outputs":[{"name":"","type":"tuple","internalType":"struct CompoundLens.CompBalanceMetadataExt","components":[{"name":"balance","type":"uint256","internalType":"uint256"},{"name":"votes","type":"uint256","internalType":"uint256"},{"name":"delegate","type":"address","internalType":"address"},{"name":"allocated","type":"uint256","internalType":"uint256"}]}],"stateMutability":"nonpayable"},{"type":"function","name":"getCompVotes","inputs":[{"name":"comp","type":"address","internalType":"contract Comp"},{"name":"account","type":"address","internalType":"address"},{"name":"blockNumbers","type":"uint32[]","internalType":"uint32[]"}],"outputs":[{"name":"","type":"tuple[]","internalType":"struct CompoundLens.CompVotes[]","components":[{"name":"blockNumber","type":"uint256","internalType":"uint256"},{"name":"votes","type":"uint256","internalType":"uint256"}]}],"stateMutability":"view"},{"type":"function","name":"getGovBravoProposals","inputs":[{"name":"governor","type":"address","internalType":"contract GovernorBravoInterface"},{"name":"proposalIds","type":"uint256[]","internalType":"uint256[]"}],"outputs":[{"name":"","type":"tuple[]","internalType":"struct CompoundLens.GovBravoProposal[]","components":[{"name":"proposalId","type":"uint256","internalType":"uint256"},{"name":"proposer","type":"address","internalType":"address"},{"name":"eta","type":"uint256","internalType":"uint256"},{"name":"targets","type":"address[]","internalType":"address[]"},{"name":"values","type":"uint256[]","internalType":"uint256[]"},{"name":"signatures","type":"string[]","internalType":"string[]"},{"name":"calldatas","type":"bytes[]","internalType":"bytes[]"},{"name":"startBlock","type":"uint256","internalType":"uint256"},{"name":"endBlock","type":"uint256","internalType":"uint256"},{"name":"forVotes","type":"uint256","internalType":"uint256"},{"name":"againstVotes","type":"uint256","internalType":"uint256"},{"name":"abstainVotes","type":"uint256","internalType":"uint256"},{"name":"canceled","type":"bool","internalType":"bool"},{"name":"executed","type":"bool","internalType":"bool"}]}],"stateMutability":"view"},{"type":"function","name":"getGovBravoReceipts","inputs":[{"name":"governor","type":"address","internalType":"contract GovernorBravoInterface"},{"name":"voter","type":"address","internalType":"address"},{"name":"proposalIds","type":"uint256[]","internalType":"uint256[]"}],"outputs":[{"name":"","type":"tuple[]","internalType":"struct CompoundLens.GovBravoReceipt[]","components":[{"name":"proposalId","type":"uint256","internalType":"uint256"},{"name":"hasVoted","type":"bool","internalType":"bool"},{"name":"support","type":"uint8","internalType":"uint8"},{"name":"votes","type":"uint96","internalType":"uint96"}]}],"stateMutability":"view"},{"type":"function","name":"getGovProposals","inputs":[{"name":"governor","type":"address","internalType":"contract GovernorAlpha"},{"name":"proposalIds","type":"uint256[]","internalType":"uint256[]"}],"outputs":[{"name":"","type":"tuple[]","internalType":"struct CompoundLens.GovProposal[]","components":[{"name":"proposalId","type":"uint256","internalType":"uint256"},{"name":"proposer","type":"address","internalType":"address"},{"name":"eta","type":"uint256","internalType":"uint256"},{"name":"targets","type":"address[]","internalType":"address[]"},{"name":"values","type":"uint256[]","internalType":"uint256[]"},{"name":"signatures","type":"string[]","internalType":"string[]"},{"name":"calldatas","type":"bytes[]","internalType":"bytes[]"},{"name":"startBlock","type":"uint256","internalType":"uint256"},{"name":"endBlock","type":"uint256","internalType":"uint256"},{"name":"forVotes","type":"uint256","internalType":"uint256"},{"name":"againstVotes","type":"uint256","internalType":"uint256"},{"name":"canceled","type":"bool","internalType":"bool"},{"name":"executed","type":"bool","internalType":"bool"}]}],"stateMutability":"view"},{"type":"function","name":"getGovReceipts","inputs":[{"name":"governor","type":"address","internalType":"contract GovernorAlpha"},{"name":"voter","type":"address","internalType":"address"},{"name":"proposalIds","type":"uint256[]","internalType":"uint256[]"}],"outputs":[{"name":"","type":"tuple[]","internalType":"struct CompoundLens.GovReceipt[]","components":[{"name":"proposalId","type":"uint256","internalType":"uint256"},{"name":"hasVoted","type":"bool","internalType":"bool"},{"name":"support","type":"bool","internalType":"bool"},{"name":"votes","type":"uint96","internalType":"uint96"}]}],"stateMutability":"view"}],"bytecode":{"object":"0x6080604052348015600f57600080fd5b50613a478061001f6000396000f3fe608060405234801561001057600080fd5b50600436106100ea5760003560e01c8063595642191161008c57806396994869116100665780639699486914610285578063995ed99f146102a5578063bdf950c9146102c5578063c5ae5934146102e557600080fd5b8063595642191461022557806375d80e90146102455780637dd8f6d91461026557600080fd5b80632b2d5ed6116100c85780632b2d5ed614610187578063416405d7146101a757806343c811cc146101e55780634b70d84b1461020557600080fd5b80630972bf8b146100ef578063158eca8b146101185780631ea6374114610138575b600080fd5b6101026100fd3660046127b8565b610305565b60405161010f919061284e565b60405180910390f35b61012b61012636600461289c565b6103ca565b60405161010f9190612997565b61014b6101463660046129a6565b610b6a565b60405161010f919081518152602080830151908201526040808301516001600160a01b0316908201526060918201519181019190915260800190565b61019a6101953660046129e6565b610ecb565b60405161010f9190612a27565b6101ba6101b5366004612a7d565b610f95565b604080518251815260208084015190820152918101516001600160a01b03169082015260600161010f565b6101f86101f3366004612bcd565b611136565b60405161010f9190612c2e565b6102186102133660046129e6565b6112cd565b60405161010f9190612c9a565b610238610233366004612cde565b611380565b60405161010f9190612d42565b610258610253366004612d86565b611511565b60405161010f9190612efd565b610278610273366004612a7d565b61176b565b60405161010f9190613055565b610298610293366004612d86565b6118a5565b60405161010f91906130c7565b6102b86102b3366004612bcd565b611ae8565b60405161010f9190613207565b6102d86102d3366004612a7d565b611c7e565b60405161010f9190613272565b6102f86102f336600461289c565b611fc7565b60405161010f9190613280565b6060826000816001600160401b0381111561032257610322612ab6565b60405190808252806020026020018201604052801561035b57816020015b610348612685565b8152602001906001900390816103405790505b50905060005b828110156103be5761039987878381811061037e5761037e6132a0565b9050602002016020810190610393919061289c565b86611c7e565b8282815181106103ab576103ab6132a0565b6020908102919091010152600101610361565b509150505b9392505050565b6103d26126c4565b6000826001600160a01b031663bd6d894d6040518163ffffffff1660e01b81526004016020604051808303816000875af1158015610414573d6000803e3d6000fd5b505050506040513d601f19601f8201168201806040525081019061043891906132b6565b90506000836001600160a01b0316635fe3b5676040518163ffffffff1660e01b8152600401602060405180830381865afa15801561047a573d6000803e3d6000fd5b505050506040513d601f19601f8201168201806040525081019061049e91906132cf565b604051638e8f294b60e01b81526001600160a01b038681166004830152919250600091829190841690638e8f294b906024016040805180830381865afa1580156104ec573d6000803e3d6000fd5b505050506040513d601f19601f820116820180604052508101906105109190613301565b915091506000806105a2886001600160a01b03166395d89b416040518163ffffffff1660e01b8152600401600060405180830381865afa158015610558573d6000803e3d6000fd5b505050506040513d6000823e601f3d908101601f19168201604052610580919081019061339f565b604051806040016040528060048152602001630c68aa8960e31b815250612131565b156105b357506000905060126106e6565b6000889050806001600160a01b0316636f307dc36040518163ffffffff1660e01b8152600401602060405180830381865afa1580156105f6573d6000803e3d6000fd5b505050506040513d601f19601f8201168201806040525081019061061a91906132cf565b9250806001600160a01b0316636f307dc36040518163ffffffff1660e01b8152600401602060405180830381865afa15801561065a573d6000803e3d6000fd5b505050506040513d601f19601f8201168201806040525081019061067e91906132cf565b6001600160a01b031663313ce5676040518163ffffffff1660e01b8152600401602060405180830381865afa1580156106bb573d6000803e3d6000fd5b505050506040513d601f19601f820116820180604052508101906106df91906133f7565b60ff169150505b6000806106f3878b61218a565b9150915060008080896001600160a01b0316634a58443260e01b8e60405160200161072d91906001600160a01b0391909116815260200190565b60408051601f198184030181529082905261074b9291602001613412565b60408051601f198184030181529082905261076591613443565b6000604051808303816000865af19150503d80600081146107a2576040519150601f19603f3d011682016040523d82523d6000602084013e6107a7565b606091505b509150915081156107c957808060200190518101906107c691906132b6565b92505b6040518061022001604052808e6001600160a01b031681526020018c81526020018e6001600160a01b031663ae9d70b06040518163ffffffff1660e01b8152600401602060405180830381865afa158015610828573d6000803e3d6000fd5b505050506040513d601f19601f8201168201806040525081019061084c91906132b6565b81526020018e6001600160a01b031663f8f9da286040518163ffffffff1660e01b8152600401602060405180830381865afa15801561088f573d6000803e3d6000fd5b505050506040513d601f19601f820116820180604052508101906108b391906132b6565b81526020018e6001600160a01b031663173b99046040518163ffffffff1660e01b8152600401602060405180830381865afa1580156108f6573d6000803e3d6000fd5b505050506040513d601f19601f8201168201806040525081019061091a91906132b6565b81526020018e6001600160a01b03166347bd37186040518163ffffffff1660e01b8152600401602060405180830381865afa15801561095d573d6000803e3d6000fd5b505050506040513d601f19601f8201168201806040525081019061098191906132b6565b81526020018e6001600160a01b0316638f840ddd6040518163ffffffff1660e01b8152600401602060405180830381865afa1580156109c4573d6000803e3d6000fd5b505050506040513d601f19601f820116820180604052508101906109e891906132b6565b81526020018e6001600160a01b03166318160ddd6040518163ffffffff1660e01b8152600401602060405180830381865afa158015610a2b573d6000803e3d6000fd5b505050506040513d601f19601f82011682018060405250810190610a4f91906132b6565b81526020018e6001600160a01b0316633b1d21a26040518163ffffffff1660e01b8152600401602060405180830381865afa158015610a92573d6000803e3d6000fd5b505050506040513d601f19601f82011682018060405250810190610ab691906132b6565b81526020018a15158152602001898152602001886001600160a01b031681526020018e6001600160a01b031663313ce5676040518163ffffffff1660e01b8152600401602060405180830381865afa158015610b16573d6000803e3d6000fd5b505050506040513d601f19601f82011682018060405250810190610b3a91906133f7565b60ff168152602001878152602001868152602001858152602001848152509b505050505050505050505050919050565b610b9e6040518060800160405280600081526020016000815260200160006001600160a01b03168152602001600081525090565b6040516370a0823160e01b81526001600160a01b038381166004830152600091908616906370a0823190602401602060405180830381865afa158015610be8573d6000803e3d6000fd5b505050506040513d601f19601f82011682018060405250810190610c0c91906132b6565b6040516374d7814960e11b81526001600160a01b0385811660048301529192509085169063e9af029290602401600060405180830381600087803b158015610c5357600080fd5b505af1158015610c67573d6000803e3d6000fd5b50506040516370a0823160e01b81526001600160a01b03868116600483015260009350881691506370a0823190602401602060405180830381865afa158015610cb4573d6000803e3d6000fd5b505050506040513d601f19601f82011682018060405250810190610cd891906132b6565b60405163331faf7160e21b81526001600160a01b03868116600483015291925060009187169063cc7ebdc490602401602060405180830381865afa158015610d24573d6000803e3d6000fd5b505050506040513d601f19601f82011682018060405250810190610d4891906132b6565b90506000610d7d82846040518060400160405280600e81526020016d1cdd5b4818dbdb5c081d1bdd185b60921b81525061240d565b90506000610db182866040518060400160405280600d81526020016c1cdd5888185b1b1bd8d85d1959609a1b815250612447565b60408051608081018252878152905163b4b5ea5760e01b81526001600160a01b038a8116600483015292935090916020830191908c169063b4b5ea5790602401602060405180830381865afa158015610e0e573d6000803e3d6000fd5b505050506040513d601f19601f82011682018060405250810190610e329190613476565b6001600160601b03168152604051632c3e6f0f60e11b81526001600160a01b038a811660048301526020909201918c169063587cde1e90602401602060405180830381865afa158015610e89573d6000803e3d6000fd5b505050506040513d601f19601f82011682018060405250810190610ead91906132cf565b6001600160a01b031681526020019190915298975050505050505050565b6060816000816001600160401b03811115610ee857610ee8612ab6565b604051908082528060200260200182016040528015610f2d57816020015b6040805180820190915260008082526020820152815260200190600190039081610f065790505b50905060005b82811015610f8a57610f65868683818110610f5057610f506132a0565b90506020020160208101906102f3919061289c565b828281518110610f7757610f776132a0565b6020908102919091010152600101610f33565b509150505b92915050565b610fc26040518060600160405280600081526020016000815260200160006001600160a01b031681525090565b6040805160608101918290526370a0823160e01b9091526001600160a01b038381166064830152819085166370a0823160848301602060405180830381865afa158015611013573d6000803e3d6000fd5b505050506040513d601f19601f8201168201806040525081019061103791906132b6565b815260405163b4b5ea5760e01b81526001600160a01b03858116600483015260209092019186169063b4b5ea5790602401602060405180830381865afa158015611085573d6000803e3d6000fd5b505050506040513d601f19601f820116820180604052508101906110a99190613476565b6001600160601b03168152604051632c3e6f0f60e11b81526001600160a01b03858116600483015260209092019186169063587cde1e90602401602060405180830381865afa158015611100573d6000803e3d6000fd5b505050506040513d601f19601f8201168201806040525081019061112491906132cf565b6001600160a01b031690529392505050565b80516060906000816001600160401b0381111561115557611155612ab6565b6040519080825280602002602001820160405280156111a757816020015b6040805160808101825260008082526020808301829052928201819052606082015282526000199092019101816111735790505b50905060005b828110156103be576000876001600160a01b031663e23a9a528784815181106111d8576111d86132a0565b6020026020010151896040518363ffffffff1660e01b81526004016112109291909182526001600160a01b0316602082015260400190565b606060405180830381865afa15801561122d573d6000803e3d6000fd5b505050506040513d601f19601f820116820180604052508101906112519190613491565b90506040518060800160405280878481518110611270576112706132a0565b60200260200101518152602001826000015115158152602001826020015160ff16815260200182604001516001600160601b03168152508383815181106112b9576112b96132a0565b6020908102919091010152506001016111ad565b6060816000816001600160401b038111156112ea576112ea612ab6565b60405190808252806020026020018201604052801561132357816020015b6113106126c4565b8152602001906001900390816113085790505b50905060005b82811015610f8a5761135b868683818110611346576113466132a0565b9050602002016020810190610126919061289c565b82828151811061136d5761136d6132a0565b6020908102919091010152600101611329565b60606000826001600160401b0381111561139c5761139c612ab6565b6040519080825280602002602001820160405280156113e157816020015b60408051808201909152600080825260208201528152602001906001900390816113ba5790505b50905060005b8381101561150757604051806040016040528086868481811061140c5761140c6132a0565b905060200201602081019061142191906134e1565b63ffffffff168152602001886001600160a01b031663782d6fe18989898781811061144e5761144e6132a0565b905060200201602081019061146391906134e1565b6040516001600160e01b031960e085901b1681526001600160a01b03909216600483015263ffffffff166024820152604401602060405180830381865afa1580156114b2573d6000803e3d6000fd5b505050506040513d601f19601f820116820180604052508101906114d69190613476565b6001600160601b03168152508282815181106114f4576114f46132a0565b60209081029190910101526001016113e7565b5095945050505050565b60606000826001600160401b0381111561152d5761152d612ab6565b6040519080825280602002602001820160405280156115dd57816020015b6115ca604051806101c001604052806000815260200160006001600160a01b03168152602001600081526020016060815260200160608152602001606081526020016060815260200160008152602001600081526020016000815260200160008152602001600081526020016000151581526020016000151581525090565b81526020019060019003908161154b5790505b50905060005b8381101561176257600080600080896001600160a01b031663328dd9828a8a88818110611612576116126132a0565b905060200201356040518263ffffffff1660e01b815260040161163791815260200190565b600060405180830381865afa158015611654573d6000803e3d6000fd5b505050506040513d6000823e601f3d908101601f1916820160405261167c919081019061367d565b9350935093509350604051806101c001604052806000815260200160006001600160a01b031681526020016000815260200185815260200184815260200183815260200182815260200160008152602001600081526020016000815260200160008152602001600081526020016000151581526020016000151581525086868151811061170b5761170b6132a0565b602002602001018190525061175286868151811061172b5761172b6132a0565b60200260200101518b8b8b89818110611746576117466132a0565b90506020020135612481565b5050600190920191506115e39050565b50949350505050565b61178f60405180606001604052806060815260200160008152602001600081525090565b604051635ec88c7960e01b81526001600160a01b0383811660048301526000918291829190871690635ec88c7990602401606060405180830381865afa1580156117dd573d6000803e3d6000fd5b505050506040513d601f19601f82011682018060405250810190611801919061379d565b9250925092508260001461181457600080fd5b604080516060810191829052632aff3bff60e21b9091526001600160a01b0386811660648301528190881663abfceffc60848301600060405180830381865afa158015611865573d6000803e3d6000fd5b505050506040513d6000823e601f3d908101601f1916820160405261188d91908101906137cb565b81526020810193909352604090920152949350505050565b60606000826001600160401b038111156118c1576118c1612ab6565b60405190808252806020026020018201604052801561196a57816020015b611957604051806101a001604052806000815260200160006001600160a01b031681526020016000815260200160608152602001606081526020016060815260200160608152602001600081526020016000815260200160008152602001600081526020016000151581526020016000151581525090565b8152602001906001900390816118df5790505b50905060005b8381101561176257600080600080896001600160a01b031663328dd9828a8a8881811061199f5761199f6132a0565b905060200201356040518263ffffffff1660e01b81526004016119c491815260200190565b600060405180830381865afa1580156119e1573d6000803e3d6000fd5b505050506040513d6000823e601f3d908101601f19168201604052611a09919081019061367d565b9350935093509350604051806101a001604052806000815260200160006001600160a01b03168152602001600081526020018581526020018481526020018381526020018281526020016000815260200160008152602001600081526020016000815260200160001515815260200160001515815250868681518110611a9157611a916132a0565b6020026020010181905250611ad8868681518110611ab157611ab16132a0565b60200260200101518b8b8b89818110611acc57611acc6132a0565b9050602002013561256c565b5050600190920191506119709050565b80516060906000816001600160401b03811115611b0757611b07612ab6565b604051908082528060200260200182016040528015611b5957816020015b604080516080810182526000808252602080830182905292820181905260608201528252600019909201910181611b255790505b50905060005b828110156103be576000876001600160a01b031663e23a9a52878481518110611b8a57611b8a6132a0565b6020026020010151896040518363ffffffff1660e01b8152600401611bc29291909182526001600160a01b0316602082015260400190565b606060405180830381865afa158015611bdf573d6000803e3d6000fd5b505050506040513d601f19601f82011682018060405250810190611c039190613869565b90506040518060800160405280878481518110611c2257611c226132a0565b6020026020010151815260200182600001511515815260200182602001511515815260200182604001516001600160601b0316815250838381518110611c6a57611c6a6132a0565b602090810291909101015250600101611b5f565b611c86612685565b6040516370a0823160e01b81526001600160a01b038381166004830152600091908516906370a0823190602401602060405180830381865afa158015611cd0573d6000803e3d6000fd5b505050506040513d601f19601f82011682018060405250810190611cf491906132b6565b6040516305eff7ef60e21b81526001600160a01b0385811660048301529192506000918616906317bfdfbc906024016020604051808303816000875af1158015611d42573d6000803e3d6000fd5b505050506040513d601f19601f82011682018060405250810190611d6691906132b6565b604051633af9e66960e01b81526001600160a01b038681166004830152919250600091871690633af9e669906024016020604051808303816000875af1158015611db4573d6000803e3d6000fd5b505050506040513d601f19601f82011682018060405250810190611dd891906132b6565b9050600080611e1e886001600160a01b03166395d89b416040518163ffffffff1660e01b8152600401600060405180830381865afa158015610558573d6000803e3d6000fd5b15611e385750506001600160a01b03851680319031611f8a565b60008890506000816001600160a01b0316636f307dc36040518163ffffffff1660e01b8152600401602060405180830381865afa158015611e7d573d6000803e3d6000fd5b505050506040513d601f19601f82011682018060405250810190611ea191906132cf565b6040516370a0823160e01b81526001600160a01b038b81166004830152919250908216906370a0823190602401602060405180830381865afa158015611eeb573d6000803e3d6000fd5b505050506040513d601f19601f82011682018060405250810190611f0f91906132b6565b604051636eb1769f60e11b81526001600160a01b038b811660048301528c811660248301529195509082169063dd62ed3e90604401602060405180830381865afa158015611f61573d6000803e3d6000fd5b505050506040513d601f19601f82011682018060405250810190611f8591906132b6565b925050505b6040805160c0810182526001600160a01b039990991689526020890195909552938701929092526060860152608085015260a08401525090919050565b60408051808201909152600080825260208201526000826001600160a01b0316635fe3b5676040518163ffffffff1660e01b8152600401602060405180830381865afa15801561201b573d6000803e3d6000fd5b505050506040513d601f19601f8201168201806040525081019061203f91906132cf565b90506000816001600160a01b0316637dc0d1d06040518163ffffffff1660e01b8152600401602060405180830381865afa158015612081573d6000803e3d6000fd5b505050506040513d601f19601f820116820180604052508101906120a591906132cf565b6040805180820182526001600160a01b03808816808352925163fc57d4df60e01b815260048101939093529293509160208301919084169063fc57d4df90602401602060405180830381865afa158015612103573d6000803e3d6000fd5b505050506040513d601f19601f8201168201806040525081019061212791906132b6565b9052949350505050565b6000816040516020016121449190613443565b604051602081830303815290604052805190602001208360405160200161216b9190613443565b6040516020818303038152906040528051906020012014905092915050565b60008060008080866001600160a01b0316636aa875b560e01b876040516020016121c391906001600160a01b0391909116815260200190565b60408051601f19818403018152908290526121e19291602001613412565b60408051601f19818403018152908290526121fb91613443565b6000604051808303816000865af19150503d8060008114612238576040519150601f19603f3d011682016040523d82523d6000602084013e61223d565b606091505b5091509150811561225f578080602001905181019061225c91906132b6565b92505b604080516001600160a01b038881166020830152600092839283928c16916303d290cf60e61b910160408051601f19818403018152908290526122a59291602001613412565b60408051601f19818403018152908290526122bf91613443565b6000604051808303816000865af19150503d80600081146122fc576040519150601f19603f3d011682016040523d82523d6000602084013e612301565b606091505b50915091508115612323578080602001905181019061232091906132b6565b92505b84158061232e575081155b156123fc57604080516001600160a01b038b811660208301526000928392918e1691631d7b33d760e01b910160408051601f19818403018152908290526123789291602001613412565b60408051601f198184030181529082905261239291613443565b6000604051808303816000865af19150503d80600081146123cf576040519150601f19603f3d011682016040523d82523d6000602084013e6123d4565b606091505b509150915081156123f957808060200190518101906123f391906132b6565b94508497505b50505b5093955093505050505b9250929050565b60008061241a84866138b2565b905082858210156117625760405162461bcd60e51b815260040161243e91906138c5565b60405180910390fd5b6000818484111561246b5760405162461bcd60e51b815260040161243e91906138c5565b50600061247884866138d8565b95945050505050565b60405163013cf08b60e01b8152600481018290526000906001600160a01b0384169063013cf08b9060240161014060405180830381865afa1580156124ca573d6000803e3d6000fd5b505050506040513d601f19601f820116820180604052508101906124ee91906138eb565b918452506020808201516001600160a01b03169084015260408082015190840152606081015160e08085019190915260808201516101008086019190915260a08301516101208087019190915260c0840151610140870152918301516101608601528201511515610180850152015115156101a09092019190915250565b600080600080600080600080896001600160a01b031663013cf08b8a6040518263ffffffff1660e01b81526004016125a691815260200190565b61012060405180830381865afa1580156125c4573d6000803e3d6000fd5b505050506040513d601f19601f820116820180604052508101906125e8919061398d565b9850985098509850985098509850985050888b6000018181525050878b602001906001600160a01b031690816001600160a01b031681525050868b6040018181525050858b60e0018181525050848b610100018181525050838b610120018181525050828b610140018181525050818b610160019015159081151581525050808b6101800190151590811515815250505050505050505050505050565b6040518060c0016040528060006001600160a01b0316815260200160008152602001600081526020016000815260200160008152602001600081525090565b60405180610220016040528060006001600160a01b0316815260200160008152602001600081526020016000815260200160008152602001600081526020016000815260200160008152602001600081526020016000151581526020016000815260200160006001600160a01b0316815260200160008152602001600081526020016000815260200160008152602001600081525090565b60008083601f84011261276e57600080fd5b5081356001600160401b0381111561278557600080fd5b6020830191508360208260051b850101111561240657600080fd5b6001600160a01b03811681146127b557600080fd5b50565b6000806000604084860312156127cd57600080fd5b83356001600160401b038111156127e357600080fd5b6127ef8682870161275c565b9094509250506020840135612803816127a0565b809150509250925092565b80516001600160a01b031682526020808201519083015260408082015190830152606080820151908301526080808201519083015260a090810151910152565b602080825282518282018190526000918401906040840190835b818110156128915761287b83855161280e565b6020939093019260c09290920191600101612868565b509095945050505050565b6000602082840312156128ae57600080fd5b81356103c3816127a0565b80516001600160a01b031682526020810151602083015260408101516040830152606081015160608301526080810151608083015260a081015160a083015260c081015160c083015260e081015160e083015261010081015161010083015261012081015161292d61012084018215159052565b506101408101516101408301526101608101516129566101608401826001600160a01b03169052565b506101808101516101808301526101a08101516101a08301526101c08101516101c08301526101e08101516101e08301526102008101516102008301525050565b6102208101610f8f82846128b9565b6000806000606084860312156129bb57600080fd5b83356129c6816127a0565b925060208401356129d6816127a0565b91506040840135612803816127a0565b600080602083850312156129f957600080fd5b82356001600160401b03811115612a0f57600080fd5b612a1b8582860161275c565b90969095509350505050565b602080825282518282018190526000918401906040840190835b8181101561289157612a6783855180516001600160a01b03168252602090810151910152565b6020939093019260409290920191600101612a41565b60008060408385031215612a9057600080fd5b8235612a9b816127a0565b91506020830135612aab816127a0565b809150509250929050565b634e487b7160e01b600052604160045260246000fd5b604051606081016001600160401b0381118282101715612aee57612aee612ab6565b60405290565b60405161014081016001600160401b0381118282101715612aee57612aee612ab6565b604051601f8201601f191681016001600160401b0381118282101715612b3f57612b3f612ab6565b604052919050565b60006001600160401b03821115612b6057612b60612ab6565b5060051b60200190565b600082601f830112612b7b57600080fd5b8135612b8e612b8982612b47565b612b17565b8082825260208201915060208360051b860101925085831115612bb057600080fd5b602085015b83811015611507578035835260209283019201612bb5565b600080600060608486031215612be257600080fd5b8335612bed816127a0565b92506020840135612bfd816127a0565b915060408401356001600160401b03811115612c1857600080fd5b612c2486828701612b6a565b9150509250925092565b602080825282518282018190526000918401906040840190835b818110156128915783518051845260208101511515602085015260ff60408201511660408501526001600160601b03606082015116606085015250608083019250602084019350600181019050612c48565b602080825282518282018190526000918401906040840190835b8181101561289157612cc78385516128b9565b602093909301926102209290920191600101612cb4565b60008060008060608587031215612cf457600080fd5b8435612cff816127a0565b93506020850135612d0f816127a0565b925060408501356001600160401b03811115612d2a57600080fd5b612d368782880161275c565b95989497509550505050565b602080825282518282018190526000918401906040840190835b81811015612891578351805184526020908101518185015290930192604090920191600101612d5c565b600080600060408486031215612d9b57600080fd5b8335612da6816127a0565b925060208401356001600160401b03811115612dc157600080fd5b612dcd8682870161275c565b9497909650939450505050565b600081518084526020840193506020830160005b82811015612e155781516001600160a01b0316865260209586019590910190600101612dee565b5093949350505050565b600081518084526020840193506020830160005b82811015612e15578151865260209586019590910190600101612e33565b60005b83811015612e6c578181015183820152602001612e54565b50506000910152565b60008151808452612e8d816020860160208601612e51565b601f01601f19169290920160200192915050565b600082825180855260208501945060208160051b8301016020850160005b83811015612ef157601f19858403018852612edb838351612e75565b6020988901989093509190910190600101612ebf565b50909695505050505050565b6000602082016020835280845180835260408501915060408160051b86010192506020860160005b8281101561304957603f198786030184528151805186526020810151612f5660208801826001600160a01b03169052565b506040810151604087015260608101516101c06060880152612f7c6101c0880182612dda565b905060808201518782036080890152612f958282612e1f565b91505060a082015187820360a0890152612faf8282612ea1565b91505060c082015187820360c0890152612fc98282612ea1565b91505060e082015160e088015261010082015161010088015261012082015161012088015261014082015161014088015261016082015161016088015261018082015161301b61018089018215159052565b506101a082015191506130336101a088018315159052565b9550506020938401939190910190600101612f25565b50929695505050505050565b602080825282516060838301528051608084018190526000929190910190829060a08501905b808310156130a65783516001600160a01b03168252602093840193600193909301929091019061307b565b50602086015160408601526040860151606086015280935050505092915050565b6000602082016020835280845180835260408501915060408160051b86010192506020860160005b8281101561304957603f19878603018452815180518652602081015161312060208801826001600160a01b03169052565b506040810151604087015260608101516101a060608801526131466101a0880182612dda565b90506080820151878203608089015261315f8282612e1f565b91505060a082015187820360a08901526131798282612ea1565b91505060c082015187820360c08901526131938282612ea1565b91505060e082015160e08801526101008201516101008801526101208201516101208801526101408201516101408801526101608201516131d961016089018215159052565b5061018082015191506131f161018088018315159052565b95505060209384019391909101906001016130ef565b602080825282518282018190526000918401906040840190835b81811015612891578351805184526020810151151560208501526040810151151560408501526001600160601b03606082015116606085015250608083019250602084019350600181019050613221565b60c08101610f8f828461280e565b81516001600160a01b031681526020808301519082015260408101610f8f565b634e487b7160e01b600052603260045260246000fd5b6000602082840312156132c857600080fd5b5051919050565b6000602082840312156132e157600080fd5b81516103c3816127a0565b805180151581146132fc57600080fd5b919050565b6000806040838503121561331457600080fd5b61331d836132ec565b6020939093015192949293505050565b6000806001600160401b0384111561334757613347612ab6565b50601f8301601f191660200161335c81612b17565b91505082815283838301111561337157600080fd5b6103c3836020830184612e51565b600082601f83011261339057600080fd5b6103c38383516020850161332d565b6000602082840312156133b157600080fd5b81516001600160401b038111156133c757600080fd5b6133d38482850161337f565b949350505050565b80516132fc816127a0565b805160ff811681146132fc57600080fd5b60006020828403121561340957600080fd5b6103c3826133e6565b6001600160e01b0319831681528151600090613435816004850160208701612e51565b919091016004019392505050565b60008251613455818460208701612e51565b9190910192915050565b80516001600160601b03811681146132fc57600080fd5b60006020828403121561348857600080fd5b6103c38261345f565b600060608284031280156134a457600080fd5b506134ad612acc565b6134b6836132ec565b81526134c4602084016133e6565b60208201526134d56040840161345f565b60408201529392505050565b6000602082840312156134f357600080fd5b813563ffffffff811681146103c357600080fd5b600082601f83011261351857600080fd5b8151613526612b8982612b47565b8082825260208201915060208360051b86010192508583111561354857600080fd5b602085015b8381101561150757805183526020928301920161354d565b600082601f83011261357657600080fd5b8151613584612b8982612b47565b8082825260208201915060208360051b8601019250858311156135a657600080fd5b602085015b838110156115075780516001600160401b038111156135c957600080fd5b6135d8886020838a010161337f565b845250602092830192016135ab565b600082601f8301126135f857600080fd5b8151613606612b8982612b47565b8082825260208201915060208360051b86010192508583111561362857600080fd5b602085015b838110156115075780516001600160401b0381111561364b57600080fd5b8601603f8101881361365c57600080fd5b61366e8860208301516040840161332d565b8452506020928301920161362d565b6000806000806080858703121561369357600080fd5b84516001600160401b038111156136a957600080fd5b8501601f810187136136ba57600080fd5b80516136c8612b8982612b47565b8082825260208201915060208360051b8501019250898311156136ea57600080fd5b6020840193505b82841015613715578351613704816127a0565b8252602093840193909101906136f1565b8097505050505060208501516001600160401b0381111561373557600080fd5b61374187828801613507565b93505060408501516001600160401b0381111561375d57600080fd5b61376987828801613565565b92505060608501516001600160401b0381111561378557600080fd5b613791878288016135e7565b91505092959194509250565b6000806000606084860312156137b257600080fd5b5050815160208301516040909301519094929350919050565b6000602082840312156137dd57600080fd5b81516001600160401b038111156137f357600080fd5b8201601f8101841361380457600080fd5b8051613812612b8982612b47565b8082825260208201915060208360051b85010192508683111561383457600080fd5b6020840193505b8284101561385f57835161384e816127a0565b82526020938401939091019061383b565b9695505050505050565b6000606082840312801561387c57600080fd5b50613885612acc565b61388e836132ec565b81526134c4602084016132ec565b634e487b7160e01b600052601160045260246000fd5b80820180821115610f8f57610f8f61389c565b6020815260006103c36020830184612e75565b81810381811115610f8f57610f8f61389c565b60006101408284031280156138ff57600080fd5b50600061390a612af4565b8351815261391a602085016133db565b602082015260408481015190820152606080850151908201526080808501519082015260a0808501519082015260c0808501519082015260e080850151908201819052915061396c61010085016132ec565b61010082015261397f61012085016132ec565b610120820152949350505050565b60008060008060008060008060006101208a8c0312156139ac57600080fd5b895160208b01519099506139bf816127a0565b60408b015160608c015160808d015160a08e015160c08f0151949c50929a509098509650945092506139f360e08b016132ec565b9150613a026101008b016132ec565b9050929598509295985092959856fea26469706673582212205ca8d9cf02a76970dcd9297ce2a1cbd0e3f448905f758f00a610f8612e6d96f264736f6c634300081b0033","linkReferences":{}},"methodIdentifiers":{"cTokenBalances(address,address)":"bdf950c9","cTokenBalancesAll(address[],address)":"0972bf8b","cTokenMetadata(address)":"158eca8b","cTokenMetadataAll(address[])":"4b70d84b","cTokenUnderlyingPrice(address)":"c5ae5934","cTokenUnderlyingPriceAll(address[])":"2b2d5ed6","getAccountLimits(address,address)":"7dd8f6d9","getCompBalanceMetadata(address,address)":"416405d7","getCompBalanceMetadataExt(address,address,address)":"1ea63741","getCompVotes(address,address,uint32[])":"59564219","getGovBravoProposals(address,uint256[])":"75d80e90","getGovBravoReceipts(address,address,uint256[])":"43c811cc","getGovProposals(address,uint256[])":"96994869","getGovReceipts(address,address,uint256[])":"995ed99f"},"id":49}