{"abi":[{"type":"function","name":"NO_ERROR","inputs":[],"outputs":[{"name":"","type":"uint256","internalType":"uint256"}],"stateMutability":"view"},{"type":"function","name":"_acceptAdmin","inputs":[],"outputs":[{"name":"","type":"uint256","internalType":"uint256"}],"stateMutability":"nonpayable"},{"type":"function","name":"_addReserves","inputs":[{"name":"addAmount","type":"uint256","internalType":"uint256"}],"outputs":[{"name":"","type":"uint256","internalType":"uint256"}],"stateMutability":"nonpayable"},{"type":"function","name":"_becomeImplementation","inputs":[{"name":"data","type":"bytes","internalType":"bytes"}],"outputs":[],"stateMutability":"nonpayable"},{"type":"function","name":"_delegateCompLikeTo","inputs":[{"name":"compLikeDelegatee","type":"address","internalType":"address"}],"outputs":[],"stateMutability":"nonpayable"},{"type":"function","name":"_reduceReserves","inputs":[{"name":"reduceAmount","type":"uint256","internalType":"uint256"}],"outputs":[{"name":"","type":"uint256","internalType":"uint256"}],"stateMutability":"nonpayable"},{"type":"function","name":"_resignImplementation","inputs":[],"outputs":[],"stateMutability":"nonpayable"},{"type":"function","name":"_setComptroller","inputs":[{"name":"newComptroller","type":"address","internalType":"contract ComptrollerInterface"}],"outputs":[{"name":"","type":"uint256","internalType":"uint256"}],"stateMutability":"nonpayable"},{"type":"function","name":"_setInterestRateModel","inputs":[{"name":"newInterestRateModel","type":"address","internalType":"contract InterestRateModel"}],"outputs":[{"name":"","type":"uint256","internalType":"uint256"}],"stateMutability":"nonpayable"},{"type":"function","name":"_setPendingAdmin","inputs":[{"name":"newPendingAdmin","type":"address","internalType":"address payable"}],"outputs":[{"name":"","type":"uint256","internalType":"uint256"}],"stateMutability":"nonpayable"},{"type":"function","name":"_setReserveFactor","inputs":[{"name":"newReserveFactorMantissa","type":"uint256","internalType":"uint256"}],"outputs":[{"name":"","type":"uint256","internalType":"uint256"}],"stateMutability":"nonpayable"},{"type":"function","name":"accrualBlockNumber","inputs":[],"outputs":[{"name":"","type":"uint256","internalType":"uint256"}],"stateMutability":"view"},{"type":"function","name":"accrueInterest","inputs":[],"outputs":[{"name":"","type":"uint256","internalType":"uint256"}],"stateMutability":"nonpayable"},{"type":"function","name":"admin","inputs":[],"outputs":[{"name":"","type":"address","internalType":"address payable"}],"stateMutability":"view"},{"type":"function","name":"allowance","inputs":[{"name":"owner","type":"address","internalType":"address"},{"name":"spender","type":"address","internalType":"address"}],"outputs":[{"name":"","type":"uint256","internalType":"uint256"}],"stateMutability":"view"},{"type":"function","name":"approve","inputs":[{"name":"spender","type":"address","internalType":"address"},{"name":"amount","type":"uint256","internalType":"uint256"}],"outputs":[{"name":"","type":"bool","internalType":"bool"}],"stateMutability":"nonpayable"},{"type":"function","name":"balanceOf","inputs":[{"name":"owner","type":"address","internalType":"address"}],"outputs":[{"name":"","type":"uint256","internalType":"uint256"}],"stateMutability":"view"},{"type":"function","name":"balanceOfUnderlying","inputs":[{"name":"owner","type":"address","internalType":"address"}],"outputs":[{"name":"","type":"uint256","internalType":"uint256"}],"stateMutability":"nonpayable"},{"type":"function","name":"borrow","inputs":[{"name":"borrowAmount","type":"uint256","internalType":"uint256"}],"outputs":[{"name":"","type":"uint256","internalType":"uint256"}],"stateMutability":"nonpayable"},{"type":"function","name":"borrowBalanceCurrent","inputs":[{"name":"account","type":"address","internalType":"address"}],"outputs":[{"name":"","type":"uint256","internalType":"uint256"}],"stateMutability":"nonpayable"},{"type":"function","name":"borrowBalanceStored","inputs":[{"name":"account","type":"address","internalType":"address"}],"outputs":[{"name":"","type":"uint256","internalType":"uint256"}],"stateMutability":"view"},{"type":"function","name":"borrowIndex","inputs":[],"outputs":[{"name":"","type":"uint256","internalType":"uint256"}],"stateMutability":"view"},{"type":"function","name":"borrowRatePerBlock","inputs":[],"outputs":[{"name":"","type":"uint256","internalType":"uint256"}],"stateMutability":"view"},{"type":"function","name":"comptroller","inputs":[],"outputs":[{"name":"","type":"address","internalType":"contract ComptrollerInterface"}],"stateMutability":"view"},{"type":"function","name":"daiJoinAddress","inputs":[],"outputs":[{"name":"","type":"address","internalType":"address"}],"stateMutability":"view"},{"type":"function","name":"decimals","inputs":[],"outputs":[{"name":"","type":"uint8","internalType":"uint8"}],"stateMutability":"view"},{"type":"function","name":"exchangeRateCurrent","inputs":[],"outputs":[{"name":"","type":"uint256","internalType":"uint256"}],"stateMutability":"nonpayable"},{"type":"function","name":"exchangeRateStored","inputs":[],"outputs":[{"name":"","type":"uint256","internalType":"uint256"}],"stateMutability":"view"},{"type":"function","name":"getAccountSnapshot","inputs":[{"name":"account","type":"address","internalType":"address"}],"outputs":[{"name":"","type":"uint256","internalType":"uint256"},{"name":"","type":"uint256","internalType":"uint256"},{"name":"","type":"uint256","internalType":"uint256"},{"name":"","type":"uint256","internalType":"uint256"}],"stateMutability":"view"},{"type":"function","name":"getCash","inputs":[],"outputs":[{"name":"","type":"uint256","internalType":"uint256"}],"stateMutability":"view"},{"type":"function","name":"implementation","inputs":[],"outputs":[{"name":"","type":"address","internalType":"address"}],"stateMutability":"view"},{"type":"function","name":"initialize","inputs":[{"name":"underlying_","type":"address","internalType":"address"},{"name":"comptroller_","type":"address","internalType":"contract ComptrollerInterface"},{"name":"interestRateModel_","type":"address","internalType":"contract InterestRateModel"},{"name":"initialExchangeRateMantissa_","type":"uint256","internalType":"uint256"},{"name":"name_","type":"string","internalType":"string"},{"name":"symbol_","type":"string","internalType":"string"},{"name":"decimals_","type":"uint8","internalType":"uint8"}],"outputs":[],"stateMutability":"nonpayable"},{"type":"function","name":"initialize","inputs":[{"name":"comptroller_","type":"address","internalType":"contract ComptrollerInterface"},{"name":"interestRateModel_","type":"address","internalType":"contract InterestRateModel"},{"name":"initialExchangeRateMantissa_","type":"uint256","internalType":"uint256"},{"name":"name_","type":"string","internalType":"string"},{"name":"symbol_","type":"string","internalType":"string"},{"name":"decimals_","type":"uint8","internalType":"uint8"}],"outputs":[],"stateMutability":"nonpayable"},{"type":"function","name":"interestRateModel","inputs":[],"outputs":[{"name":"","type":"address","internalType":"contract InterestRateModel"}],"stateMutability":"view"},{"type":"function","name":"isCToken","inputs":[],"outputs":[{"name":"","type":"bool","internalType":"bool"}],"stateMutability":"view"},{"type":"function","name":"liquidateBorrow","inputs":[{"name":"borrower","type":"address","internalType":"address"},{"name":"repayAmount","type":"uint256","internalType":"uint256"},{"name":"cTokenCollateral","type":"address","internalType":"contract CTokenInterface"}],"outputs":[{"name":"","type":"uint256","internalType":"uint256"}],"stateMutability":"nonpayable"},{"type":"function","name":"mint","inputs":[{"name":"mintAmount","type":"uint256","internalType":"uint256"}],"outputs":[{"name":"","type":"uint256","internalType":"uint256"}],"stateMutability":"nonpayable"},{"type":"function","name":"name","inputs":[],"outputs":[{"name":"","type":"string","internalType":"string"}],"stateMutability":"view"},{"type":"function","name":"pendingAdmin","inputs":[],"outputs":[{"name":"","type":"address","internalType":"address payable"}],"stateMutability":"view"},{"type":"function","name":"potAddress","inputs":[],"outputs":[{"name":"","type":"address","internalType":"address"}],"stateMutability":"view"},{"type":"function","name":"protocolSeizeShareMantissa","inputs":[],"outputs":[{"name":"","type":"uint256","internalType":"uint256"}],"stateMutability":"view"},{"type":"function","name":"redeem","inputs":[{"name":"redeemTokens","type":"uint256","internalType":"uint256"}],"outputs":[{"name":"","type":"uint256","internalType":"uint256"}],"stateMutability":"nonpayable"},{"type":"function","name":"redeemUnderlying","inputs":[{"name":"redeemAmount","type":"uint256","internalType":"uint256"}],"outputs":[{"name":"","type":"uint256","internalType":"uint256"}],"stateMutability":"nonpayable"},{"type":"function","name":"repayBorrow","inputs":[{"name":"repayAmount","type":"uint256","internalType":"uint256"}],"outputs":[{"name":"","type":"uint256","internalType":"uint256"}],"stateMutability":"nonpayable"},{"type":"function","name":"repayBorrowBehalf","inputs":[{"name":"borrower","type":"address","internalType":"address"},{"name":"repayAmount","type":"uint256","internalType":"uint256"}],"outputs":[{"name":"","type":"uint256","internalType":"uint256"}],"stateMutability":"nonpayable"},{"type":"function","name":"reserveFactorMantissa","inputs":[],"outputs":[{"name":"","type":"uint256","internalType":"uint256"}],"stateMutability":"view"},{"type":"function","name":"seize","inputs":[{"name":"liquidator","type":"address","internalType":"address"},{"name":"borrower","type":"address","internalType":"address"},{"name":"seizeTokens","type":"uint256","internalType":"uint256"}],"outputs":[{"name":"","type":"uint256","internalType":"uint256"}],"stateMutability":"nonpayable"},{"type":"function","name":"supplyRatePerBlock","inputs":[],"outputs":[{"name":"","type":"uint256","internalType":"uint256"}],"stateMutability":"view"},{"type":"function","name":"sweepToken","inputs":[{"name":"token","type":"address","internalType":"contract EIP20NonStandardInterface"}],"outputs":[],"stateMutability":"nonpayable"},{"type":"function","name":"symbol","inputs":[],"outputs":[{"name":"","type":"string","internalType":"string"}],"stateMutability":"view"},{"type":"function","name":"totalBorrows","inputs":[],"outputs":[{"name":"","type":"uint256","internalType":"uint256"}],"stateMutability":"view"},{"type":"function","name":"totalBorrowsCurrent","inputs":[],"outputs":[{"name":"","type":"uint256","internalType":"uint256"}],"stateMutability":"nonpayable"},{"type":"function","name":"totalReserves","inputs":[],"outputs":[{"name":"","type":"uint256","internalType":"uint256"}],"stateMutability":"view"},{"type":"function","name":"totalSupply","inputs":[],"outputs":[{"name":"","type":"uint256","internalType":"uint256"}],"stateMutability":"view"},{"type":"function","name":"transfer","inputs":[{"name":"dst","type":"address","internalType":"address"},{"name":"amount","type":"uint256","internalType":"uint256"}],"outputs":[{"name":"","type":"bool","internalType":"bool"}],"stateMutability":"nonpayable"},{"type":"function","name":"transferFrom","inputs":[{"name":"src","type":"address","internalType":"address"},{"name":"dst","type":"address","internalType":"address"},{"name":"amount","type":"uint256","internalType":"uint256"}],"outputs":[{"name":"","type":"bool","internalType":"bool"}],"stateMutability":"nonpayable"},{"type":"function","name":"underlying","inputs":[],"outputs":[{"name":"","type":"address","internalType":"address"}],"stateMutability":"view"},{"type":"function","name":"vatAddress","inputs":[],"outputs":[{"name":"","type":"address","internalType":"address"}],"stateMutability":"view"},{"type":"event","name":"AccrueInterest","inputs":[{"name":"cashPrior","type":"uint256","indexed":false,"internalType":"uint256"},{"name":"interestAccumulated","type":"uint256","indexed":false,"internalType":"uint256"},{"name":"borrowIndex","type":"uint256","indexed":false,"internalType":"uint256"},{"name":"totalBorrows","type":"uint256","indexed":false,"internalType":"uint256"}],"anonymous":false},{"type":"event","name":"Approval","inputs":[{"name":"owner","type":"address","indexed":true,"internalType":"address"},{"name":"spender","type":"address","indexed":true,"internalType":"address"},{"name":"amount","type":"uint256","indexed":false,"internalType":"uint256"}],"anonymous":false},{"type":"event","name":"Borrow","inputs":[{"name":"borrower","type":"address","indexed":false,"internalType":"address"},{"name":"borrowAmount","type":"uint256","indexed":false,"internalType":"uint256"},{"name":"accountBorrows","type":"uint256","indexed":false,"internalType":"uint256"},{"name":"totalBorrows","type":"uint256","indexed":false,"internalType":"uint256"}],"anonymous":false},{"type":"event","name":"LiquidateBorrow","inputs":[{"name":"liquidator","type":"address","indexed":false,"internalType":"address"},{"name":"borrower","type":"address","indexed":false,"internalType":"address"},{"name":"repayAmount","type":"uint256","indexed":false,"internalType":"uint256"},{"name":"cTokenCollateral","type":"address","indexed":false,"internalType":"address"},{"name":"seizeTokens","type":"uint256","indexed":false,"internalType":"uint256"}],"anonymous":false},{"type":"event","name":"Mint","inputs":[{"name":"minter","type":"address","indexed":false,"internalType":"address"},{"name":"mintAmount","type":"uint256","indexed":false,"internalType":"uint256"},{"name":"mintTokens","type":"uint256","indexed":false,"internalType":"uint256"}],"anonymous":false},{"type":"event","name":"NewAdmin","inputs":[{"name":"oldAdmin","type":"address","indexed":false,"internalType":"address"},{"name":"newAdmin","type":"address","indexed":false,"internalType":"address"}],"anonymous":false},{"type":"event","name":"NewComptroller","inputs":[{"name":"oldComptroller","type":"address","indexed":false,"internalType":"contract ComptrollerInterface"},{"name":"newComptroller","type":"address","indexed":false,"internalType":"contract ComptrollerInterface"}],"anonymous":false},{"type":"event","name":"NewMarketInterestRateModel","inputs":[{"name":"oldInterestRateModel","type":"address","indexed":false,"internalType":"contract InterestRateModel"},{"name":"newInterestRateModel","type":"address","indexed":false,"internalType":"contract InterestRateModel"}],"anonymous":false},{"type":"event","name":"NewPendingAdmin","inputs":[{"name":"oldPendingAdmin","type":"address","indexed":false,"internalType":"address"},{"name":"newPendingAdmin","type":"address","indexed":false,"internalType":"address"}],"anonymous":false},{"type":"event","name":"NewReserveFactor","inputs":[{"name":"oldReserveFactorMantissa","type":"uint256","indexed":false,"internalType":"uint256"},{"name":"newReserveFactorMantissa","type":"uint256","indexed":false,"internalType":"uint256"}],"anonymous":false},{"type":"event","name":"Redeem","inputs":[{"name":"redeemer","type":"address","indexed":false,"internalType":"address"},{"name":"redeemAmount","type":"uint256","indexed":false,"internalType":"uint256"},{"name":"redeemTokens","type":"uint256","indexed":false,"internalType":"uint256"}],"anonymous":false},{"type":"event","name":"RepayBorrow","inputs":[{"name":"payer","type":"address","indexed":false,"internalType":"address"},{"name":"borrower","type":"address","indexed":false,"internalType":"address"},{"name":"repayAmount","type":"uint256","indexed":false,"internalType":"uint256"},{"name":"accountBorrows","type":"uint256","indexed":false,"internalType":"uint256"},{"name":"totalBorrows","type":"uint256","indexed":false,"internalType":"uint256"}],"anonymous":false},{"type":"event","name":"ReservesAdded","inputs":[{"name":"benefactor","type":"address","indexed":false,"internalType":"address"},{"name":"addAmount","type":"uint256","indexed":false,"internalType":"uint256"},{"name":"newTotalReserves","type":"uint256","indexed":false,"internalType":"uint256"}],"anonymous":false},{"type":"event","name":"ReservesReduced","inputs":[{"name":"admin","type":"address","indexed":false,"internalType":"address"},{"name":"reduceAmount","type":"uint256","indexed":false,"internalType":"uint256"},{"name":"newTotalReserves","type":"uint256","indexed":false,"internalType":"uint256"}],"anonymous":false},{"type":"event","name":"Transfer","inputs":[{"name":"from","type":"address","indexed":true,"internalType":"address"},{"name":"to","type":"address","indexed":true,"internalType":"address"},{"name":"amount","type":"uint256","indexed":false,"internalType":"uint256"}],"anonymous":false},{"type":"error","name":"AcceptAdminPendingAdminCheck","inputs":[]},{"type":"error","name":"AddReservesFactorFreshCheck","inputs":[{"name":"actualAddAmount","type":"uint256","internalType":"uint256"}]},{"type":"error","name":"BorrowCashNotAvailable","inputs":[]},{"type":"error","name":"BorrowComptrollerRejection","inputs":[{"name":"errorCode","type":"uint256","internalType":"uint256"}]},{"type":"error","name":"BorrowFreshnessCheck","inputs":[]},{"type":"error","name":"LiquidateAccrueBorrowInterestFailed","inputs":[{"name":"errorCode","type":"uint256","internalType":"uint256"}]},{"type":"error","name":"LiquidateAccrueCollateralInterestFailed","inputs":[{"name":"errorCode","type":"uint256","internalType":"uint256"}]},{"type":"error","name":"LiquidateCloseAmountIsUintMax","inputs":[]},{"type":"error","name":"LiquidateCloseAmountIsZero","inputs":[]},{"type":"error","name":"LiquidateCollateralFreshnessCheck","inputs":[]},{"type":"error","name":"LiquidateComptrollerRejection","inputs":[{"name":"errorCode","type":"uint256","internalType":"uint256"}]},{"type":"error","name":"LiquidateFreshnessCheck","inputs":[]},{"type":"error","name":"LiquidateLiquidatorIsBorrower","inputs":[]},{"type":"error","name":"LiquidateRepayBorrowFreshFailed","inputs":[{"name":"errorCode","type":"uint256","internalType":"uint256"}]},{"type":"error","name":"LiquidateSeizeComptrollerRejection","inputs":[{"name":"errorCode","type":"uint256","internalType":"uint256"}]},{"type":"error","name":"LiquidateSeizeLiquidatorIsBorrower","inputs":[]},{"type":"error","name":"MintComptrollerRejection","inputs":[{"name":"errorCode","type":"uint256","internalType":"uint256"}]},{"type":"error","name":"MintFreshnessCheck","inputs":[]},{"type":"error","name":"RedeemComptrollerRejection","inputs":[{"name":"errorCode","type":"uint256","internalType":"uint256"}]},{"type":"error","name":"RedeemFreshnessCheck","inputs":[]},{"type":"error","name":"RedeemTransferOutNotPossible","inputs":[]},{"type":"error","name":"ReduceReservesAdminCheck","inputs":[]},{"type":"error","name":"ReduceReservesCashNotAvailable","inputs":[]},{"type":"error","name":"ReduceReservesCashValidation","inputs":[]},{"type":"error","name":"ReduceReservesFreshCheck","inputs":[]},{"type":"error","name":"RepayBorrowComptrollerRejection","inputs":[{"name":"errorCode","type":"uint256","internalType":"uint256"}]},{"type":"error","name":"RepayBorrowFreshnessCheck","inputs":[]},{"type":"error","name":"SetComptrollerOwnerCheck","inputs":[]},{"type":"error","name":"SetInterestRateModelFreshCheck","inputs":[]},{"type":"error","name":"SetInterestRateModelOwnerCheck","inputs":[]},{"type":"error","name":"SetPendingAdminOwnerCheck","inputs":[]},{"type":"error","name":"SetReserveFactorAdminCheck","inputs":[]},{"type":"error","name":"SetReserveFactorBoundsCheck","inputs":[]},{"type":"error","name":"SetReserveFactorFreshCheck","inputs":[]},{"type":"error","name":"TransferComptrollerRejection","inputs":[{"name":"errorCode","type":"uint256","internalType":"uint256"}]},{"type":"error","name":"TransferNotAllowed","inputs":[]},{"type":"error","name":"TransferNotEnough","inputs":[]},{"type":"error","name":"TransferTooMuch","inputs":[]}],"bytecode":{"object":"0x6080604052348015600f57600080fd5b506145278061001f6000396000f3fe608060405234801561001057600080fd5b506004361061038e5760003560e01c806373acee98116101de578063b2a02ff11161010f578063e9c714f2116100ad578063f851a4401161007c578063f851a44014610791578063f8f9da28146107a9578063fca7820b146107b1578063fe9c44ae146107c457600080fd5b8063e9c714f214610750578063f2b3abbd14610758578063f3fdb15a1461076b578063f5e3c4621461077e57600080fd5b8063c37f68e2116100e9578063c37f68e2146106be578063c5ebeaec146106f1578063db006a7514610704578063dd62ed3e1461071757600080fd5b8063b2a02ff114610690578063b71d1a0c146106a3578063bd6d894d146106b657600080fd5b806395dd91931161017c578063a6afed9511610156578063a6afed9514610664578063a9059cbb1461066c578063aa5af0fd1461067f578063ae9d70b01461068857600080fd5b806395dd91931461062b57806399d8c1b41461063e578063a0712d681461065157600080fd5b80638a8df2e6116101b85780638a8df2e6146105f45780638d925ccd146106075780638f840ddd1461061a57806395d89b411461062357600080fd5b806373acee98146105c65780637f1e06be146105ce578063852a12e3146105e157600080fd5b80633af9e669116102c35780635fe3b5671161026157806369ab32501161023057806369ab3250146105795780636c540baf146105815780636f307dc31461058a57806370a082311461059d57600080fd5b80635fe3b56714610532578063601a0bf11461054557806366ced602146105585780636752e7021461056b57600080fd5b80634576b5db1161029d5780634576b5db146104f057806347bd37181461050357806356e677281461050c5780635c60da1b1461051f57600080fd5b80633af9e669146104c25780633b1d21a2146104d55780633e941010146104dd57600080fd5b8063182df0f51161033057806323b872dd1161030a57806323b872dd146104525780632608f818146104655780632678224714610478578063313ce567146104a357600080fd5b8063182df0f5146104245780631a31d4651461042c5780631be195601461043f57600080fd5b8063153ab5051161036c578063153ab505146103f5578063173b9904146103ff57806317bfdfbc1461040857806318160ddd1461041b57600080fd5b806306fdde0314610393578063095ea7b3146103b15780630e752702146103d4575b600080fd5b61039b6107cc565b6040516103a89190613e13565b60405180910390f35b6103c46103bf366004613e79565b61085a565b60405190151581526020016103a8565b6103e76103e2366004613ea5565b6108ca565b6040519081526020016103a8565b6103fd6108dd565b005b6103e760085481565b6103e7610416366004613ebe565b610b98565b6103e7600d5481565b6103e7610beb565b6103fd61043a366004613fa1565b610bfa565b6103fd61044d366004613ebe565b610c8f565b6103c461046036600461405c565b610e5b565b6103e7610473366004613e79565b610eab565b60045461048b906001600160a01b031681565b6040516001600160a01b0390911681526020016103a8565b6003546104b09060ff1681565b60405160ff90911681526020016103a8565b6103e76104d0366004613ebe565b610ec0565b6103e7610f06565b6103e76104eb366004613ea5565b610f10565b6103e76104fe366004613ebe565b610f1b565b6103e7600b5481565b6103fd61051a36600461409d565b61106d565b60125461048b906001600160a01b031681565b60055461048b906001600160a01b031681565b6103e7610553366004613ea5565b61110f565b60145461048b906001600160a01b031681565b6103e7666379da05b6000081565b6103e7600081565b6103e760095481565b60115461048b906001600160a01b031681565b6103e76105ab366004613ebe565b6001600160a01b03166000908152600e602052604090205490565b6103e761114e565b6103fd6105dc366004613ebe565b611198565b6103e76105ef366004613ea5565b61126f565b60135461048b906001600160a01b031681565b60155461048b906001600160a01b031681565b6103e7600c5481565b61039b61127a565b6103e7610639366004613ebe565b611287565b6103fd61064c3660046140e6565b611292565b6103e761065f366004613ea5565b6114df565b6103e76114ea565b6103c461067a366004613e79565b611562565b6103e7600a5481565b6103e76115b1565b6103e761069e36600461405c565b611649565b6103e76106b1366004613ebe565b611698565b6103e7611725565b6106d16106cc366004613ebe565b611775565b6040805194855260208501939093529183015260608201526080016103a8565b6103e76106ff366004613ea5565b6117b6565b6103e7610712366004613ea5565b6117c1565b6103e761072536600461418d565b6001600160a01b039182166000908152600f6020908152604080832093909416825291909152205490565b6103e76117cc565b6103e7610766366004613ebe565b6118d3565b60065461048b906001600160a01b031681565b6103e761078c3660046141c6565b6118e7565b60035461048b9061010090046001600160a01b031681565b6103e76118fe565b6103e76107bf366004613ea5565b611951565b6103c4600181565b600180546107d990614208565b80601f016020809104026020016040519081016040528092919081815260200182805461080590614208565b80156108525780601f1061082757610100808354040283529160200191610852565b820191906000526020600020905b81548152906001019060200180831161083557829003601f168201915b505050505081565b336000818152600f602090815260408083206001600160a01b03871680855292528083208590555191929182907f8c5be1e5ebec7d5bd14f71427d1e84f3dd0314c0f7b2291e5b200ac8c7c3b925906108b69087815260200190565b60405180910390a360019150505b92915050565b60006108d582611990565b506000919050565b60035461010090046001600160a01b031633146109575760405162461bcd60e51b815260206004820152602d60248201527f6f6e6c79207468652061646d696e206d6179206162616e646f6e20746865206960448201526c36b83632b6b2b73a30ba34b7b760991b60648201526084015b60405180910390fd5b60135460145460155460408051634fb3c66560e11b815290516001600160a01b039485169493841693909216918391639f678cca91600480830192602092919082900301816000875af11580156109b2573d6000803e3d6000fd5b505050506040513d601f19601f820116820180604052508101906109d69190614242565b506040516305f5d64360e11b81523060048201526000906001600160a01b03841690630bebac8690602401602060405180830381865afa158015610a1e573d6000803e3d6000fd5b505050506040513d601f19601f82011682018060405250810190610a429190614242565b604051637f8661a160e01b8152600481018290529091506001600160a01b03841690637f8661a190602401600060405180830381600087803b158015610a8757600080fd5b505af1158015610a9b573d6000803e3d6000fd5b5050604051633612d9a360e11b8152306004820152600092506001600160a01b0385169150636c25b34690602401602060405180830381865afa158015610ae6573d6000803e3d6000fd5b505050506040513d601f19601f82011682018060405250810190610b0a9190614242565b90506001600160a01b03851663ef693bed30610b326b033b2e3c9fd0803ce800000085614271565b6040516001600160e01b031960e085901b1681526001600160a01b03909216600483015260248201526044015b600060405180830381600087803b158015610b7957600080fd5b505af1158015610b8d573d6000803e3d6000fd5b505050505050505050565b6000805460ff16610bbb5760405162461bcd60e51b815260040161094e90614293565b6000805460ff19169055610bcd6114ea565b50610bd782611287565b90506000805460ff19166001179055919050565b6000610bf56119e1565b905090565b610c08868686868686611292565b601180546001600160a01b0319166001600160a01b038916908117909155604080516318160ddd60e01b815290516318160ddd916004808201926020929091908290030181865afa158015610c61573d6000803e3d6000fd5b505050506040513d601f19601f82011682018060405250810190610c859190614242565b5050505050505050565b60035461010090046001600160a01b03163314610d065760405162461bcd60e51b815260206004820152602f60248201527f4345726332303a3a7377656570546f6b656e3a206f6e6c792061646d696e206360448201526e616e20737765657020746f6b656e7360881b606482015260840161094e565b6011546001600160a01b0390811690821603610d7f5760405162461bcd60e51b815260206004820152603260248201527f4345726332303a3a7377656570546f6b656e3a2063616e206e6f74207377656560448201527138103ab73232b9363cb4b733903a37b5b2b760711b606482015260840161094e565b6040516370a0823160e01b81523060048201526000906001600160a01b038316906370a0823190602401602060405180830381865afa158015610dc6573d6000803e3d6000fd5b505050506040513d601f19601f82011682018060405250810190610dea9190614242565b60035460405163a9059cbb60e01b81526001600160a01b03610100909204821660048201526024810183905291925083169063a9059cbb90604401600060405180830381600087803b158015610e3f57600080fd5b505af1158015610e53573d6000803e3d6000fd5b505050505050565b6000805460ff16610e7e5760405162461bcd60e51b815260040161094e90614293565b6000805460ff19168155610e9433868686611a49565b1490506000805460ff191660011790559392505050565b6000610eb78383611c75565b50600092915050565b6000806040518060200160405280610ed6611725565b90526001600160a01b0384166000908152600e6020526040902054909150610eff908290611cc7565b9392505050565b6000610bf5611ce7565b60006108c482611de3565b60035460009061010090046001600160a01b03163314610f4e5760405163d219dc1f60e01b815260040160405180910390fd5b60055460408051623f1ee960e11b815290516001600160a01b0392831692851691627e3dd29160048083019260209291908290030181865afa158015610f98573d6000803e3d6000fd5b505050506040513d601f19601f82011682018060405250810190610fbc91906142b7565b6110085760405162461bcd60e51b815260206004820152601c60248201527f6d61726b6572206d6574686f642072657475726e65642066616c736500000000604482015260640161094e565b600580546001600160a01b0319166001600160a01b0385811691821790925560408051928416835260208301919091527f7ac369dbd14fa5ea3f473ed67cc9d598964a77501540ba6751eb0b3decf5870d91015b60405180910390a150600092915050565b60035461010090046001600160a01b031633146110e55760405162461bcd60e51b815260206004820152603060248201527f6f6e6c79207468652061646d696e206d617920696e697469616c697a6520746860448201526f329034b6b83632b6b2b73a30ba34b7b760811b606482015260840161094e565b600080828060200190518101906110fc91906142d9565b9150915061110a8282611e3a565b505050565b6000805460ff166111325760405162461bcd60e51b815260040161094e90614293565b6000805460ff191690556111446114ea565b50610bd78261214b565b6000805460ff166111715760405162461bcd60e51b815260040161094e90614293565b6000805460ff191690556111836114ea565b5050600b546000805460ff1916600117905590565b60035461010090046001600160a01b0316331461120d5760405162461bcd60e51b815260206004820152602d60248201527f6f6e6c79207468652061646d696e206d6179207365742074686520636f6d702d60448201526c6c696b652064656c656761746560981b606482015260840161094e565b6011546040516317066a5760e21b81526001600160a01b03838116600483015290911690635c19a95c90602401600060405180830381600087803b15801561125457600080fd5b505af1158015611268573d6000803e3d6000fd5b5050505050565b60006108d582612266565b600280546107d990614208565b60006108c4826122b7565b60035461010090046001600160a01b031633146112fd5760405162461bcd60e51b8152602060048201526024808201527f6f6e6c792061646d696e206d617920696e697469616c697a6520746865206d616044820152631c9ad95d60e21b606482015260840161094e565b60095415801561130d5750600a54155b6113655760405162461bcd60e51b815260206004820152602360248201527f6d61726b6574206d6179206f6e6c7920626520696e697469616c697a6564206f6044820152626e636560e81b606482015260840161094e565b6007849055836113d05760405162461bcd60e51b815260206004820152603060248201527f696e697469616c2065786368616e67652072617465206d75737420626520677260448201526f32b0ba32b9103a3430b7103d32b9379760811b606482015260840161094e565b60006113db87610f1b565b9050801561142b5760405162461bcd60e51b815260206004820152601a60248201527f73657474696e6720636f6d7074726f6c6c6572206661696c6564000000000000604482015260640161094e565b43600955670de0b6b3a7640000600a5561144486612303565b9050801561149f5760405162461bcd60e51b815260206004820152602260248201527f73657474696e6720696e7465726573742072617465206d6f64656c206661696c604482015261195960f21b606482015260840161094e565b60016114ab858261434f565b5060026114b8848261434f565b50506003805460ff90921660ff199283161790556000805490911660011790555050505050565b60006108d582612478565b60145460408051634fb3c66560e11b815290516000926001600160a01b031691639f678cca916004808301926020929190829003018187875af1158015611535573d6000803e3d6000fd5b505050506040513d601f19601f820116820180604052508101906115599190614242565b50610bf56124b7565b6000805460ff166115855760405162461bcd60e51b815260040161094e90614293565b6000805460ff1916815561159b33808686611a49565b1490506000805460ff1916600117905592915050565b6006546000906001600160a01b031663b81688166115cd611ce7565b600b54600c546008546040516001600160e01b031960e087901b16815260048101949094526024840192909252604483015260648201526084015b602060405180830381865afa158015611625573d6000803e3d6000fd5b505050506040513d601f19601f82011682018060405250810190610bf59190614242565b6000805460ff1661166c5760405162461bcd60e51b815260040161094e90614293565b6000805460ff19169055611682338585856126a4565b50600080805460ff191660011790559392505050565b60035460009061010090046001600160a01b031633146116cb57604051635cb56c2b60e01b815260040160405180910390fd5b600480546001600160a01b038481166001600160a01b031983168117909355604080519190921680825260208201939093527fca4f2f25d0898edd99413412fb94012f9e54ec8142f9b093e7720646a95b16a9910161105c565b6000805460ff166117485760405162461bcd60e51b815260040161094e90614293565b6000805460ff1916905561175a6114ea565b50611763610beb565b90506000805460ff1916600117905590565b6001600160a01b0381166000908152600e6020526040812054819081908190819061179f876122b7565b6117a76119e1565b93509350935093509193509193565b60006108d58261291c565b60006108d58261295b565b6004546000906001600160a01b0316331415806117e7575033155b1561180557604051631ba24f2960e21b815260040160405180910390fd5b60038054600480546001600160a01b03808216610100818102610100600160a81b0319871617968790556001600160a01b031990931690935560408051948390048216808652929095041660208401529290917ff9ffabca9c8276e99321725bcb43fb076a6c66a54b7f21c4e8146d8519b417dc910160405180910390a1600454604080516001600160a01b03808516825290921660208301527fca4f2f25d0898edd99413412fb94012f9e54ec8142f9b093e7720646a95b16a9910160405180910390a160009250505090565b60006118dd6114ea565b506108c482612303565b60006118f484848461299c565b5060009392505050565b6006546000906001600160a01b03166315f2405361191a611ce7565b600b54600c546040516001600160e01b031960e086901b168152600481019390935260248301919091526044820152606401611608565b6000805460ff166119745760405162461bcd60e51b815260040161094e90614293565b6000805460ff191690556119866114ea565b50610bd782612a7a565b60005460ff166119b25760405162461bcd60e51b815260040161094e90614293565b6000805460ff191690556119c46114ea565b506119d0333383612b36565b50506000805460ff19166001179055565b600d546000908082036119f657505060075490565b6000611a00611ce7565b90506000600c54600b5483611a15919061440e565b611a1f9190614421565b9050600083611a36670de0b6b3a764000084614434565b611a409190614271565b95945050505050565b6005546040516317b9b84b60e31b81523060048201526001600160a01b038581166024830152848116604483015260648201849052600092839291169063bdcdc258906084016020604051808303816000875af1158015611aae573d6000803e3d6000fd5b505050506040513d601f19601f82011682018060405250810190611ad29190614242565b90508015611af65760405163089d427760e11b81526004810182905260240161094e565b836001600160a01b0316856001600160a01b031603611b2857604051638cd22d1960e01b815260040160405180910390fd5b6000856001600160a01b0316876001600160a01b031603611b4c5750600019611b74565b506001600160a01b038086166000908152600f60209081526040808320938a16835292905220545b6000611b808583614421565b6001600160a01b0388166000908152600e602052604081205491925090611ba8908790614421565b6001600160a01b0388166000908152600e602052604081205491925090611bd090889061440e565b6001600160a01b03808b166000908152600e6020526040808220869055918b1681522081905590506000198414611c2a576001600160a01b03808a166000908152600f60209081526040808320938e168352929052208390555b876001600160a01b0316896001600160a01b03166000805160206144d283398151915289604051611c5d91815260200190565b60405180910390a35060009998505050505050505050565b60005460ff16611c975760405162461bcd60e51b815260040161094e90614293565b6000805460ff19169055611ca96114ea565b50611cb5338383612b36565b50506000805460ff1916600117905550565b600080611cd48484612cdf565b9050611cdf81612d10565b949350505050565b6014546040516305f5d64360e11b81523060048201526000916001600160a01b03169082908290630bebac8690602401602060405180830381865afa158015611d34573d6000803e3d6000fd5b505050506040513d601f19601f82011682018060405250810190611d589190614242565b90506b033b2e3c9fd0803ce8000000611dd2836001600160a01b031663c92aecc46040518163ffffffff1660e01b8152600401602060405180830381865afa158015611da8573d6000803e3d6000fd5b505050506040513d601f19601f82011682018060405250810190611dcc9190614242565b83612d28565b611ddc9190614271565b9250505090565b6000805460ff16611e065760405162461bcd60e51b815260040161094e90614293565b6000805460ff19169055611e186114ea565b50611e2282612d87565b5050600090506000805460ff19166001179055919050565b600082905060008290506000826001600160a01b031663f4b9fa756040518163ffffffff1660e01b81526004016020604051808303816000875af1158015611e86573d6000803e3d6000fd5b505050506040513d601f19601f82011682018060405250810190611eaa919061444b565b90506000836001600160a01b03166336569e776040518163ffffffff1660e01b81526004016020604051808303816000875af1158015611eee573d6000803e3d6000fd5b505050506040513d601f19601f82011682018060405250810190611f12919061444b565b6011549091506001600160a01b03838116911614611f7d5760405162461bcd60e51b815260206004820152602260248201527f444149206d757374206265207468652073616d6520617320756e6465726c79696044820152616e6760f01b606482015260840161094e565b601380546001600160a01b03199081166001600160a01b03898116918217909355601480548316898516179055601580549092168484161790915560405163095ea7b360e01b8152600481019190915260001960248201529083169063095ea7b390604401600060405180830381600087803b158015611ffc57600080fd5b505af1158015612010573d6000803e3d6000fd5b50506014546040516328ec8bf160e21b81526001600160a01b039182166004820152908416925063a3b22fc49150602401600060405180830381600087803b15801561205b57600080fd5b505af115801561206f573d6000803e3d6000fd5b50506013546040516328ec8bf160e21b81526001600160a01b039182166004820152908416925063a3b22fc49150602401600060405180830381600087803b1580156120ba57600080fd5b505af11580156120ce573d6000803e3d6000fd5b50505050826001600160a01b0316639f678cca6040518163ffffffff1660e01b81526004016020604051808303816000875af1158015612112573d6000803e3d6000fd5b505050506040513d601f19601f820116820180604052508101906121369190614242565b50612142306000612e1b565b50505050505050565b600354600090819061010090046001600160a01b0316331461218057604051630f7e5e6d60e41b815260040160405180910390fd5b43600954146121a257604051630dff50cb60e41b815260040160405180910390fd5b826121ab611ce7565b10156121ca57604051633345e99960e01b815260040160405180910390fd5b600c548311156121ed576040516378d2980560e11b815260040160405180910390fd5b82600c546121fb9190614421565b600c81905560035490915061221e9061010090046001600160a01b03168461311e565b7f3bad0c59cf2f06e7314077049f48a93578cd16f5ef92329f1dab1420a99c177e600360019054906101000a90046001600160a01b0316848360405161105c93929190614468565b60005460ff166122885760405162461bcd60e51b815260040161094e90614293565b6000805460ff1916905561229a6114ea565b506122a733600083613254565b506000805460ff19166001179055565b6001600160a01b0381166000908152601060205260408120805482036122e05750600092915050565b600a5481546000916122f191614434565b9050816001015481611cdf9190614271565b600354600090819061010090046001600160a01b031633146123385760405163407fded560e01b815260040160405180910390fd5b436009541461235a57604051630be2a5cb60e11b815260040160405180910390fd5b600660009054906101000a90046001600160a01b03169050826001600160a01b0316632191f92a6040518163ffffffff1660e01b8152600401602060405180830381865afa1580156123b0573d6000803e3d6000fd5b505050506040513d601f19601f820116820180604052508101906123d491906142b7565b6124205760405162461bcd60e51b815260206004820152601c60248201527f6d61726b6572206d6574686f642072657475726e65642066616c736500000000604482015260640161094e565b600680546001600160a01b0319166001600160a01b0385811691821790925560408051928416835260208301919091527fedffc32e068c7c95dfd4bdfd5c4d939a084d6b11c4199eac8436ed234d72f926910161105c565b60005460ff1661249a5760405162461bcd60e51b815260040161094e90614293565b6000805460ff191690556124ac6114ea565b506122a73382613531565b60095460009043908181036124cf5760009250505090565b60006124d9611ce7565b600b54600c54600a546006546040516315f2405360e01b81526004810186905260248101859052604481018490529495509293919290916000916001600160a01b0316906315f2405390606401602060405180830381865afa158015612543573d6000803e3d6000fd5b505050506040513d601f19601f820116820180604052508101906125679190614242565b905065048c273950008111156125bf5760405162461bcd60e51b815260206004820152601c60248201527f626f72726f772072617465206973206162737572646c79206869676800000000604482015260640161094e565b60006125cb8789614421565b905060006125e760405180602001604052808581525083612cdf565b905060006125f58288611cc7565b90506000612603888361440e565b905060006126226040518060200160405280600854815250848a6136e7565b9050600061263185898a6136e7565b60098e9055600a819055600b849055600c839055604080518d815260208101879052908101829052606081018590529091507f4dec04e750ca11537cabcd8a9eab06494de08da3735bc8871cd41250e190bc049060800160405180910390a160009d505050505050505050505050505090565b60055460405163d02f735160e01b81523060048201526001600160a01b0386811660248301528581166044830152848116606483015260848201849052600092169063d02f73519060a4016020604051808303816000875af115801561270e573d6000803e3d6000fd5b505050506040513d601f19601f820116820180604052508101906127329190614242565b90508015612756576040516363e00e3360e11b81526004810182905260240161094e565b836001600160a01b0316836001600160a01b03160361278857604051633a94626760e11b815260040160405180910390fd5b60006127a9836040518060200160405280666379da05b60000815250613708565b905060006127b78285614421565b9050600060405180602001604052806127ce6119e1565b9052905060006127de8285611cc7565b9050600081600c546127f0919061440e565b600c819055600d54909150612806908690614421565b600d556001600160a01b0388166000908152600e602052604090205461282d908890614421565b6001600160a01b03808a166000908152600e602052604080822093909355908b168152205461285d90859061440e565b6001600160a01b03808b166000818152600e602052604090819020939093559151908a16906000805160206144d28339815191529061289f9088815260200190565b60405180910390a360405185815230906001600160a01b038a16906000805160206144d28339815191529060200160405180910390a37fa91e67c5ea634cd43a12c5a482724b03de01e85ca68702a53d0c2f45cb7c1dc530838360405161290893929190614468565b60405180910390a150505050505050505050565b60005460ff1661293e5760405162461bcd60e51b815260040161094e90614293565b6000805460ff191690556129506114ea565b506122a7338261372b565b60005460ff1661297d5760405162461bcd60e51b815260040161094e90614293565b6000805460ff1916905561298f6114ea565b506122a733826000613254565b60005460ff166129be5760405162461bcd60e51b815260040161094e90614293565b6000805460ff191690556129d06114ea565b506000816001600160a01b031663a6afed956040518163ffffffff1660e01b81526004016020604051808303816000875af1158015612a13573d6000803e3d6000fd5b505050506040513d601f19601f82011682018060405250810190612a379190614242565b90508015612a5b57604051633eea49b760e11b81526004810182905260240161094e565b612a67338585856138ca565b50506000805460ff191660011790555050565b60035460009061010090046001600160a01b03163314612aad57604051631205b57b60e11b815260040160405180910390fd5b4360095414612acf57604051637dfca6b760e11b815260040160405180910390fd5b670de0b6b3a7640000821115612af85760405163717220f360e11b815260040160405180910390fd5b600880549083905560408051828152602081018590527faaa68312e2ea9d50e16af5068410ab56e1a1fd06037b1a35664812c30f821460910161105c565b600554604051631200453160e11b81523060048201526001600160a01b03858116602483015284811660448301526064820184905260009283929116906324008a62906084016020604051808303816000875af1158015612b9b573d6000803e3d6000fd5b505050506040513d601f19601f82011682018060405250810190612bbf9190614242565b90508015612be357604051638c81362d60e01b81526004810182905260240161094e565b4360095414612c055760405163c9021e2f60e01b815260040160405180910390fd5b6000612c10856122b7565b905060006000198514612c235784612c25565b815b90506000612c338883612e1b565b90506000612c418285614421565b9050600082600b54612c539190614421565b6001600160a01b038a8116600081815260106020908152604091829020878155600a54600190910155600b8590558151938f168452830191909152810185905260608101849052608081018290529091507f1a2a22cb034d26d1854bdc6666a5b91fe25efbbb5dcad3b0355478d6f5c362a19060a00160405180910390a1509098975050505050505050565b6040805160208101909152600081526040518060200160405280612d07856000015185613d84565b90529392505050565b80516000906108c490670de0b6b3a764000090614271565b6000811580612d4c57508282612d3e8183614434565b9250612d4a9083614271565b145b6108c45760405162461bcd60e51b815260206004820152600c60248201526b6d756c2d6f766572666c6f7760a01b604482015260640161094e565b60008080804360095414612db1576040516338acf79960e01b81526004810182905260240161094e565b612dbb3386612e1b565b905080600c54612dcb919061440e565b915081600c819055507fa91e67c5ea634cd43a12c5a482724b03de01e85ca68702a53d0c2f45cb7c1dc5338284604051612e0793929190614468565b60405180910390a160009590945092505050565b6011546040516323b872dd60e01b81526000916001600160a01b031690819081906323b872dd90612e5490889030908990600401614489565b6020604051808303816000875af1158015612e73573d6000803e3d6000fd5b505050506040513d601f19601f82011682018060405250810190612e9791906142b7565b612eef5760405162461bcd60e51b8152602060048201526024808201527f756e6578706563746564204549502d3230207472616e7366657220696e2072656044820152633a3ab93760e11b606482015260840161094e565b6013546014546015546040516370a0823160e01b815230600482018190526001600160a01b039485169487948116938116928692633b4da69f929091908716906370a0823190602401602060405180830381865afa158015612f55573d6000803e3d6000fd5b505050506040513d601f19601f82011682018060405250810190612f799190614242565b6040516001600160e01b031960e085901b1681526001600160a01b0390921660048301526024820152604401600060405180830381600087803b158015612fbf57600080fd5b505af1158015612fd3573d6000803e3d6000fd5b5050604051633612d9a360e11b8152306004820152600092506001600160a01b0384169150636c25b34690602401602060405180830381865afa15801561301e573d6000803e3d6000fd5b505050506040513d601f19601f820116820180604052508101906130429190614242565b90506000836001600160a01b031663c92aecc46040518163ffffffff1660e01b8152600401602060405180830381865afa158015613084573d6000803e3d6000fd5b505050506040513d601f19601f820116820180604052508101906130a89190614242565b6130b29083614271565b60405163049878f360e01b8152600481018290529091506001600160a01b0385169063049878f390602401600060405180830381600087803b1580156130f757600080fd5b505af115801561310b573d6000803e3d6000fd5b509b9d9c50505050505050505050505050565b6013546014546040805163324abb3160e21b815290516001600160a01b0393841693909216916000916131c291849163c92aecc49160048083019260209291908290030181865afa158015613177573d6000803e3d6000fd5b505050506040513d601f19601f8201168201806040525081019061319b9190614242565b6131b1866b033b2e3c9fd0803ce8000000612d28565b6131bb9190614271565b6001613d90565b604051637f8661a160e01b8152600481018290529091506001600160a01b03831690637f8661a190602401600060405180830381600087803b15801561320757600080fd5b505af115801561321b573d6000803e3d6000fd5b505060405163ef693bed60e01b81526001600160a01b038881166004830152602482018890528616925063ef693bed9150604401610b5f565b81158061325f575080155b6132c85760405162461bcd60e51b815260206004820152603460248201527f6f6e65206f662072656465656d546f6b656e73496e206f722072656465656d416044820152736d6f756e74496e206d757374206265207a65726f60601b606482015260840161094e565b600060405180602001604052806132dd6119e1565b9052905060008084156132fe578491506132f78386611cc7565b905061330e565b6133088484613ddd565b91508390505b60055460405163eabe7d9160e01b81526000916001600160a01b03169063eabe7d91906133439030908b908890600401614489565b6020604051808303816000875af1158015613362573d6000803e3d6000fd5b505050506040513d601f19601f820116820180604052508101906133869190614242565b905080156133aa5760405163480f424760e01b81526004810182905260240161094e565b43600954146133cc576040516397b5cfcd60e01b815260040160405180910390fd5b816133d5611ce7565b10156133f4576040516391240a1b60e01b815260040160405180910390fd5b82600d546134029190614421565b600d556001600160a01b0387166000908152600e6020526040902054613429908490614421565b6001600160a01b0388166000908152600e602052604090205561344c878361311e565b60405183815230906001600160a01b038916906000805160206144d28339815191529060200160405180910390a37fe5b754fb1abb7f01b499791d0b820ae3b6af3424ac1c59768edb53f4ec31a9298783856040516134ad93929190614468565b60405180910390a16005546040516351dff98960e01b81523060048201526001600160a01b0389811660248301526044820185905260648201869052909116906351dff98990608401600060405180830381600087803b15801561351057600080fd5b505af1158015613524573d6000803e3d6000fd5b5050505050505050505050565b600554604051634ef4c3e160e01b81526000916001600160a01b031690634ef4c3e19061356690309087908790600401614489565b6020604051808303816000875af1158015613585573d6000803e3d6000fd5b505050506040513d601f19601f820116820180604052508101906135a99190614242565b905080156135cd576040516349abd4fd60e01b81526004810182905260240161094e565b43600954146135ef576040516338d8859760e01b815260040160405180910390fd5b600060405180602001604052806136046119e1565b9052905060006136148585612e1b565b905060006136228284613ddd565b905080600d54613632919061440e565b600d556001600160a01b0386166000908152600e602052604090205461365990829061440e565b6001600160a01b0387166000908152600e60205260409081902091909155517f4c209b5fc8ad50758f13e2e1088ba56a560dff690a1c6fef26394f4c03821c4f906136a990889085908590614468565b60405180910390a16040518181526001600160a01b0387169030906000805160206144d28339815191529060200160405180910390a3505050505050565b6000806136f48585612cdf565b9050611a4061370282612d10565b84613dfb565b6000670de0b6b3a7640000613721848460000151613d84565b610eff9190614271565b60055460405163368f515360e21b81526000916001600160a01b03169063da3d454c9061376090309087908790600401614489565b6020604051808303816000875af115801561377f573d6000803e3d6000fd5b505050506040513d601f19601f820116820180604052508101906137a39190614242565b905080156137c75760405163918db40f60e01b81526004810182905260240161094e565b43600954146137e957604051630e8d8c6160e21b815260040160405180910390fd5b816137f2611ce7565b1015613811576040516348c2588160e01b815260040160405180910390fd5b600061381c846122b7565b9050600061382a848361440e565b9050600084600b5461383c919061440e565b6001600160a01b0387166000908152601060205260409020838155600a54600190910155600b8190559050613871868661311e565b604080516001600160a01b038816815260208101879052908101839052606081018290527f13ed6866d4e1ee6da46f845c46d7e54120883d75c5ea9a2dacc1c4ca8984ab809060800160405180910390a1505050505050565b600554604051632fe3f38f60e11b81523060048201526001600160a01b03838116602483015286811660448301528581166064830152608482018590526000921690635fc7e71e9060a4016020604051808303816000875af1158015613934573d6000803e3d6000fd5b505050506040513d601f19601f820116820180604052508101906139589190614242565b9050801561397c57604051630a14d17960e11b81526004810182905260240161094e565b436009541461399e576040516380965b1b60e01b815260040160405180910390fd5b43826001600160a01b0316636c540baf6040518163ffffffff1660e01b8152600401602060405180830381865afa1580156139dd573d6000803e3d6000fd5b505050506040513d601f19601f82011682018060405250810190613a019190614242565b14613a1f57604051631046f38d60e31b815260040160405180910390fd5b846001600160a01b0316846001600160a01b031603613a5157604051631bd1a62160e21b815260040160405180910390fd5b82600003613a725760405163d29da7ef60e01b815260040160405180910390fd5b6000198303613a9457604051635982c5bb60e11b815260040160405180910390fd5b6000613aa1868686612b36565b60055460405163c488847b60e01b815291925060009182916001600160a01b03169063c488847b90613adb90309089908890600401614489565b6040805180830381865afa158015613af7573d6000803e3d6000fd5b505050506040513d601f19601f82011682018060405250810190613b1b91906144ad565b9150915060008214613b8b5760405162461bcd60e51b815260206004820152603360248201527f4c49515549444154455f434f4d5054524f4c4c45525f43414c43554c4154455f604482015272105353d5539517d4d152569157d19052531151606a1b606482015260840161094e565b6040516370a0823160e01b81526001600160a01b0388811660048301528291908716906370a0823190602401602060405180830381865afa158015613bd4573d6000803e3d6000fd5b505050506040513d601f19601f82011682018060405250810190613bf89190614242565b1015613c465760405162461bcd60e51b815260206004820152601860248201527f4c49515549444154455f5345495a455f544f4f5f4d5543480000000000000000604482015260640161094e565b306001600160a01b03861603613c6757613c62308989846126a4565b613d21565b60405163b2a02ff160e01b81526000906001600160a01b0387169063b2a02ff190613c9a908c908c908790600401614489565b6020604051808303816000875af1158015613cb9573d6000803e3d6000fd5b505050506040513d601f19601f82011682018060405250810190613cdd9190614242565b14613d215760405162461bcd60e51b81526020600482015260146024820152731d1bdad95b881cd95a5e9d5c994819985a5b195960621b604482015260640161094e565b604080516001600160a01b038a811682528981166020830152818301869052871660608201526080810183905290517f298637f684da70674f26509b10f07ec2fbc77a335ab1e7d6215a4b2484d8bb529181900360a00190a15050505050505050565b6000610eff8284614434565b600082613d9d838261440e565b91508110156108c45760405162461bcd60e51b815260206004820152600c60248201526b6164642d6f766572666c6f7760a01b604482015260640161094e565b6000610eff613df484670de0b6b3a7640000613d84565b8351613e07565b6000610eff828461440e565b6000610eff8284614271565b602081526000825180602084015260005b81811015613e415760208186018101516040868401015201613e24565b506000604082850101526040601f19601f83011684010191505092915050565b6001600160a01b0381168114613e7657600080fd5b50565b60008060408385031215613e8c57600080fd5b8235613e9781613e61565b946020939093013593505050565b600060208284031215613eb757600080fd5b5035919050565b600060208284031215613ed057600080fd5b8135610eff81613e61565b634e487b7160e01b600052604160045260246000fd5b60008067ffffffffffffffff841115613f0c57613f0c613edb565b50604051601f19601f85018116603f0116810181811067ffffffffffffffff82111715613f3b57613f3b613edb565b604052838152905080828401851015613f5357600080fd5b83836020830137600060208583010152509392505050565b600082601f830112613f7c57600080fd5b610eff83833560208501613ef1565b803560ff81168114613f9c57600080fd5b919050565b600080600080600080600060e0888a031215613fbc57600080fd5b8735613fc781613e61565b96506020880135613fd781613e61565b95506040880135613fe781613e61565b945060608801359350608088013567ffffffffffffffff81111561400a57600080fd5b6140168a828b01613f6b565b93505060a088013567ffffffffffffffff81111561403357600080fd5b61403f8a828b01613f6b565b92505061404e60c08901613f8b565b905092959891949750929550565b60008060006060848603121561407157600080fd5b833561407c81613e61565b9250602084013561408c81613e61565b929592945050506040919091013590565b6000602082840312156140af57600080fd5b813567ffffffffffffffff8111156140c657600080fd5b8201601f810184136140d757600080fd5b611cdf84823560208401613ef1565b60008060008060008060c087890312156140ff57600080fd5b863561410a81613e61565b9550602087013561411a81613e61565b945060408701359350606087013567ffffffffffffffff81111561413d57600080fd5b61414989828a01613f6b565b935050608087013567ffffffffffffffff81111561416657600080fd5b61417289828a01613f6b565b92505061418160a08801613f8b565b90509295509295509295565b600080604083850312156141a057600080fd5b82356141ab81613e61565b915060208301356141bb81613e61565b809150509250929050565b6000806000606084860312156141db57600080fd5b83356141e681613e61565b92506020840135915060408401356141fd81613e61565b809150509250925092565b600181811c9082168061421c57607f821691505b60208210810361423c57634e487b7160e01b600052602260045260246000fd5b50919050565b60006020828403121561425457600080fd5b5051919050565b634e487b7160e01b600052601160045260246000fd5b60008261428e57634e487b7160e01b600052601260045260246000fd5b500490565b6020808252600a90820152691c994b595b9d195c995960b21b604082015260600190565b6000602082840312156142c957600080fd5b81518015158114610eff57600080fd5b600080604083850312156142ec57600080fd5b82516142f781613e61565b60208401519092506141bb81613e61565b601f82111561110a57806000526020600020601f840160051c8101602085101561432f5750805b601f840160051c820191505b81811015611268576000815560010161433b565b815167ffffffffffffffff81111561436957614369613edb565b61437d816143778454614208565b84614308565b6020601f8211600181146143b157600083156143995750848201515b600019600385901b1c1916600184901b178455611268565b600084815260208120601f198516915b828110156143e157878501518255602094850194600190920191016143c1565b50848210156143ff5786840151600019600387901b60f8161c191681555b50505050600190811b01905550565b808201808211156108c4576108c461425b565b818103818111156108c4576108c461425b565b80820281158282048414176108c4576108c461425b565b60006020828403121561445d57600080fd5b8151610eff81613e61565b6001600160a01b039390931683526020830191909152604082015260600190565b6001600160a01b039384168152919092166020820152604081019190915260600190565b600080604083850312156144c057600080fd5b50508051602090910151909290915056feddf252ad1be2c89b69c2b068fc378daa952ba7f163c4a11628f55a4df523b3efa2646970667358221220639b125db8aebe27d48458b872dfe7e4f6055a18beee48bfc11842b9a9c475a164736f6c634300081b0033","linkReferences":{}},"methodIdentifiers":{"NO_ERROR()":"69ab3250","_acceptAdmin()":"e9c714f2","_addReserves(uint256)":"3e941010","_becomeImplementation(bytes)":"56e67728","_delegateCompLikeTo(address)":"7f1e06be","_reduceReserves(uint256)":"601a0bf1","_resignImplementation()":"153ab505","_setComptroller(address)":"4576b5db","_setInterestRateModel(address)":"f2b3abbd","_setPendingAdmin(address)":"b71d1a0c","_setReserveFactor(uint256)":"fca7820b","accrualBlockNumber()":"6c540baf","accrueInterest()":"a6afed95","admin()":"f851a440","allowance(address,address)":"dd62ed3e","approve(address,uint256)":"095ea7b3","balanceOf(address)":"70a08231","balanceOfUnderlying(address)":"3af9e669","borrow(uint256)":"c5ebeaec","borrowBalanceCurrent(address)":"17bfdfbc","borrowBalanceStored(address)":"95dd9193","borrowIndex()":"aa5af0fd","borrowRatePerBlock()":"f8f9da28","comptroller()":"5fe3b567","daiJoinAddress()":"8a8df2e6","decimals()":"313ce567","exchangeRateCurrent()":"bd6d894d","exchangeRateStored()":"182df0f5","getAccountSnapshot(address)":"c37f68e2","getCash()":"3b1d21a2","implementation()":"5c60da1b","initialize(address,address,address,uint256,string,string,uint8)":"1a31d465","initialize(address,address,uint256,string,string,uint8)":"99d8c1b4","interestRateModel()":"f3fdb15a","isCToken()":"fe9c44ae","liquidateBorrow(address,uint256,address)":"f5e3c462","mint(uint256)":"a0712d68","name()":"06fdde03","pendingAdmin()":"26782247","potAddress()":"66ced602","protocolSeizeShareMantissa()":"6752e702","redeem(uint256)":"db006a75","redeemUnderlying(uint256)":"852a12e3","repayBorrow(uint256)":"0e752702","repayBorrowBehalf(address,uint256)":"2608f818","reserveFactorMantissa()":"173b9904","seize(address,address,uint256)":"b2a02ff1","supplyRatePerBlock()":"ae9d70b0","sweepToken(address)":"1be19560","symbol()":"95d89b41","totalBorrows()":"47bd3718","totalBorrowsCurrent()":"73acee98","totalReserves()":"8f840ddd","totalSupply()":"18160ddd","transfer(address,uint256)":"a9059cbb","transferFrom(address,address,uint256)":"23b872dd","underlying()":"6f307dc3","vatAddress()":"8d925ccd"},"id":21}