{"abi":[{"type":"function","name":"_borrowGuardianPaused","inputs":[],"outputs":[{"name":"","type":"bool","internalType":"bool"}],"stateMutability":"view"},{"type":"function","name":"_mintGuardianPaused","inputs":[],"outputs":[{"name":"","type":"bool","internalType":"bool"}],"stateMutability":"view"},{"type":"function","name":"accountAssets","inputs":[{"name":"","type":"address","internalType":"address"},{"name":"","type":"uint256","internalType":"uint256"}],"outputs":[{"name":"","type":"address","internalType":"contract CToken"}],"stateMutability":"view"},{"type":"function","name":"admin","inputs":[],"outputs":[{"name":"","type":"address","internalType":"address"}],"stateMutability":"view"},{"type":"function","name":"allMarkets","inputs":[{"name":"","type":"uint256","internalType":"uint256"}],"outputs":[{"name":"","type":"address","internalType":"contract CToken"}],"stateMutability":"view"},{"type":"function","name":"borrowCapGuardian","inputs":[],"outputs":[{"name":"","type":"address","internalType":"address"}],"stateMutability":"view"},{"type":"function","name":"borrowCaps","inputs":[{"name":"","type":"address","internalType":"address"}],"outputs":[{"name":"","type":"uint256","internalType":"uint256"}],"stateMutability":"view"},{"type":"function","name":"borrowGuardianPaused","inputs":[{"name":"","type":"address","internalType":"address"}],"outputs":[{"name":"","type":"bool","internalType":"bool"}],"stateMutability":"view"},{"type":"function","name":"closeFactorMantissa","inputs":[],"outputs":[{"name":"","type":"uint256","internalType":"uint256"}],"stateMutability":"view"},{"type":"function","name":"compAccrued","inputs":[{"name":"","type":"address","internalType":"address"}],"outputs":[{"name":"","type":"uint256","internalType":"uint256"}],"stateMutability":"view"},{"type":"function","name":"compBorrowState","inputs":[{"name":"","type":"address","internalType":"address"}],"outputs":[{"name":"index","type":"uint224","internalType":"uint224"},{"name":"block","type":"uint32","internalType":"uint32"}],"stateMutability":"view"},{"type":"function","name":"compBorrowerIndex","inputs":[{"name":"","type":"address","internalType":"address"},{"name":"","type":"address","internalType":"address"}],"outputs":[{"name":"","type":"uint256","internalType":"uint256"}],"stateMutability":"view"},{"type":"function","name":"compRate","inputs":[],"outputs":[{"name":"","type":"uint256","internalType":"uint256"}],"stateMutability":"view"},{"type":"function","name":"compSpeeds","inputs":[{"name":"","type":"address","internalType":"address"}],"outputs":[{"name":"","type":"uint256","internalType":"uint256"}],"stateMutability":"view"},{"type":"function","name":"compSupplierIndex","inputs":[{"name":"","type":"address","internalType":"address"},{"name":"","type":"address","internalType":"address"}],"outputs":[{"name":"","type":"uint256","internalType":"uint256"}],"stateMutability":"view"},{"type":"function","name":"compSupplyState","inputs":[{"name":"","type":"address","internalType":"address"}],"outputs":[{"name":"index","type":"uint224","internalType":"uint224"},{"name":"block","type":"uint32","internalType":"uint32"}],"stateMutability":"view"},{"type":"function","name":"comptrollerImplementation","inputs":[],"outputs":[{"name":"","type":"address","internalType":"address"}],"stateMutability":"view"},{"type":"function","name":"liquidationIncentiveMantissa","inputs":[],"outputs":[{"name":"","type":"uint256","internalType":"uint256"}],"stateMutability":"view"},{"type":"function","name":"markets","inputs":[{"name":"","type":"address","internalType":"address"}],"outputs":[{"name":"isListed","type":"bool","internalType":"bool"},{"name":"collateralFactorMantissa","type":"uint256","internalType":"uint256"},{"name":"isComped","type":"bool","internalType":"bool"}],"stateMutability":"view"},{"type":"function","name":"maxAssets","inputs":[],"outputs":[{"name":"","type":"uint256","internalType":"uint256"}],"stateMutability":"view"},{"type":"function","name":"mintGuardianPaused","inputs":[{"name":"","type":"address","internalType":"address"}],"outputs":[{"name":"","type":"bool","internalType":"bool"}],"stateMutability":"view"},{"type":"function","name":"oracle","inputs":[],"outputs":[{"name":"","type":"address","internalType":"contract PriceOracle"}],"stateMutability":"view"},{"type":"function","name":"pauseGuardian","inputs":[],"outputs":[{"name":"","type":"address","internalType":"address"}],"stateMutability":"view"},{"type":"function","name":"pendingAdmin","inputs":[],"outputs":[{"name":"","type":"address","internalType":"address"}],"stateMutability":"view"},{"type":"function","name":"pendingComptrollerImplementation","inputs":[],"outputs":[{"name":"","type":"address","internalType":"address"}],"stateMutability":"view"},{"type":"function","name":"seizeGuardianPaused","inputs":[],"outputs":[{"name":"","type":"bool","internalType":"bool"}],"stateMutability":"view"},{"type":"function","name":"transferGuardianPaused","inputs":[],"outputs":[{"name":"","type":"bool","internalType":"bool"}],"stateMutability":"view"}],"bytecode":{"object":"0x6080604052348015600f57600080fd5b506106378061001f6000396000f3fe608060405234801561001057600080fd5b50600436106101a95760003560e01c80638c57804e116100f9578063ca0af04311610097578063dcfbc0c711610071578063dcfbc0c7146104a8578063e6653f3d146104bb578063e8755446146104cf578063f851a440146104d857600080fd5b8063ca0af0431461044a578063cc7ebdc414610475578063dce154491461049557600080fd5b8063aa900754116100d3578063aa900754146103ef578063ac0b0bb7146103f8578063b21be7fd1461040c578063bb82aa5e1461043757600080fd5b80638c57804e1461035b5780638e8f294b1461039357806394b2294b146103e657600080fd5b80634ada90af116101665780636d154ea5116101405780636d154ea5146102ee578063731f0c2b146103115780637dc0d1d01461033457806387f763031461034757600080fd5b80634ada90af1461027657806352d84d1e1461027f5780636b79c38d1461029257600080fd5b80631d7b33d7146101ae57806321af4569146101e157806324a3d6221461020c578063267822471461021f5780633c94786f146102325780634a58443214610256575b600080fd5b6101ce6101bc366004610569565b600f6020526000908152604090205481565b6040519081526020015b60405180910390f35b6015546101f4906001600160a01b031681565b6040516001600160a01b0390911681526020016101d8565b600a546101f4906001600160a01b031681565b6001546101f4906001600160a01b031681565b600a5461024690600160a01b900460ff1681565b60405190151581526020016101d8565b6101ce610264366004610569565b60166020526000908152604090205481565b6101ce60065481565b6101f461028d36600461058b565b6104eb565b6102ca6102a0366004610569565b6010602052600090815260409020546001600160e01b03811690600160e01b900463ffffffff1682565b604080516001600160e01b03909316835263ffffffff9091166020830152016101d8565b6102466102fc366004610569565b600c6020526000908152604090205460ff1681565b61024661031f366004610569565b600b6020526000908152604090205460ff1681565b6004546101f4906001600160a01b031681565b600a5461024690600160b01b900460ff1681565b6102ca610369366004610569565b6011602052600090815260409020546001600160e01b03811690600160e01b900463ffffffff1682565b6103c76103a1366004610569565b60096020526000908152604090208054600182015460039092015460ff91821692911683565b60408051931515845260208401929092521515908201526060016101d8565b6101ce60075481565b6101ce600e5481565b600a5461024690600160b81b900460ff1681565b6101ce61041a3660046105a4565b601260209081526000928352604080842090915290825290205481565b6002546101f4906001600160a01b031681565b6101ce6104583660046105a4565b601360209081526000928352604080842090915290825290205481565b6101ce610483366004610569565b60146020526000908152604090205481565b6101f46104a33660046105d7565b610515565b6003546101f4906001600160a01b031681565b600a5461024690600160a81b900460ff1681565b6101ce60055481565b6000546101f4906001600160a01b031681565b600d81815481106104fb57600080fd5b6000918252602090912001546001600160a01b0316905081565b6008602052816000526040600020818154811061053157600080fd5b6000918252602090912001546001600160a01b03169150829050565b80356001600160a01b038116811461056457600080fd5b919050565b60006020828403121561057b57600080fd5b6105848261054d565b9392505050565b60006020828403121561059d57600080fd5b5035919050565b600080604083850312156105b757600080fd5b6105c08361054d565b91506105ce6020840161054d565b90509250929050565b600080604083850312156105ea57600080fd5b6105f38361054d565b94602093909301359350505056fea26469706673582212205939272ef0498422753e85129b53fe1a93bda4b7a8c2d60f4d789a29728a439464736f6c634300081b0033","linkReferences":{}},"methodIdentifiers":{"_borrowGuardianPaused()":"e6653f3d","_mintGuardianPaused()":"3c94786f","accountAssets(address,uint256)":"dce15449","admin()":"f851a440","allMarkets(uint256)":"52d84d1e","borrowCapGuardian()":"21af4569","borrowCaps(address)":"4a584432","borrowGuardianPaused(address)":"6d154ea5","closeFactorMantissa()":"e8755446","compAccrued(address)":"cc7ebdc4","compBorrowState(address)":"8c57804e","compBorrowerIndex(address,address)":"ca0af043","compRate()":"aa900754","compSpeeds(address)":"1d7b33d7","compSupplierIndex(address,address)":"b21be7fd","compSupplyState(address)":"6b79c38d","comptrollerImplementation()":"bb82aa5e","liquidationIncentiveMantissa()":"4ada90af","markets(address)":"8e8f294b","maxAssets()":"94b2294b","mintGuardianPaused(address)":"731f0c2b","oracle()":"7dc0d1d0","pauseGuardian()":"24a3d622","pendingAdmin()":"26782247","pendingComptrollerImplementation()":"dcfbc0c7","seizeGuardianPaused()":"ac0b0bb7","transferGuardianPaused()":"87f76303"},"id":32}