{"abi":[{"type":"function","name":"_borrowGuardianPaused","inputs":[],"outputs":[{"name":"","type":"bool","internalType":"bool"}],"stateMutability":"view"},{"type":"function","name":"_mintGuardianPaused","inputs":[],"outputs":[{"name":"","type":"bool","internalType":"bool"}],"stateMutability":"view"},{"type":"function","name":"accountAssets","inputs":[{"name":"","type":"address","internalType":"address"},{"name":"","type":"uint256","internalType":"uint256"}],"outputs":[{"name":"","type":"address","internalType":"contract CToken"}],"stateMutability":"view"},{"type":"function","name":"admin","inputs":[],"outputs":[{"name":"","type":"address","internalType":"address"}],"stateMutability":"view"},{"type":"function","name":"borrowGuardianPaused","inputs":[{"name":"","type":"address","internalType":"address"}],"outputs":[{"name":"","type":"bool","internalType":"bool"}],"stateMutability":"view"},{"type":"function","name":"closeFactorMantissa","inputs":[],"outputs":[{"name":"","type":"uint256","internalType":"uint256"}],"stateMutability":"view"},{"type":"function","name":"comptrollerImplementation","inputs":[],"outputs":[{"name":"","type":"address","internalType":"address"}],"stateMutability":"view"},{"type":"function","name":"liquidationIncentiveMantissa","inputs":[],"outputs":[{"name":"","type":"uint256","internalType":"uint256"}],"stateMutability":"view"},{"type":"function","name":"markets","inputs":[{"name":"","type":"address","internalType":"address"}],"outputs":[{"name":"isListed","type":"bool","internalType":"bool"},{"name":"collateralFactorMantissa","type":"uint256","internalType":"uint256"},{"name":"isComped","type":"bool","internalType":"bool"}],"stateMutability":"view"},{"type":"function","name":"maxAssets","inputs":[],"outputs":[{"name":"","type":"uint256","internalType":"uint256"}],"stateMutability":"view"},{"type":"function","name":"mintGuardianPaused","inputs":[{"name":"","type":"address","internalType":"address"}],"outputs":[{"name":"","type":"bool","internalType":"bool"}],"stateMutability":"view"},{"type":"function","name":"oracle","inputs":[],"outputs":[{"name":"","type":"address","internalType":"contract PriceOracle"}],"stateMutability":"view"},{"type":"function","name":"pauseGuardian","inputs":[],"outputs":[{"name":"","type":"address","internalType":"address"}],"stateMutability":"view"},{"type":"function","name":"pendingAdmin","inputs":[],"outputs":[{"name":"","type":"address","internalType":"address"}],"stateMutability":"view"},{"type":"function","name":"pendingComptrollerImplementation","inputs":[],"outputs":[{"name":"","type":"address","internalType":"address"}],"stateMutability":"view"},{"type":"function","name":"seizeGuardianPaused","inputs":[],"outputs":[{"name":"","type":"bool","internalType":"bool"}],"stateMutability":"view"},{"type":"function","name":"transferGuardianPaused","inputs":[],"outputs":[{"name":"","type":"bool","internalType":"bool"}],"stateMutability":"view"}],"bytecode":{"object":"0x6080604052348015600f57600080fd5b506103aa8061001f6000396000f3fe608060405234801561001057600080fd5b506004361061010b5760003560e01c80638e8f294b116100a2578063dce1544911610071578063dce154491461027e578063dcfbc0c714610291578063e6653f3d146102a4578063e8755446146102b8578063f851a440146102c157600080fd5b80638e8f294b146101fb57806394b2294b1461024e578063ac0b0bb714610257578063bb82aa5e1461026b57600080fd5b80636d154ea5116100de5780636d154ea51461018e578063731f0c2b146101b15780637dc0d1d0146101d457806387f76303146101e757600080fd5b806324a3d6221461011057806326782247146101405780633c94786f146101535780634ada90af14610177575b600080fd5b600a54610123906001600160a01b031681565b6040516001600160a01b0390911681526020015b60405180910390f35b600154610123906001600160a01b031681565b600a5461016790600160a01b900460ff1681565b6040519015158152602001610137565b61018060065481565b604051908152602001610137565b61016761019c366004610328565b600c6020526000908152604090205460ff1681565b6101676101bf366004610328565b600b6020526000908152604090205460ff1681565b600454610123906001600160a01b031681565b600a5461016790600160b01b900460ff1681565b61022f610209366004610328565b60096020526000908152604090208054600182015460039092015460ff91821692911683565b6040805193151584526020840192909252151590820152606001610137565b61018060075481565b600a5461016790600160b81b900460ff1681565b600254610123906001600160a01b031681565b61012361028c36600461034a565b6102d4565b600354610123906001600160a01b031681565b600a5461016790600160a81b900460ff1681565b61018060055481565b600054610123906001600160a01b031681565b600860205281600052604060002081815481106102f057600080fd5b6000918252602090912001546001600160a01b03169150829050565b80356001600160a01b038116811461032357600080fd5b919050565b60006020828403121561033a57600080fd5b6103438261030c565b9392505050565b6000806040838503121561035d57600080fd5b6103668361030c565b94602093909301359350505056fea26469706673582212202e2689245034edd4def4bb2524feae6dfdb3057e79edd94a11ad04ae3fb3ce9164736f6c634300081b0033","linkReferences":{}},"methodIdentifiers":{"_borrowGuardianPaused()":"e6653f3d","_mintGuardianPaused()":"3c94786f","accountAssets(address,uint256)":"dce15449","admin()":"f851a440","borrowGuardianPaused(address)":"6d154ea5","closeFactorMantissa()":"e8755446","comptrollerImplementation()":"bb82aa5e","liquidationIncentiveMantissa()":"4ada90af","markets(address)":"8e8f294b","maxAssets()":"94b2294b","mintGuardianPaused(address)":"731f0c2b","oracle()":"7dc0d1d0","pauseGuardian()":"24a3d622","pendingAdmin()":"26782247","pendingComptrollerImplementation()":"dcfbc0c7","seizeGuardianPaused()":"ac0b0bb7","transferGuardianPaused()":"87f76303"},"id":33}