{"abi":[{"type":"constructor","inputs":[{"name":"baseRatePerYear","type":"uint256","internalType":"uint256"},{"name":"multiplierPerYear","type":"uint256","internalType":"uint256"},{"name":"jumpMultiplierPerYear","type":"uint256","internalType":"uint256"},{"name":"kink_","type":"uint256","internalType":"uint256"},{"name":"owner_","type":"address","internalType":"address"}],"stateMutability":"nonpayable"},{"type":"function","name":"baseRatePerBlock","inputs":[],"outputs":[{"name":"","type":"uint256","internalType":"uint256"}],"stateMutability":"view"},{"type":"function","name":"blocksPerYear","inputs":[],"outputs":[{"name":"","type":"uint256","internalType":"uint256"}],"stateMutability":"view"},{"type":"function","name":"getBorrowRate","inputs":[{"name":"cash","type":"uint256","internalType":"uint256"},{"name":"borrows","type":"uint256","internalType":"uint256"},{"name":"reserves","type":"uint256","internalType":"uint256"}],"outputs":[{"name":"","type":"uint256","internalType":"uint256"}],"stateMutability":"view"},{"type":"function","name":"getSupplyRate","inputs":[{"name":"cash","type":"uint256","internalType":"uint256"},{"name":"borrows","type":"uint256","internalType":"uint256"},{"name":"reserves","type":"uint256","internalType":"uint256"},{"name":"reserveFactorMantissa","type":"uint256","internalType":"uint256"}],"outputs":[{"name":"","type":"uint256","internalType":"uint256"}],"stateMutability":"view"},{"type":"function","name":"isInterestRateModel","inputs":[],"outputs":[{"name":"","type":"bool","internalType":"bool"}],"stateMutability":"view"},{"type":"function","name":"jumpMultiplierPerBlock","inputs":[],"outputs":[{"name":"","type":"uint256","internalType":"uint256"}],"stateMutability":"view"},{"type":"function","name":"kink","inputs":[],"outputs":[{"name":"","type":"uint256","internalType":"uint256"}],"stateMutability":"view"},{"type":"function","name":"multiplierPerBlock","inputs":[],"outputs":[{"name":"","type":"uint256","internalType":"uint256"}],"stateMutability":"view"},{"type":"function","name":"owner","inputs":[],"outputs":[{"name":"","type":"address","internalType":"address"}],"stateMutability":"view"},{"type":"function","name":"updateJumpRateModel","inputs":[{"name":"baseRatePerYear","type":"uint256","internalType":"uint256"},{"name":"multiplierPerYear","type":"uint256","internalType":"uint256"},{"name":"jumpMultiplierPerYear","type":"uint256","internalType":"uint256"},{"name":"kink_","type":"uint256","internalType":"uint256"}],"outputs":[],"stateMutability":"nonpayable"},{"type":"function","name":"utilizationRate","inputs":[{"name":"cash","type":"uint256","internalType":"uint256"},{"name":"borrows","type":"uint256","internalType":"uint256"},{"name":"reserves","type":"uint256","internalType":"uint256"}],"outputs":[{"name":"","type":"uint256","internalType":"uint256"}],"stateMutability":"pure"},{"type":"event","name":"NewInterestParams","inputs":[{"name":"baseRatePerBlock","type":"uint256","indexed":false,"internalType":"uint256"},{"name":"multiplierPerBlock","type":"uint256","indexed":false,"internalType":"uint256"},{"name":"jumpMultiplierPerBlock","type":"uint256","indexed":false,"internalType":"uint256"},{"name":"kink","type":"uint256","indexed":false,"internalType":"uint256"}],"anonymous":false}],"bytecode":{"object":"0x608060405234801561001057600080fd5b5060405161072038038061072083398101604081905261002f91610112565b600080546001600160a01b0319166001600160a01b038316179055848484848461005b8585858561006a565b505050505050505050506101ba565b610077622014808561016d565b600255610087816220148061018f565b610099670de0b6b3a76400008561018f565b6100a3919061016d565b6001556100b3622014808361016d565b60038190556004829055600254600154604080519283526020830191909152810191909152606081018290527f6960ab234c7ef4b0c9197100f5393cfcde7c453ac910a27bd2000aa1dd4c068d9060800160405180910390a150505050565b600080600080600060a0868803121561012a57600080fd5b855160208701516040880151606089015160808a0151939850919650945092506001600160a01b038116811461015f57600080fd5b809150509295509295909350565b60008261018a57634e487b7160e01b600052601260045260246000fd5b500490565b80820281158282048414176101b457634e487b7160e01b600052601160045260246000fd5b92915050565b610557806101c96000396000f3fe608060405234801561001057600080fd5b50600436106100a95760003560e01c80638da5cb5b116100715780638da5cb5b1461011d578063a385fb9614610148578063b816881614610152578063b9f9850a14610165578063f14039de1461016e578063fd2da3391461017757600080fd5b806315f24053146100ae5780632037f3e7146100d45780632191f92a146100e95780636e71e2d8146101015780638726bb8914610114575b600080fd5b6100c16100bc366004610448565b610180565b6040519081526020015b60405180910390f35b6100e76100e2366004610474565b610197565b005b6100f1600181565b60405190151581526020016100cb565b6100c161010f366004610448565b610216565b6100c160015481565b600054610130906001600160a01b031681565b6040516001600160a01b0390911681526020016100cb565b6100c16220148081565b6100c1610160366004610474565b610259565b6100c160035481565b6100c160025481565b6100c160045481565b600061018d8484846102d5565b90505b9392505050565b6000546001600160a01b031633146102045760405162461bcd60e51b815260206004820152602660248201527f6f6e6c7920746865206f776e6572206d61792063616c6c20746869732066756e60448201526531ba34b7b71760d11b606482015260840160405180910390fd5b610210848484846103a0565b50505050565b60008260000361022857506000610190565b8161023384866104bc565b61023d91906104d5565b61024f670de0b6b3a7640000856104e8565b61018d91906104ff565b60008061026e83670de0b6b3a76400006104d5565b9050600061027d8787876102d5565b90506000670de0b6b3a764000061029484846104e8565b61029e91906104ff565b9050670de0b6b3a7640000816102b58a8a8a610216565b6102bf91906104e8565b6102c991906104ff565b98975050505050505050565b6000806102e3858585610216565b9050600454811161032457600254670de0b6b3a76400006001548361030891906104e8565b61031291906104ff565b61031c91906104bc565b915050610190565b6000600254670de0b6b3a764000060015460045461034291906104e8565b61034c91906104ff565b61035691906104bc565b905060006004548361036891906104d5565b905081670de0b6b3a76400006003548361038291906104e8565b61038c91906104ff565b61039691906104bc565b9350505050610190565b6103ad62201480856104ff565b6002556103bd81622014806104e8565b6103cf670de0b6b3a7640000856104e8565b6103d991906104ff565b6001556103e962201480836104ff565b60038190556004829055600254600154604080519283526020830191909152810191909152606081018290527f6960ab234c7ef4b0c9197100f5393cfcde7c453ac910a27bd2000aa1dd4c068d9060800160405180910390a150505050565b60008060006060848603121561045d57600080fd5b505081359360208301359350604090920135919050565b6000806000806080858703121561048a57600080fd5b5050823594602084013594506040840135936060013592509050565b634e487b7160e01b600052601160045260246000fd5b808201808211156104cf576104cf6104a6565b92915050565b818103818111156104cf576104cf6104a6565b80820281158282048414176104cf576104cf6104a6565b60008261051c57634e487b7160e01b600052601260045260246000fd5b50049056fea264697066735822122078695c7ade8969fd6fa25d0bd5a25c06024d772e40e31f5f6cc7aba552cb9fa564736f6c634300081b0033","linkReferences":{}},"methodIdentifiers":{"baseRatePerBlock()":"f14039de","blocksPerYear()":"a385fb96","getBorrowRate(uint256,uint256,uint256)":"15f24053","getSupplyRate(uint256,uint256,uint256,uint256)":"b8168816","isInterestRateModel()":"2191f92a","jumpMultiplierPerBlock()":"b9f9850a","kink()":"fd2da339","multiplierPerBlock()":"8726bb89","owner()":"8da5cb5b","updateJumpRateModel(uint256,uint256,uint256,uint256)":"2037f3e7","utilizationRate(uint256,uint256,uint256)":"6e71e2d8"},"id":49}