{"abi":[{"type":"constructor","inputs":[{"name":"underlying_","type":"address","internalType":"address"},{"name":"comptroller_","type":"address","internalType":"contract ComptrollerInterface"},{"name":"interestRateModel_","type":"address","internalType":"contract InterestRateModel"},{"name":"initialExchangeRateMantissa_","type":"uint256","internalType":"uint256"},{"name":"name_","type":"string","internalType":"string"},{"name":"symbol_","type":"string","internalType":"string"},{"name":"decimals_","type":"uint8","internalType":"uint8"},{"name":"admin_","type":"address","internalType":"address payable"},{"name":"implementation_","type":"address","internalType":"address"},{"name":"becomeImplementationData","type":"bytes","internalType":"bytes"}],"stateMutability":"nonpayable"},{"type":"fallback","stateMutability":"payable"},{"type":"function","name":"_acceptAdmin","inputs":[],"outputs":[{"name":"","type":"uint256","internalType":"uint256"}],"stateMutability":"nonpayable"},{"type":"function","name":"_addReserves","inputs":[{"name":"addAmount","type":"uint256","internalType":"uint256"}],"outputs":[{"name":"","type":"uint256","internalType":"uint256"}],"stateMutability":"nonpayable"},{"type":"function","name":"_reduceReserves","inputs":[{"name":"reduceAmount","type":"uint256","internalType":"uint256"}],"outputs":[{"name":"","type":"uint256","internalType":"uint256"}],"stateMutability":"nonpayable"},{"type":"function","name":"_setComptroller","inputs":[{"name":"newComptroller","type":"address","internalType":"contract ComptrollerInterface"}],"outputs":[{"name":"","type":"uint256","internalType":"uint256"}],"stateMutability":"nonpayable"},{"type":"function","name":"_setImplementation","inputs":[{"name":"implementation_","type":"address","internalType":"address"},{"name":"allowResign","type":"bool","internalType":"bool"},{"name":"becomeImplementationData","type":"bytes","internalType":"bytes"}],"outputs":[],"stateMutability":"nonpayable"},{"type":"function","name":"_setInterestRateModel","inputs":[{"name":"newInterestRateModel","type":"address","internalType":"contract InterestRateModel"}],"outputs":[{"name":"","type":"uint256","internalType":"uint256"}],"stateMutability":"nonpayable"},{"type":"function","name":"_setPendingAdmin","inputs":[{"name":"newPendingAdmin","type":"address","internalType":"address payable"}],"outputs":[{"name":"","type":"uint256","internalType":"uint256"}],"stateMutability":"nonpayable"},{"type":"function","name":"_setReserveFactor","inputs":[{"name":"newReserveFactorMantissa","type":"uint256","internalType":"uint256"}],"outputs":[{"name":"","type":"uint256","internalType":"uint256"}],"stateMutability":"nonpayable"},{"type":"function","name":"accrualBlockNumber","inputs":[],"outputs":[{"name":"","type":"uint256","internalType":"uint256"}],"stateMutability":"view"},{"type":"function","name":"accrueInterest","inputs":[],"outputs":[{"name":"","type":"uint256","internalType":"uint256"}],"stateMutability":"nonpayable"},{"type":"function","name":"admin","inputs":[],"outputs":[{"name":"","type":"address","internalType":"address payable"}],"stateMutability":"view"},{"type":"function","name":"allowance","inputs":[{"name":"owner","type":"address","internalType":"address"},{"name":"spender","type":"address","internalType":"address"}],"outputs":[{"name":"","type":"uint256","internalType":"uint256"}],"stateMutability":"view"},{"type":"function","name":"approve","inputs":[{"name":"spender","type":"address","internalType":"address"},{"name":"amount","type":"uint256","internalType":"uint256"}],"outputs":[{"name":"","type":"bool","internalType":"bool"}],"stateMutability":"nonpayable"},{"type":"function","name":"balanceOf","inputs":[{"name":"owner","type":"address","internalType":"address"}],"outputs":[{"name":"","type":"uint256","internalType":"uint256"}],"stateMutability":"view"},{"type":"function","name":"balanceOfUnderlying","inputs":[{"name":"owner","type":"address","internalType":"address"}],"outputs":[{"name":"","type":"uint256","internalType":"uint256"}],"stateMutability":"nonpayable"},{"type":"function","name":"borrow","inputs":[{"name":"borrowAmount","type":"uint256","internalType":"uint256"}],"outputs":[{"name":"","type":"uint256","internalType":"uint256"}],"stateMutability":"nonpayable"},{"type":"function","name":"borrowBalanceCurrent","inputs":[{"name":"account","type":"address","internalType":"address"}],"outputs":[{"name":"","type":"uint256","internalType":"uint256"}],"stateMutability":"nonpayable"},{"type":"function","name":"borrowBalanceStored","inputs":[{"name":"account","type":"address","internalType":"address"}],"outputs":[{"name":"","type":"uint256","internalType":"uint256"}],"stateMutability":"view"},{"type":"function","name":"borrowIndex","inputs":[],"outputs":[{"name":"","type":"uint256","internalType":"uint256"}],"stateMutability":"view"},{"type":"function","name":"borrowRatePerBlock","inputs":[],"outputs":[{"name":"","type":"uint256","internalType":"uint256"}],"stateMutability":"view"},{"type":"function","name":"comptroller","inputs":[],"outputs":[{"name":"","type":"address","internalType":"contract ComptrollerInterface"}],"stateMutability":"view"},{"type":"function","name":"decimals","inputs":[],"outputs":[{"name":"","type":"uint8","internalType":"uint8"}],"stateMutability":"view"},{"type":"function","name":"delegateToImplementation","inputs":[{"name":"data","type":"bytes","internalType":"bytes"}],"outputs":[{"name":"","type":"bytes","internalType":"bytes"}],"stateMutability":"nonpayable"},{"type":"function","name":"delegateToViewImplementation","inputs":[{"name":"data","type":"bytes","internalType":"bytes"}],"outputs":[{"name":"","type":"bytes","internalType":"bytes"}],"stateMutability":"view"},{"type":"function","name":"exchangeRateCurrent","inputs":[],"outputs":[{"name":"","type":"uint256","internalType":"uint256"}],"stateMutability":"nonpayable"},{"type":"function","name":"exchangeRateStored","inputs":[],"outputs":[{"name":"","type":"uint256","internalType":"uint256"}],"stateMutability":"view"},{"type":"function","name":"getAccountSnapshot","inputs":[{"name":"account","type":"address","internalType":"address"}],"outputs":[{"name":"","type":"uint256","internalType":"uint256"},{"name":"","type":"uint256","internalType":"uint256"},{"name":"","type":"uint256","internalType":"uint256"},{"name":"","type":"uint256","internalType":"uint256"}],"stateMutability":"view"},{"type":"function","name":"getCash","inputs":[],"outputs":[{"name":"","type":"uint256","internalType":"uint256"}],"stateMutability":"view"},{"type":"function","name":"implementation","inputs":[],"outputs":[{"name":"","type":"address","internalType":"address"}],"stateMutability":"view"},{"type":"function","name":"interestRateModel","inputs":[],"outputs":[{"name":"","type":"address","internalType":"contract InterestRateModel"}],"stateMutability":"view"},{"type":"function","name":"isCToken","inputs":[],"outputs":[{"name":"","type":"bool","internalType":"bool"}],"stateMutability":"view"},{"type":"function","name":"liquidateBorrow","inputs":[{"name":"borrower","type":"address","internalType":"address"},{"name":"repayAmount","type":"uint256","internalType":"uint256"},{"name":"cTokenCollateral","type":"address","internalType":"contract CTokenInterface"}],"outputs":[{"name":"","type":"uint256","internalType":"uint256"}],"stateMutability":"nonpayable"},{"type":"function","name":"mint","inputs":[{"name":"mintAmount","type":"uint256","internalType":"uint256"}],"outputs":[{"name":"","type":"uint256","internalType":"uint256"}],"stateMutability":"nonpayable"},{"type":"function","name":"name","inputs":[],"outputs":[{"name":"","type":"string","internalType":"string"}],"stateMutability":"view"},{"type":"function","name":"pendingAdmin","inputs":[],"outputs":[{"name":"","type":"address","internalType":"address payable"}],"stateMutability":"view"},{"type":"function","name":"protocolSeizeShareMantissa","inputs":[],"outputs":[{"name":"","type":"uint256","internalType":"uint256"}],"stateMutability":"view"},{"type":"function","name":"redeem","inputs":[{"name":"redeemTokens","type":"uint256","internalType":"uint256"}],"outputs":[{"name":"","type":"uint256","internalType":"uint256"}],"stateMutability":"nonpayable"},{"type":"function","name":"redeemUnderlying","inputs":[{"name":"redeemAmount","type":"uint256","internalType":"uint256"}],"outputs":[{"name":"","type":"uint256","internalType":"uint256"}],"stateMutability":"nonpayable"},{"type":"function","name":"repayBorrow","inputs":[{"name":"repayAmount","type":"uint256","internalType":"uint256"}],"outputs":[{"name":"","type":"uint256","internalType":"uint256"}],"stateMutability":"nonpayable"},{"type":"function","name":"repayBorrowBehalf","inputs":[{"name":"borrower","type":"address","internalType":"address"},{"name":"repayAmount","type":"uint256","internalType":"uint256"}],"outputs":[{"name":"","type":"uint256","internalType":"uint256"}],"stateMutability":"nonpayable"},{"type":"function","name":"reserveFactorMantissa","inputs":[],"outputs":[{"name":"","type":"uint256","internalType":"uint256"}],"stateMutability":"view"},{"type":"function","name":"seize","inputs":[{"name":"liquidator","type":"address","internalType":"address"},{"name":"borrower","type":"address","internalType":"address"},{"name":"seizeTokens","type":"uint256","internalType":"uint256"}],"outputs":[{"name":"","type":"uint256","internalType":"uint256"}],"stateMutability":"nonpayable"},{"type":"function","name":"supplyRatePerBlock","inputs":[],"outputs":[{"name":"","type":"uint256","internalType":"uint256"}],"stateMutability":"view"},{"type":"function","name":"sweepToken","inputs":[{"name":"token","type":"address","internalType":"contract EIP20NonStandardInterface"}],"outputs":[],"stateMutability":"nonpayable"},{"type":"function","name":"symbol","inputs":[],"outputs":[{"name":"","type":"string","internalType":"string"}],"stateMutability":"view"},{"type":"function","name":"totalBorrows","inputs":[],"outputs":[{"name":"","type":"uint256","internalType":"uint256"}],"stateMutability":"view"},{"type":"function","name":"totalBorrowsCurrent","inputs":[],"outputs":[{"name":"","type":"uint256","internalType":"uint256"}],"stateMutability":"nonpayable"},{"type":"function","name":"totalReserves","inputs":[],"outputs":[{"name":"","type":"uint256","internalType":"uint256"}],"stateMutability":"view"},{"type":"function","name":"totalSupply","inputs":[],"outputs":[{"name":"","type":"uint256","internalType":"uint256"}],"stateMutability":"view"},{"type":"function","name":"transfer","inputs":[{"name":"dst","type":"address","internalType":"address"},{"name":"amount","type":"uint256","internalType":"uint256"}],"outputs":[{"name":"","type":"bool","internalType":"bool"}],"stateMutability":"nonpayable"},{"type":"function","name":"transferFrom","inputs":[{"name":"src","type":"address","internalType":"address"},{"name":"dst","type":"address","internalType":"address"},{"name":"amount","type":"uint256","internalType":"uint256"}],"outputs":[{"name":"","type":"bool","internalType":"bool"}],"stateMutability":"nonpayable"},{"type":"function","name":"underlying","inputs":[],"outputs":[{"name":"","type":"address","internalType":"address"}],"stateMutability":"view"},{"type":"event","name":"AccrueInterest","inputs":[{"name":"cashPrior","type":"uint256","indexed":false,"internalType":"uint256"},{"name":"interestAccumulated","type":"uint256","indexed":false,"internalType":"uint256"},{"name":"borrowIndex","type":"uint256","indexed":false,"internalType":"uint256"},{"name":"totalBorrows","type":"uint256","indexed":false,"internalType":"uint256"}],"anonymous":false},{"type":"event","name":"Approval","inputs":[{"name":"owner","type":"address","indexed":true,"internalType":"address"},{"name":"spender","type":"address","indexed":true,"internalType":"address"},{"name":"amount","type":"uint256","indexed":false,"internalType":"uint256"}],"anonymous":false},{"type":"event","name":"Borrow","inputs":[{"name":"borrower","type":"address","indexed":false,"internalType":"address"},{"name":"borrowAmount","type":"uint256","indexed":false,"internalType":"uint256"},{"name":"accountBorrows","type":"uint256","indexed":false,"internalType":"uint256"},{"name":"totalBorrows","type":"uint256","indexed":false,"internalType":"uint256"}],"anonymous":false},{"type":"event","name":"LiquidateBorrow","inputs":[{"name":"liquidator","type":"address","indexed":false,"internalType":"address"},{"name":"borrower","type":"address","indexed":false,"internalType":"address"},{"name":"repayAmount","type":"uint256","indexed":false,"internalType":"uint256"},{"name":"cTokenCollateral","type":"address","indexed":false,"internalType":"address"},{"name":"seizeTokens","type":"uint256","indexed":false,"internalType":"uint256"}],"anonymous":false},{"type":"event","name":"Mint","inputs":[{"name":"minter","type":"address","indexed":false,"internalType":"address"},{"name":"mintAmount","type":"uint256","indexed":false,"internalType":"uint256"},{"name":"mintTokens","type":"uint256","indexed":false,"internalType":"uint256"}],"anonymous":false},{"type":"event","name":"NewAdmin","inputs":[{"name":"oldAdmin","type":"address","indexed":false,"internalType":"address"},{"name":"newAdmin","type":"address","indexed":false,"internalType":"address"}],"anonymous":false},{"type":"event","name":"NewComptroller","inputs":[{"name":"oldComptroller","type":"address","indexed":false,"internalType":"contract ComptrollerInterface"},{"name":"newComptroller","type":"address","indexed":false,"internalType":"contract ComptrollerInterface"}],"anonymous":false},{"type":"event","name":"NewImplementation","inputs":[{"name":"oldImplementation","type":"address","indexed":false,"internalType":"address"},{"name":"newImplementation","type":"address","indexed":false,"internalType":"address"}],"anonymous":false},{"type":"event","name":"NewMarketInterestRateModel","inputs":[{"name":"oldInterestRateModel","type":"address","indexed":false,"internalType":"contract InterestRateModel"},{"name":"newInterestRateModel","type":"address","indexed":false,"internalType":"contract InterestRateModel"}],"anonymous":false},{"type":"event","name":"NewPendingAdmin","inputs":[{"name":"oldPendingAdmin","type":"address","indexed":false,"internalType":"address"},{"name":"newPendingAdmin","type":"address","indexed":false,"internalType":"address"}],"anonymous":false},{"type":"event","name":"NewReserveFactor","inputs":[{"name":"oldReserveFactorMantissa","type":"uint256","indexed":false,"internalType":"uint256"},{"name":"newReserveFactorMantissa","type":"uint256","indexed":false,"internalType":"uint256"}],"anonymous":false},{"type":"event","name":"Redeem","inputs":[{"name":"redeemer","type":"address","indexed":false,"internalType":"address"},{"name":"redeemAmount","type":"uint256","indexed":false,"internalType":"uint256"},{"name":"redeemTokens","type":"uint256","indexed":false,"internalType":"uint256"}],"anonymous":false},{"type":"event","name":"RepayBorrow","inputs":[{"name":"payer","type":"address","indexed":false,"internalType":"address"},{"name":"borrower","type":"address","indexed":false,"internalType":"address"},{"name":"repayAmount","type":"uint256","indexed":false,"internalType":"uint256"},{"name":"accountBorrows","type":"uint256","indexed":false,"internalType":"uint256"},{"name":"totalBorrows","type":"uint256","indexed":false,"internalType":"uint256"}],"anonymous":false},{"type":"event","name":"ReservesAdded","inputs":[{"name":"benefactor","type":"address","indexed":false,"internalType":"address"},{"name":"addAmount","type":"uint256","indexed":false,"internalType":"uint256"},{"name":"newTotalReserves","type":"uint256","indexed":false,"internalType":"uint256"}],"anonymous":false},{"type":"event","name":"ReservesReduced","inputs":[{"name":"admin","type":"address","indexed":false,"internalType":"address"},{"name":"reduceAmount","type":"uint256","indexed":false,"internalType":"uint256"},{"name":"newTotalReserves","type":"uint256","indexed":false,"internalType":"uint256"}],"anonymous":false},{"type":"event","name":"Transfer","inputs":[{"name":"from","type":"address","indexed":true,"internalType":"address"},{"name":"to","type":"address","indexed":true,"internalType":"address"},{"name":"amount","type":"uint256","indexed":false,"internalType":"uint256"}],"anonymous":false}],"bytecode":{"object":"0x608060405234801561001057600080fd5b506040516121b03803806121b083398101604081905261002f916103e9565b60038054610100600160a81b031916336101000217905560405161009c908390610069908d908d908d908d908d908d908d9060240161051a565b60408051601f198184030181529190526020810180516001600160e01b03908116631a31d46560e01b179091526100de16565b506100a982600083610155565b5050600380546001600160a01b0390921661010002610100600160a81b0319909216919091179055506105b595505050505050565b6060600080846001600160a01b0316846040516100fb919061057f565b600060405180830381855af49150503d8060008114610136576040519150601f19603f3d011682016040523d82523d6000602084013e61013b565b606091505b5090925090508161014d573d60208201fd5b949350505050565b60035461010090046001600160a01b031633146101de5760405162461bcd60e51b815260206004820152603960248201527f43457263323044656c656761746f723a3a5f736574496d706c656d656e74617460448201527f696f6e3a2043616c6c6572206d7573742062652061646d696e00000000000000606482015260840160405180910390fd5b811561021d576040805160048152602481019091526020810180516001600160e01b0390811663153ab50560e01b1790915261021b91906102d416565b505b601280546001600160a01b038581166001600160a01b03198316179092556040519116906102869061025390849060240161059b565b60408051601f198184030181529190526020810180516001600160e01b03908116630adccee560e31b179091526102d416565b50601254604080516001600160a01b03808516825290921660208301527fd604de94d45953f9138079ec1b82d533cb2160c906d1076d1f7ed54befbca97a910160405180910390a150505050565b6012546060906102ed906001600160a01b0316836100de565b92915050565b80516001600160a01b038116811461030a57600080fd5b919050565b634e487b7160e01b600052604160045260246000fd5b60005b83811015610340578181015183820152602001610328565b50506000910152565b600082601f83011261035a57600080fd5b8151602083016000806001600160401b0384111561037a5761037a61030f565b50604051601f19601f85018116603f011681018181106001600160401b03821117156103a8576103a861030f565b6040528381529050808284018710156103c057600080fd5b6103ce846020830185610325565b9695505050505050565b805160ff8116811461030a57600080fd5b6000806000806000806000806000806101408b8d03121561040957600080fd5b6104128b6102f3565b995061042060208c016102f3565b985061042e60408c016102f3565b60608c015160808d015191995097506001600160401b0381111561045157600080fd5b61045d8d828e01610349565b60a08d015190975090506001600160401b0381111561047b57600080fd5b6104878d828e01610349565b95505061049660c08c016103d8565b93506104a460e08c016102f3565b92506104b36101008c016102f3565b6101208c01519092506001600160401b038111156104d057600080fd5b6104dc8d828e01610349565b9150509295989b9194979a5092959850565b60008151808452610506816020860160208601610325565b601f01601f19169290920160200192915050565b6001600160a01b0388811682528781166020830152861660408201526060810185905260e060808201819052600090610555908301866104ee565b82810360a084015261056781866104ee565b91505060ff831660c083015298975050505050505050565b60008251610591818460208701610325565b9190910192915050565b6020815260006105ae60208301846104ee565b9392505050565b611bec806105c46000396000f3fe6080604052600436106102ff5760003560e01c806370a0823111610190578063bd6d894d116100dc578063f2b3abbd11610095578063f851a4401161006f578063f851a440146109c9578063f8f9da28146109ee578063fca7820b14610a03578063fe9c44ae14610a23576102ff565b8063f2b3abbd14610969578063f3fdb15a14610989578063f5e3c462146109a9576102ff565b8063bd6d894d1461089f578063c37f68e2146108b4578063c5ebeaec146108f4578063db006a7514610914578063dd62ed3e14610934578063e9c714f214610954576102ff565b8063a0712d6811610149578063aa5af0fd11610123578063aa5af0fd14610834578063ae9d70b01461084a578063b2a02ff11461085f578063b71d1a0c1461087f576102ff565b8063a0712d68146107df578063a6afed95146107ff578063a9059cbb14610814576102ff565b806370a082311461073f57806373acee981461075f578063852a12e3146107745780638f840ddd1461079457806395d89b41146107aa57806395dd9193146107bf576102ff565b80633af9e6691161024f578063555bcc4011610208578063601a0bf1116101e2578063601a0bf1146106ce5780636752e702146106ee5780636c540baf146107095780636f307dc31461071f576102ff565b8063555bcc401461066e5780635c60da1b1461068e5780635fe3b567146106ae576102ff565b80633af9e669146105c35780633b1d21a2146105e35780633e941010146105f85780634487152f146106185780634576b5db1461063857806347bd371814610658576102ff565b806318160ddd116102bc57806323b872dd1161029657806323b872dd1461051f5780632608f8181461053f578063267822471461055f578063313ce56714610597576102ff565b806318160ddd146104d4578063182df0f5146104ea5780631be19560146104ff576102ff565b806306fdde03146103f55780630933c1ed14610420578063095ea7b3146104405780630e75270214610470578063173b99041461049e57806317bfdfbc146104b4575b34156103785760405162461bcd60e51b815260206004820152603760248201527f43457263323044656c656761746f723a66616c6c6261636b3a2063616e6e6f7460448201527f2073656e642076616c756520746f2066616c6c6261636b00000000000000000060648201526084015b60405180910390fd5b6012546040516000916001600160a01b0316906103989083903690611773565b600060405180830381855af49150503d80600081146103d3576040519150601f19603f3d011682016040523d82523d6000602084013e6103d8565b606091505b505090506040513d6000823e8180156103ef573d82f35b3d82fd5b005b34801561040157600080fd5b5061040a610a38565b60405161041791906117d3565b60405180910390f35b34801561042c57600080fd5b5061040a61043b3660046118ab565b610ac6565b34801561044c57600080fd5b5061046061045b3660046118f8565b610ae5565b6040519015158152602001610417565b34801561047c57600080fd5b5061049061048b366004611924565b610b57565b604051908152602001610417565b3480156104aa57600080fd5b5061049060085481565b3480156104c057600080fd5b506104906104cf36600461193d565b610bbc565b3480156104e057600080fd5b50610490600d5481565b3480156104f657600080fd5b50610490610c09565b34801561050b57600080fd5b506103f361051a36600461193d565b610c5c565b34801561052b57600080fd5b5061046061053a36600461195a565b610ca7565b34801561054b57600080fd5b5061049061055a3660046118f8565b610d22565b34801561056b57600080fd5b5060045461057f906001600160a01b031681565b6040516001600160a01b039091168152602001610417565b3480156105a357600080fd5b506003546105b19060ff1681565b60405160ff9091168152602001610417565b3480156105cf57600080fd5b506104906105de36600461193d565b610d8c565b3480156105ef57600080fd5b50610490610dd9565b34801561060457600080fd5b50610490610613366004611924565b610e10565b34801561062457600080fd5b5061040a6106333660046118ab565b610e58565b34801561064457600080fd5b5061049061065336600461193d565b610f13565b34801561066457600080fd5b50610490600b5481565b34801561067a57600080fd5b506103f36106893660046119a9565b610f60565b34801561069a57600080fd5b5060125461057f906001600160a01b031681565b3480156106ba57600080fd5b5060055461057f906001600160a01b031681565b3480156106da57600080fd5b506104906106e9366004611924565b6110d2565b3480156106fa57600080fd5b50610490666379da05b6000081565b34801561071557600080fd5b5061049060095481565b34801561072b57600080fd5b5060115461057f906001600160a01b031681565b34801561074b57600080fd5b5061049061075a36600461193d565b61111a565b34801561076b57600080fd5b50610490611167565b34801561078057600080fd5b5061049061078f366004611924565b61119e565b3480156107a057600080fd5b50610490600c5481565b3480156107b657600080fd5b5061040a6111e6565b3480156107cb57600080fd5b506104906107da36600461193d565b6111f3565b3480156107eb57600080fd5b506104906107fa366004611924565b611240565b34801561080b57600080fd5b50610490611288565b34801561082057600080fd5b5061046061082f3660046118f8565b6112bf565b34801561084057600080fd5b50610490600a5481565b34801561085657600080fd5b50610490611313565b34801561086b57600080fd5b5061049061087a36600461195a565b61134a565b34801561088b57600080fd5b5061049061089a36600461193d565b6113bc565b3480156108ab57600080fd5b50610490611409565b3480156108c057600080fd5b506108d46108cf36600461193d565b611440565b604080519485526020850193909352918301526060820152608001610417565b34801561090057600080fd5b5061049061090f366004611924565b6114c0565b34801561092057600080fd5b5061049061092f366004611924565b611508565b34801561094057600080fd5b5061049061094f366004611a0b565b611550565b34801561096057600080fd5b506104906115a5565b34801561097557600080fd5b5061049061098436600461193d565b6115dc565b34801561099557600080fd5b5060065461057f906001600160a01b031681565b3480156109b557600080fd5b506104906109c4366004611a44565b611629565b3480156109d557600080fd5b5060035461057f9061010090046001600160a01b031681565b3480156109fa57600080fd5b50610490611685565b348015610a0f57600080fd5b50610490610a1e366004611924565b6116bc565b348015610a2f57600080fd5b50610460600181565b60018054610a4590611a86565b80601f0160208091040260200160405190810160405280929190818152602001828054610a7190611a86565b8015610abe5780601f10610a9357610100808354040283529160200191610abe565b820191906000526020600020905b815481529060010190602001808311610aa157829003601f168201915b505050505081565b601254606090610adf906001600160a01b031683611704565b92915050565b6040516001600160a01b0383166024820152604481018290526000908190610b399060640160408051601f198184030181529190526020810180516001600160e01b031663095ea7b360e01b179052610ac6565b905080806020019051810190610b4f9190611ac0565b949350505050565b600080610b9f83604051602401610b7091815260200190565b60408051601f198184030181529190526020810180516001600160e01b031663073a938160e11b179052610ac6565b905080806020019051810190610bb59190611add565b9392505050565b6040516001600160a01b03821660248201526000908190610b9f9060440160408051601f198184030181529190526020810180516001600160e01b03166305eff7ef60e21b179052610ac6565b6040805160048152602481019091526020810180516001600160e01b031663182df0f560e01b1790526000908190610c4090610e58565b905080806020019051810190610c569190611add565b91505090565b6040516001600160a01b0382166024820152610ca39060440160408051601f198184030181529190526020810180516001600160e01b031662df0cab60e51b179052610ac6565b5050565b6040516001600160a01b03808516602483015283166044820152606481018290526000908190610d039060840160408051601f198184030181529190526020810180516001600160e01b03166323b872dd60e01b179052610ac6565b905080806020019051810190610d199190611ac0565b95945050505050565b6040516001600160a01b0383166024820152604481018290526000908190610d769060640160408051601f198184030181529190526020810180516001600160e01b03166304c11f0360e31b179052610ac6565b905080806020019051810190610b4f9190611add565b6040516001600160a01b03821660248201526000908190610b9f9060440160408051601f198184030181529190526020810180516001600160e01b0316633af9e66960e01b179052610ac6565b6040805160048152602481019091526020810180516001600160e01b0316631d8e90d160e11b1790526000908190610c4090610e58565b600080610b9f83604051602401610e2991815260200190565b60408051601f198184030181529190526020810180516001600160e01b03166303e9410160e41b179052610ac6565b6060600080306001600160a01b031684604051602401610e7891906117d3565b60408051601f198184030181529181526020820180516001600160e01b0316630933c1ed60e01b17905251610ead9190611af6565b600060405180830381855afa9150503d8060008114610ee8576040519150601f19603f3d011682016040523d82523d6000602084013e610eed565b606091505b50909250905081610eff573d60208201fd5b80806020019051810190610b4f9190611b12565b6040516001600160a01b03821660248201526000908190610b9f9060440160408051601f198184030181529190526020810180516001600160e01b0316634576b5db60e01b179052610ac6565b60035461010090046001600160a01b03163314610fe55760405162461bcd60e51b815260206004820152603960248201527f43457263323044656c656761746f723a3a5f736574496d706c656d656e74617460448201527f696f6e3a2043616c6c6572206d7573742062652061646d696e00000000000000606482015260840161036f565b811561101f576040805160048152602481019091526020810180516001600160e01b031663153ab50560e01b17905261101d90610ac6565b505b601280546001600160a01b038581166001600160a01b0319831617909255604051911690611084906110559084906024016117d3565b60408051601f198184030181529190526020810180516001600160e01b0316630adccee560e31b179052610ac6565b50601254604080516001600160a01b03808516825290921660208301527fd604de94d45953f9138079ec1b82d533cb2160c906d1076d1f7ed54befbca97a910160405180910390a150505050565b600080610b9f836040516024016110eb91815260200190565b60408051601f198184030181529190526020810180516001600160e01b031663601a0bf160e01b179052610ac6565b6040516001600160a01b03821660248201526000908190610b9f9060440160408051601f198184030181529190526020810180516001600160e01b03166370a0823160e01b179052610e58565b6040805160048152602481019091526020810180516001600160e01b0316630e759dd360e31b1790526000908190610c4090610ac6565b600080610b9f836040516024016111b791815260200190565b60408051601f198184030181529190526020810180516001600160e01b031663852a12e360e01b179052610ac6565b60028054610a4590611a86565b6040516001600160a01b03821660248201526000908190610b9f9060440160408051601f198184030181529190526020810180516001600160e01b03166395dd919360e01b179052610e58565b600080610b9f8360405160240161125991815260200190565b60408051601f198184030181529190526020810180516001600160e01b031663140e25ad60e31b179052610ac6565b6040805160048152602481019091526020810180516001600160e01b031663a6afed9560e01b1790526000908190610c4090610ac6565b6040516001600160a01b0383166024820152604481018290526000908190610b399060640160408051601f198184030181529190526020810180516001600160e01b031663a9059cbb60e01b179052610ac6565b6040805160048152602481019091526020810180516001600160e01b0316630ae9d70b60e41b1790526000908190610c4090610e58565b6040516001600160a01b038085166024830152831660448201526064810182905260009081906113a69060840160408051601f198184030181529190526020810180516001600160e01b031663b2a02ff160e01b179052610ac6565b905080806020019051810190610d199190611add565b6040516001600160a01b03821660248201526000908190610b9f9060440160408051601f198184030181529190526020810180516001600160e01b0316632dc7468360e21b179052610ac6565b6040805160048152602481019091526020810180516001600160e01b031663bd6d894d60e01b1790526000908190610c4090610ac6565b600080600080600061149a8660405160240161146b91906001600160a01b0391909116815260200190565b60408051601f198184030181529190526020810180516001600160e01b03166361bfb47160e11b179052610e58565b9050808060200190518101906114b09190611b80565b9450945094509450509193509193565b600080610b9f836040516024016114d991815260200190565b60408051601f198184030181529190526020810180516001600160e01b031663317afabb60e21b179052610ac6565b600080610b9f8360405160240161152191815260200190565b60408051601f198184030181529190526020810180516001600160e01b031663db006a7560e01b179052610ac6565b6040516001600160a01b038084166024830152821660448201526000908190610d769060640160408051601f198184030181529190526020810180516001600160e01b0316636eb1769f60e11b179052610e58565b6040805160048152602481019091526020810180516001600160e01b03166374e38a7960e11b1790526000908190610c4090610ac6565b6040516001600160a01b03821660248201526000908190610b9f9060440160408051601f198184030181529190526020810180516001600160e01b031663f2b3abbd60e01b179052610ac6565b6040516001600160a01b038085166024830152604482018490528216606482015260009081906113a69060840160408051601f198184030181529190526020810180516001600160e01b0316637af1e23160e11b179052610ac6565b6040805160048152602481019091526020810180516001600160e01b0316631f1f3b4560e31b1790526000908190610c4090610e58565b600080610b9f836040516024016116d591815260200190565b60408051601f198184030181529190526020810180516001600160e01b031663fca7820b60e01b179052610ac6565b6060600080846001600160a01b0316846040516117219190611af6565b600060405180830381855af49150503d806000811461175c576040519150601f19603f3d011682016040523d82523d6000602084013e611761565b606091505b50909250905081610b4f573d60208201fd5b8183823760009101908152919050565b60005b8381101561179e578181015183820152602001611786565b50506000910152565b600081518084526117bf816020860160208601611783565b601f01601f19169290920160200192915050565b602081526000610bb560208301846117a7565b634e487b7160e01b600052604160045260246000fd5b604051601f8201601f1916810167ffffffffffffffff81118282101715611825576118256117e6565b604052919050565b600067ffffffffffffffff821115611847576118476117e6565b50601f01601f191660200190565b600082601f83011261186657600080fd5b81356118796118748261182d565b6117fc565b81815284602083860101111561188e57600080fd5b816020850160208301376000918101602001919091529392505050565b6000602082840312156118bd57600080fd5b813567ffffffffffffffff8111156118d457600080fd5b610b4f84828501611855565b6001600160a01b03811681146118f557600080fd5b50565b6000806040838503121561190b57600080fd5b8235611916816118e0565b946020939093013593505050565b60006020828403121561193657600080fd5b5035919050565b60006020828403121561194f57600080fd5b8135610bb5816118e0565b60008060006060848603121561196f57600080fd5b833561197a816118e0565b9250602084013561198a816118e0565b929592945050506040919091013590565b80151581146118f557600080fd5b6000806000606084860312156119be57600080fd5b83356119c9816118e0565b925060208401356119d98161199b565b9150604084013567ffffffffffffffff8111156119f557600080fd5b611a0186828701611855565b9150509250925092565b60008060408385031215611a1e57600080fd5b8235611a29816118e0565b91506020830135611a39816118e0565b809150509250929050565b600080600060608486031215611a5957600080fd5b8335611a64816118e0565b9250602084013591506040840135611a7b816118e0565b809150509250925092565b600181811c90821680611a9a57607f821691505b602082108103611aba57634e487b7160e01b600052602260045260246000fd5b50919050565b600060208284031215611ad257600080fd5b8151610bb58161199b565b600060208284031215611aef57600080fd5b5051919050565b60008251611b08818460208701611783565b9190910192915050565b600060208284031215611b2457600080fd5b815167ffffffffffffffff811115611b3b57600080fd5b8201601f81018413611b4c57600080fd5b8051611b5a6118748261182d565b818152856020838501011115611b6f57600080fd5b610d19826020830160208601611783565b60008060008060808587031215611b9657600080fd5b50508251602084015160408501516060909501519196909550909250905056fea26469706673582212207d93b8fedc9e765270d3acaaeaa6210a7c284a06f6e2fb575a7d6dd990b5b6c564736f6c634300081b0033","linkReferences":{}},"methodIdentifiers":{"_acceptAdmin()":"e9c714f2","_addReserves(uint256)":"3e941010","_reduceReserves(uint256)":"601a0bf1","_setComptroller(address)":"4576b5db","_setImplementation(address,bool,bytes)":"555bcc40","_setInterestRateModel(address)":"f2b3abbd","_setPendingAdmin(address)":"b71d1a0c","_setReserveFactor(uint256)":"fca7820b","accrualBlockNumber()":"6c540baf","accrueInterest()":"a6afed95","admin()":"f851a440","allowance(address,address)":"dd62ed3e","approve(address,uint256)":"095ea7b3","balanceOf(address)":"70a08231","balanceOfUnderlying(address)":"3af9e669","borrow(uint256)":"c5ebeaec","borrowBalanceCurrent(address)":"17bfdfbc","borrowBalanceStored(address)":"95dd9193","borrowIndex()":"aa5af0fd","borrowRatePerBlock()":"f8f9da28","comptroller()":"5fe3b567","decimals()":"313ce567","delegateToImplementation(bytes)":"0933c1ed","delegateToViewImplementation(bytes)":"4487152f","exchangeRateCurrent()":"bd6d894d","exchangeRateStored()":"182df0f5","getAccountSnapshot(address)":"c37f68e2","getCash()":"3b1d21a2","implementation()":"5c60da1b","interestRateModel()":"f3fdb15a","isCToken()":"fe9c44ae","liquidateBorrow(address,uint256,address)":"f5e3c462","mint(uint256)":"a0712d68","name()":"06fdde03","pendingAdmin()":"26782247","protocolSeizeShareMantissa()":"6752e702","redeem(uint256)":"db006a75","redeemUnderlying(uint256)":"852a12e3","repayBorrow(uint256)":"0e752702","repayBorrowBehalf(address,uint256)":"2608f818","reserveFactorMantissa()":"173b9904","seize(address,address,uint256)":"b2a02ff1","supplyRatePerBlock()":"ae9d70b0","sweepToken(address)":"1be19560","symbol()":"95d89b41","totalBorrows()":"47bd3718","totalBorrowsCurrent()":"73acee98","totalReserves()":"8f840ddd","totalSupply()":"18160ddd","transfer(address,uint256)":"a9059cbb","transferFrom(address,address,uint256)":"23b872dd","underlying()":"6f307dc3"},"id":25}