{"abi":[{"type":"function","name":"admin","inputs":[],"outputs":[{"name":"","type":"address","internalType":"address"}],"stateMutability":"view"},{"type":"function","name":"comp","inputs":[],"outputs":[{"name":"","type":"address","internalType":"contract CompInterface"}],"stateMutability":"view"},{"type":"function","name":"implementation","inputs":[],"outputs":[{"name":"","type":"address","internalType":"address"}],"stateMutability":"view"},{"type":"function","name":"initialProposalId","inputs":[],"outputs":[{"name":"","type":"uint256","internalType":"uint256"}],"stateMutability":"view"},{"type":"function","name":"latestProposalIds","inputs":[{"name":"","type":"address","internalType":"address"}],"outputs":[{"name":"","type":"uint256","internalType":"uint256"}],"stateMutability":"view"},{"type":"function","name":"pendingAdmin","inputs":[],"outputs":[{"name":"","type":"address","internalType":"address"}],"stateMutability":"view"},{"type":"function","name":"proposalCount","inputs":[],"outputs":[{"name":"","type":"uint256","internalType":"uint256"}],"stateMutability":"view"},{"type":"function","name":"proposalThreshold","inputs":[],"outputs":[{"name":"","type":"uint256","internalType":"uint256"}],"stateMutability":"view"},{"type":"function","name":"proposals","inputs":[{"name":"","type":"uint256","internalType":"uint256"}],"outputs":[{"name":"id","type":"uint256","internalType":"uint256"},{"name":"proposer","type":"address","internalType":"address"},{"name":"eta","type":"uint256","internalType":"uint256"},{"name":"startBlock","type":"uint256","internalType":"uint256"},{"name":"endBlock","type":"uint256","internalType":"uint256"},{"name":"forVotes","type":"uint256","internalType":"uint256"},{"name":"againstVotes","type":"uint256","internalType":"uint256"},{"name":"abstainVotes","type":"uint256","internalType":"uint256"},{"name":"canceled","type":"bool","internalType":"bool"},{"name":"executed","type":"bool","internalType":"bool"}],"stateMutability":"view"},{"type":"function","name":"timelock","inputs":[],"outputs":[{"name":"","type":"address","internalType":"contract TimelockInterface"}],"stateMutability":"view"},{"type":"function","name":"votingDelay","inputs":[],"outputs":[{"name":"","type":"uint256","internalType":"uint256"}],"stateMutability":"view"},{"type":"function","name":"votingPeriod","inputs":[],"outputs":[{"name":"","type":"uint256","internalType":"uint256"}],"stateMutability":"view"}],"bytecode":{"object":"0x6080604052348015600f57600080fd5b506102d68061001f6000396000f3fe608060405234801561001057600080fd5b50600436106100b45760003560e01c80635c60da1b116100715780635c60da1b14610203578063b58131b014610216578063d33219b41461021f578063da35c66414610232578063f851a4401461023b578063fc4eee421461024e57600080fd5b8063013cf08b146100b957806302a251a314610185578063109d0af81461019c57806317977c61146101c757806326782247146101e75780633932abb1146101fa575b600080fd5b61012a6100c7366004610257565b600a60208190526000918252604090912080546001820154600283015460078401546008850154600986015496860154600b870154600c9097015495976001600160a01b0390951696939592949193919290919060ff808216916101009004168a565b604080519a8b526001600160a01b0390991660208b0152978901969096526060880194909452608087019290925260a086015260c085015260e084015215156101008301521515610120820152610140015b60405180910390f35b61018e60045481565b60405190815260200161017c565b6009546101af906001600160a01b031681565b6040516001600160a01b03909116815260200161017c565b61018e6101d5366004610270565b600b6020526000908152604090205481565b6001546101af906001600160a01b031681565b61018e60035481565b6002546101af906001600160a01b031681565b61018e60055481565b6008546101af906001600160a01b031681565b61018e60075481565b6000546101af906001600160a01b031681565b61018e60065481565b60006020828403121561026957600080fd5b5035919050565b60006020828403121561028257600080fd5b81356001600160a01b038116811461029957600080fd5b939250505056fea264697066735822122091d9a6be05cdd5a64e2d0d409abc164e56ecddca6a971bcd98ffca38852f723864736f6c634300081b0033","linkReferences":{}},"methodIdentifiers":{"admin()":"f851a440","comp()":"109d0af8","implementation()":"5c60da1b","initialProposalId()":"fc4eee42","latestProposalIds(address)":"17977c61","pendingAdmin()":"26782247","proposalCount()":"da35c664","proposalThreshold()":"b58131b0","proposals(uint256)":"013cf08b","timelock()":"d33219b4","votingDelay()":"3932abb1","votingPeriod()":"02a251a3"},"id":44}