{"abi":[{"type":"function","name":"admin","inputs":[],"outputs":[{"name":"","type":"address","internalType":"address"}],"stateMutability":"view"},{"type":"function","name":"implementation","inputs":[],"outputs":[{"name":"","type":"address","internalType":"address"}],"stateMutability":"view"},{"type":"function","name":"pendingAdmin","inputs":[],"outputs":[{"name":"","type":"address","internalType":"address"}],"stateMutability":"view"}],"bytecode":{"object":"0x6080604052348015600f57600080fd5b5060c980601d6000396000f3fe6080604052348015600f57600080fd5b5060043610603c5760003560e01c8063267822471460415780635c60da1b14606f578063f851a440146081575b600080fd5b6001546053906001600160a01b031681565b6040516001600160a01b03909116815260200160405180910390f35b6002546053906001600160a01b031681565b6000546053906001600160a01b03168156fea26469706673582212200320922c563f7dca00560b8c67b9a0fc78c802a2039bdf8ac80e6f4d3798a29364736f6c634300081b0033","linkReferences":{}},"methodIdentifiers":{"admin()":"f851a440","implementation()":"5c60da1b","pendingAdmin()":"26782247"},"id":45}