{"abi":[{"type":"constructor","inputs":[{"name":"admin_","type":"address","internalType":"address"},{"name":"delay_","type":"uint256","internalType":"uint256"}],"stateMutability":"nonpayable"},{"type":"fallback","stateMutability":"payable"},{"type":"function","name":"GRACE_PERIOD","inputs":[],"outputs":[{"name":"","type":"uint256","internalType":"uint256"}],"stateMutability":"view"},{"type":"function","name":"MAXIMUM_DELAY","inputs":[],"outputs":[{"name":"","type":"uint256","internalType":"uint256"}],"stateMutability":"view"},{"type":"function","name":"MINIMUM_DELAY","inputs":[],"outputs":[{"name":"","type":"uint256","internalType":"uint256"}],"stateMutability":"view"},{"type":"function","name":"acceptAdmin","inputs":[],"outputs":[],"stateMutability":"nonpayable"},{"type":"function","name":"admin","inputs":[],"outputs":[{"name":"","type":"address","internalType":"address"}],"stateMutability":"view"},{"type":"function","name":"cancelTransaction","inputs":[{"name":"target","type":"address","internalType":"address"},{"name":"value","type":"uint256","internalType":"uint256"},{"name":"signature","type":"string","internalType":"string"},{"name":"data","type":"bytes","internalType":"bytes"},{"name":"eta","type":"uint256","internalType":"uint256"}],"outputs":[],"stateMutability":"nonpayable"},{"type":"function","name":"delay","inputs":[],"outputs":[{"name":"","type":"uint256","internalType":"uint256"}],"stateMutability":"view"},{"type":"function","name":"executeTransaction","inputs":[{"name":"target","type":"address","internalType":"address"},{"name":"value","type":"uint256","internalType":"uint256"},{"name":"signature","type":"string","internalType":"string"},{"name":"data","type":"bytes","internalType":"bytes"},{"name":"eta","type":"uint256","internalType":"uint256"}],"outputs":[{"name":"","type":"bytes","internalType":"bytes"}],"stateMutability":"payable"},{"type":"function","name":"pendingAdmin","inputs":[],"outputs":[{"name":"","type":"address","internalType":"address"}],"stateMutability":"view"},{"type":"function","name":"queueTransaction","inputs":[{"name":"target","type":"address","internalType":"address"},{"name":"value","type":"uint256","internalType":"uint256"},{"name":"signature","type":"string","internalType":"string"},{"name":"data","type":"bytes","internalType":"bytes"},{"name":"eta","type":"uint256","internalType":"uint256"}],"outputs":[{"name":"","type":"bytes32","internalType":"bytes32"}],"stateMutability":"nonpayable"},{"type":"function","name":"queuedTransactions","inputs":[{"name":"","type":"bytes32","internalType":"bytes32"}],"outputs":[{"name":"","type":"bool","internalType":"bool"}],"stateMutability":"view"},{"type":"function","name":"setDelay","inputs":[{"name":"delay_","type":"uint256","internalType":"uint256"}],"outputs":[],"stateMutability":"nonpayable"},{"type":"function","name":"setPendingAdmin","inputs":[{"name":"pendingAdmin_","type":"address","internalType":"address"}],"outputs":[],"stateMutability":"nonpayable"},{"type":"event","name":"CancelTransaction","inputs":[{"name":"txHash","type":"bytes32","indexed":true,"internalType":"bytes32"},{"name":"target","type":"address","indexed":true,"internalType":"address"},{"name":"value","type":"uint256","indexed":false,"internalType":"uint256"},{"name":"signature","type":"string","indexed":false,"internalType":"string"},{"name":"data","type":"bytes","indexed":false,"internalType":"bytes"},{"name":"eta","type":"uint256","indexed":false,"internalType":"uint256"}],"anonymous":false},{"type":"event","name":"ExecuteTransaction","inputs":[{"name":"txHash","type":"bytes32","indexed":true,"internalType":"bytes32"},{"name":"target","type":"address","indexed":true,"internalType":"address"},{"name":"value","type":"uint256","indexed":false,"internalType":"uint256"},{"name":"signature","type":"string","indexed":false,"internalType":"string"},{"name":"data","type":"bytes","indexed":false,"internalType":"bytes"},{"name":"eta","type":"uint256","indexed":false,"internalType":"uint256"}],"anonymous":false},{"type":"event","name":"NewAdmin","inputs":[{"name":"newAdmin","type":"address","indexed":true,"internalType":"address"}],"anonymous":false},{"type":"event","name":"NewDelay","inputs":[{"name":"newDelay","type":"uint256","indexed":true,"internalType":"uint256"}],"anonymous":false},{"type":"event","name":"NewPendingAdmin","inputs":[{"name":"newPendingAdmin","type":"address","indexed":true,"internalType":"address"}],"anonymous":false},{"type":"event","name":"QueueTransaction","inputs":[{"name":"txHash","type":"bytes32","indexed":true,"internalType":"bytes32"},{"name":"target","type":"address","indexed":true,"internalType":"address"},{"name":"value","type":"uint256","indexed":false,"internalType":"uint256"},{"name":"signature","type":"string","indexed":false,"internalType":"string"},{"name":"data","type":"bytes","indexed":false,"internalType":"bytes"},{"name":"eta","type":"uint256","indexed":false,"internalType":"uint256"}],"anonymous":false}],"bytecode":{"object":"0x608060405234801561001057600080fd5b506040516110df3803806110df83398101604081905261002f9161014f565b6202a3008110156100ad5760405162461bcd60e51b815260206004820152603760248201527f54696d656c6f636b3a3a636f6e7374727563746f723a2044656c6179206d757360448201527f7420657863656564206d696e696d756d2064656c61792e00000000000000000060648201526084015b60405180910390fd5b62278d008111156101265760405162461bcd60e51b815260206004820152603860248201527f54696d656c6f636b3a3a73657444656c61793a2044656c6179206d757374206e60448201527f6f7420657863656564206d6178696d756d2064656c61792e000000000000000060648201526084016100a4565b600080546001600160a01b0319166001600160a01b039390931692909217909155600255610189565b6000806040838503121561016257600080fd5b82516001600160a01b038116811461017957600080fd5b6020939093015192949293505050565b610f47806101986000396000f3fe6080604052600436106100bc5760003560e01c80636a42b8f811610079578063c1a287e211610056578063c1a287e2146101e6578063e177246e146101fd578063f2b065371461021d578063f851a4401461025d57005b80636a42b8f8146101a25780637d645fab146101b8578063b1b43ae5146101cf57005b80630825f38f146100be5780630e18b681146100e757806326782247146100fc5780633a66f901146101345780634dd18bf514610162578063591fcdfe14610182575b005b6100d16100cc366004610cd1565b61027d565b6040516100de9190610dd4565b60405180910390f35b3480156100f357600080fd5b506100bc6105ef565b34801561010857600080fd5b5060015461011c906001600160a01b031681565b6040516001600160a01b0390911681526020016100de565b34801561014057600080fd5b5061015461014f366004610cd1565b6106b8565b6040519081526020016100de565b34801561016e57600080fd5b506100bc61017d366004610de7565b61086b565b34801561018e57600080fd5b506100bc61019d366004610cd1565b61092a565b3480156101ae57600080fd5b5061015460025481565b3480156101c457600080fd5b5061015462278d0081565b3480156101db57600080fd5b506101546202a30081565b3480156101f257600080fd5b506101546212750081565b34801561020957600080fd5b506100bc610218366004610e02565b610a44565b34801561022957600080fd5b5061024d610238366004610e02565b60036020526000908152604090205460ff1681565b60405190151581526020016100de565b34801561026957600080fd5b5060005461011c906001600160a01b031681565b6000546060906001600160a01b031633146103055760405162461bcd60e51b815260206004820152603860248201527f54696d656c6f636b3a3a657865637574655472616e73616374696f6e3a20436160448201527f6c6c206d75737420636f6d652066726f6d2061646d696e2e000000000000000060648201526084015b60405180910390fd5b60008686868686604051602001610320959493929190610e1b565b60408051601f1981840301815291815281516020928301206000818152600390935291205490915060ff166103ab5760405162461bcd60e51b815260206004820152603d6024820152600080516020610ef283398151915260448201527f616e73616374696f6e206861736e2774206265656e207175657565642e00000060648201526084016102fc565b8242101561041d5760405162461bcd60e51b81526020600482015260456024820152600080516020610ef283398151915260448201527f616e73616374696f6e206861736e2774207375727061737365642074696d65206064820152643637b1b59760d91b608482015260a4016102fc565b61042a8362127500610bc9565b4211156104835760405162461bcd60e51b81526020600482015260336024820152600080516020610ef283398151915260448201527230b739b0b1ba34b7b71034b99039ba30b6329760691b60648201526084016102fc565b6000818152600360205260408120805460ff191690558551606091036104aa5750836104d6565b8580519060200120856040516020016104c4929190610e67565b60405160208183030381529060405290505b600080896001600160a01b031689846040516104f29190610e98565b60006040518083038185875af1925050503d806000811461052f576040519150601f19603f3d011682016040523d82523d6000602084013e610534565b606091505b50915091508161059a5760405162461bcd60e51b815260206004820152603d6024820152600080516020610ef283398151915260448201527f616e73616374696f6e20657865637574696f6e2072657665727465642e00000060648201526084016102fc565b896001600160a01b0316847fa560e3198060a2f10670c1ec5b403077ea6ae93ca8de1c32b451dc1a943cd6e78b8b8b8b6040516105da9493929190610eb4565b60405180910390a39998505050505050505050565b6001546001600160a01b0316331461066f5760405162461bcd60e51b815260206004820152603860248201527f54696d656c6f636b3a3a61636365707441646d696e3a2043616c6c206d75737460448201527f20636f6d652066726f6d2070656e64696e6741646d696e2e000000000000000060648201526084016102fc565b60008054336001600160a01b0319918216811783556001805490921690915560405190917f71614071b88dee5e0b2ae578a9dd7b2ebbe9ae832ba419dc0242cd065a290b6c91a2565b600080546001600160a01b031633146107325760405162461bcd60e51b815260206004820152603660248201527f54696d656c6f636b3a3a71756575655472616e73616374696f6e3a2043616c6c6044820152751036bab9ba1031b7b6b290333937b69030b236b4b71760511b60648201526084016102fc565b61074560025461073f4290565b90610bc9565b8210156107cc5760405162461bcd60e51b815260206004820152604960248201527f54696d656c6f636b3a3a71756575655472616e73616374696f6e3a204573746960448201527f6d6174656420657865637574696f6e20626c6f636b206d757374207361746973606482015268333c903232b630bc9760b91b608482015260a4016102fc565b600086868686866040516020016107e7959493929190610e1b565b60408051601f19818403018152828252805160209182012060008181526003909252919020805460ff1916600117905591506001600160a01b0388169082907f76e2796dc3a81d57b0e8504b647febcbeeb5f4af818e164f11eef8131a6a763f90610859908a908a908a908a90610eb4565b60405180910390a39695505050505050565b3330146108e05760405162461bcd60e51b815260206004820152603860248201527f54696d656c6f636b3a3a73657450656e64696e6741646d696e3a2043616c6c2060448201527f6d75737420636f6d652066726f6d2054696d656c6f636b2e000000000000000060648201526084016102fc565b600180546001600160a01b0319166001600160a01b0383169081179091556040517f69d78e38a01985fbb1462961809b4b2d65531bc93b2b94037f3334b82ca4a75690600090a250565b6000546001600160a01b031633146109aa5760405162461bcd60e51b815260206004820152603760248201527f54696d656c6f636b3a3a63616e63656c5472616e73616374696f6e3a2043616c60448201527f6c206d75737420636f6d652066726f6d2061646d696e2e00000000000000000060648201526084016102fc565b600085858585856040516020016109c5959493929190610e1b565b60408051601f19818403018152828252805160209182012060008181526003909252919020805460ff1916905591506001600160a01b0387169082907f2fffc091a501fd91bfbff27141450d3acb40fb8e6d8382b243ec7a812a3aaf8790610a34908990899089908990610eb4565b60405180910390a3505050505050565b333014610aad5760405162461bcd60e51b815260206004820152603160248201527f54696d656c6f636b3a3a73657444656c61793a2043616c6c206d75737420636f60448201527036b290333937b6902a34b6b2b637b1b59760791b60648201526084016102fc565b6202a300811015610b1d5760405162461bcd60e51b815260206004820152603460248201527f54696d656c6f636b3a3a73657444656c61793a2044656c6179206d75737420656044820152733c31b2b2b21036b4b734b6bab6903232b630bc9760611b60648201526084016102fc565b62278d00811115610b965760405162461bcd60e51b815260206004820152603860248201527f54696d656c6f636b3a3a73657444656c61793a2044656c6179206d757374206e60448201527f6f7420657863656564206d6178696d756d2064656c61792e000000000000000060648201526084016102fc565b600281905560405181907f948b1f6a42ee138b7e34058ba85a37f716d55ff25ff05a763f15bed6a04c8d2c90600090a250565b600082820183811015610c1e5760405162461bcd60e51b815260206004820152601b60248201527f536166654d6174683a206164646974696f6e206f766572666c6f77000000000060448201526064016102fc565b9392505050565b80356001600160a01b0381168114610c3c57600080fd5b919050565b634e487b7160e01b600052604160045260246000fd5b60008067ffffffffffffffff841115610c7257610c72610c41565b50604051601f19601f85018116603f0116810181811067ffffffffffffffff82111715610ca157610ca1610c41565b604052838152905080828401851015610cb957600080fd5b83836020830137600060208583010152509392505050565b600080600080600060a08688031215610ce957600080fd5b610cf286610c25565b945060208601359350604086013567ffffffffffffffff811115610d1557600080fd5b8601601f81018813610d2657600080fd5b610d3588823560208401610c57565b935050606086013567ffffffffffffffff811115610d5257600080fd5b8601601f81018813610d6357600080fd5b610d7288823560208401610c57565b95989497509295608001359392505050565b60005b83811015610d9f578181015183820152602001610d87565b50506000910152565b60008151808452610dc0816020860160208601610d84565b601f01601f19169290920160200192915050565b602081526000610c1e6020830184610da8565b600060208284031215610df957600080fd5b610c1e82610c25565b600060208284031215610e1457600080fd5b5035919050565b60018060a01b038616815284602082015260a060408201526000610e4260a0830186610da8565b8281036060840152610e548186610da8565b9150508260808301529695505050505050565b6001600160e01b0319831681528151600090610e8a816004850160208701610d84565b919091016004019392505050565b60008251610eaa818460208701610d84565b9190910192915050565b848152608060208201526000610ecd6080830186610da8565b8281036040840152610edf8186610da8565b9150508260608301529594505050505056fe54696d656c6f636b3a3a657865637574655472616e73616374696f6e3a205472a2646970667358221220524c93a86d10ed2de3d352028a7bb912df9b71ba70f62c6cbcec50942dafd28964736f6c634300081b0033","linkReferences":{}},"methodIdentifiers":{"GRACE_PERIOD()":"c1a287e2","MAXIMUM_DELAY()":"7d645fab","MINIMUM_DELAY()":"b1b43ae5","acceptAdmin()":"0e18b681","admin()":"f851a440","cancelTransaction(address,uint256,string,bytes,uint256)":"591fcdfe","delay()":"6a42b8f8","executeTransaction(address,uint256,string,bytes,uint256)":"0825f38f","pendingAdmin()":"26782247","queueTransaction(address,uint256,string,bytes,uint256)":"3a66f901","queuedTransactions(bytes32)":"f2b06537","setDelay(uint256)":"e177246e","setPendingAdmin(address)":"4dd18bf5"},"id":56}