{"abi":[{"type":"function","name":"accrualBlockNumber","inputs":[],"outputs":[{"name":"","type":"uint256","internalType":"uint256"}],"stateMutability":"view"},{"type":"function","name":"admin","inputs":[],"outputs":[{"name":"","type":"address","internalType":"address payable"}],"stateMutability":"view"},{"type":"function","name":"borrowIndex","inputs":[],"outputs":[{"name":"","type":"uint256","internalType":"uint256"}],"stateMutability":"view"},{"type":"function","name":"comptroller","inputs":[],"outputs":[{"name":"","type":"address","internalType":"contract ComptrollerInterface"}],"stateMutability":"view"},{"type":"function","name":"decimals","inputs":[],"outputs":[{"name":"","type":"uint8","internalType":"uint8"}],"stateMutability":"view"},{"type":"function","name":"interestRateModel","inputs":[],"outputs":[{"name":"","type":"address","internalType":"contract InterestRateModel"}],"stateMutability":"view"},{"type":"function","name":"name","inputs":[],"outputs":[{"name":"","type":"string","internalType":"string"}],"stateMutability":"view"},{"type":"function","name":"pendingAdmin","inputs":[],"outputs":[{"name":"","type":"address","internalType":"address payable"}],"stateMutability":"view"},{"type":"function","name":"protocolSeizeShareMantissa","inputs":[],"outputs":[{"name":"","type":"uint256","internalType":"uint256"}],"stateMutability":"view"},{"type":"function","name":"reserveFactorMantissa","inputs":[],"outputs":[{"name":"","type":"uint256","internalType":"uint256"}],"stateMutability":"view"},{"type":"function","name":"symbol","inputs":[],"outputs":[{"name":"","type":"string","internalType":"string"}],"stateMutability":"view"},{"type":"function","name":"totalBorrows","inputs":[],"outputs":[{"name":"","type":"uint256","internalType":"uint256"}],"stateMutability":"view"},{"type":"function","name":"totalReserves","inputs":[],"outputs":[{"name":"","type":"uint256","internalType":"uint256"}],"stateMutability":"view"},{"type":"function","name":"totalSupply","inputs":[],"outputs":[{"name":"","type":"uint256","internalType":"uint256"}],"stateMutability":"view"}],"bytecode":{"object":"0x6080604052348015600f57600080fd5b506103488061001f6000396000f3fe608060405234801561001057600080fd5b50600436106100ea5760003560e01c80636752e7021161008c57806395d89b411161006657806395d89b41146101b3578063aa5af0fd146101bb578063f3fdb15a146101c4578063f851a440146101d757600080fd5b80636752e702146101935780636c540baf146101a15780638f840ddd146101aa57600080fd5b806326782247116100c8578063267822471461012d578063313ce5671461015857806347bd3718146101775780635fe3b5671461018057600080fd5b806306fdde03146100ef578063173b99041461010d57806318160ddd14610124575b600080fd5b6100f76101ef565b604051610104919061028a565b60405180910390f35b61011660085481565b604051908152602001610104565b610116600d5481565b600454610140906001600160a01b031681565b6040516001600160a01b039091168152602001610104565b6003546101659060ff1681565b60405160ff9091168152602001610104565b610116600b5481565b600554610140906001600160a01b031681565b610116666379da05b6000081565b61011660095481565b610116600c5481565b6100f761027d565b610116600a5481565b600654610140906001600160a01b031681565b6003546101409061010090046001600160a01b031681565b600180546101fc906102d8565b80601f0160208091040260200160405190810160405280929190818152602001828054610228906102d8565b80156102755780601f1061024a57610100808354040283529160200191610275565b820191906000526020600020905b81548152906001019060200180831161025857829003601f168201915b505050505081565b600280546101fc906102d8565b602081526000825180602084015260005b818110156102b8576020818601810151604086840101520161029b565b506000604082850101526040601f19601f83011684010191505092915050565b600181811c908216806102ec57607f821691505b60208210810361030c57634e487b7160e01b600052602260045260246000fd5b5091905056fea26469706673582212204c345d76326e70ec15ec5a2d5bb460301cde2e3016ba99f0f12eb5644c181fdf64736f6c634300081b0033","linkReferences":{}},"methodIdentifiers":{"accrualBlockNumber()":"6c540baf","admin()":"f851a440","borrowIndex()":"aa5af0fd","comptroller()":"5fe3b567","decimals()":"313ce567","interestRateModel()":"f3fdb15a","name()":"06fdde03","pendingAdmin()":"26782247","protocolSeizeShareMantissa()":"6752e702","reserveFactorMantissa()":"173b9904","symbol()":"95d89b41","totalBorrows()":"47bd3718","totalReserves()":"8f840ddd","totalSupply()":"18160ddd"},"id":29}