{"abi":[{"type":"constructor","inputs":[{"name":"comptroller_","type":"address","internalType":"contract ComptrollerInterface"},{"name":"interestRateModel_","type":"address","internalType":"contract InterestRateModel"},{"name":"initialExchangeRateMantissa_","type":"uint256","internalType":"uint256"},{"name":"name_","type":"string","internalType":"string"},{"name":"symbol_","type":"string","internalType":"string"},{"name":"decimals_","type":"uint8","internalType":"uint8"},{"name":"admin_","type":"address","internalType":"address payable"}],"stateMutability":"nonpayable"},{"type":"receive","stateMutability":"payable"},{"type":"function","name":"NO_ERROR","inputs":[],"outputs":[{"name":"","type":"uint256","internalType":"uint256"}],"stateMutability":"view"},{"type":"function","name":"_acceptAdmin","inputs":[],"outputs":[{"name":"","type":"uint256","internalType":"uint256"}],"stateMutability":"nonpayable"},{"type":"function","name":"_addReserves","inputs":[],"outputs":[{"name":"","type":"uint256","internalType":"uint256"}],"stateMutability":"payable"},{"type":"function","name":"_reduceReserves","inputs":[{"name":"reduceAmount","type":"uint256","internalType":"uint256"}],"outputs":[{"name":"","type":"uint256","internalType":"uint256"}],"stateMutability":"nonpayable"},{"type":"function","name":"_setComptroller","inputs":[{"name":"newComptroller","type":"address","internalType":"contract ComptrollerInterface"}],"outputs":[{"name":"","type":"uint256","internalType":"uint256"}],"stateMutability":"nonpayable"},{"type":"function","name":"_setInterestRateModel","inputs":[{"name":"newInterestRateModel","type":"address","internalType":"contract InterestRateModel"}],"outputs":[{"name":"","type":"uint256","internalType":"uint256"}],"stateMutability":"nonpayable"},{"type":"function","name":"_setPendingAdmin","inputs":[{"name":"newPendingAdmin","type":"address","internalType":"address payable"}],"outputs":[{"name":"","type":"uint256","internalType":"uint256"}],"stateMutability":"nonpayable"},{"type":"function","name":"_setReserveFactor","inputs":[{"name":"newReserveFactorMantissa","type":"uint256","internalType":"uint256"}],"outputs":[{"name":"","type":"uint256","internalType":"uint256"}],"stateMutability":"nonpayable"},{"type":"function","name":"accrualBlockNumber","inputs":[],"outputs":[{"name":"","type":"uint256","internalType":"uint256"}],"stateMutability":"view"},{"type":"function","name":"accrueInterest","inputs":[],"outputs":[{"name":"","type":"uint256","internalType":"uint256"}],"stateMutability":"nonpayable"},{"type":"function","name":"admin","inputs":[],"outputs":[{"name":"","type":"address","internalType":"address payable"}],"stateMutability":"view"},{"type":"function","name":"allowance","inputs":[{"name":"owner","type":"address","internalType":"address"},{"name":"spender","type":"address","internalType":"address"}],"outputs":[{"name":"","type":"uint256","internalType":"uint256"}],"stateMutability":"view"},{"type":"function","name":"approve","inputs":[{"name":"spender","type":"address","internalType":"address"},{"name":"amount","type":"uint256","internalType":"uint256"}],"outputs":[{"name":"","type":"bool","internalType":"bool"}],"stateMutability":"nonpayable"},{"type":"function","name":"balanceOf","inputs":[{"name":"owner","type":"address","internalType":"address"}],"outputs":[{"name":"","type":"uint256","internalType":"uint256"}],"stateMutability":"view"},{"type":"function","name":"balanceOfUnderlying","inputs":[{"name":"owner","type":"address","internalType":"address"}],"outputs":[{"name":"","type":"uint256","internalType":"uint256"}],"stateMutability":"nonpayable"},{"type":"function","name":"borrow","inputs":[{"name":"borrowAmount","type":"uint256","internalType":"uint256"}],"outputs":[{"name":"","type":"uint256","internalType":"uint256"}],"stateMutability":"nonpayable"},{"type":"function","name":"borrowBalanceCurrent","inputs":[{"name":"account","type":"address","internalType":"address"}],"outputs":[{"name":"","type":"uint256","internalType":"uint256"}],"stateMutability":"nonpayable"},{"type":"function","name":"borrowBalanceStored","inputs":[{"name":"account","type":"address","internalType":"address"}],"outputs":[{"name":"","type":"uint256","internalType":"uint256"}],"stateMutability":"view"},{"type":"function","name":"borrowIndex","inputs":[],"outputs":[{"name":"","type":"uint256","internalType":"uint256"}],"stateMutability":"view"},{"type":"function","name":"borrowRatePerBlock","inputs":[],"outputs":[{"name":"","type":"uint256","internalType":"uint256"}],"stateMutability":"view"},{"type":"function","name":"comptroller","inputs":[],"outputs":[{"name":"","type":"address","internalType":"contract ComptrollerInterface"}],"stateMutability":"view"},{"type":"function","name":"decimals","inputs":[],"outputs":[{"name":"","type":"uint8","internalType":"uint8"}],"stateMutability":"view"},{"type":"function","name":"exchangeRateCurrent","inputs":[],"outputs":[{"name":"","type":"uint256","internalType":"uint256"}],"stateMutability":"nonpayable"},{"type":"function","name":"exchangeRateStored","inputs":[],"outputs":[{"name":"","type":"uint256","internalType":"uint256"}],"stateMutability":"view"},{"type":"function","name":"getAccountSnapshot","inputs":[{"name":"account","type":"address","internalType":"address"}],"outputs":[{"name":"","type":"uint256","internalType":"uint256"},{"name":"","type":"uint256","internalType":"uint256"},{"name":"","type":"uint256","internalType":"uint256"},{"name":"","type":"uint256","internalType":"uint256"}],"stateMutability":"view"},{"type":"function","name":"getCash","inputs":[],"outputs":[{"name":"","type":"uint256","internalType":"uint256"}],"stateMutability":"view"},{"type":"function","name":"initialize","inputs":[{"name":"comptroller_","type":"address","internalType":"contract ComptrollerInterface"},{"name":"interestRateModel_","type":"address","internalType":"contract InterestRateModel"},{"name":"initialExchangeRateMantissa_","type":"uint256","internalType":"uint256"},{"name":"name_","type":"string","internalType":"string"},{"name":"symbol_","type":"string","internalType":"string"},{"name":"decimals_","type":"uint8","internalType":"uint8"}],"outputs":[],"stateMutability":"nonpayable"},{"type":"function","name":"interestRateModel","inputs":[],"outputs":[{"name":"","type":"address","internalType":"contract InterestRateModel"}],"stateMutability":"view"},{"type":"function","name":"isCToken","inputs":[],"outputs":[{"name":"","type":"bool","internalType":"bool"}],"stateMutability":"view"},{"type":"function","name":"liquidateBorrow","inputs":[{"name":"borrower","type":"address","internalType":"address"},{"name":"cTokenCollateral","type":"address","internalType":"contract CToken"}],"outputs":[],"stateMutability":"payable"},{"type":"function","name":"mint","inputs":[],"outputs":[],"stateMutability":"payable"},{"type":"function","name":"name","inputs":[],"outputs":[{"name":"","type":"string","internalType":"string"}],"stateMutability":"view"},{"type":"function","name":"pendingAdmin","inputs":[],"outputs":[{"name":"","type":"address","internalType":"address payable"}],"stateMutability":"view"},{"type":"function","name":"protocolSeizeShareMantissa","inputs":[],"outputs":[{"name":"","type":"uint256","internalType":"uint256"}],"stateMutability":"view"},{"type":"function","name":"redeem","inputs":[{"name":"redeemTokens","type":"uint256","internalType":"uint256"}],"outputs":[{"name":"","type":"uint256","internalType":"uint256"}],"stateMutability":"nonpayable"},{"type":"function","name":"redeemUnderlying","inputs":[{"name":"redeemAmount","type":"uint256","internalType":"uint256"}],"outputs":[{"name":"","type":"uint256","internalType":"uint256"}],"stateMutability":"nonpayable"},{"type":"function","name":"repayBorrow","inputs":[],"outputs":[],"stateMutability":"payable"},{"type":"function","name":"repayBorrowBehalf","inputs":[{"name":"borrower","type":"address","internalType":"address"}],"outputs":[],"stateMutability":"payable"},{"type":"function","name":"reserveFactorMantissa","inputs":[],"outputs":[{"name":"","type":"uint256","internalType":"uint256"}],"stateMutability":"view"},{"type":"function","name":"seize","inputs":[{"name":"liquidator","type":"address","internalType":"address"},{"name":"borrower","type":"address","internalType":"address"},{"name":"seizeTokens","type":"uint256","internalType":"uint256"}],"outputs":[{"name":"","type":"uint256","internalType":"uint256"}],"stateMutability":"nonpayable"},{"type":"function","name":"supplyRatePerBlock","inputs":[],"outputs":[{"name":"","type":"uint256","internalType":"uint256"}],"stateMutability":"view"},{"type":"function","name":"symbol","inputs":[],"outputs":[{"name":"","type":"string","internalType":"string"}],"stateMutability":"view"},{"type":"function","name":"totalBorrows","inputs":[],"outputs":[{"name":"","type":"uint256","internalType":"uint256"}],"stateMutability":"view"},{"type":"function","name":"totalBorrowsCurrent","inputs":[],"outputs":[{"name":"","type":"uint256","internalType":"uint256"}],"stateMutability":"nonpayable"},{"type":"function","name":"totalReserves","inputs":[],"outputs":[{"name":"","type":"uint256","internalType":"uint256"}],"stateMutability":"view"},{"type":"function","name":"totalSupply","inputs":[],"outputs":[{"name":"","type":"uint256","internalType":"uint256"}],"stateMutability":"view"},{"type":"function","name":"transfer","inputs":[{"name":"dst","type":"address","internalType":"address"},{"name":"amount","type":"uint256","internalType":"uint256"}],"outputs":[{"name":"","type":"bool","internalType":"bool"}],"stateMutability":"nonpayable"},{"type":"function","name":"transferFrom","inputs":[{"name":"src","type":"address","internalType":"address"},{"name":"dst","type":"address","internalType":"address"},{"name":"amount","type":"uint256","internalType":"uint256"}],"outputs":[{"name":"","type":"bool","internalType":"bool"}],"stateMutability":"nonpayable"},{"type":"event","name":"AccrueInterest","inputs":[{"name":"cashPrior","type":"uint256","indexed":false,"internalType":"uint256"},{"name":"interestAccumulated","type":"uint256","indexed":false,"internalType":"uint256"},{"name":"borrowIndex","type":"uint256","indexed":false,"internalType":"uint256"},{"name":"totalBorrows","type":"uint256","indexed":false,"internalType":"uint256"}],"anonymous":false},{"type":"event","name":"Approval","inputs":[{"name":"owner","type":"address","indexed":true,"internalType":"address"},{"name":"spender","type":"address","indexed":true,"internalType":"address"},{"name":"amount","type":"uint256","indexed":false,"internalType":"uint256"}],"anonymous":false},{"type":"event","name":"Borrow","inputs":[{"name":"borrower","type":"address","indexed":false,"internalType":"address"},{"name":"borrowAmount","type":"uint256","indexed":false,"internalType":"uint256"},{"name":"accountBorrows","type":"uint256","indexed":false,"internalType":"uint256"},{"name":"totalBorrows","type":"uint256","indexed":false,"internalType":"uint256"}],"anonymous":false},{"type":"event","name":"LiquidateBorrow","inputs":[{"name":"liquidator","type":"address","indexed":false,"internalType":"address"},{"name":"borrower","type":"address","indexed":false,"internalType":"address"},{"name":"repayAmount","type":"uint256","indexed":false,"internalType":"uint256"},{"name":"cTokenCollateral","type":"address","indexed":false,"internalType":"address"},{"name":"seizeTokens","type":"uint256","indexed":false,"internalType":"uint256"}],"anonymous":false},{"type":"event","name":"Mint","inputs":[{"name":"minter","type":"address","indexed":false,"internalType":"address"},{"name":"mintAmount","type":"uint256","indexed":false,"internalType":"uint256"},{"name":"mintTokens","type":"uint256","indexed":false,"internalType":"uint256"}],"anonymous":false},{"type":"event","name":"NewAdmin","inputs":[{"name":"oldAdmin","type":"address","indexed":false,"internalType":"address"},{"name":"newAdmin","type":"address","indexed":false,"internalType":"address"}],"anonymous":false},{"type":"event","name":"NewComptroller","inputs":[{"name":"oldComptroller","type":"address","indexed":false,"internalType":"contract ComptrollerInterface"},{"name":"newComptroller","type":"address","indexed":false,"internalType":"contract ComptrollerInterface"}],"anonymous":false},{"type":"event","name":"NewMarketInterestRateModel","inputs":[{"name":"oldInterestRateModel","type":"address","indexed":false,"internalType":"contract InterestRateModel"},{"name":"newInterestRateModel","type":"address","indexed":false,"internalType":"contract InterestRateModel"}],"anonymous":false},{"type":"event","name":"NewPendingAdmin","inputs":[{"name":"oldPendingAdmin","type":"address","indexed":false,"internalType":"address"},{"name":"newPendingAdmin","type":"address","indexed":false,"internalType":"address"}],"anonymous":false},{"type":"event","name":"NewReserveFactor","inputs":[{"name":"oldReserveFactorMantissa","type":"uint256","indexed":false,"internalType":"uint256"},{"name":"newReserveFactorMantissa","type":"uint256","indexed":false,"internalType":"uint256"}],"anonymous":false},{"type":"event","name":"Redeem","inputs":[{"name":"redeemer","type":"address","indexed":false,"internalType":"address"},{"name":"redeemAmount","type":"uint256","indexed":false,"internalType":"uint256"},{"name":"redeemTokens","type":"uint256","indexed":false,"internalType":"uint256"}],"anonymous":false},{"type":"event","name":"RepayBorrow","inputs":[{"name":"payer","type":"address","indexed":false,"internalType":"address"},{"name":"borrower","type":"address","indexed":false,"internalType":"address"},{"name":"repayAmount","type":"uint256","indexed":false,"internalType":"uint256"},{"name":"accountBorrows","type":"uint256","indexed":false,"internalType":"uint256"},{"name":"totalBorrows","type":"uint256","indexed":false,"internalType":"uint256"}],"anonymous":false},{"type":"event","name":"ReservesAdded","inputs":[{"name":"benefactor","type":"address","indexed":false,"internalType":"address"},{"name":"addAmount","type":"uint256","indexed":false,"internalType":"uint256"},{"name":"newTotalReserves","type":"uint256","indexed":false,"internalType":"uint256"}],"anonymous":false},{"type":"event","name":"ReservesReduced","inputs":[{"name":"admin","type":"address","indexed":false,"internalType":"address"},{"name":"reduceAmount","type":"uint256","indexed":false,"internalType":"uint256"},{"name":"newTotalReserves","type":"uint256","indexed":false,"internalType":"uint256"}],"anonymous":false},{"type":"event","name":"Transfer","inputs":[{"name":"from","type":"address","indexed":true,"internalType":"address"},{"name":"to","type":"address","indexed":true,"internalType":"address"},{"name":"amount","type":"uint256","indexed":false,"internalType":"uint256"}],"anonymous":false},{"type":"error","name":"AcceptAdminPendingAdminCheck","inputs":[]},{"type":"error","name":"AddReservesFactorFreshCheck","inputs":[{"name":"actualAddAmount","type":"uint256","internalType":"uint256"}]},{"type":"error","name":"BorrowCashNotAvailable","inputs":[]},{"type":"error","name":"BorrowComptrollerRejection","inputs":[{"name":"errorCode","type":"uint256","internalType":"uint256"}]},{"type":"error","name":"BorrowFreshnessCheck","inputs":[]},{"type":"error","name":"LiquidateAccrueBorrowInterestFailed","inputs":[{"name":"errorCode","type":"uint256","internalType":"uint256"}]},{"type":"error","name":"LiquidateAccrueCollateralInterestFailed","inputs":[{"name":"errorCode","type":"uint256","internalType":"uint256"}]},{"type":"error","name":"LiquidateCloseAmountIsUintMax","inputs":[]},{"type":"error","name":"LiquidateCloseAmountIsZero","inputs":[]},{"type":"error","name":"LiquidateCollateralFreshnessCheck","inputs":[]},{"type":"error","name":"LiquidateComptrollerRejection","inputs":[{"name":"errorCode","type":"uint256","internalType":"uint256"}]},{"type":"error","name":"LiquidateFreshnessCheck","inputs":[]},{"type":"error","name":"LiquidateLiquidatorIsBorrower","inputs":[]},{"type":"error","name":"LiquidateRepayBorrowFreshFailed","inputs":[{"name":"errorCode","type":"uint256","internalType":"uint256"}]},{"type":"error","name":"LiquidateSeizeComptrollerRejection","inputs":[{"name":"errorCode","type":"uint256","internalType":"uint256"}]},{"type":"error","name":"LiquidateSeizeLiquidatorIsBorrower","inputs":[]},{"type":"error","name":"MintComptrollerRejection","inputs":[{"name":"errorCode","type":"uint256","internalType":"uint256"}]},{"type":"error","name":"MintFreshnessCheck","inputs":[]},{"type":"error","name":"RedeemComptrollerRejection","inputs":[{"name":"errorCode","type":"uint256","internalType":"uint256"}]},{"type":"error","name":"RedeemFreshnessCheck","inputs":[]},{"type":"error","name":"RedeemTransferOutNotPossible","inputs":[]},{"type":"error","name":"ReduceReservesAdminCheck","inputs":[]},{"type":"error","name":"ReduceReservesCashNotAvailable","inputs":[]},{"type":"error","name":"ReduceReservesCashValidation","inputs":[]},{"type":"error","name":"ReduceReservesFreshCheck","inputs":[]},{"type":"error","name":"RepayBorrowComptrollerRejection","inputs":[{"name":"errorCode","type":"uint256","internalType":"uint256"}]},{"type":"error","name":"RepayBorrowFreshnessCheck","inputs":[]},{"type":"error","name":"SetComptrollerOwnerCheck","inputs":[]},{"type":"error","name":"SetInterestRateModelFreshCheck","inputs":[]},{"type":"error","name":"SetInterestRateModelOwnerCheck","inputs":[]},{"type":"error","name":"SetPendingAdminOwnerCheck","inputs":[]},{"type":"error","name":"SetReserveFactorAdminCheck","inputs":[]},{"type":"error","name":"SetReserveFactorBoundsCheck","inputs":[]},{"type":"error","name":"SetReserveFactorFreshCheck","inputs":[]},{"type":"error","name":"TransferComptrollerRejection","inputs":[{"name":"errorCode","type":"uint256","internalType":"uint256"}]},{"type":"error","name":"TransferNotAllowed","inputs":[]},{"type":"error","name":"TransferNotEnough","inputs":[]},{"type":"error","name":"TransferTooMuch","inputs":[]}],"bytecode":{"object":"0x608060405234801561001057600080fd5b50604051613d83380380613d8383398101604081905261002f91610680565b60038054610100600160a81b0319163361010002179055610054878787878787610086565b600380546001600160a01b0390921661010002610100600160a81b0319909216919091179055506108b5945050505050565b60035461010090046001600160a01b031633146100f65760405162461bcd60e51b8152602060048201526024808201527f6f6e6c792061646d696e206d617920696e697469616c697a6520746865206d616044820152631c9ad95d60e21b60648201526084015b60405180910390fd5b6009541580156101065750600a54155b61015e5760405162461bcd60e51b815260206004820152602360248201527f6d61726b6574206d6179206f6e6c7920626520696e697469616c697a6564206f6044820152626e636560e81b60648201526084016100ed565b6007849055836101c95760405162461bcd60e51b815260206004820152603060248201527f696e697469616c2065786368616e67652072617465206d75737420626520677260448201526f32b0ba32b9103a3430b7103d32b9379760811b60648201526084016100ed565b60006101d4876102d8565b905080156102245760405162461bcd60e51b815260206004820152601a60248201527f73657474696e6720636f6d7074726f6c6c6572206661696c656400000000000060448201526064016100ed565b43600955670de0b6b3a7640000600a5561023d8661042a565b905080156102985760405162461bcd60e51b815260206004820152602260248201527f73657474696e6720696e7465726573742072617465206d6f64656c206661696c604482015261195960f21b60648201526084016100ed565b60016102a485826107ce565b5060026102b184826107ce565b50506003805460ff90921660ff199283161790556000805490911660011790555050505050565b60035460009061010090046001600160a01b0316331461030b5760405163d219dc1f60e01b815260040160405180910390fd5b60055460408051623f1ee960e11b815290516001600160a01b0392831692851691627e3dd29160048083019260209291908290030181865afa158015610355573d6000803e3d6000fd5b505050506040513d601f19601f82011682018060405250810190610379919061088c565b6103c55760405162461bcd60e51b815260206004820152601c60248201527f6d61726b6572206d6574686f642072657475726e65642066616c73650000000060448201526064016100ed565b600580546001600160a01b0319166001600160a01b0385811691821790925560408051928416835260208301919091527f7ac369dbd14fa5ea3f473ed67cc9d598964a77501540ba6751eb0b3decf5870d91015b60405180910390a150600092915050565b600354600090819061010090046001600160a01b0316331461045f5760405163407fded560e01b815260040160405180910390fd5b436009541461048157604051630be2a5cb60e11b815260040160405180910390fd5b600660009054906101000a90046001600160a01b03169050826001600160a01b0316632191f92a6040518163ffffffff1660e01b8152600401602060405180830381865afa1580156104d7573d6000803e3d6000fd5b505050506040513d601f19601f820116820180604052508101906104fb919061088c565b6105475760405162461bcd60e51b815260206004820152601c60248201527f6d61726b6572206d6574686f642072657475726e65642066616c73650000000060448201526064016100ed565b600680546001600160a01b0319166001600160a01b0385811691821790925560408051928416835260208301919091527fedffc32e068c7c95dfd4bdfd5c4d939a084d6b11c4199eac8436ed234d72f9269101610419565b6001600160a01b03811681146105b457600080fd5b50565b634e487b7160e01b600052604160045260246000fd5b600082601f8301126105de57600080fd5b81516001600160401b038111156105f7576105f76105b7565b604051601f8201601f19908116603f011681016001600160401b0381118282101715610625576106256105b7565b60405281815283820160200185101561063d57600080fd5b60005b8281101561065c57602081860181015183830182015201610640565b506000918101602001919091529392505050565b805161067b8161059f565b919050565b600080600080600080600060e0888a03121561069b57600080fd5b87516106a68161059f565b60208901519097506106b78161059f565b604089015160608a015191975095506001600160401b038111156106da57600080fd5b6106e68a828b016105cd565b60808a015190955090506001600160401b0381111561070457600080fd5b6107108a828b016105cd565b60a08a0151909450905060ff8116811461072957600080fd5b915061073760c08901610670565b905092959891949750929550565b600181811c9082168061075957607f821691505b60208210810361077957634e487b7160e01b600052602260045260246000fd5b50919050565b601f8211156107c957806000526020600020601f840160051c810160208510156107a65750805b601f840160051c820191505b818110156107c657600081556001016107b2565b50505b505050565b81516001600160401b038111156107e7576107e76105b7565b6107fb816107f58454610745565b8461077f565b6020601f82116001811461082f57600083156108175750848201515b600019600385901b1c1916600184901b1784556107c6565b600084815260208120601f198516915b8281101561085f578785015182556020948501946001909201910161083f565b508482101561087d5786840151600019600387901b60f8161c191681555b50505050600190811b01905550565b60006020828403121561089e57600080fd5b815180151581146108ae57600080fd5b9392505050565b6134bf806108c46000396000f3fe6080604052600436106102975760003560e01c806395d89b411161015a578063c5ebeaec116100c1578063f3fdb15a1161007a578063f3fdb15a146107a7578063f851a440146107c7578063f8f9da28146107ec578063fca7820b14610801578063fcb6414714610821578063fe9c44ae1461082957600080fd5b8063c5ebeaec146106d9578063db006a75146106f9578063dd62ed3e14610719578063e59746191461075f578063e9c714f214610772578063f2b3abbd1461078757600080fd5b8063aae40a2a11610113578063aae40a2a1461061c578063ae9d70b01461062f578063b2a02ff114610644578063b71d1a0c14610664578063bd6d894d14610684578063c37f68e21461069957600080fd5b806395d89b411461057c57806395dd91931461059157806399d8c1b4146105b1578063a6afed95146105d1578063a9059cbb146105e6578063aa5af0fd1461060657600080fd5b80634576b5db116101fe57806369ab3250116101b757806369ab3250146104d05780636c540baf146104e557806370a08231146104fb57806373acee9814610531578063852a12e3146105465780638f840ddd1461056657600080fd5b80634576b5db1461043757806347bd3718146104575780634e4d9fea1461046d5780635fe3b56714610475578063601a0bf1146104955780636752e702146104b557600080fd5b8063182df0f511610250578063182df0f51461036957806323b872dd1461037e578063267822471461039e578063313ce567146103d65780633af9e669146104025780633b1d21a21461042257600080fd5b806306fdde03146102ac578063095ea7b3146102d75780631249c58b14610307578063173b99041461030f57806317bfdfbc1461033357806318160ddd1461035357600080fd5b366102a7576102a53461083e565b005b600080fd5b3480156102b857600080fd5b506102c1610896565b6040516102ce9190612f56565b60405180910390f35b3480156102e357600080fd5b506102f76102f2366004612fb9565b610924565b60405190151581526020016102ce565b6102a5610994565b34801561031b57600080fd5b5061032560085481565b6040519081526020016102ce565b34801561033f57600080fd5b5061032561034e366004612fe5565b61099f565b34801561035f57600080fd5b50610325600d5481565b34801561037557600080fd5b506103256109f2565b34801561038a57600080fd5b506102f7610399366004613002565b610a01565b3480156103aa57600080fd5b506004546103be906001600160a01b031681565b6040516001600160a01b0390911681526020016102ce565b3480156103e257600080fd5b506003546103f09060ff1681565b60405160ff90911681526020016102ce565b34801561040e57600080fd5b5061032561041d366004612fe5565b610a51565b34801561042e57600080fd5b50610325610a97565b34801561044357600080fd5b50610325610452366004612fe5565b610aa1565b34801561046357600080fd5b50610325600b5481565b6102a5610bf3565b34801561048157600080fd5b506005546103be906001600160a01b031681565b3480156104a157600080fd5b506103256104b0366004613043565b610bfc565b3480156104c157600080fd5b50610325666379da05b6000081565b3480156104dc57600080fd5b50610325600081565b3480156104f157600080fd5b5061032560095481565b34801561050757600080fd5b50610325610516366004612fe5565b6001600160a01b03166000908152600e602052604090205490565b34801561053d57600080fd5b50610325610c3b565b34801561055257600080fd5b50610325610561366004613043565b610c85565b34801561057257600080fd5b50610325600c5481565b34801561058857600080fd5b506102c1610c98565b34801561059d57600080fd5b506103256105ac366004612fe5565b610ca5565b3480156105bd57600080fd5b506102a56105cc366004613101565b610cb0565b3480156105dd57600080fd5b50610325610efd565b3480156105f257600080fd5b506102f7610601366004612fb9565b6110ea565b34801561061257600080fd5b50610325600a5481565b6102a561062a3660046131b2565b611139565b34801561063b57600080fd5b50610325611148565b34801561065057600080fd5b5061032561065f366004613002565b6111e0565b34801561067057600080fd5b5061032561067f366004612fe5565b61122f565b34801561069057600080fd5b506103256112bc565b3480156106a557600080fd5b506106b96106b4366004612fe5565b61130c565b6040805194855260208501939093529183015260608201526080016102ce565b3480156106e557600080fd5b506103256106f4366004613043565b61134d565b34801561070557600080fd5b50610325610714366004613043565b611358565b34801561072557600080fd5b506103256107343660046131b2565b6001600160a01b039182166000908152600f6020908152604080832093909416825291909152205490565b6102a561076d366004612fe5565b611363565b34801561077e57600080fd5b50610325611370565b34801561079357600080fd5b506103256107a2366004612fe5565b611477565b3480156107b357600080fd5b506006546103be906001600160a01b031681565b3480156107d357600080fd5b506003546103be9061010090046001600160a01b031681565b3480156107f857600080fd5b5061032561148b565b34801561080d57600080fd5b5061032561081c366004613043565b6114de565b61032561151d565b34801561083557600080fd5b506102f7600181565b60005460ff166108695760405162461bcd60e51b8152600401610860906131eb565b60405180910390fd5b6000805460ff1916905561087b610efd565b506108863382611528565b506000805460ff19166001179055565b600180546108a39061320f565b80601f01602080910402602001604051908101604052809291908181526020018280546108cf9061320f565b801561091c5780601f106108f15761010080835404028352916020019161091c565b820191906000526020600020905b8154815290600101906020018083116108ff57829003601f168201915b505050505081565b336000818152600f602090815260408083206001600160a01b03871680855292528083208590555191929182907f8c5be1e5ebec7d5bd14f71427d1e84f3dd0314c0f7b2291e5b200ac8c7c3b925906109809087815260200190565b60405180910390a360019150505b92915050565b61099d3461083e565b565b6000805460ff166109c25760405162461bcd60e51b8152600401610860906131eb565b6000805460ff191690556109d4610efd565b506109de82610ca5565b90506000805460ff19166001179055919050565b60006109fc6116de565b905090565b6000805460ff16610a245760405162461bcd60e51b8152600401610860906131eb565b6000805460ff19168155610a3a33868686611746565b1490506000805460ff191660011790559392505050565b6000806040518060200160405280610a676112bc565b90526001600160a01b0384166000908152600e6020526040902054909150610a90908290611972565b9392505050565b60006109fc611992565b60035460009061010090046001600160a01b03163314610ad45760405163d219dc1f60e01b815260040160405180910390fd5b60055460408051623f1ee960e11b815290516001600160a01b0392831692851691627e3dd29160048083019260209291908290030181865afa158015610b1e573d6000803e3d6000fd5b505050506040513d601f19601f82011682018060405250810190610b429190613243565b610b8e5760405162461bcd60e51b815260206004820152601c60248201527f6d61726b6572206d6574686f642072657475726e65642066616c7365000000006044820152606401610860565b600580546001600160a01b0319166001600160a01b0385811691821790925560408051928416835260208301919091527f7ac369dbd14fa5ea3f473ed67cc9d598964a77501540ba6751eb0b3decf5870d91015b60405180910390a150600092915050565b61099d3461199e565b6000805460ff16610c1f5760405162461bcd60e51b8152600401610860906131eb565b6000805460ff19169055610c31610efd565b506109de826119ef565b6000805460ff16610c5e5760405162461bcd60e51b8152600401610860906131eb565b6000805460ff19169055610c70610efd565b5050600b546000805460ff1916600117905590565b6000610c9082611b0a565b506000919050565b600280546108a39061320f565b600061098e82611b4b565b60035461010090046001600160a01b03163314610d1b5760405162461bcd60e51b8152602060048201526024808201527f6f6e6c792061646d696e206d617920696e697469616c697a6520746865206d616044820152631c9ad95d60e21b6064820152608401610860565b600954158015610d2b5750600a54155b610d835760405162461bcd60e51b815260206004820152602360248201527f6d61726b6574206d6179206f6e6c7920626520696e697469616c697a6564206f6044820152626e636560e81b6064820152608401610860565b600784905583610dee5760405162461bcd60e51b815260206004820152603060248201527f696e697469616c2065786368616e67652072617465206d75737420626520677260448201526f32b0ba32b9103a3430b7103d32b9379760811b6064820152608401610860565b6000610df987610aa1565b90508015610e495760405162461bcd60e51b815260206004820152601a60248201527f73657474696e6720636f6d7074726f6c6c6572206661696c65640000000000006044820152606401610860565b43600955670de0b6b3a7640000600a55610e6286611b97565b90508015610ebd5760405162461bcd60e51b815260206004820152602260248201527f73657474696e6720696e7465726573742072617465206d6f64656c206661696c604482015261195960f21b6064820152608401610860565b6001610ec985826132b3565b506002610ed684826132b3565b50506003805460ff90921660ff199283161790556000805490911660011790555050505050565b6009546000904390818103610f155760009250505090565b6000610f1f611992565b600b54600c54600a546006546040516315f2405360e01b81526004810186905260248101859052604481018490529495509293919290916000916001600160a01b0316906315f2405390606401602060405180830381865afa158015610f89573d6000803e3d6000fd5b505050506040513d601f19601f82011682018060405250810190610fad9190613372565b905065048c273950008111156110055760405162461bcd60e51b815260206004820152601c60248201527f626f72726f772072617465206973206162737572646c792068696768000000006044820152606401610860565b600061101187896133a1565b9050600061102d60405180602001604052808581525083611d0c565b9050600061103b8288611972565b9050600061104988836133b4565b905060006110686040518060200160405280600854815250848a611d3d565b9050600061107785898a611d3d565b60098e9055600a819055600b849055600c839055604080518d815260208101879052908101829052606081018590529091507f4dec04e750ca11537cabcd8a9eab06494de08da3735bc8871cd41250e190bc049060800160405180910390a160009d505050505050505050505050505090565b6000805460ff1661110d5760405162461bcd60e51b8152600401610860906131eb565b6000805460ff1916815561112333808686611746565b1490506000805460ff1916600117905592915050565b611144823483611d5e565b5050565b6006546000906001600160a01b031663b8168816611164611992565b600b54600c546008546040516001600160e01b031960e087901b16815260048101949094526024840192909252604483015260648201526084015b602060405180830381865afa1580156111bc573d6000803e3d6000fd5b505050506040513d601f19601f820116820180604052508101906109fc9190613372565b6000805460ff166112035760405162461bcd60e51b8152600401610860906131eb565b6000805460ff1916905561121933858585611e3c565b50600080805460ff191660011790559392505050565b60035460009061010090046001600160a01b0316331461126257604051635cb56c2b60e01b815260040160405180910390fd5b600480546001600160a01b038481166001600160a01b031983168117909355604080519190921680825260208201939093527fca4f2f25d0898edd99413412fb94012f9e54ec8142f9b093e7720646a95b16a99101610be2565b6000805460ff166112df5760405162461bcd60e51b8152600401610860906131eb565b6000805460ff191690556112f1610efd565b506112fa6109f2565b90506000805460ff1916600117905590565b6001600160a01b0381166000908152600e6020526040812054819081908190819061133687611b4b565b61133e6116de565b93509350935093509193509193565b6000610c90826120b4565b6000610c90826120f3565b61136d8134612134565b50565b6004546000906001600160a01b03163314158061138b575033155b156113a957604051631ba24f2960e21b815260040160405180910390fd5b60038054600480546001600160a01b03808216610100818102610100600160a81b0319871617968790556001600160a01b031990931690935560408051948390048216808652929095041660208401529290917ff9ffabca9c8276e99321725bcb43fb076a6c66a54b7f21c4e8146d8519b417dc910160405180910390a1600454604080516001600160a01b03808516825290921660208301527fca4f2f25d0898edd99413412fb94012f9e54ec8142f9b093e7720646a95b16a9910160405180910390a160009250505090565b6000611481610efd565b5061098e82611b97565b6006546000906001600160a01b03166315f240536114a7611992565b600b54600c546040516001600160e01b031960e086901b16815260048101939093526024830191909152604482015260640161119f565b6000805460ff166115015760405162461bcd60e51b8152600401610860906131eb565b6000805460ff19169055611513610efd565b506109de82612186565b60006109fc34612242565b600554604051634ef4c3e160e01b81526000916001600160a01b031690634ef4c3e19061155d903090879087906004016133c7565b6020604051808303816000875af115801561157c573d6000803e3d6000fd5b505050506040513d601f19601f820116820180604052508101906115a09190613372565b905080156115c4576040516349abd4fd60e01b815260048101829052602401610860565b43600954146115e6576040516338d8859760e01b815260040160405180910390fd5b600060405180602001604052806115fb6116de565b90529050600061160b8585612299565b90506000611619828461232b565b905080600d5461162991906133b4565b600d556001600160a01b0386166000908152600e60205260409020546116509082906133b4565b6001600160a01b0387166000908152600e60205260409081902091909155517f4c209b5fc8ad50758f13e2e1088ba56a560dff690a1c6fef26394f4c03821c4f906116a0908890859085906133eb565b60405180910390a16040518181526001600160a01b03871690309060008051602061346a8339815191529060200160405180910390a3505050505050565b600d546000908082036116f357505060075490565b60006116fd611992565b90506000600c54600b548361171291906133b4565b61171c91906133a1565b9050600083611733670de0b6b3a76400008461340c565b61173d9190613423565b95945050505050565b6005546040516317b9b84b60e31b81523060048201526001600160a01b038581166024830152848116604483015260648201849052600092839291169063bdcdc258906084016020604051808303816000875af11580156117ab573d6000803e3d6000fd5b505050506040513d601f19601f820116820180604052508101906117cf9190613372565b905080156117f35760405163089d427760e11b815260048101829052602401610860565b836001600160a01b0316856001600160a01b03160361182557604051638cd22d1960e01b815260040160405180910390fd5b6000856001600160a01b0316876001600160a01b0316036118495750600019611871565b506001600160a01b038086166000908152600f60209081526040808320938a16835292905220545b600061187d85836133a1565b6001600160a01b0388166000908152600e6020526040812054919250906118a59087906133a1565b6001600160a01b0388166000908152600e6020526040812054919250906118cd9088906133b4565b6001600160a01b03808b166000908152600e6020526040808220869055918b1681522081905590506000198414611927576001600160a01b03808a166000908152600f60209081526040808320938e168352929052208390555b876001600160a01b0316896001600160a01b031660008051602061346a8339815191528960405161195a91815260200190565b60405180910390a35060009998505050505050505050565b60008061197f8484611d0c565b905061198a81612349565b949350505050565b60006109fc34476133a1565b60005460ff166119c05760405162461bcd60e51b8152600401610860906131eb565b6000805460ff191690556119d2610efd565b506119de333383612361565b50506000805460ff19166001179055565b600354600090819061010090046001600160a01b03163314611a2457604051630f7e5e6d60e41b815260040160405180910390fd5b4360095414611a4657604051630dff50cb60e41b815260040160405180910390fd5b82611a4f611992565b1015611a6e57604051633345e99960e01b815260040160405180910390fd5b600c54831115611a91576040516378d2980560e11b815260040160405180910390fd5b82600c54611a9f91906133a1565b600c819055600354909150611ac29061010090046001600160a01b03168461250a565b7f3bad0c59cf2f06e7314077049f48a93578cd16f5ef92329f1dab1420a99c177e600360019054906101000a90046001600160a01b03168483604051610be2939291906133eb565b60005460ff16611b2c5760405162461bcd60e51b8152600401610860906131eb565b6000805460ff19169055611b3e610efd565b5061088633600083612545565b6001600160a01b038116600090815260106020526040812080548203611b745750600092915050565b600a548154600091611b859161340c565b905081600101548161198a9190613423565b600354600090819061010090046001600160a01b03163314611bcc5760405163407fded560e01b815260040160405180910390fd5b4360095414611bee57604051630be2a5cb60e11b815260040160405180910390fd5b600660009054906101000a90046001600160a01b03169050826001600160a01b0316632191f92a6040518163ffffffff1660e01b8152600401602060405180830381865afa158015611c44573d6000803e3d6000fd5b505050506040513d601f19601f82011682018060405250810190611c689190613243565b611cb45760405162461bcd60e51b815260206004820152601c60248201527f6d61726b6572206d6574686f642072657475726e65642066616c7365000000006044820152606401610860565b600680546001600160a01b0319166001600160a01b0385811691821790925560408051928416835260208301919091527fedffc32e068c7c95dfd4bdfd5c4d939a084d6b11c4199eac8436ed234d72f9269101610be2565b6040805160208101909152600081526040518060200160405280611d34856000015185612822565b90529392505050565b600080611d4a8585611d0c565b905061173d611d5882612349565b8461282e565b60005460ff16611d805760405162461bcd60e51b8152600401610860906131eb565b6000805460ff19169055611d92610efd565b506000816001600160a01b031663a6afed956040518163ffffffff1660e01b81526004016020604051808303816000875af1158015611dd5573d6000803e3d6000fd5b505050506040513d601f19601f82011682018060405250810190611df99190613372565b90508015611e1d57604051633eea49b760e11b815260048101829052602401610860565b611e293385858561283a565b50506000805460ff191660011790555050565b60055460405163d02f735160e01b81523060048201526001600160a01b0386811660248301528581166044830152848116606483015260848201849052600092169063d02f73519060a4016020604051808303816000875af1158015611ea6573d6000803e3d6000fd5b505050506040513d601f19601f82011682018060405250810190611eca9190613372565b90508015611eee576040516363e00e3360e11b815260048101829052602401610860565b836001600160a01b0316836001600160a01b031603611f2057604051633a94626760e11b815260040160405180910390fd5b6000611f41836040518060200160405280666379da05b60000815250612cf4565b90506000611f4f82856133a1565b905060006040518060200160405280611f666116de565b905290506000611f768285611972565b9050600081600c54611f8891906133b4565b600c819055600d54909150611f9e9086906133a1565b600d556001600160a01b0388166000908152600e6020526040902054611fc59088906133a1565b6001600160a01b03808a166000908152600e602052604080822093909355908b1681522054611ff59085906133b4565b6001600160a01b03808b166000818152600e602052604090819020939093559151908a169060008051602061346a833981519152906120379088815260200190565b60405180910390a360405185815230906001600160a01b038a169060008051602061346a8339815191529060200160405180910390a37fa91e67c5ea634cd43a12c5a482724b03de01e85ca68702a53d0c2f45cb7c1dc53083836040516120a0939291906133eb565b60405180910390a150505050505050505050565b60005460ff166120d65760405162461bcd60e51b8152600401610860906131eb565b6000805460ff191690556120e8610efd565b506108863382612d17565b60005460ff166121155760405162461bcd60e51b8152600401610860906131eb565b6000805460ff19169055612127610efd565b5061088633826000612545565b60005460ff166121565760405162461bcd60e51b8152600401610860906131eb565b6000805460ff19169055612168610efd565b50612174338383612361565b50506000805460ff1916600117905550565b60035460009061010090046001600160a01b031633146121b957604051631205b57b60e11b815260040160405180910390fd5b43600954146121db57604051637dfca6b760e11b815260040160405180910390fd5b670de0b6b3a76400008211156122045760405163717220f360e11b815260040160405180910390fd5b600880549083905560408051828152602081018590527faaa68312e2ea9d50e16af5068410ab56e1a1fd06037b1a35664812c30f8214609101610be2565b6000805460ff166122655760405162461bcd60e51b8152600401610860906131eb565b6000805460ff19169055612277610efd565b5061228182612eb6565b5050600090506000805460ff19166001179055919050565b6000336001600160a01b038416146122e55760405162461bcd60e51b815260206004820152600f60248201526e0e6cadcc8cae440dad2e6dac2e8c6d608b1b6044820152606401610860565b8134146123255760405162461bcd60e51b815260206004820152600e60248201526d0ecc2d8eaca40dad2e6dac2e8c6d60931b6044820152606401610860565b50919050565b6000610a9061234284670de0b6b3a7640000612822565b8351612f4a565b805160009061098e90670de0b6b3a764000090613423565b600554604051631200453160e11b81523060048201526001600160a01b03858116602483015284811660448301526064820184905260009283929116906324008a62906084016020604051808303816000875af11580156123c6573d6000803e3d6000fd5b505050506040513d601f19601f820116820180604052508101906123ea9190613372565b9050801561240e57604051638c81362d60e01b815260048101829052602401610860565b43600954146124305760405163c9021e2f60e01b815260040160405180910390fd5b600061243b85611b4b565b90506000600019851461244e5784612450565b815b9050600061245e8883612299565b9050600061246c82856133a1565b9050600082600b5461247e91906133a1565b6001600160a01b038a8116600081815260106020908152604091829020878155600a54600190910155600b8590558151938f168452830191909152810185905260608101849052608081018290529091507f1a2a22cb034d26d1854bdc6666a5b91fe25efbbb5dcad3b0355478d6f5c362a19060a00160405180910390a1509098975050505050505050565b6040516001600160a01b0383169082156108fc029083906000818181858888f19350505050158015612540573d6000803e3d6000fd5b505050565b811580612550575080155b6125b95760405162461bcd60e51b815260206004820152603460248201527f6f6e65206f662072656465656d546f6b656e73496e206f722072656465656d416044820152736d6f756e74496e206d757374206265207a65726f60601b6064820152608401610860565b600060405180602001604052806125ce6116de565b9052905060008084156125ef578491506125e88386611972565b90506125ff565b6125f9848461232b565b91508390505b60055460405163eabe7d9160e01b81526000916001600160a01b03169063eabe7d91906126349030908b9088906004016133c7565b6020604051808303816000875af1158015612653573d6000803e3d6000fd5b505050506040513d601f19601f820116820180604052508101906126779190613372565b9050801561269b5760405163480f424760e01b815260048101829052602401610860565b43600954146126bd576040516397b5cfcd60e01b815260040160405180910390fd5b816126c6611992565b10156126e5576040516391240a1b60e01b815260040160405180910390fd5b82600d546126f391906133a1565b600d556001600160a01b0387166000908152600e602052604090205461271a9084906133a1565b6001600160a01b0388166000908152600e602052604090205561273d878361250a565b60405183815230906001600160a01b0389169060008051602061346a8339815191529060200160405180910390a37fe5b754fb1abb7f01b499791d0b820ae3b6af3424ac1c59768edb53f4ec31a92987838560405161279e939291906133eb565b60405180910390a16005546040516351dff98960e01b81523060048201526001600160a01b0389811660248301526044820185905260648201869052909116906351dff98990608401600060405180830381600087803b15801561280157600080fd5b505af1158015612815573d6000803e3d6000fd5b5050505050505050505050565b6000610a90828461340c565b6000610a9082846133b4565b600554604051632fe3f38f60e11b81523060048201526001600160a01b03838116602483015286811660448301528581166064830152608482018590526000921690635fc7e71e9060a4016020604051808303816000875af11580156128a4573d6000803e3d6000fd5b505050506040513d601f19601f820116820180604052508101906128c89190613372565b905080156128ec57604051630a14d17960e11b815260048101829052602401610860565b436009541461290e576040516380965b1b60e01b815260040160405180910390fd5b43826001600160a01b0316636c540baf6040518163ffffffff1660e01b8152600401602060405180830381865afa15801561294d573d6000803e3d6000fd5b505050506040513d601f19601f820116820180604052508101906129719190613372565b1461298f57604051631046f38d60e31b815260040160405180910390fd5b846001600160a01b0316846001600160a01b0316036129c157604051631bd1a62160e21b815260040160405180910390fd5b826000036129e25760405163d29da7ef60e01b815260040160405180910390fd5b6000198303612a0457604051635982c5bb60e11b815260040160405180910390fd5b6000612a11868686612361565b60055460405163c488847b60e01b815291925060009182916001600160a01b03169063c488847b90612a4b903090899088906004016133c7565b6040805180830381865afa158015612a67573d6000803e3d6000fd5b505050506040513d601f19601f82011682018060405250810190612a8b9190613445565b9150915060008214612afb5760405162461bcd60e51b815260206004820152603360248201527f4c49515549444154455f434f4d5054524f4c4c45525f43414c43554c4154455f604482015272105353d5539517d4d152569157d19052531151606a1b6064820152608401610860565b6040516370a0823160e01b81526001600160a01b0388811660048301528291908716906370a0823190602401602060405180830381865afa158015612b44573d6000803e3d6000fd5b505050506040513d601f19601f82011682018060405250810190612b689190613372565b1015612bb65760405162461bcd60e51b815260206004820152601860248201527f4c49515549444154455f5345495a455f544f4f5f4d55434800000000000000006044820152606401610860565b306001600160a01b03861603612bd757612bd230898984611e3c565b612c91565b60405163b2a02ff160e01b81526000906001600160a01b0387169063b2a02ff190612c0a908c908c9087906004016133c7565b6020604051808303816000875af1158015612c29573d6000803e3d6000fd5b505050506040513d601f19601f82011682018060405250810190612c4d9190613372565b14612c915760405162461bcd60e51b81526020600482015260146024820152731d1bdad95b881cd95a5e9d5c994819985a5b195960621b6044820152606401610860565b604080516001600160a01b038a811682528981166020830152818301869052871660608201526080810183905290517f298637f684da70674f26509b10f07ec2fbc77a335ab1e7d6215a4b2484d8bb529181900360a00190a15050505050505050565b6000670de0b6b3a7640000612d0d848460000151612822565b610a909190613423565b60055460405163368f515360e21b81526000916001600160a01b03169063da3d454c90612d4c903090879087906004016133c7565b6020604051808303816000875af1158015612d6b573d6000803e3d6000fd5b505050506040513d601f19601f82011682018060405250810190612d8f9190613372565b90508015612db35760405163918db40f60e01b815260048101829052602401610860565b4360095414612dd557604051630e8d8c6160e21b815260040160405180910390fd5b81612dde611992565b1015612dfd576040516348c2588160e01b815260040160405180910390fd5b6000612e0884611b4b565b90506000612e1684836133b4565b9050600084600b54612e2891906133b4565b6001600160a01b0387166000908152601060205260409020838155600a54600190910155600b8190559050612e5d868661250a565b604080516001600160a01b038816815260208101879052908101839052606081018290527f13ed6866d4e1ee6da46f845c46d7e54120883d75c5ea9a2dacc1c4ca8984ab809060800160405180910390a1505050505050565b60008080804360095414612ee0576040516338acf79960e01b815260048101829052602401610860565b612eea3386612299565b905080600c54612efa91906133b4565b915081600c819055507fa91e67c5ea634cd43a12c5a482724b03de01e85ca68702a53d0c2f45cb7c1dc5338284604051612f36939291906133eb565b60405180910390a160009590945092505050565b6000610a908284613423565b602081526000825180602084015260005b81811015612f845760208186018101516040868401015201612f67565b506000604082850101526040601f19601f83011684010191505092915050565b6001600160a01b038116811461136d57600080fd5b60008060408385031215612fcc57600080fd5b8235612fd781612fa4565b946020939093013593505050565b600060208284031215612ff757600080fd5b8135610a9081612fa4565b60008060006060848603121561301757600080fd5b833561302281612fa4565b9250602084013561303281612fa4565b929592945050506040919091013590565b60006020828403121561305557600080fd5b5035919050565b634e487b7160e01b600052604160045260246000fd5b600082601f83011261308357600080fd5b813567ffffffffffffffff81111561309d5761309d61305c565b604051601f8201601f19908116603f0116810167ffffffffffffffff811182821017156130cc576130cc61305c565b6040528181528382016020018510156130e457600080fd5b816020850160208301376000918101602001919091529392505050565b60008060008060008060c0878903121561311a57600080fd5b863561312581612fa4565b9550602087013561313581612fa4565b945060408701359350606087013567ffffffffffffffff81111561315857600080fd5b61316489828a01613072565b935050608087013567ffffffffffffffff81111561318157600080fd5b61318d89828a01613072565b92505060a087013560ff811681146131a457600080fd5b809150509295509295509295565b600080604083850312156131c557600080fd5b82356131d081612fa4565b915060208301356131e081612fa4565b809150509250929050565b6020808252600a90820152691c994b595b9d195c995960b21b604082015260600190565b600181811c9082168061322357607f821691505b60208210810361232557634e487b7160e01b600052602260045260246000fd5b60006020828403121561325557600080fd5b81518015158114610a9057600080fd5b601f82111561254057806000526020600020601f840160051c8101602085101561328c5750805b601f840160051c820191505b818110156132ac5760008155600101613298565b5050505050565b815167ffffffffffffffff8111156132cd576132cd61305c565b6132e1816132db845461320f565b84613265565b6020601f82116001811461331557600083156132fd5750848201515b600019600385901b1c1916600184901b1784556132ac565b600084815260208120601f198516915b828110156133455787850151825560209485019460019092019101613325565b50848210156133635786840151600019600387901b60f8161c191681555b50505050600190811b01905550565b60006020828403121561338457600080fd5b5051919050565b634e487b7160e01b600052601160045260246000fd5b8181038181111561098e5761098e61338b565b8082018082111561098e5761098e61338b565b6001600160a01b039384168152919092166020820152604081019190915260600190565b6001600160a01b039390931683526020830191909152604082015260600190565b808202811582820484141761098e5761098e61338b565b60008261344057634e487b7160e01b600052601260045260246000fd5b500490565b6000806040838503121561345857600080fd5b50508051602090910151909290915056feddf252ad1be2c89b69c2b068fc378daa952ba7f163c4a11628f55a4df523b3efa2646970667358221220fc9e6cd81d2e3c3e45b0a94c7260c9b3cdafbbef77c7cd935c14139c0aa988b664736f6c634300081b0033","linkReferences":{}},"methodIdentifiers":{"NO_ERROR()":"69ab3250","_acceptAdmin()":"e9c714f2","_addReserves()":"fcb64147","_reduceReserves(uint256)":"601a0bf1","_setComptroller(address)":"4576b5db","_setInterestRateModel(address)":"f2b3abbd","_setPendingAdmin(address)":"b71d1a0c","_setReserveFactor(uint256)":"fca7820b","accrualBlockNumber()":"6c540baf","accrueInterest()":"a6afed95","admin()":"f851a440","allowance(address,address)":"dd62ed3e","approve(address,uint256)":"095ea7b3","balanceOf(address)":"70a08231","balanceOfUnderlying(address)":"3af9e669","borrow(uint256)":"c5ebeaec","borrowBalanceCurrent(address)":"17bfdfbc","borrowBalanceStored(address)":"95dd9193","borrowIndex()":"aa5af0fd","borrowRatePerBlock()":"f8f9da28","comptroller()":"5fe3b567","decimals()":"313ce567","exchangeRateCurrent()":"bd6d894d","exchangeRateStored()":"182df0f5","getAccountSnapshot(address)":"c37f68e2","getCash()":"3b1d21a2","initialize(address,address,uint256,string,string,uint8)":"99d8c1b4","interestRateModel()":"f3fdb15a","isCToken()":"fe9c44ae","liquidateBorrow(address,address)":"aae40a2a","mint()":"1249c58b","name()":"06fdde03","pendingAdmin()":"26782247","protocolSeizeShareMantissa()":"6752e702","redeem(uint256)":"db006a75","redeemUnderlying(uint256)":"852a12e3","repayBorrow()":"4e4d9fea","repayBorrowBehalf(address)":"e5974619","reserveFactorMantissa()":"173b9904","seize(address,address,uint256)":"b2a02ff1","supplyRatePerBlock()":"ae9d70b0","symbol()":"95d89b41","totalBorrows()":"47bd3718","totalBorrowsCurrent()":"73acee98","totalReserves()":"8f840ddd","totalSupply()":"18160ddd","transfer(address,uint256)":"a9059cbb","transferFrom(address,address,uint256)":"23b872dd"},"id":27}