{"abi":[{"type":"function","name":"BALLOT_TYPEHASH","inputs":[],"outputs":[{"name":"","type":"bytes32","internalType":"bytes32"}],"stateMutability":"view"},{"type":"function","name":"DOMAIN_TYPEHASH","inputs":[],"outputs":[{"name":"","type":"bytes32","internalType":"bytes32"}],"stateMutability":"view"},{"type":"function","name":"MAX_PROPOSAL_THRESHOLD","inputs":[],"outputs":[{"name":"","type":"uint256","internalType":"uint256"}],"stateMutability":"view"},{"type":"function","name":"MAX_VOTING_DELAY","inputs":[],"outputs":[{"name":"","type":"uint256","internalType":"uint256"}],"stateMutability":"view"},{"type":"function","name":"MAX_VOTING_PERIOD","inputs":[],"outputs":[{"name":"","type":"uint256","internalType":"uint256"}],"stateMutability":"view"},{"type":"function","name":"MIN_PROPOSAL_THRESHOLD","inputs":[],"outputs":[{"name":"","type":"uint256","internalType":"uint256"}],"stateMutability":"view"},{"type":"function","name":"MIN_VOTING_DELAY","inputs":[],"outputs":[{"name":"","type":"uint256","internalType":"uint256"}],"stateMutability":"view"},{"type":"function","name":"MIN_VOTING_PERIOD","inputs":[],"outputs":[{"name":"","type":"uint256","internalType":"uint256"}],"stateMutability":"view"},{"type":"function","name":"_acceptAdmin","inputs":[],"outputs":[],"stateMutability":"nonpayable"},{"type":"function","name":"_initiate","inputs":[{"name":"governorAlpha","type":"address","internalType":"address"}],"outputs":[],"stateMutability":"nonpayable"},{"type":"function","name":"_setPendingAdmin","inputs":[{"name":"newPendingAdmin","type":"address","internalType":"address"}],"outputs":[],"stateMutability":"nonpayable"},{"type":"function","name":"_setProposalThreshold","inputs":[{"name":"newProposalThreshold","type":"uint256","internalType":"uint256"}],"outputs":[],"stateMutability":"nonpayable"},{"type":"function","name":"_setVotingDelay","inputs":[{"name":"newVotingDelay","type":"uint256","internalType":"uint256"}],"outputs":[],"stateMutability":"nonpayable"},{"type":"function","name":"_setVotingPeriod","inputs":[{"name":"newVotingPeriod","type":"uint256","internalType":"uint256"}],"outputs":[],"stateMutability":"nonpayable"},{"type":"function","name":"admin","inputs":[],"outputs":[{"name":"","type":"address","internalType":"address"}],"stateMutability":"view"},{"type":"function","name":"cancel","inputs":[{"name":"proposalId","type":"uint256","internalType":"uint256"}],"outputs":[],"stateMutability":"nonpayable"},{"type":"function","name":"castVote","inputs":[{"name":"proposalId","type":"uint256","internalType":"uint256"},{"name":"support","type":"uint8","internalType":"uint8"}],"outputs":[],"stateMutability":"nonpayable"},{"type":"function","name":"castVoteBySig","inputs":[{"name":"proposalId","type":"uint256","internalType":"uint256"},{"name":"support","type":"uint8","internalType":"uint8"},{"name":"v","type":"uint8","internalType":"uint8"},{"name":"r","type":"bytes32","internalType":"bytes32"},{"name":"s","type":"bytes32","internalType":"bytes32"}],"outputs":[],"stateMutability":"nonpayable"},{"type":"function","name":"castVoteWithReason","inputs":[{"name":"proposalId","type":"uint256","internalType":"uint256"},{"name":"support","type":"uint8","internalType":"uint8"},{"name":"reason","type":"string","internalType":"string"}],"outputs":[],"stateMutability":"nonpayable"},{"type":"function","name":"comp","inputs":[],"outputs":[{"name":"","type":"address","internalType":"contract CompInterface"}],"stateMutability":"view"},{"type":"function","name":"execute","inputs":[{"name":"proposalId","type":"uint256","internalType":"uint256"}],"outputs":[],"stateMutability":"payable"},{"type":"function","name":"getActions","inputs":[{"name":"proposalId","type":"uint256","internalType":"uint256"}],"outputs":[{"name":"targets","type":"address[]","internalType":"address[]"},{"name":"values","type":"uint256[]","internalType":"uint256[]"},{"name":"signatures","type":"string[]","internalType":"string[]"},{"name":"calldatas","type":"bytes[]","internalType":"bytes[]"}],"stateMutability":"view"},{"type":"function","name":"getReceipt","inputs":[{"name":"proposalId","type":"uint256","internalType":"uint256"},{"name":"voter","type":"address","internalType":"address"}],"outputs":[{"name":"","type":"tuple","internalType":"struct GovernorBravoDelegateStorageV1.Receipt","components":[{"name":"hasVoted","type":"bool","internalType":"bool"},{"name":"support","type":"uint8","internalType":"uint8"},{"name":"votes","type":"uint96","internalType":"uint96"}]}],"stateMutability":"view"},{"type":"function","name":"implementation","inputs":[],"outputs":[{"name":"","type":"address","internalType":"address"}],"stateMutability":"view"},{"type":"function","name":"initialProposalId","inputs":[],"outputs":[{"name":"","type":"uint256","internalType":"uint256"}],"stateMutability":"view"},{"type":"function","name":"initialize","inputs":[{"name":"timelock_","type":"address","internalType":"address"},{"name":"comp_","type":"address","internalType":"address"},{"name":"votingPeriod_","type":"uint256","internalType":"uint256"},{"name":"votingDelay_","type":"uint256","internalType":"uint256"},{"name":"proposalThreshold_","type":"uint256","internalType":"uint256"}],"outputs":[],"stateMutability":"nonpayable"},{"type":"function","name":"latestProposalIds","inputs":[{"name":"","type":"address","internalType":"address"}],"outputs":[{"name":"","type":"uint256","internalType":"uint256"}],"stateMutability":"view"},{"type":"function","name":"name","inputs":[],"outputs":[{"name":"","type":"string","internalType":"string"}],"stateMutability":"view"},{"type":"function","name":"pendingAdmin","inputs":[],"outputs":[{"name":"","type":"address","internalType":"address"}],"stateMutability":"view"},{"type":"function","name":"proposalCount","inputs":[],"outputs":[{"name":"","type":"uint256","internalType":"uint256"}],"stateMutability":"view"},{"type":"function","name":"proposalMaxOperations","inputs":[],"outputs":[{"name":"","type":"uint256","internalType":"uint256"}],"stateMutability":"view"},{"type":"function","name":"proposalThreshold","inputs":[],"outputs":[{"name":"","type":"uint256","internalType":"uint256"}],"stateMutability":"view"},{"type":"function","name":"proposals","inputs":[{"name":"","type":"uint256","internalType":"uint256"}],"outputs":[{"name":"id","type":"uint256","internalType":"uint256"},{"name":"proposer","type":"address","internalType":"address"},{"name":"eta","type":"uint256","internalType":"uint256"},{"name":"startBlock","type":"uint256","internalType":"uint256"},{"name":"endBlock","type":"uint256","internalType":"uint256"},{"name":"forVotes","type":"uint256","internalType":"uint256"},{"name":"againstVotes","type":"uint256","internalType":"uint256"},{"name":"abstainVotes","type":"uint256","internalType":"uint256"},{"name":"canceled","type":"bool","internalType":"bool"},{"name":"executed","type":"bool","internalType":"bool"}],"stateMutability":"view"},{"type":"function","name":"propose","inputs":[{"name":"targets","type":"address[]","internalType":"address[]"},{"name":"values","type":"uint256[]","internalType":"uint256[]"},{"name":"signatures","type":"string[]","internalType":"string[]"},{"name":"calldatas","type":"bytes[]","internalType":"bytes[]"},{"name":"description","type":"string","internalType":"string"}],"outputs":[{"name":"","type":"uint256","internalType":"uint256"}],"stateMutability":"nonpayable"},{"type":"function","name":"queue","inputs":[{"name":"proposalId","type":"uint256","internalType":"uint256"}],"outputs":[],"stateMutability":"nonpayable"},{"type":"function","name":"quorumVotes","inputs":[],"outputs":[{"name":"","type":"uint256","internalType":"uint256"}],"stateMutability":"view"},{"type":"function","name":"state","inputs":[{"name":"proposalId","type":"uint256","internalType":"uint256"}],"outputs":[{"name":"","type":"uint8","internalType":"enum GovernorBravoDelegateStorageV1.ProposalState"}],"stateMutability":"view"},{"type":"function","name":"timelock","inputs":[],"outputs":[{"name":"","type":"address","internalType":"contract TimelockInterface"}],"stateMutability":"view"},{"type":"function","name":"votingDelay","inputs":[],"outputs":[{"name":"","type":"uint256","internalType":"uint256"}],"stateMutability":"view"},{"type":"function","name":"votingPeriod","inputs":[],"outputs":[{"name":"","type":"uint256","internalType":"uint256"}],"stateMutability":"view"},{"type":"event","name":"NewAdmin","inputs":[{"name":"oldAdmin","type":"address","indexed":false,"internalType":"address"},{"name":"newAdmin","type":"address","indexed":false,"internalType":"address"}],"anonymous":false},{"type":"event","name":"NewImplementation","inputs":[{"name":"oldImplementation","type":"address","indexed":false,"internalType":"address"},{"name":"newImplementation","type":"address","indexed":false,"internalType":"address"}],"anonymous":false},{"type":"event","name":"NewPendingAdmin","inputs":[{"name":"oldPendingAdmin","type":"address","indexed":false,"internalType":"address"},{"name":"newPendingAdmin","type":"address","indexed":false,"internalType":"address"}],"anonymous":false},{"type":"event","name":"ProposalCanceled","inputs":[{"name":"id","type":"uint256","indexed":false,"internalType":"uint256"}],"anonymous":false},{"type":"event","name":"ProposalCreated","inputs":[{"name":"id","type":"uint256","indexed":false,"internalType":"uint256"},{"name":"proposer","type":"address","indexed":false,"internalType":"address"},{"name":"targets","type":"address[]","indexed":false,"internalType":"address[]"},{"name":"values","type":"uint256[]","indexed":false,"internalType":"uint256[]"},{"name":"signatures","type":"string[]","indexed":false,"internalType":"string[]"},{"name":"calldatas","type":"bytes[]","indexed":false,"internalType":"bytes[]"},{"name":"startBlock","type":"uint256","indexed":false,"internalType":"uint256"},{"name":"endBlock","type":"uint256","indexed":false,"internalType":"uint256"},{"name":"description","type":"string","indexed":false,"internalType":"string"}],"anonymous":false},{"type":"event","name":"ProposalExecuted","inputs":[{"name":"id","type":"uint256","indexed":false,"internalType":"uint256"}],"anonymous":false},{"type":"event","name":"ProposalQueued","inputs":[{"name":"id","type":"uint256","indexed":false,"internalType":"uint256"},{"name":"eta","type":"uint256","indexed":false,"internalType":"uint256"}],"anonymous":false},{"type":"event","name":"ProposalThresholdSet","inputs":[{"name":"oldProposalThreshold","type":"uint256","indexed":false,"internalType":"uint256"},{"name":"newProposalThreshold","type":"uint256","indexed":false,"internalType":"uint256"}],"anonymous":false},{"type":"event","name":"VoteCast","inputs":[{"name":"voter","type":"address","indexed":true,"internalType":"address"},{"name":"proposalId","type":"uint256","indexed":false,"internalType":"uint256"},{"name":"support","type":"uint8","indexed":false,"internalType":"uint8"},{"name":"votes","type":"uint256","indexed":false,"internalType":"uint256"},{"name":"reason","type":"string","indexed":false,"internalType":"string"}],"anonymous":false},{"type":"event","name":"VotingDelaySet","inputs":[{"name":"oldVotingDelay","type":"uint256","indexed":false,"internalType":"uint256"},{"name":"newVotingDelay","type":"uint256","indexed":false,"internalType":"uint256"}],"anonymous":false},{"type":"event","name":"VotingPeriodSet","inputs":[{"name":"oldVotingPeriod","type":"uint256","indexed":false,"internalType":"uint256"},{"name":"newVotingPeriod","type":"uint256","indexed":false,"internalType":"uint256"}],"anonymous":false},{"type":"event","name":"WhitelistAccountExpirationSet","inputs":[{"name":"account","type":"address","indexed":false,"internalType":"address"},{"name":"expiration","type":"uint256","indexed":false,"internalType":"uint256"}],"anonymous":false},{"type":"event","name":"WhitelistGuardianSet","inputs":[{"name":"oldGuardian","type":"address","indexed":false,"internalType":"address"},{"name":"newGuardian","type":"address","indexed":false,"internalType":"address"}],"anonymous":false}],"bytecode":{"object":"0x6080604052348015600f57600080fd5b50613c9a8061001f6000396000f3fe60806040526004361061023b5760003560e01c8063791f5d231161012e578063da95691a116100ab578063e9c714f21161006f578063e9c714f2146107d2578063f851a440146107e7578063f9d28b8014610807578063fc4eee4214610827578063fe0d94c11461083d57600080fd5b8063da95691a146106f9578063ddf0b00914610719578063deaaa7cc14610739578063e23a9a521461076d578063e48083fe146107bd57600080fd5b8063b58131b0116100f2578063b58131b01461066d578063b71d1a0c14610683578063d13f90b4146106a3578063d33219b4146106c3578063da35c664146106e357600080fd5b8063791f5d23146105ed5780637b3c71d31461060b5780637bdbe4d01461062b578063a64e024a14610640578063b11262631461065757600080fd5b806324bc1a64116101bc5780633bccf4fd116101805780633bccf4fd146105405780633e4f49e61461056057806340e58ee51461058d57806356781388146105ad5780635c60da1b146105cd57600080fd5b806324bc1a641461049e57806325fd935a146104bc57806326782247146104da578063328dd982146104fa5780633932abb11461052a57600080fd5b806317977c611161020357806317977c61146103e757806317ba1b8b146104145780631dfb1b5a1461043457806320606b7014610454578063215809ca1461048857600080fd5b8063013cf08b1461024057806302a251a31461031957806306fdde031461033d5780630ea2d98c1461038d578063109d0af8146103af575b600080fd5b34801561024c57600080fd5b506102be61025b36600461307a565b600a60208190526000918252604090912080546001820154600283015460078401546008850154600986015496860154600b870154600c9097015495976001600160a01b0390951696939592949193919290919060ff808216916101009004168a565b604080519a8b526001600160a01b0390991660208b0152978901969096526060880194909452608087019290925260a086015260c085015260e084015215156101008301521515610120820152610140015b60405180910390f35b34801561032557600080fd5b5061032f60045481565b604051908152602001610310565b34801561034957600080fd5b5061038060405180604001604052806017815260200176436f6d706f756e6420476f7665726e6f7220427261766f60481b81525081565b60405161031091906130e3565b34801561039957600080fd5b506103ad6103a836600461307a565b610850565b005b3480156103bb57600080fd5b506009546103cf906001600160a01b031681565b6040516001600160a01b039091168152602001610310565b3480156103f357600080fd5b5061032f610402366004613112565b600b6020526000908152604090205481565b34801561042057600080fd5b506103ad61042f36600461307a565b610989565b34801561044057600080fd5b506103ad61044f36600461307a565b610ad2565b34801561046057600080fd5b5061032f7f8cad95687ba82c2ce50e74f7b754645e5117c3a5bec8151c0726d5857980a86681565b34801561049457600080fd5b5061032f61168081565b3480156104aa57600080fd5b5061032f6954b40b1f852bda00000081565b3480156104c857600080fd5b5061032f69152d02c7e14af680000081565b3480156104e657600080fd5b506001546103cf906001600160a01b031681565b34801561050657600080fd5b5061051a61051536600461307a565b610bf9565b6040516103109493929190613200565b34801561053657600080fd5b5061032f60035481565b34801561054c57600080fd5b506103ad61055b366004613269565b610e8a565b34801561056c57600080fd5b5061058061057b36600461307a565b611107565b60405161031091906132cd565b34801561059957600080fd5b506103ad6105a836600461307a565b6112c0565b3480156105b957600080fd5b506103ad6105c83660046132f5565b6115c9565b3480156105d957600080fd5b506002546103cf906001600160a01b031681565b3480156105f957600080fd5b5061032f690a968163f0a57b40000081565b34801561061757600080fd5b506103ad610626366004613321565b611634565b34801561063757600080fd5b5061032f600a81565b34801561064c57600080fd5b5061032f62013b0081565b34801561066357600080fd5b5061032f619d8081565b34801561067957600080fd5b5061032f60055481565b34801561068f57600080fd5b506103ad61069e366004613112565b611684565b3480156106af57600080fd5b506103ad6106be3660046133a9565b61174b565b3480156106cf57600080fd5b506008546103cf906001600160a01b031681565b3480156106ef57600080fd5b5061032f60075481565b34801561070557600080fd5b5061032f6107143660046136c9565b611a6b565b34801561072557600080fd5b506103ad61073436600461307a565b6120f2565b34801561074557600080fd5b5061032f7f150214d74d59b7d1e90c73fc22ef3d991dd0a76b046543d4d80ab92d2a50328f81565b34801561077957600080fd5b5061078d6107883660046137b0565b6123f4565b6040805182511515815260208084015160ff1690820152918101516001600160601b031690820152606001610310565b3480156107c957600080fd5b5061032f600181565b3480156107de57600080fd5b506103ad61246c565b3480156107f357600080fd5b506000546103cf906001600160a01b031681565b34801561081357600080fd5b506103ad610822366004613112565b612596565b34801561083357600080fd5b5061032f60065481565b6103ad61084b36600461307a565b612732565b6000546001600160a01b031633146108c35760405162461bcd60e51b815260206004820152602b60248201527f476f7665726e6f72427261766f3a3a5f736574566f74696e67506572696f643a60448201526a2061646d696e206f6e6c7960a81b60648201526084015b60405180910390fd5b61168081101580156108d8575062013b008111155b6109435760405162461bcd60e51b815260206004820152603660248201527f476f7665726e6f72427261766f3a3a5f736574566f74696e67506572696f643a604482015275081a5b9d985b1a59081d9bdd1a5b99c81c195c9a5bd960521b60648201526084016108ba565b600480549082905560408051828152602081018490527f7e3f7f0708a84de9203036abaa450dccc85ad5ff52f78c170f3edb55cf5e882891015b60405180910390a15050565b6000546001600160a01b031633146109fc5760405162461bcd60e51b815260206004820152603060248201527f476f7665726e6f72427261766f3a3a5f73657450726f706f73616c546872657360448201526f686f6c643a2061646d696e206f6e6c7960801b60648201526084016108ba565b690a968163f0a57b4000008110158015610a20575069152d02c7e14af68000008111155b610a94576040805162461bcd60e51b81526020600482015260248101919091527f476f7665726e6f72427261766f3a3a5f73657450726f706f73616c546872657360448201527f686f6c643a20696e76616c69642070726f706f73616c207468726573686f6c6460648201526084016108ba565b600580549082905560408051828152602081018490527fccb45da8d5717e6c4544694297c4ba5cf151d455c9bb0ed4fc7a38411bc05461910161097d565b6000546001600160a01b03163314610b3f5760405162461bcd60e51b815260206004820152602a60248201527f476f7665726e6f72427261766f3a3a5f736574566f74696e6744656c61793a2060448201526961646d696e206f6e6c7960b01b60648201526084016108ba565b60018110158015610b525750619d808111155b610bbb5760405162461bcd60e51b815260206004820152603460248201527f476f7665726e6f72427261766f3a3a5f736574566f74696e6744656c61793a20604482015273696e76616c696420766f74696e672064656c617960601b60648201526084016108ba565b600380549082905560408051828152602081018490527fc565b045403dc03c2eea82b81a0465edad9e2e7fc4d97e11421c209da93d7a93910161097d565b6060806060806000600a600087815260200190815260200160002090508060030181600401826005018360060183805480602002602001604051908101604052809291908181526020018280548015610c7b57602002820191906000526020600020905b81546001600160a01b03168152600190910190602001808311610c5d575b5050505050935082805480602002602001604051908101604052809291908181526020018280548015610ccd57602002820191906000526020600020905b815481526020019060010190808311610cb9575b5050505050925081805480602002602001604051908101604052809291908181526020016000905b82821015610da1578382906000526020600020018054610d14906137d3565b80601f0160208091040260200160405190810160405280929190818152602001828054610d40906137d3565b8015610d8d5780601f10610d6257610100808354040283529160200191610d8d565b820191906000526020600020905b815481529060010190602001808311610d7057829003601f168201915b505050505081526020019060010190610cf5565b50505050915080805480602002602001604051908101604052809291908181526020016000905b82821015610e74578382906000526020600020018054610de7906137d3565b80601f0160208091040260200160405190810160405280929190818152602001828054610e13906137d3565b8015610e605780601f10610e3557610100808354040283529160200191610e60565b820191906000526020600020905b815481529060010190602001808311610e4357829003601f168201915b505050505081526020019060010190610dc8565b5050505090509450945094509450509193509193565b6040805180820182526017815276436f6d706f756e6420476f7665726e6f7220427261766f60481b60209182015281517f8cad95687ba82c2ce50e74f7b754645e5117c3a5bec8151c0726d5857980a866818301527f3d9e905142ff365fb68ce863f26a44f5583cf7ec11bcde450555f50b7e1b561481840152466060820152306080808301919091528351808303909101815260a0820184528051908301207f150214d74d59b7d1e90c73fc22ef3d991dd0a76b046543d4d80ab92d2a50328f60c083015260e0820189905260ff8816610100808401919091528451808403909101815261012083019094528351939092019290922061190160f01b6101408401526101428301829052610162830181905290916000906101820160408051601f198184030181528282528051602091820120600080855291840180845281905260ff8a169284019290925260608301889052608083018790529092509060019060a0016020604051602081039080840390855afa158015611011573d6000803e3d6000fd5b5050604051601f1901519150506001600160a01b03811661108c5760405162461bcd60e51b815260206004820152602f60248201527f476f7665726e6f72427261766f3a3a63617374566f746542795369673a20696e60448201526e76616c6964207369676e617475726560881b60648201526084016108ba565b806001600160a01b03167fb8e138887d0aa13bab447e82de9d5c1777041ecd21ca36ba824ff1e6c07ddda48a8a6110c4858e8e612965565b6040805193845260ff90921660208401526001600160601b03169082015260806060820181905260009082015260a00160405180910390a2505050505050505050565b6000816007541015801561111c575060065482115b61117a5760405162461bcd60e51b815260206004820152602960248201527f476f7665726e6f72427261766f3a3a73746174653a20696e76616c69642070726044820152681bdc1bdcd85b081a5960ba1b60648201526084016108ba565b6000828152600a60205260409020600c81015460ff161561119e5750600292915050565b806007015443116111b25750600092915050565b806008015443116111c65750600192915050565b80600a015481600901541115806111ea57506954b40b1f852bda0000008160090154105b156111f85750600392915050565b806002015460000361120d5750600492915050565b600c810154610100900460ff16156112285750600792915050565b6002810154600854604080516360d143f160e11b815290516112a293926001600160a01b03169163c1a287e29160048083019260209291908290030181865afa158015611279573d6000803e3d6000fd5b505050506040513d601f19601f8201168201806040525081019061129d9190613807565b612c45565b42106112b15750600692915050565b50600592915050565b50919050565b60076112cb82611107565b60078111156112dc576112dc6132b7565b036113485760405162461bcd60e51b815260206004820152603660248201527f476f7665726e6f72427261766f3a3a63616e63656c3a2063616e6e6f742063616044820152751b98d95b08195e1958dd5d1959081c1c9bdc1bdcd85b60521b60648201526084016108ba565b6000818152600a6020526040902060018101546001600160a01b031633148061141057506005546009546001838101546001600160a01b039283169263782d6fe192911690611398904390612c9f565b6040516001600160e01b031960e085901b1681526001600160a01b0390921660048301526024820152604401602060405180830381865afa1580156113e1573d6000803e3d6000fd5b505050506040513d601f19601f820116820180604052508101906114059190613820565b6001600160601b0316105b6114745760405162461bcd60e51b815260206004820152602f60248201527f476f7665726e6f72427261766f3a3a63616e63656c3a2070726f706f7365722060448201526e18589bdd99481d1a1c995cda1bdb19608a1b60648201526084016108ba565b600c8101805460ff1916600117905560005b6003820154811015611598576008546003830180546001600160a01b039092169163591fcdfe9190849081106114be576114be613849565b6000918252602090912001546004850180546001600160a01b0390921691859081106114ec576114ec613849565b906000526020600020015485600501858154811061150c5761150c613849565b9060005260206000200186600601868154811061152b5761152b613849565b9060005260206000200187600201546040518663ffffffff1660e01b815260040161155a9594939291906138e2565b600060405180830381600087803b15801561157457600080fd5b505af1158015611588573d6000803e3d6000fd5b5050600190920191506114869050565b506040518281527f789cf55be980739dad1d0699b93b58e806b51c9d96619bfa8fe0a28abaa7b30c9060200161097d565b337fb8e138887d0aa13bab447e82de9d5c1777041ecd21ca36ba824ff1e6c07ddda483836115f8848383612965565b6040805193845260ff90921660208401526001600160601b03169082015260806060820181905260009082015260a00160405180910390a25050565b337fb8e138887d0aa13bab447e82de9d5c1777041ecd21ca36ba824ff1e6c07ddda48585611663848383612965565b868660405161167695949392919061392e565b60405180910390a250505050565b6000546001600160a01b031633146116f15760405162461bcd60e51b815260206004820152602a60248201527f476f7665726e6f72427261766f3a5f73657450656e64696e6741646d696e3a2060448201526961646d696e206f6e6c7960b01b60648201526084016108ba565b600180546001600160a01b038381166001600160a01b031983168117909355604080519190921680825260208201939093527fca4f2f25d0898edd99413412fb94012f9e54ec8142f9b093e7720646a95b16a9910161097d565b6008546001600160a01b0316156117c05760405162461bcd60e51b815260206004820152603360248201527f476f7665726e6f72427261766f3a3a696e697469616c697a653a2063616e206f6044820152726e6c7920696e697469616c697a65206f6e636560681b60648201526084016108ba565b6000546001600160a01b031633146118285760405162461bcd60e51b815260206004820152602560248201527f476f7665726e6f72427261766f3a3a696e697469616c697a653a2061646d696e604482015264206f6e6c7960d81b60648201526084016108ba565b6001600160a01b0385166118885760405162461bcd60e51b81526020600482015260336024820152600080516020613c4583398151915260448201527269642074696d656c6f636b206164647265737360681b60648201526084016108ba565b6001600160a01b0384166118e45760405162461bcd60e51b815260206004820152602f6024820152600080516020613c4583398151915260448201526e696420636f6d70206164647265737360881b60648201526084016108ba565b61168083101580156118f9575062013b008311155b61194c5760405162461bcd60e51b81526020600482015260306024820152600080516020613c4583398151915260448201526f1a59081d9bdd1a5b99c81c195c9a5bd960821b60648201526084016108ba565b6001821015801561195f5750619d808211155b6119b15760405162461bcd60e51b815260206004820152602f6024820152600080516020613c4583398151915260448201526e696420766f74696e672064656c617960881b60648201526084016108ba565b690a968163f0a57b40000081101580156119d5575069152d02c7e14af68000008111155b611a2d5760405162461bcd60e51b81526020600482015260356024820152600080516020613c458339815191526044820152741a59081c1c9bdc1bdcd85b081d1a1c995cda1bdb19605a1b60648201526084016108ba565b600880546001600160a01b039687166001600160a01b0319918216179091556009805495909616941693909317909355600455600391909155600555565b6000600654600003611ad95760405162461bcd60e51b815260206004820152603160248201527f476f7665726e6f72427261766f3a3a70726f706f73653a20476f7665726e6f7260448201527020427261766f206e6f742061637469766560781b60648201526084016108ba565b6005546009546001600160a01b031663782d6fe133611af9436001612c9f565b6040516001600160e01b031960e085901b1681526001600160a01b0390921660048301526024820152604401602060405180830381865afa158015611b42573d6000803e3d6000fd5b505050506040513d601f19601f82011682018060405250810190611b669190613820565b6001600160601b031611611be25760405162461bcd60e51b815260206004820152603f60248201527f476f7665726e6f72427261766f3a3a70726f706f73653a2070726f706f73657260448201527f20766f7465732062656c6f772070726f706f73616c207468726573686f6c640060648201526084016108ba565b84518651148015611bf4575083518651145b8015611c01575082518651145b611c815760405162461bcd60e51b8152602060048201526044602482018190527f476f7665726e6f72427261766f3a3a70726f706f73653a2070726f706f73616c908201527f2066756e6374696f6e20696e666f726d6174696f6e206172697479206d69736d6064820152630c2e8c6d60e31b608482015260a4016108ba565b8551600003611ce75760405162461bcd60e51b815260206004820152602c60248201527f476f7665726e6f72427261766f3a3a70726f706f73653a206d7573742070726f60448201526b7669646520616374696f6e7360a01b60648201526084016108ba565b600a86511115611d4a5760405162461bcd60e51b815260206004820152602860248201527f476f7665726e6f72427261766f3a3a70726f706f73653a20746f6f206d616e7960448201526720616374696f6e7360c01b60648201526084016108ba565b336000908152600b60205260409020548015611ec9576000611d6b82611107565b90506001816007811115611d8157611d816132b7565b03611e1a5760405162461bcd60e51b815260206004820152605860248201527f476f7665726e6f72427261766f3a3a70726f706f73653a206f6e65206c69766560448201527f2070726f706f73616c207065722070726f706f7365722c20666f756e6420616e60648201527f20616c7265616479206163746976652070726f706f73616c0000000000000000608482015260a4016108ba565b6000816007811115611e2e57611e2e6132b7565b03611ec75760405162461bcd60e51b815260206004820152605960248201527f476f7665726e6f72427261766f3a3a70726f706f73653a206f6e65206c69766560448201527f2070726f706f73616c207065722070726f706f7365722c20666f756e6420616e60648201527f20616c72656164792070656e64696e672070726f706f73616c00000000000000608482015260a4016108ba565b505b6000611ed743600354612c45565b90506000611ee782600454612c45565b600780549192506000611ef983613994565b90915550506007546000908152600a60205260409020805415611f725760405162461bcd60e51b815260206004820152602b60248201527f476f7665726e6f72427261766f3a3a70726f706f73653a2050726f706f73616c60448201526a24a21031b7b63639b4b7b760a91b60648201526084016108ba565b60075481556001810180546001600160a01b03191633179055600060028201558951611fa790600383019060208d0190612eaa565b508851611fbd90600483019060208c0190612f0f565b508751611fd390600583019060208b0190612f4a565b508651611fe990600683019060208a0190612f9c565b5082816007018190555081816008018190555060008160090181905550600081600a0181905550600081600b0181905550600081600c0160006101000a81548160ff021916908315150217905550600081600c0160016101000a81548160ff0219169083151502179055508060000154600b60008360010160009054906101000a90046001600160a01b03166001600160a01b03166001600160a01b03168152602001908152602001600020819055507f7d84a6263ae0d98d3329bd7b46bb4e8d6f98cd35a7adb45c274c8b7fd5ebd5e08160000154338c8c8c8c89898e6040516120dc999897969594939291906139ad565b60405180910390a1549998505050505050505050565b60046120fd82611107565b600781111561210e5761210e6132b7565b1461218f5760405162461bcd60e51b8152602060048201526044602482018190527f476f7665726e6f72427261766f3a3a71756575653a2070726f706f73616c2063908201527f616e206f6e6c79206265207175657565642069662069742069732073756363656064820152631959195960e21b608482015260a4016108ba565b6000818152600a602090815260408083206008548251630d48571f60e31b815292519194936121ee9342936001600160a01b0390931692636a42b8f8926004808401939192918290030181865afa158015611279573d6000803e3d6000fd5b905060005b60038301548110156123ae576123a683600301828154811061221757612217613849565b6000918252602090912001546004850180546001600160a01b03909216918490811061224557612245613849565b906000526020600020015485600501848154811061226557612265613849565b90600052602060002001805461227a906137d3565b80601f01602080910402602001604051908101604052809291908181526020018280546122a6906137d3565b80156122f35780601f106122c8576101008083540402835291602001916122f3565b820191906000526020600020905b8154815290600101906020018083116122d657829003601f168201915b505050505086600601858154811061230d5761230d613849565b906000526020600020018054612322906137d3565b80601f016020809104026020016040519081016040528092919081815260200182805461234e906137d3565b801561239b5780601f106123705761010080835404028352916020019161239b565b820191906000526020600020905b81548152906001019060200180831161237e57829003601f168201915b505050505086612cf3565b6001016121f3565b506002820181905560408051848152602081018390527f9a2e42fd6722813d69113e7d0079d3d940171428df7373df9c7f7617cfda2892910160405180910390a1505050565b604080516060808201835260008083526020808401829052928401819052858152600a83528381206001600160a01b0386168252600d018352839020835191820184525460ff8082161515835261010082041692820192909252620100009091046001600160601b0316918101919091525b92915050565b6001546001600160a01b03163314801561248557503315155b6124e85760405162461bcd60e51b815260206004820152602e60248201527f476f7665726e6f72427261766f3a5f61636365707441646d696e3a2070656e6460448201526d696e672061646d696e206f6e6c7960901b60648201526084016108ba565b60008054600180546001600160a01b038082166001600160a01b031980861682179096559490911690915560408051919092168082526020820184905292917ff9ffabca9c8276e99321725bcb43fb076a6c66a54b7f21c4e8146d8519b417dc910160405180910390a1600154604080516001600160a01b03808516825290921660208301527fca4f2f25d0898edd99413412fb94012f9e54ec8142f9b093e7720646a95b16a9910161097d565b6000546001600160a01b031633146125fc5760405162461bcd60e51b8152602060048201526024808201527f476f7665726e6f72427261766f3a3a5f696e6974696174653a2061646d696e206044820152636f6e6c7960e01b60648201526084016108ba565b600654156126655760405162461bcd60e51b815260206004820152603060248201527f476f7665726e6f72427261766f3a3a5f696e6974696174653a2063616e206f6e60448201526f6c7920696e697469617465206f6e636560801b60648201526084016108ba565b806001600160a01b031663da35c6646040518163ffffffff1660e01b81526004016020604051808303816000875af11580156126a5573d6000803e3d6000fd5b505050506040513d601f19601f820116820180604052508101906126c99190613807565b600781905560065560085460408051630e18b68160e01b815290516001600160a01b0390921691630e18b6819160048082019260009290919082900301818387803b15801561271757600080fd5b505af115801561272b573d6000803e3d6000fd5b5050505050565b600561273d82611107565b600781111561274e5761274e6132b7565b146127cf5760405162461bcd60e51b815260206004820152604560248201527f476f7665726e6f72427261766f3a3a657865637574653a2070726f706f73616c60448201527f2063616e206f6e6c7920626520657865637574656420696620697420697320716064820152641d595d595960da1b608482015260a4016108ba565b6000818152600a60205260408120600c8101805461ff001916610100179055905b6003820154811015612934576008546004830180546001600160a01b0390921691630825f38f91908490811061282857612828613849565b906000526020600020015484600301848154811061284857612848613849565b6000918252602090912001546004860180546001600160a01b03909216918690811061287657612876613849565b906000526020600020015486600501868154811061289657612896613849565b906000526020600020018760060187815481106128b5576128b5613849565b9060005260206000200188600201546040518763ffffffff1660e01b81526004016128e49594939291906138e2565b60006040518083038185885af1158015612902573d6000803e3d6000fd5b50505050506040513d6000823e601f3d908101601f1916820160405261292b9190810190613a43565b506001016127f0565b506040518281527f712ae1383f79ac853f8d882153778e0260ef8f03b504e2866e0593e04d2b291f9060200161097d565b6000600161297284611107565b6007811115612983576129836132b7565b146129ea5760405162461bcd60e51b815260206004820152603160248201527f476f7665726e6f72427261766f3a3a63617374566f7465496e7465726e616c3a604482015270081d9bdd1a5b99c81a5cc818db1bdcd959607a1b60648201526084016108ba565b60028260ff161115612a595760405162461bcd60e51b815260206004820152603260248201527f476f7665726e6f72427261766f3a3a63617374566f7465496e7465726e616c3a60448201527120696e76616c696420766f7465207479706560701b60648201526084016108ba565b6000838152600a602090815260408083206001600160a01b0388168452600d8101909252909120805460ff1615612aef5760405162461bcd60e51b815260206004820152603460248201527f476f7665726e6f72427261766f3a3a63617374566f7465496e7465726e616c3a604482015273081d9bdd195c88185b1c9958591e481d9bdd195960621b60648201526084016108ba565b600954600783015460405163782d6fe160e01b81526000926001600160a01b03169163782d6fe191612b39918b916004016001600160a01b03929092168252602082015260400190565b602060405180830381865afa158015612b56573d6000803e3d6000fd5b505050506040513d601f19601f82011682018060405250810190612b7a9190613820565b90508460ff16600003612ba857612b9e83600a0154826001600160601b0316612c45565b600a840155612bfc565b8460ff16600103612bd457612bca8360090154826001600160601b0316612c45565b6009840155612bfc565b8460ff16600203612bfc57612bf683600b0154826001600160601b0316612c45565b600b8401555b81546001600160601b03821662010000026dffffffffffffffffffffffff00001960ff88166101000261ffff199093169290921760011791909116179091559150509392505050565b600080612c528385613ab9565b905083811015612c985760405162461bcd60e51b81526020600482015260116024820152706164646974696f6e206f766572666c6f7760781b60448201526064016108ba565b9392505050565b600082821115612ce95760405162461bcd60e51b81526020600482015260156024820152747375627472616374696f6e20756e646572666c6f7760581b60448201526064016108ba565b612c988284613acc565b6008546040516001600160a01b039091169063f2b0653790612d219088908890889088908890602001613adf565b604051602081830303815290604052805190602001206040518263ffffffff1660e01b8152600401612d5591815260200190565b602060405180830381865afa158015612d72573d6000803e3d6000fd5b505050506040513d601f19601f82011682018060405250810190612d969190613b18565b15612e275760405162461bcd60e51b815260206004820152605560248201527f476f7665726e6f72427261766f3a3a71756575654f72526576657274496e746560448201527f726e616c3a206964656e746963616c2070726f706f73616c20616374696f6e20606482015274616c7265616479207175657565642061742065746160581b608482015260a4016108ba565b600854604051633a66f90160e01b81526001600160a01b0390911690633a66f90190612e5f9088908890889088908890600401613adf565b6020604051808303816000875af1158015612e7e573d6000803e3d6000fd5b505050506040513d601f19601f82011682018060405250810190612ea29190613807565b505050505050565b828054828255906000526020600020908101928215612eff579160200282015b82811115612eff57825182546001600160a01b0319166001600160a01b03909116178255602090920191600190910190612eca565b50612f0b929150612fee565b5090565b828054828255906000526020600020908101928215612eff579160200282015b82811115612eff578251825591602001919060010190612f2f565b828054828255906000526020600020908101928215612f90579160200282015b82811115612f905782518290612f809082613b86565b5091602001919060010190612f6a565b50612f0b929150613003565b828054828255906000526020600020908101928215612fe2579160200282015b82811115612fe25782518290612fd29082613b86565b5091602001919060010190612fbc565b50612f0b929150613020565b5b80821115612f0b5760008155600101612fef565b80821115612f0b576000613017828261303d565b50600101613003565b80821115612f0b576000613034828261303d565b50600101613020565b508054613049906137d3565b6000825580601f10613059575050565b601f0160209004906000526020600020908101906130779190612fee565b50565b60006020828403121561308c57600080fd5b5035919050565b60005b838110156130ae578181015183820152602001613096565b50506000910152565b600081518084526130cf816020860160208601613093565b601f01601f19169290920160200192915050565b602081526000612c9860208301846130b7565b80356001600160a01b038116811461310d57600080fd5b919050565b60006020828403121561312457600080fd5b612c98826130f6565b600081518084526020840193506020830160005b828110156131685781516001600160a01b0316865260209586019590910190600101613141565b5093949350505050565b600081518084526020840193506020830160005b82811015613168578151865260209586019590910190600101613186565b600082825180855260208501945060208160051b8301016020850160005b838110156131f457601f198584030188526131de8383516130b7565b60209889019890935091909101906001016131c2565b50909695505050505050565b608081526000613213608083018761312d565b82810360208401526132258187613172565b9050828103604084015261323981866131a4565b9050828103606084015261324d81856131a4565b979650505050505050565b803560ff8116811461310d57600080fd5b600080600080600060a0868803121561328157600080fd5b8535945061329160208701613258565b935061329f60408701613258565b94979396509394606081013594506080013592915050565b634e487b7160e01b600052602160045260246000fd5b60208101600883106132ef57634e487b7160e01b600052602160045260246000fd5b91905290565b6000806040838503121561330857600080fd5b8235915061331860208401613258565b90509250929050565b6000806000806060858703121561333757600080fd5b8435935061334760208601613258565b925060408501356001600160401b0381111561336257600080fd5b8501601f8101871361337357600080fd5b80356001600160401b0381111561338957600080fd5b87602082840101111561339b57600080fd5b949793965060200194505050565b600080600080600060a086880312156133c157600080fd5b6133ca866130f6565b94506133d8602087016130f6565b94979496505050506040830135926060810135926080909101359150565b634e487b7160e01b600052604160045260246000fd5b604051601f8201601f191681016001600160401b0381118282101715613434576134346133f6565b604052919050565b60006001600160401b03821115613455576134556133f6565b5060051b60200190565b600082601f83011261347057600080fd5b813561348361347e8261343c565b61340c565b8082825260208201915060208360051b8601019250858311156134a557600080fd5b602085015b838110156134c9576134bb816130f6565b8352602092830192016134aa565b5095945050505050565b600082601f8301126134e457600080fd5b81356134f261347e8261343c565b8082825260208201915060208360051b86010192508583111561351457600080fd5b602085015b838110156134c9578035835260209283019201613519565b60006001600160401b0382111561354a5761354a6133f6565b50601f01601f191660200190565b600061356661347e84613531565b905082815283838301111561357a57600080fd5b828260208301376000602084830101529392505050565b600082601f8301126135a257600080fd5b612c9883833560208501613558565b600082601f8301126135c257600080fd5b81356135d061347e8261343c565b8082825260208201915060208360051b8601019250858311156135f257600080fd5b602085015b838110156134c95780356001600160401b0381111561361557600080fd5b613624886020838a0101613591565b845250602092830192016135f7565b600082601f83011261364457600080fd5b813561365261347e8261343c565b8082825260208201915060208360051b86010192508583111561367457600080fd5b602085015b838110156134c95780356001600160401b0381111561369757600080fd5b8601603f810188136136a857600080fd5b6136ba88602083013560408401613558565b84525060209283019201613679565b600080600080600060a086880312156136e157600080fd5b85356001600160401b038111156136f757600080fd5b6137038882890161345f565b95505060208601356001600160401b0381111561371f57600080fd5b61372b888289016134d3565b94505060408601356001600160401b0381111561374757600080fd5b613753888289016135b1565b93505060608601356001600160401b0381111561376f57600080fd5b61377b88828901613633565b92505060808601356001600160401b0381111561379757600080fd5b6137a388828901613591565b9150509295509295909350565b600080604083850312156137c357600080fd5b82359150613318602084016130f6565b600181811c908216806137e757607f821691505b6020821081036112ba57634e487b7160e01b600052602260045260246000fd5b60006020828403121561381957600080fd5b5051919050565b60006020828403121561383257600080fd5b81516001600160601b0381168114612c9857600080fd5b634e487b7160e01b600052603260045260246000fd5b6000815461386c816137d3565b80855260018216801561388657600181146138a2576138d9565b60ff1983166020870152602082151560051b87010193506138d9565b84600052602060002060005b838110156138d05781546020828a0101526001820191506020810190506138ae565b87016020019450505b50505092915050565b60018060a01b038616815284602082015260a06040820152600061390960a083018661385f565b828103606084015261391b818661385f565b9150508260808301529695505050505050565b85815260ff851660208201526001600160601b038416604082015260806060820152816080820152818360a0830137600081830160a090810191909152601f909201601f19160101949350505050565b634e487b7160e01b600052601160045260246000fd5b6000600182016139a6576139a661397e565b5060010190565b8981526001600160a01b0389166020820152610120604082018190526000906139d89083018a61312d565b82810360608401526139ea818a613172565b905082810360808401526139fe81896131a4565b905082810360a0840152613a1281886131a4565b90508560c08401528460e0840152828103610100840152613a3381856130b7565b9c9b505050505050505050505050565b600060208284031215613a5557600080fd5b81516001600160401b03811115613a6b57600080fd5b8201601f81018413613a7c57600080fd5b8051613a8a61347e82613531565b818152856020838501011115613a9f57600080fd5b613ab0826020830160208601613093565b95945050505050565b808201808211156124665761246661397e565b818103818111156124665761246661397e565b60018060a01b038616815284602082015260a060408201526000613b0660a08301866130b7565b828103606084015261391b81866130b7565b600060208284031215613b2a57600080fd5b81518015158114612c9857600080fd5b601f821115613b8157806000526020600020601f840160051c81016020851015613b615750805b601f840160051c820191505b8181101561272b5760008155600101613b6d565b505050565b81516001600160401b03811115613b9f57613b9f6133f6565b613bb381613bad84546137d3565b84613b3a565b6020601f821160018114613be75760008315613bcf5750848201515b600019600385901b1c1916600184901b17845561272b565b600084815260208120601f198516915b82811015613c175787850151825560209485019460019092019101613bf7565b5084821015613c355786840151600019600387901b60f8161c191681555b50505050600190811b0190555056fe476f7665726e6f72427261766f3a3a696e697469616c697a653a20696e76616ca2646970667358221220408c3c6f4db28a344870987e757694821e43c8cacfbe8eaa789b1c8810a8cb8d64736f6c634300081b0033","linkReferences":{}},"methodIdentifiers":{"BALLOT_TYPEHASH()":"deaaa7cc","DOMAIN_TYPEHASH()":"20606b70","MAX_PROPOSAL_THRESHOLD()":"25fd935a","MAX_VOTING_DELAY()":"b1126263","MAX_VOTING_PERIOD()":"a64e024a","MIN_PROPOSAL_THRESHOLD()":"791f5d23","MIN_VOTING_DELAY()":"e48083fe","MIN_VOTING_PERIOD()":"215809ca","_acceptAdmin()":"e9c714f2","_initiate(address)":"f9d28b80","_setPendingAdmin(address)":"b71d1a0c","_setProposalThreshold(uint256)":"17ba1b8b","_setVotingDelay(uint256)":"1dfb1b5a","_setVotingPeriod(uint256)":"0ea2d98c","admin()":"f851a440","cancel(uint256)":"40e58ee5","castVote(uint256,uint8)":"56781388","castVoteBySig(uint256,uint8,uint8,bytes32,bytes32)":"3bccf4fd","castVoteWithReason(uint256,uint8,string)":"7b3c71d3","comp()":"109d0af8","execute(uint256)":"fe0d94c1","getActions(uint256)":"328dd982","getReceipt(uint256,address)":"e23a9a52","implementation()":"5c60da1b","initialProposalId()":"fc4eee42","initialize(address,address,uint256,uint256,uint256)":"d13f90b4","latestProposalIds(address)":"17977c61","name()":"06fdde03","pendingAdmin()":"26782247","proposalCount()":"da35c664","proposalMaxOperations()":"7bdbe4d0","proposalThreshold()":"b58131b0","proposals(uint256)":"013cf08b","propose(address[],uint256[],string[],bytes[],string)":"da95691a","queue(uint256)":"ddf0b009","quorumVotes()":"24bc1a64","state(uint256)":"3e4f49e6","timelock()":"d33219b4","votingDelay()":"3932abb1","votingPeriod()":"02a251a3"},"id":43}