{"abi":[{"type":"constructor","inputs":[{"name":"timelock_","type":"address","internalType":"address"},{"name":"comp_","type":"address","internalType":"address"},{"name":"admin_","type":"address","internalType":"address"},{"name":"implementation_","type":"address","internalType":"address"},{"name":"votingPeriod_","type":"uint256","internalType":"uint256"},{"name":"votingDelay_","type":"uint256","internalType":"uint256"},{"name":"proposalThreshold_","type":"uint256","internalType":"uint256"}],"stateMutability":"nonpayable"},{"type":"fallback","stateMutability":"payable"},{"type":"function","name":"_setImplementation","inputs":[{"name":"implementation_","type":"address","internalType":"address"}],"outputs":[],"stateMutability":"nonpayable"},{"type":"function","name":"admin","inputs":[],"outputs":[{"name":"","type":"address","internalType":"address"}],"stateMutability":"view"},{"type":"function","name":"implementation","inputs":[],"outputs":[{"name":"","type":"address","internalType":"address"}],"stateMutability":"view"},{"type":"function","name":"pendingAdmin","inputs":[],"outputs":[{"name":"","type":"address","internalType":"address"}],"stateMutability":"view"},{"type":"event","name":"NewAdmin","inputs":[{"name":"oldAdmin","type":"address","indexed":false,"internalType":"address"},{"name":"newAdmin","type":"address","indexed":false,"internalType":"address"}],"anonymous":false},{"type":"event","name":"NewImplementation","inputs":[{"name":"oldImplementation","type":"address","indexed":false,"internalType":"address"},{"name":"newImplementation","type":"address","indexed":false,"internalType":"address"}],"anonymous":false},{"type":"event","name":"NewPendingAdmin","inputs":[{"name":"oldPendingAdmin","type":"address","indexed":false,"internalType":"address"},{"name":"newPendingAdmin","type":"address","indexed":false,"internalType":"address"}],"anonymous":false},{"type":"event","name":"ProposalCanceled","inputs":[{"name":"id","type":"uint256","indexed":false,"internalType":"uint256"}],"anonymous":false},{"type":"event","name":"ProposalCreated","inputs":[{"name":"id","type":"uint256","indexed":false,"internalType":"uint256"},{"name":"proposer","type":"address","indexed":false,"internalType":"address"},{"name":"targets","type":"address[]","indexed":false,"internalType":"address[]"},{"name":"values","type":"uint256[]","indexed":false,"internalType":"uint256[]"},{"name":"signatures","type":"string[]","indexed":false,"internalType":"string[]"},{"name":"calldatas","type":"bytes[]","indexed":false,"internalType":"bytes[]"},{"name":"startBlock","type":"uint256","indexed":false,"internalType":"uint256"},{"name":"endBlock","type":"uint256","indexed":false,"internalType":"uint256"},{"name":"description","type":"string","indexed":false,"internalType":"string"}],"anonymous":false},{"type":"event","name":"ProposalExecuted","inputs":[{"name":"id","type":"uint256","indexed":false,"internalType":"uint256"}],"anonymous":false},{"type":"event","name":"ProposalQueued","inputs":[{"name":"id","type":"uint256","indexed":false,"internalType":"uint256"},{"name":"eta","type":"uint256","indexed":false,"internalType":"uint256"}],"anonymous":false},{"type":"event","name":"ProposalThresholdSet","inputs":[{"name":"oldProposalThreshold","type":"uint256","indexed":false,"internalType":"uint256"},{"name":"newProposalThreshold","type":"uint256","indexed":false,"internalType":"uint256"}],"anonymous":false},{"type":"event","name":"VoteCast","inputs":[{"name":"voter","type":"address","indexed":true,"internalType":"address"},{"name":"proposalId","type":"uint256","indexed":false,"internalType":"uint256"},{"name":"support","type":"uint8","indexed":false,"internalType":"uint8"},{"name":"votes","type":"uint256","indexed":false,"internalType":"uint256"},{"name":"reason","type":"string","indexed":false,"internalType":"string"}],"anonymous":false},{"type":"event","name":"VotingDelaySet","inputs":[{"name":"oldVotingDelay","type":"uint256","indexed":false,"internalType":"uint256"},{"name":"newVotingDelay","type":"uint256","indexed":false,"internalType":"uint256"}],"anonymous":false},{"type":"event","name":"VotingPeriodSet","inputs":[{"name":"oldVotingPeriod","type":"uint256","indexed":false,"internalType":"uint256"},{"name":"newVotingPeriod","type":"uint256","indexed":false,"internalType":"uint256"}],"anonymous":false},{"type":"event","name":"WhitelistAccountExpirationSet","inputs":[{"name":"account","type":"address","indexed":false,"internalType":"address"},{"name":"expiration","type":"uint256","indexed":false,"internalType":"uint256"}],"anonymous":false},{"type":"event","name":"WhitelistGuardianSet","inputs":[{"name":"oldGuardian","type":"address","indexed":false,"internalType":"address"},{"name":"newGuardian","type":"address","indexed":false,"internalType":"address"}],"anonymous":false}],"bytecode":{"object":"0x608060405234801561001057600080fd5b506040516106cf3803806106cf83398101604081905261002f916102c2565b600080546001600160a01b031916331790556040516001600160a01b03888116602483015287166044820152606481018490526084810183905260a481018290526100ac90859060c40160408051601f198184030181529190526020810180516001600160e01b0390811663344fe42d60e21b179091526100e216565b6100b584610155565b5050600080546001600160a01b0319166001600160a01b0394909416939093179092555061036492505050565b600080836001600160a01b0316836040516100fd9190610335565b600060405180830381855af49150503d8060008114610138576040519150601f19603f3d011682016040523d82523d6000602084013e61013d565b606091505b5090925090508161014f573d60208201fd5b50505050565b6000546001600160a01b031633146101c85760405162461bcd60e51b815260206004820152603660248201526000805160206106af83398151915260448201527f656d656e746174696f6e3a2061646d696e206f6e6c790000000000000000000060648201526084015b60405180910390fd5b6001600160a01b0381166102455760405162461bcd60e51b815260206004820152604a60248201526000805160206106af83398151915260448201527f656d656e746174696f6e3a20696e76616c696420696d706c656d656e746174696064820152696f6e206164647265737360b01b608482015260a4016101bf565b600280546001600160a01b038381166001600160a01b031983168117909355604080519190921680825260208201939093527fd604de94d45953f9138079ec1b82d533cb2160c906d1076d1f7ed54befbca97a910160405180910390a15050565b80516001600160a01b03811681146102bd57600080fd5b919050565b600080600080600080600060e0888a0312156102dd57600080fd5b6102e6886102a6565b96506102f4602089016102a6565b9550610302604089016102a6565b9450610310606089016102a6565b608089015160a08a015160c0909a0151989b979a509598909795969095945092505050565b6000825160005b81811015610356576020818601810151858301520161033c565b506000920191825250919050565b61033c806103736000396000f3fe60806040526004361061003f5760003560e01c806326782247146100bc5780635c60da1b146100f8578063bb913f4114610118578063f851a44014610138575b6002546040516000916001600160a01b03169061005f90839036906102c6565b600060405180830381855af49150503d806000811461009a576040519150601f19603f3d011682016040523d82523d6000602084013e61009f565b606091505b505090506040513d6000823e8180156100b6573d82f35b3d82fd5b005b3480156100c857600080fd5b506001546100dc906001600160a01b031681565b6040516001600160a01b03909116815260200160405180910390f35b34801561010457600080fd5b506002546100dc906001600160a01b031681565b34801561012457600080fd5b506100ba6101333660046102d6565b610158565b34801561014457600080fd5b506000546100dc906001600160a01b031681565b6000546001600160a01b031633146101d65760405162461bcd60e51b815260206004820152603660248201527f476f7665726e6f72427261766f44656c656761746f723a3a5f736574496d706c604482015275656d656e746174696f6e3a2061646d696e206f6e6c7960501b60648201526084015b60405180910390fd5b6001600160a01b0381166102655760405162461bcd60e51b815260206004820152604a60248201527f476f7665726e6f72427261766f44656c656761746f723a3a5f736574496d706c60448201527f656d656e746174696f6e3a20696e76616c696420696d706c656d656e746174696064820152696f6e206164647265737360b01b608482015260a4016101cd565b600280546001600160a01b038381166001600160a01b031983168117909355604080519190921680825260208201939093527fd604de94d45953f9138079ec1b82d533cb2160c906d1076d1f7ed54befbca97a910160405180910390a15050565b8183823760009101908152919050565b6000602082840312156102e857600080fd5b81356001600160a01b03811681146102ff57600080fd5b939250505056fea2646970667358221220b5035a530b715d54c336b35a52c9e80e8ea7ffc0359311fa07f889f24c4caf3e64736f6c634300081b0033476f7665726e6f72427261766f44656c656761746f723a3a5f736574496d706c","linkReferences":{}},"methodIdentifiers":{"_setImplementation(address)":"bb913f41","admin()":"f851a440","implementation()":"5c60da1b","pendingAdmin()":"26782247"},"id":44}