{"abi":[{"type":"function","name":"BALLOT_TYPEHASH","inputs":[],"outputs":[{"name":"","type":"bytes32","internalType":"bytes32"}],"stateMutability":"view"},{"type":"function","name":"DOMAIN_TYPEHASH","inputs":[],"outputs":[{"name":"","type":"bytes32","internalType":"bytes32"}],"stateMutability":"view"},{"type":"function","name":"MAX_PROPOSAL_THRESHOLD","inputs":[],"outputs":[{"name":"","type":"uint256","internalType":"uint256"}],"stateMutability":"view"},{"type":"function","name":"MAX_VOTING_DELAY","inputs":[],"outputs":[{"name":"","type":"uint256","internalType":"uint256"}],"stateMutability":"view"},{"type":"function","name":"MAX_VOTING_PERIOD","inputs":[],"outputs":[{"name":"","type":"uint256","internalType":"uint256"}],"stateMutability":"view"},{"type":"function","name":"MIN_PROPOSAL_THRESHOLD","inputs":[],"outputs":[{"name":"","type":"uint256","internalType":"uint256"}],"stateMutability":"view"},{"type":"function","name":"MIN_VOTING_DELAY","inputs":[],"outputs":[{"name":"","type":"uint256","internalType":"uint256"}],"stateMutability":"view"},{"type":"function","name":"MIN_VOTING_PERIOD","inputs":[],"outputs":[{"name":"","type":"uint256","internalType":"uint256"}],"stateMutability":"view"},{"type":"function","name":"_acceptAdmin","inputs":[],"outputs":[],"stateMutability":"nonpayable"},{"type":"function","name":"_initiate","inputs":[{"name":"governorAlpha","type":"address","internalType":"address"}],"outputs":[],"stateMutability":"nonpayable"},{"type":"function","name":"_setPendingAdmin","inputs":[{"name":"newPendingAdmin","type":"address","internalType":"address"}],"outputs":[],"stateMutability":"nonpayable"},{"type":"function","name":"_setProposalThreshold","inputs":[{"name":"newProposalThreshold","type":"uint256","internalType":"uint256"}],"outputs":[],"stateMutability":"nonpayable"},{"type":"function","name":"_setVotingDelay","inputs":[{"name":"newVotingDelay","type":"uint256","internalType":"uint256"}],"outputs":[],"stateMutability":"nonpayable"},{"type":"function","name":"_setVotingPeriod","inputs":[{"name":"newVotingPeriod","type":"uint256","internalType":"uint256"}],"outputs":[],"stateMutability":"nonpayable"},{"type":"function","name":"_setWhitelistAccountExpiration","inputs":[{"name":"account","type":"address","internalType":"address"},{"name":"expiration","type":"uint256","internalType":"uint256"}],"outputs":[],"stateMutability":"nonpayable"},{"type":"function","name":"_setWhitelistGuardian","inputs":[{"name":"account","type":"address","internalType":"address"}],"outputs":[],"stateMutability":"nonpayable"},{"type":"function","name":"admin","inputs":[],"outputs":[{"name":"","type":"address","internalType":"address"}],"stateMutability":"view"},{"type":"function","name":"cancel","inputs":[{"name":"proposalId","type":"uint256","internalType":"uint256"}],"outputs":[],"stateMutability":"nonpayable"},{"type":"function","name":"castVote","inputs":[{"name":"proposalId","type":"uint256","internalType":"uint256"},{"name":"support","type":"uint8","internalType":"uint8"}],"outputs":[],"stateMutability":"nonpayable"},{"type":"function","name":"castVoteBySig","inputs":[{"name":"proposalId","type":"uint256","internalType":"uint256"},{"name":"support","type":"uint8","internalType":"uint8"},{"name":"v","type":"uint8","internalType":"uint8"},{"name":"r","type":"bytes32","internalType":"bytes32"},{"name":"s","type":"bytes32","internalType":"bytes32"}],"outputs":[],"stateMutability":"nonpayable"},{"type":"function","name":"castVoteWithReason","inputs":[{"name":"proposalId","type":"uint256","internalType":"uint256"},{"name":"support","type":"uint8","internalType":"uint8"},{"name":"reason","type":"string","internalType":"string"}],"outputs":[],"stateMutability":"nonpayable"},{"type":"function","name":"comp","inputs":[],"outputs":[{"name":"","type":"address","internalType":"contract CompInterface"}],"stateMutability":"view"},{"type":"function","name":"execute","inputs":[{"name":"proposalId","type":"uint256","internalType":"uint256"}],"outputs":[],"stateMutability":"payable"},{"type":"function","name":"getActions","inputs":[{"name":"proposalId","type":"uint256","internalType":"uint256"}],"outputs":[{"name":"targets","type":"address[]","internalType":"address[]"},{"name":"values","type":"uint256[]","internalType":"uint256[]"},{"name":"signatures","type":"string[]","internalType":"string[]"},{"name":"calldatas","type":"bytes[]","internalType":"bytes[]"}],"stateMutability":"view"},{"type":"function","name":"getReceipt","inputs":[{"name":"proposalId","type":"uint256","internalType":"uint256"},{"name":"voter","type":"address","internalType":"address"}],"outputs":[{"name":"","type":"tuple","internalType":"struct GovernorBravoDelegateStorageV1.Receipt","components":[{"name":"hasVoted","type":"bool","internalType":"bool"},{"name":"support","type":"uint8","internalType":"uint8"},{"name":"votes","type":"uint96","internalType":"uint96"}]}],"stateMutability":"view"},{"type":"function","name":"implementation","inputs":[],"outputs":[{"name":"","type":"address","internalType":"address"}],"stateMutability":"view"},{"type":"function","name":"initialProposalId","inputs":[],"outputs":[{"name":"","type":"uint256","internalType":"uint256"}],"stateMutability":"view"},{"type":"function","name":"initialize","inputs":[{"name":"timelock_","type":"address","internalType":"address"},{"name":"comp_","type":"address","internalType":"address"},{"name":"votingPeriod_","type":"uint256","internalType":"uint256"},{"name":"votingDelay_","type":"uint256","internalType":"uint256"},{"name":"proposalThreshold_","type":"uint256","internalType":"uint256"}],"outputs":[],"stateMutability":"nonpayable"},{"type":"function","name":"isWhitelisted","inputs":[{"name":"account","type":"address","internalType":"address"}],"outputs":[{"name":"","type":"bool","internalType":"bool"}],"stateMutability":"view"},{"type":"function","name":"latestProposalIds","inputs":[{"name":"","type":"address","internalType":"address"}],"outputs":[{"name":"","type":"uint256","internalType":"uint256"}],"stateMutability":"view"},{"type":"function","name":"name","inputs":[],"outputs":[{"name":"","type":"string","internalType":"string"}],"stateMutability":"view"},{"type":"function","name":"pendingAdmin","inputs":[],"outputs":[{"name":"","type":"address","internalType":"address"}],"stateMutability":"view"},{"type":"function","name":"proposalCount","inputs":[],"outputs":[{"name":"","type":"uint256","internalType":"uint256"}],"stateMutability":"view"},{"type":"function","name":"proposalMaxOperations","inputs":[],"outputs":[{"name":"","type":"uint256","internalType":"uint256"}],"stateMutability":"view"},{"type":"function","name":"proposalThreshold","inputs":[],"outputs":[{"name":"","type":"uint256","internalType":"uint256"}],"stateMutability":"view"},{"type":"function","name":"proposals","inputs":[{"name":"","type":"uint256","internalType":"uint256"}],"outputs":[{"name":"id","type":"uint256","internalType":"uint256"},{"name":"proposer","type":"address","internalType":"address"},{"name":"eta","type":"uint256","internalType":"uint256"},{"name":"startBlock","type":"uint256","internalType":"uint256"},{"name":"endBlock","type":"uint256","internalType":"uint256"},{"name":"forVotes","type":"uint256","internalType":"uint256"},{"name":"againstVotes","type":"uint256","internalType":"uint256"},{"name":"abstainVotes","type":"uint256","internalType":"uint256"},{"name":"canceled","type":"bool","internalType":"bool"},{"name":"executed","type":"bool","internalType":"bool"}],"stateMutability":"view"},{"type":"function","name":"propose","inputs":[{"name":"targets","type":"address[]","internalType":"address[]"},{"name":"values","type":"uint256[]","internalType":"uint256[]"},{"name":"signatures","type":"string[]","internalType":"string[]"},{"name":"calldatas","type":"bytes[]","internalType":"bytes[]"},{"name":"description","type":"string","internalType":"string"}],"outputs":[{"name":"","type":"uint256","internalType":"uint256"}],"stateMutability":"nonpayable"},{"type":"function","name":"queue","inputs":[{"name":"proposalId","type":"uint256","internalType":"uint256"}],"outputs":[],"stateMutability":"nonpayable"},{"type":"function","name":"quorumVotes","inputs":[],"outputs":[{"name":"","type":"uint256","internalType":"uint256"}],"stateMutability":"view"},{"type":"function","name":"state","inputs":[{"name":"proposalId","type":"uint256","internalType":"uint256"}],"outputs":[{"name":"","type":"uint8","internalType":"enum GovernorBravoDelegateStorageV1.ProposalState"}],"stateMutability":"view"},{"type":"function","name":"timelock","inputs":[],"outputs":[{"name":"","type":"address","internalType":"contract TimelockInterface"}],"stateMutability":"view"},{"type":"function","name":"votingDelay","inputs":[],"outputs":[{"name":"","type":"uint256","internalType":"uint256"}],"stateMutability":"view"},{"type":"function","name":"votingPeriod","inputs":[],"outputs":[{"name":"","type":"uint256","internalType":"uint256"}],"stateMutability":"view"},{"type":"function","name":"whitelistAccountExpirations","inputs":[{"name":"","type":"address","internalType":"address"}],"outputs":[{"name":"","type":"uint256","internalType":"uint256"}],"stateMutability":"view"},{"type":"function","name":"whitelistGuardian","inputs":[],"outputs":[{"name":"","type":"address","internalType":"address"}],"stateMutability":"view"},{"type":"event","name":"NewAdmin","inputs":[{"name":"oldAdmin","type":"address","indexed":false,"internalType":"address"},{"name":"newAdmin","type":"address","indexed":false,"internalType":"address"}],"anonymous":false},{"type":"event","name":"NewImplementation","inputs":[{"name":"oldImplementation","type":"address","indexed":false,"internalType":"address"},{"name":"newImplementation","type":"address","indexed":false,"internalType":"address"}],"anonymous":false},{"type":"event","name":"NewPendingAdmin","inputs":[{"name":"oldPendingAdmin","type":"address","indexed":false,"internalType":"address"},{"name":"newPendingAdmin","type":"address","indexed":false,"internalType":"address"}],"anonymous":false},{"type":"event","name":"ProposalCanceled","inputs":[{"name":"id","type":"uint256","indexed":false,"internalType":"uint256"}],"anonymous":false},{"type":"event","name":"ProposalCreated","inputs":[{"name":"id","type":"uint256","indexed":false,"internalType":"uint256"},{"name":"proposer","type":"address","indexed":false,"internalType":"address"},{"name":"targets","type":"address[]","indexed":false,"internalType":"address[]"},{"name":"values","type":"uint256[]","indexed":false,"internalType":"uint256[]"},{"name":"signatures","type":"string[]","indexed":false,"internalType":"string[]"},{"name":"calldatas","type":"bytes[]","indexed":false,"internalType":"bytes[]"},{"name":"startBlock","type":"uint256","indexed":false,"internalType":"uint256"},{"name":"endBlock","type":"uint256","indexed":false,"internalType":"uint256"},{"name":"description","type":"string","indexed":false,"internalType":"string"}],"anonymous":false},{"type":"event","name":"ProposalExecuted","inputs":[{"name":"id","type":"uint256","indexed":false,"internalType":"uint256"}],"anonymous":false},{"type":"event","name":"ProposalQueued","inputs":[{"name":"id","type":"uint256","indexed":false,"internalType":"uint256"},{"name":"eta","type":"uint256","indexed":false,"internalType":"uint256"}],"anonymous":false},{"type":"event","name":"ProposalThresholdSet","inputs":[{"name":"oldProposalThreshold","type":"uint256","indexed":false,"internalType":"uint256"},{"name":"newProposalThreshold","type":"uint256","indexed":false,"internalType":"uint256"}],"anonymous":false},{"type":"event","name":"VoteCast","inputs":[{"name":"voter","type":"address","indexed":true,"internalType":"address"},{"name":"proposalId","type":"uint256","indexed":false,"internalType":"uint256"},{"name":"support","type":"uint8","indexed":false,"internalType":"uint8"},{"name":"votes","type":"uint256","indexed":false,"internalType":"uint256"},{"name":"reason","type":"string","indexed":false,"internalType":"string"}],"anonymous":false},{"type":"event","name":"VotingDelaySet","inputs":[{"name":"oldVotingDelay","type":"uint256","indexed":false,"internalType":"uint256"},{"name":"newVotingDelay","type":"uint256","indexed":false,"internalType":"uint256"}],"anonymous":false},{"type":"event","name":"VotingPeriodSet","inputs":[{"name":"oldVotingPeriod","type":"uint256","indexed":false,"internalType":"uint256"},{"name":"newVotingPeriod","type":"uint256","indexed":false,"internalType":"uint256"}],"anonymous":false},{"type":"event","name":"WhitelistAccountExpirationSet","inputs":[{"name":"account","type":"address","indexed":false,"internalType":"address"},{"name":"expiration","type":"uint256","indexed":false,"internalType":"uint256"}],"anonymous":false},{"type":"event","name":"WhitelistGuardianSet","inputs":[{"name":"oldGuardian","type":"address","indexed":false,"internalType":"address"},{"name":"newGuardian","type":"address","indexed":false,"internalType":"address"}],"anonymous":false}],"bytecode":{"object":"0x6080604052348015600f57600080fd5b506140d78061001f6000396000f3fe6080604052600436106102725760003560e01c80635c60da1b1161014f578063d33219b4116100c1578063e48083fe1161007a578063e48083fe146108c8578063e9c714f2146108dd578063f851a440146108f2578063f9d28b8014610912578063fc4eee4214610932578063fe0d94c11461094857600080fd5b8063d33219b4146107ce578063da35c664146107ee578063da95691a14610804578063ddf0b00914610824578063deaaa7cc14610844578063e23a9a521461087857600080fd5b8063a64e024a11610113578063a64e024a1461072b578063b112626314610742578063b58131b014610758578063b71d1a0c1461076e578063c5a8425d1461078e578063d13f90b4146107ae57600080fd5b80635c60da1b14610699578063791f5d23146106b95780637b3c71d3146106d65780637bdbe4d0146106f6578063995333651461070b57600080fd5b806325fd935a116101e85780633af32abf116101ac5780633af32abf146105a45780633bccf4fd146105ec5780633e4f49e61461060c57806340e58ee5146106395780634d6733d214610659578063567813881461067957600080fd5b806325fd935a146104f35780632678224714610511578063328dd9821461053157806338bd0dda146105615780633932abb11461058e57600080fd5b806317977c611161023a57806317977c611461041e57806317ba1b8b1461044b5780631dfb1b5a1461046b57806320606b701461048b578063215809ca146104bf57806324bc1a64146104d557600080fd5b8063013cf08b1461027757806302a251a31461035057806306fdde03146103745780630ea2d98c146103c4578063109d0af8146103e6575b600080fd5b34801561028357600080fd5b506102f561029236600461348d565b600a60208190526000918252604090912080546001820154600283015460078401546008850154600986015496860154600b870154600c9097015495976001600160a01b0390951696939592949193919290919060ff808216916101009004168a565b604080519a8b526001600160a01b0390991660208b0152978901969096526060880194909452608087019290925260a086015260c085015260e084015215156101008301521515610120820152610140015b60405180910390f35b34801561035c57600080fd5b5061036660045481565b604051908152602001610347565b34801561038057600080fd5b506103b760405180604001604052806017815260200176436f6d706f756e6420476f7665726e6f7220427261766f60481b81525081565b60405161034791906134f6565b3480156103d057600080fd5b506103e46103df36600461348d565b61095b565b005b3480156103f257600080fd5b50600954610406906001600160a01b031681565b6040516001600160a01b039091168152602001610347565b34801561042a57600080fd5b50610366610439366004613525565b600b6020526000908152604090205481565b34801561045757600080fd5b506103e461046636600461348d565b610a94565b34801561047757600080fd5b506103e461048636600461348d565b610bdc565b34801561049757600080fd5b506103667f8cad95687ba82c2ce50e74f7b754645e5117c3a5bec8151c0726d5857980a86681565b3480156104cb57600080fd5b5061036661168081565b3480156104e157600080fd5b506103666954b40b1f852bda00000081565b3480156104ff57600080fd5b5061036669152d02c7e14af680000081565b34801561051d57600080fd5b50600154610406906001600160a01b031681565b34801561053d57600080fd5b5061055161054c36600461348d565b610d03565b6040516103479493929190613613565b34801561056d57600080fd5b5061036661057c366004613525565b600c6020526000908152604090205481565b34801561059a57600080fd5b5061036660035481565b3480156105b057600080fd5b506105dc6105bf366004613525565b6001600160a01b03166000908152600c6020526040902054421090565b6040519015158152602001610347565b3480156105f857600080fd5b506103e461060736600461367c565b610f94565b34801561061857600080fd5b5061062c61062736600461348d565b611211565b60405161034791906136e0565b34801561064557600080fd5b506103e461065436600461348d565b6113ca565b34801561066557600080fd5b506103e4610674366004613708565b611812565b34801561068557600080fd5b506103e4610694366004613732565b6118f8565b3480156106a557600080fd5b50600254610406906001600160a01b031681565b3480156106c557600080fd5b50610366683635c9adc5dea0000081565b3480156106e257600080fd5b506103e46106f136600461375e565b611963565b34801561070257600080fd5b50610366600a81565b34801561071757600080fd5b506103e4610726366004613525565b6119b3565b34801561073757600080fd5b5061036662013b0081565b34801561074e57600080fd5b50610366619d8081565b34801561076457600080fd5b5061036660055481565b34801561077a57600080fd5b506103e4610789366004613525565b611a80565b34801561079a57600080fd5b50600d54610406906001600160a01b031681565b3480156107ba57600080fd5b506103e46107c93660046137e6565b611b47565b3480156107da57600080fd5b50600854610406906001600160a01b031681565b3480156107fa57600080fd5b5061036660075481565b34801561081057600080fd5b5061036661081f366004613b06565b611e66565b34801561083057600080fd5b506103e461083f36600461348d565b612505565b34801561085057600080fd5b506103667f150214d74d59b7d1e90c73fc22ef3d991dd0a76b046543d4d80ab92d2a50328f81565b34801561088457600080fd5b50610898610893366004613bed565b612807565b6040805182511515815260208084015160ff1690820152918101516001600160601b031690820152606001610347565b3480156108d457600080fd5b50610366600181565b3480156108e957600080fd5b506103e461287f565b3480156108fe57600080fd5b50600054610406906001600160a01b031681565b34801561091e57600080fd5b506103e461092d366004613525565b6129a9565b34801561093e57600080fd5b5061036660065481565b6103e461095636600461348d565b612b45565b6000546001600160a01b031633146109ce5760405162461bcd60e51b815260206004820152602b60248201527f476f7665726e6f72427261766f3a3a5f736574566f74696e67506572696f643a60448201526a2061646d696e206f6e6c7960a81b60648201526084015b60405180910390fd5b61168081101580156109e3575062013b008111155b610a4e5760405162461bcd60e51b815260206004820152603660248201527f476f7665726e6f72427261766f3a3a5f736574566f74696e67506572696f643a604482015275081a5b9d985b1a59081d9bdd1a5b99c81c195c9a5bd960521b60648201526084016109c5565b600480549082905560408051828152602081018490527f7e3f7f0708a84de9203036abaa450dccc85ad5ff52f78c170f3edb55cf5e882891015b60405180910390a15050565b6000546001600160a01b03163314610b075760405162461bcd60e51b815260206004820152603060248201527f476f7665726e6f72427261766f3a3a5f73657450726f706f73616c546872657360448201526f686f6c643a2061646d696e206f6e6c7960801b60648201526084016109c5565b683635c9adc5dea000008110158015610b2a575069152d02c7e14af68000008111155b610b9e576040805162461bcd60e51b81526020600482015260248101919091527f476f7665726e6f72427261766f3a3a5f73657450726f706f73616c546872657360448201527f686f6c643a20696e76616c69642070726f706f73616c207468726573686f6c6460648201526084016109c5565b600580549082905560408051828152602081018490527fccb45da8d5717e6c4544694297c4ba5cf151d455c9bb0ed4fc7a38411bc054619101610a88565b6000546001600160a01b03163314610c495760405162461bcd60e51b815260206004820152602a60248201527f476f7665726e6f72427261766f3a3a5f736574566f74696e6744656c61793a2060448201526961646d696e206f6e6c7960b01b60648201526084016109c5565b60018110158015610c5c5750619d808111155b610cc55760405162461bcd60e51b815260206004820152603460248201527f476f7665726e6f72427261766f3a3a5f736574566f74696e6744656c61793a20604482015273696e76616c696420766f74696e672064656c617960601b60648201526084016109c5565b600380549082905560408051828152602081018490527fc565b045403dc03c2eea82b81a0465edad9e2e7fc4d97e11421c209da93d7a939101610a88565b6060806060806000600a600087815260200190815260200160002090508060030181600401826005018360060183805480602002602001604051908101604052809291908181526020018280548015610d8557602002820191906000526020600020905b81546001600160a01b03168152600190910190602001808311610d67575b5050505050935082805480602002602001604051908101604052809291908181526020018280548015610dd757602002820191906000526020600020905b815481526020019060010190808311610dc3575b5050505050925081805480602002602001604051908101604052809291908181526020016000905b82821015610eab578382906000526020600020018054610e1e90613c10565b80601f0160208091040260200160405190810160405280929190818152602001828054610e4a90613c10565b8015610e975780601f10610e6c57610100808354040283529160200191610e97565b820191906000526020600020905b815481529060010190602001808311610e7a57829003601f168201915b505050505081526020019060010190610dff565b50505050915080805480602002602001604051908101604052809291908181526020016000905b82821015610f7e578382906000526020600020018054610ef190613c10565b80601f0160208091040260200160405190810160405280929190818152602001828054610f1d90613c10565b8015610f6a5780601f10610f3f57610100808354040283529160200191610f6a565b820191906000526020600020905b815481529060010190602001808311610f4d57829003601f168201915b505050505081526020019060010190610ed2565b5050505090509450945094509450509193509193565b6040805180820182526017815276436f6d706f756e6420476f7665726e6f7220427261766f60481b60209182015281517f8cad95687ba82c2ce50e74f7b754645e5117c3a5bec8151c0726d5857980a866818301527f3d9e905142ff365fb68ce863f26a44f5583cf7ec11bcde450555f50b7e1b561481840152466060820152306080808301919091528351808303909101815260a0820184528051908301207f150214d74d59b7d1e90c73fc22ef3d991dd0a76b046543d4d80ab92d2a50328f60c083015260e0820189905260ff8816610100808401919091528451808403909101815261012083019094528351939092019290922061190160f01b6101408401526101428301829052610162830181905290916000906101820160408051601f198184030181528282528051602091820120600080855291840180845281905260ff8a169284019290925260608301889052608083018790529092509060019060a0016020604051602081039080840390855afa15801561111b573d6000803e3d6000fd5b5050604051601f1901519150506001600160a01b0381166111965760405162461bcd60e51b815260206004820152602f60248201527f476f7665726e6f72427261766f3a3a63617374566f746542795369673a20696e60448201526e76616c6964207369676e617475726560881b60648201526084016109c5565b806001600160a01b03167fb8e138887d0aa13bab447e82de9d5c1777041ecd21ca36ba824ff1e6c07ddda48a8a6111ce858e8e612d78565b6040805193845260ff90921660208401526001600160601b03169082015260806060820181905260009082015260a00160405180910390a2505050505050505050565b60008160075410158015611226575060065482115b6112845760405162461bcd60e51b815260206004820152602960248201527f476f7665726e6f72427261766f3a3a73746174653a20696e76616c69642070726044820152681bdc1bdcd85b081a5960ba1b60648201526084016109c5565b6000828152600a60205260409020600c81015460ff16156112a85750600292915050565b806007015443116112bc5750600092915050565b806008015443116112d05750600192915050565b80600a015481600901541115806112f457506954b40b1f852bda0000008160090154105b156113025750600392915050565b80600201546000036113175750600492915050565b600c810154610100900460ff16156113325750600792915050565b6002810154600854604080516360d143f160e11b815290516113ac93926001600160a01b03169163c1a287e29160048083019260209291908290030181865afa158015611383573d6000803e3d6000fd5b505050506040513d601f19601f820116820180604052508101906113a79190613c44565b613058565b42106113bb5750600692915050565b50600592915050565b50919050565b60076113d582611211565b60078111156113e6576113e66136ca565b036114525760405162461bcd60e51b815260206004820152603660248201527f476f7665726e6f72427261766f3a3a63616e63656c3a2063616e6e6f742063616044820152751b98d95b08195e1958dd5d1959081c1c9bdc1bdcd85b60521b60648201526084016109c5565b6000818152600a6020526040902060018101546001600160a01b031633146116bd5760018101546001600160a01b03166000908152600c60205260409020544210156115b6576005546009546001838101546001600160a01b039283169263782d6fe1929116906114c49043906130b2565b6040516001600160e01b031960e085901b1681526001600160a01b0390921660048301526024820152604401602060405180830381865afa15801561150d573d6000803e3d6000fd5b505050506040513d601f19601f820116820180604052508101906115319190613c5d565b6001600160601b03161080156115515750600d546001600160a01b031633145b6115b15760405162461bcd60e51b815260206004820152602b60248201527f476f7665726e6f72427261766f3a3a63616e63656c3a2077686974656c69737460448201526a32b210383937b837b9b2b960a91b60648201526084016109c5565b6116bd565b6005546009546001838101546001600160a01b039283169263782d6fe1929116906115e29043906130b2565b6040516001600160e01b031960e085901b1681526001600160a01b0390921660048301526024820152604401602060405180830381865afa15801561162b573d6000803e3d6000fd5b505050506040513d601f19601f8201168201806040525081019061164f9190613c5d565b6001600160601b0316106116bd5760405162461bcd60e51b815260206004820152602f60248201527f476f7665726e6f72427261766f3a3a63616e63656c3a2070726f706f7365722060448201526e18589bdd99481d1a1c995cda1bdb19608a1b60648201526084016109c5565b600c8101805460ff1916600117905560005b60038201548110156117e1576008546003830180546001600160a01b039092169163591fcdfe91908490811061170757611707613c86565b6000918252602090912001546004850180546001600160a01b03909216918590811061173557611735613c86565b906000526020600020015485600501858154811061175557611755613c86565b9060005260206000200186600601868154811061177457611774613c86565b9060005260206000200187600201546040518663ffffffff1660e01b81526004016117a3959493929190613d1f565b600060405180830381600087803b1580156117bd57600080fd5b505af11580156117d1573d6000803e3d6000fd5b5050600190920191506116cf9050565b506040518281527f789cf55be980739dad1d0699b93b58e806b51c9d96619bfa8fe0a28abaa7b30c90602001610a88565b6000546001600160a01b03163314806118355750600d546001600160a01b031633145b6118a75760405162461bcd60e51b815260206004820152603960248201527f476f7665726e6f72427261766f3a3a5f73657457686974656c6973744163636f60448201527f756e7445787069726174696f6e3a2061646d696e206f6e6c790000000000000060648201526084016109c5565b6001600160a01b0382166000818152600c6020908152604091829020849055815192835282018390527f4e7b7545bc5744d0e30425959f4687475774b6c7edad77d24cb51c7d967d45159101610a88565b337fb8e138887d0aa13bab447e82de9d5c1777041ecd21ca36ba824ff1e6c07ddda48383611927848383612d78565b6040805193845260ff90921660208401526001600160601b03169082015260806060820181905260009082015260a00160405180910390a25050565b337fb8e138887d0aa13bab447e82de9d5c1777041ecd21ca36ba824ff1e6c07ddda48585611992848383612d78565b86866040516119a5959493929190613d6b565b60405180910390a250505050565b6000546001600160a01b03163314611a265760405162461bcd60e51b815260206004820152603060248201527f476f7665726e6f72427261766f3a3a5f73657457686974656c6973744775617260448201526f6469616e3a2061646d696e206f6e6c7960801b60648201526084016109c5565b600d80546001600160a01b038381166001600160a01b031983168117909355604080519190921680825260208201939093527f80a07e73e552148844a9c216d9724212d609cfa54e9c1a2e97203bdd2c4ad3419101610a88565b6000546001600160a01b03163314611aed5760405162461bcd60e51b815260206004820152602a60248201527f476f7665726e6f72427261766f3a5f73657450656e64696e6741646d696e3a2060448201526961646d696e206f6e6c7960b01b60648201526084016109c5565b600180546001600160a01b038381166001600160a01b031983168117909355604080519190921680825260208201939093527fca4f2f25d0898edd99413412fb94012f9e54ec8142f9b093e7720646a95b16a99101610a88565b6008546001600160a01b031615611bbc5760405162461bcd60e51b815260206004820152603360248201527f476f7665726e6f72427261766f3a3a696e697469616c697a653a2063616e206f6044820152726e6c7920696e697469616c697a65206f6e636560681b60648201526084016109c5565b6000546001600160a01b03163314611c245760405162461bcd60e51b815260206004820152602560248201527f476f7665726e6f72427261766f3a3a696e697469616c697a653a2061646d696e604482015264206f6e6c7960d81b60648201526084016109c5565b6001600160a01b038516611c845760405162461bcd60e51b8152602060048201526033602482015260008051602061408283398151915260448201527269642074696d656c6f636b206164647265737360681b60648201526084016109c5565b6001600160a01b038416611ce05760405162461bcd60e51b815260206004820152602f602482015260008051602061408283398151915260448201526e696420636f6d70206164647265737360881b60648201526084016109c5565b6116808310158015611cf5575062013b008311155b611d485760405162461bcd60e51b8152602060048201526030602482015260008051602061408283398151915260448201526f1a59081d9bdd1a5b99c81c195c9a5bd960821b60648201526084016109c5565b60018210158015611d5b5750619d808211155b611dad5760405162461bcd60e51b815260206004820152602f602482015260008051602061408283398151915260448201526e696420766f74696e672064656c617960881b60648201526084016109c5565b683635c9adc5dea000008110158015611dd0575069152d02c7e14af68000008111155b611e285760405162461bcd60e51b815260206004820152603560248201526000805160206140828339815191526044820152741a59081c1c9bdc1bdcd85b081d1a1c995cda1bdb19605a1b60648201526084016109c5565b600880546001600160a01b039687166001600160a01b0319918216179091556009805495909616941693909317909355600455600391909155600555565b6000600654600003611ed45760405162461bcd60e51b815260206004820152603160248201527f476f7665726e6f72427261766f3a3a70726f706f73653a20476f7665726e6f7260448201527020427261766f206e6f742061637469766560781b60648201526084016109c5565b6005546009546001600160a01b031663782d6fe133611ef44360016130b2565b6040516001600160e01b031960e085901b1681526001600160a01b0390921660048301526024820152604401602060405180830381865afa158015611f3d573d6000803e3d6000fd5b505050506040513d601f19601f82011682018060405250810190611f619190613c5d565b6001600160601b03161180611f845750336000908152600c602052604090205442105b611ff65760405162461bcd60e51b815260206004820152603f60248201527f476f7665726e6f72427261766f3a3a70726f706f73653a2070726f706f73657260448201527f20766f7465732062656c6f772070726f706f73616c207468726573686f6c640060648201526084016109c5565b84518651148015612008575083518651145b8015612015575082518651145b6120955760405162461bcd60e51b8152602060048201526044602482018190527f476f7665726e6f72427261766f3a3a70726f706f73653a2070726f706f73616c908201527f2066756e6374696f6e20696e666f726d6174696f6e206172697479206d69736d6064820152630c2e8c6d60e31b608482015260a4016109c5565b85516000036120fb5760405162461bcd60e51b815260206004820152602c60248201527f476f7665726e6f72427261766f3a3a70726f706f73653a206d7573742070726f60448201526b7669646520616374696f6e7360a01b60648201526084016109c5565b600a8651111561215e5760405162461bcd60e51b815260206004820152602860248201527f476f7665726e6f72427261766f3a3a70726f706f73653a20746f6f206d616e7960448201526720616374696f6e7360c01b60648201526084016109c5565b336000908152600b602052604090205480156122dd57600061217f82611211565b90506001816007811115612195576121956136ca565b0361222e5760405162461bcd60e51b815260206004820152605860248201527f476f7665726e6f72427261766f3a3a70726f706f73653a206f6e65206c69766560448201527f2070726f706f73616c207065722070726f706f7365722c20666f756e6420616e60648201527f20616c7265616479206163746976652070726f706f73616c0000000000000000608482015260a4016109c5565b6000816007811115612242576122426136ca565b036122db5760405162461bcd60e51b815260206004820152605960248201527f476f7665726e6f72427261766f3a3a70726f706f73653a206f6e65206c69766560448201527f2070726f706f73616c207065722070726f706f7365722c20666f756e6420616e60648201527f20616c72656164792070656e64696e672070726f706f73616c00000000000000608482015260a4016109c5565b505b60006122eb43600354613058565b905060006122fb82600454613058565b60078054919250600061230d83613dd1565b90915550506007546000818152600a602052604090208054156123865760405162461bcd60e51b815260206004820152602b60248201527f476f7665726e6f72427261766f3a3a70726f706f73653a2050726f706f73616c60448201526a24a21031b7b63639b4b7b760a91b60648201526084016109c5565b8181556001810180546001600160a01b03191633179055600060028201558a516123b990600383019060208e01906132bd565b5089516123cf90600483019060208d0190613322565b5088516123e590600583019060208c019061335d565b5087516123fb90600683019060208b01906133af565b5083816007018190555082816008018190555060008160090181905550600081600a0181905550600081600b0181905550600081600c0160006101000a81548160ff021916908315150217905550600081600c0160016101000a81548160ff0219169083151502179055508060000154600b60008360010160009054906101000a90046001600160a01b03166001600160a01b03166001600160a01b03168152602001908152602001600020819055507f7d84a6263ae0d98d3329bd7b46bb4e8d6f98cd35a7adb45c274c8b7fd5ebd5e08160000154338d8d8d8d8a8a8f6040516124ee99989796959493929190613dea565b60405180910390a1549a9950505050505050505050565b600461251082611211565b6007811115612521576125216136ca565b146125a25760405162461bcd60e51b8152602060048201526044602482018190527f476f7665726e6f72427261766f3a3a71756575653a2070726f706f73616c2063908201527f616e206f6e6c79206265207175657565642069662069742069732073756363656064820152631959195960e21b608482015260a4016109c5565b6000818152600a602090815260408083206008548251630d48571f60e31b815292519194936126019342936001600160a01b0390931692636a42b8f8926004808401939192918290030181865afa158015611383573d6000803e3d6000fd5b905060005b60038301548110156127c1576127b983600301828154811061262a5761262a613c86565b6000918252602090912001546004850180546001600160a01b03909216918490811061265857612658613c86565b906000526020600020015485600501848154811061267857612678613c86565b90600052602060002001805461268d90613c10565b80601f01602080910402602001604051908101604052809291908181526020018280546126b990613c10565b80156127065780601f106126db57610100808354040283529160200191612706565b820191906000526020600020905b8154815290600101906020018083116126e957829003601f168201915b505050505086600601858154811061272057612720613c86565b90600052602060002001805461273590613c10565b80601f016020809104026020016040519081016040528092919081815260200182805461276190613c10565b80156127ae5780601f10612783576101008083540402835291602001916127ae565b820191906000526020600020905b81548152906001019060200180831161279157829003601f168201915b505050505086613106565b600101612606565b506002820181905560408051848152602081018390527f9a2e42fd6722813d69113e7d0079d3d940171428df7373df9c7f7617cfda2892910160405180910390a1505050565b604080516060808201835260008083526020808401829052928401819052858152600a83528381206001600160a01b0386168252600d018352839020835191820184525460ff8082161515835261010082041692820192909252620100009091046001600160601b0316918101919091525b92915050565b6001546001600160a01b03163314801561289857503315155b6128fb5760405162461bcd60e51b815260206004820152602e60248201527f476f7665726e6f72427261766f3a5f61636365707441646d696e3a2070656e6460448201526d696e672061646d696e206f6e6c7960901b60648201526084016109c5565b60008054600180546001600160a01b038082166001600160a01b031980861682179096559490911690915560408051919092168082526020820184905292917ff9ffabca9c8276e99321725bcb43fb076a6c66a54b7f21c4e8146d8519b417dc910160405180910390a1600154604080516001600160a01b03808516825290921660208301527fca4f2f25d0898edd99413412fb94012f9e54ec8142f9b093e7720646a95b16a99101610a88565b6000546001600160a01b03163314612a0f5760405162461bcd60e51b8152602060048201526024808201527f476f7665726e6f72427261766f3a3a5f696e6974696174653a2061646d696e206044820152636f6e6c7960e01b60648201526084016109c5565b60065415612a785760405162461bcd60e51b815260206004820152603060248201527f476f7665726e6f72427261766f3a3a5f696e6974696174653a2063616e206f6e60448201526f6c7920696e697469617465206f6e636560801b60648201526084016109c5565b806001600160a01b031663da35c6646040518163ffffffff1660e01b81526004016020604051808303816000875af1158015612ab8573d6000803e3d6000fd5b505050506040513d601f19601f82011682018060405250810190612adc9190613c44565b600781905560065560085460408051630e18b68160e01b815290516001600160a01b0390921691630e18b6819160048082019260009290919082900301818387803b158015612b2a57600080fd5b505af1158015612b3e573d6000803e3d6000fd5b5050505050565b6005612b5082611211565b6007811115612b6157612b616136ca565b14612be25760405162461bcd60e51b815260206004820152604560248201527f476f7665726e6f72427261766f3a3a657865637574653a2070726f706f73616c60448201527f2063616e206f6e6c7920626520657865637574656420696620697420697320716064820152641d595d595960da1b608482015260a4016109c5565b6000818152600a60205260408120600c8101805461ff001916610100179055905b6003820154811015612d47576008546004830180546001600160a01b0390921691630825f38f919084908110612c3b57612c3b613c86565b9060005260206000200154846003018481548110612c5b57612c5b613c86565b6000918252602090912001546004860180546001600160a01b039092169186908110612c8957612c89613c86565b9060005260206000200154866005018681548110612ca957612ca9613c86565b90600052602060002001876006018781548110612cc857612cc8613c86565b9060005260206000200188600201546040518763ffffffff1660e01b8152600401612cf7959493929190613d1f565b60006040518083038185885af1158015612d15573d6000803e3d6000fd5b50505050506040513d6000823e601f3d908101601f19168201604052612d3e9190810190613e80565b50600101612c03565b506040518281527f712ae1383f79ac853f8d882153778e0260ef8f03b504e2866e0593e04d2b291f90602001610a88565b60006001612d8584611211565b6007811115612d9657612d966136ca565b14612dfd5760405162461bcd60e51b815260206004820152603160248201527f476f7665726e6f72427261766f3a3a63617374566f7465496e7465726e616c3a604482015270081d9bdd1a5b99c81a5cc818db1bdcd959607a1b60648201526084016109c5565b60028260ff161115612e6c5760405162461bcd60e51b815260206004820152603260248201527f476f7665726e6f72427261766f3a3a63617374566f7465496e7465726e616c3a60448201527120696e76616c696420766f7465207479706560701b60648201526084016109c5565b6000838152600a602090815260408083206001600160a01b0388168452600d8101909252909120805460ff1615612f025760405162461bcd60e51b815260206004820152603460248201527f476f7665726e6f72427261766f3a3a63617374566f7465496e7465726e616c3a604482015273081d9bdd195c88185b1c9958591e481d9bdd195960621b60648201526084016109c5565b600954600783015460405163782d6fe160e01b81526000926001600160a01b03169163782d6fe191612f4c918b916004016001600160a01b03929092168252602082015260400190565b602060405180830381865afa158015612f69573d6000803e3d6000fd5b505050506040513d601f19601f82011682018060405250810190612f8d9190613c5d565b90508460ff16600003612fbb57612fb183600a0154826001600160601b0316613058565b600a84015561300f565b8460ff16600103612fe757612fdd8360090154826001600160601b0316613058565b600984015561300f565b8460ff1660020361300f5761300983600b0154826001600160601b0316613058565b600b8401555b81546001600160601b03821662010000026dffffffffffffffffffffffff00001960ff88166101000261ffff199093169290921760011791909116179091559150509392505050565b6000806130658385613ef6565b9050838110156130ab5760405162461bcd60e51b81526020600482015260116024820152706164646974696f6e206f766572666c6f7760781b60448201526064016109c5565b9392505050565b6000828211156130fc5760405162461bcd60e51b81526020600482015260156024820152747375627472616374696f6e20756e646572666c6f7760581b60448201526064016109c5565b6130ab8284613f09565b6008546040516001600160a01b039091169063f2b06537906131349088908890889088908890602001613f1c565b604051602081830303815290604052805190602001206040518263ffffffff1660e01b815260040161316891815260200190565b602060405180830381865afa158015613185573d6000803e3d6000fd5b505050506040513d601f19601f820116820180604052508101906131a99190613f55565b1561323a5760405162461bcd60e51b815260206004820152605560248201527f476f7665726e6f72427261766f3a3a71756575654f72526576657274496e746560448201527f726e616c3a206964656e746963616c2070726f706f73616c20616374696f6e20606482015274616c7265616479207175657565642061742065746160581b608482015260a4016109c5565b600854604051633a66f90160e01b81526001600160a01b0390911690633a66f901906132729088908890889088908890600401613f1c565b6020604051808303816000875af1158015613291573d6000803e3d6000fd5b505050506040513d601f19601f820116820180604052508101906132b59190613c44565b505050505050565b828054828255906000526020600020908101928215613312579160200282015b8281111561331257825182546001600160a01b0319166001600160a01b039091161782556020909201916001909101906132dd565b5061331e929150613401565b5090565b828054828255906000526020600020908101928215613312579160200282015b82811115613312578251825591602001919060010190613342565b8280548282559060005260206000209081019282156133a3579160200282015b828111156133a357825182906133939082613fc3565b509160200191906001019061337d565b5061331e929150613416565b8280548282559060005260206000209081019282156133f5579160200282015b828111156133f557825182906133e59082613fc3565b50916020019190600101906133cf565b5061331e929150613433565b5b8082111561331e5760008155600101613402565b8082111561331e57600061342a8282613450565b50600101613416565b8082111561331e5760006134478282613450565b50600101613433565b50805461345c90613c10565b6000825580601f1061346c575050565b601f01602090049060005260206000209081019061348a9190613401565b50565b60006020828403121561349f57600080fd5b5035919050565b60005b838110156134c15781810151838201526020016134a9565b50506000910152565b600081518084526134e28160208601602086016134a6565b601f01601f19169290920160200192915050565b6020815260006130ab60208301846134ca565b80356001600160a01b038116811461352057600080fd5b919050565b60006020828403121561353757600080fd5b6130ab82613509565b600081518084526020840193506020830160005b8281101561357b5781516001600160a01b0316865260209586019590910190600101613554565b5093949350505050565b600081518084526020840193506020830160005b8281101561357b578151865260209586019590910190600101613599565b600082825180855260208501945060208160051b8301016020850160005b8381101561360757601f198584030188526135f18383516134ca565b60209889019890935091909101906001016135d5565b50909695505050505050565b6080815260006136266080830187613540565b82810360208401526136388187613585565b9050828103604084015261364c81866135b7565b9050828103606084015261366081856135b7565b979650505050505050565b803560ff8116811461352057600080fd5b600080600080600060a0868803121561369457600080fd5b853594506136a46020870161366b565b93506136b26040870161366b565b94979396509394606081013594506080013592915050565b634e487b7160e01b600052602160045260246000fd5b602081016008831061370257634e487b7160e01b600052602160045260246000fd5b91905290565b6000806040838503121561371b57600080fd5b61372483613509565b946020939093013593505050565b6000806040838503121561374557600080fd5b823591506137556020840161366b565b90509250929050565b6000806000806060858703121561377457600080fd5b843593506137846020860161366b565b925060408501356001600160401b0381111561379f57600080fd5b8501601f810187136137b057600080fd5b80356001600160401b038111156137c657600080fd5b8760208284010111156137d857600080fd5b949793965060200194505050565b600080600080600060a086880312156137fe57600080fd5b61380786613509565b945061381560208701613509565b94979496505050506040830135926060810135926080909101359150565b634e487b7160e01b600052604160045260246000fd5b604051601f8201601f191681016001600160401b038111828210171561387157613871613833565b604052919050565b60006001600160401b0382111561389257613892613833565b5060051b60200190565b600082601f8301126138ad57600080fd5b81356138c06138bb82613879565b613849565b8082825260208201915060208360051b8601019250858311156138e257600080fd5b602085015b83811015613906576138f881613509565b8352602092830192016138e7565b5095945050505050565b600082601f83011261392157600080fd5b813561392f6138bb82613879565b8082825260208201915060208360051b86010192508583111561395157600080fd5b602085015b83811015613906578035835260209283019201613956565b60006001600160401b0382111561398757613987613833565b50601f01601f191660200190565b60006139a36138bb8461396e565b90508281528383830111156139b757600080fd5b828260208301376000602084830101529392505050565b600082601f8301126139df57600080fd5b6130ab83833560208501613995565b600082601f8301126139ff57600080fd5b8135613a0d6138bb82613879565b8082825260208201915060208360051b860101925085831115613a2f57600080fd5b602085015b838110156139065780356001600160401b03811115613a5257600080fd5b613a61886020838a01016139ce565b84525060209283019201613a34565b600082601f830112613a8157600080fd5b8135613a8f6138bb82613879565b8082825260208201915060208360051b860101925085831115613ab157600080fd5b602085015b838110156139065780356001600160401b03811115613ad457600080fd5b8601603f81018813613ae557600080fd5b613af788602083013560408401613995565b84525060209283019201613ab6565b600080600080600060a08688031215613b1e57600080fd5b85356001600160401b03811115613b3457600080fd5b613b408882890161389c565b95505060208601356001600160401b03811115613b5c57600080fd5b613b6888828901613910565b94505060408601356001600160401b03811115613b8457600080fd5b613b90888289016139ee565b93505060608601356001600160401b03811115613bac57600080fd5b613bb888828901613a70565b92505060808601356001600160401b03811115613bd457600080fd5b613be0888289016139ce565b9150509295509295909350565b60008060408385031215613c0057600080fd5b8235915061375560208401613509565b600181811c90821680613c2457607f821691505b6020821081036113c457634e487b7160e01b600052602260045260246000fd5b600060208284031215613c5657600080fd5b5051919050565b600060208284031215613c6f57600080fd5b81516001600160601b03811681146130ab57600080fd5b634e487b7160e01b600052603260045260246000fd5b60008154613ca981613c10565b808552600182168015613cc35760018114613cdf57613d16565b60ff1983166020870152602082151560051b8701019350613d16565b84600052602060002060005b83811015613d0d5781546020828a010152600182019150602081019050613ceb565b87016020019450505b50505092915050565b60018060a01b038616815284602082015260a060408201526000613d4660a0830186613c9c565b8281036060840152613d588186613c9c565b9150508260808301529695505050505050565b85815260ff851660208201526001600160601b038416604082015260806060820152816080820152818360a0830137600081830160a090810191909152601f909201601f19160101949350505050565b634e487b7160e01b600052601160045260246000fd5b600060018201613de357613de3613dbb565b5060010190565b8981526001600160a01b038916602082015261012060408201819052600090613e159083018a613540565b8281036060840152613e27818a613585565b90508281036080840152613e3b81896135b7565b905082810360a0840152613e4f81886135b7565b90508560c08401528460e0840152828103610100840152613e7081856134ca565b9c9b505050505050505050505050565b600060208284031215613e9257600080fd5b81516001600160401b03811115613ea857600080fd5b8201601f81018413613eb957600080fd5b8051613ec76138bb8261396e565b818152856020838501011115613edc57600080fd5b613eed8260208301602086016134a6565b95945050505050565b8082018082111561287957612879613dbb565b8181038181111561287957612879613dbb565b60018060a01b038616815284602082015260a060408201526000613f4360a08301866134ca565b8281036060840152613d5881866134ca565b600060208284031215613f6757600080fd5b815180151581146130ab57600080fd5b601f821115613fbe57806000526020600020601f840160051c81016020851015613f9e5750805b601f840160051c820191505b81811015612b3e5760008155600101613faa565b505050565b81516001600160401b03811115613fdc57613fdc613833565b613ff081613fea8454613c10565b84613f77565b6020601f821160018114614024576000831561400c5750848201515b600019600385901b1c1916600184901b178455612b3e565b600084815260208120601f198516915b828110156140545787850151825560209485019460019092019101614034565b50848210156140725786840151600019600387901b60f8161c191681555b50505050600190811b0190555056fe476f7665726e6f72427261766f3a3a696e697469616c697a653a20696e76616ca264697066735822122080c9379e5cc370921e6e661567917c4d367bb4e0786acb4a09ceb5bb6977410a64736f6c634300081b0033","linkReferences":{}},"methodIdentifiers":{"BALLOT_TYPEHASH()":"deaaa7cc","DOMAIN_TYPEHASH()":"20606b70","MAX_PROPOSAL_THRESHOLD()":"25fd935a","MAX_VOTING_DELAY()":"b1126263","MAX_VOTING_PERIOD()":"a64e024a","MIN_PROPOSAL_THRESHOLD()":"791f5d23","MIN_VOTING_DELAY()":"e48083fe","MIN_VOTING_PERIOD()":"215809ca","_acceptAdmin()":"e9c714f2","_initiate(address)":"f9d28b80","_setPendingAdmin(address)":"b71d1a0c","_setProposalThreshold(uint256)":"17ba1b8b","_setVotingDelay(uint256)":"1dfb1b5a","_setVotingPeriod(uint256)":"0ea2d98c","_setWhitelistAccountExpiration(address,uint256)":"4d6733d2","_setWhitelistGuardian(address)":"99533365","admin()":"f851a440","cancel(uint256)":"40e58ee5","castVote(uint256,uint8)":"56781388","castVoteBySig(uint256,uint8,uint8,bytes32,bytes32)":"3bccf4fd","castVoteWithReason(uint256,uint8,string)":"7b3c71d3","comp()":"109d0af8","execute(uint256)":"fe0d94c1","getActions(uint256)":"328dd982","getReceipt(uint256,address)":"e23a9a52","implementation()":"5c60da1b","initialProposalId()":"fc4eee42","initialize(address,address,uint256,uint256,uint256)":"d13f90b4","isWhitelisted(address)":"3af32abf","latestProposalIds(address)":"17977c61","name()":"06fdde03","pendingAdmin()":"26782247","proposalCount()":"da35c664","proposalMaxOperations()":"7bdbe4d0","proposalThreshold()":"b58131b0","proposals(uint256)":"013cf08b","propose(address[],uint256[],string[],bytes[],string)":"da95691a","queue(uint256)":"ddf0b009","quorumVotes()":"24bc1a64","state(uint256)":"3e4f49e6","timelock()":"d33219b4","votingDelay()":"3932abb1","votingPeriod()":"02a251a3","whitelistAccountExpirations(address)":"38bd0dda","whitelistGuardian()":"c5a8425d"},"id":42}