{"abi":[{"type":"constructor","inputs":[{"name":"baseRatePerYear","type":"uint256","internalType":"uint256"},{"name":"multiplierPerYear","type":"uint256","internalType":"uint256"},{"name":"jumpMultiplierPerYear","type":"uint256","internalType":"uint256"},{"name":"kink_","type":"uint256","internalType":"uint256"}],"stateMutability":"nonpayable"},{"type":"function","name":"baseRatePerBlock","inputs":[],"outputs":[{"name":"","type":"uint256","internalType":"uint256"}],"stateMutability":"view"},{"type":"function","name":"blocksPerYear","inputs":[],"outputs":[{"name":"","type":"uint256","internalType":"uint256"}],"stateMutability":"view"},{"type":"function","name":"getBorrowRate","inputs":[{"name":"cash","type":"uint256","internalType":"uint256"},{"name":"borrows","type":"uint256","internalType":"uint256"},{"name":"reserves","type":"uint256","internalType":"uint256"}],"outputs":[{"name":"","type":"uint256","internalType":"uint256"}],"stateMutability":"view"},{"type":"function","name":"getSupplyRate","inputs":[{"name":"cash","type":"uint256","internalType":"uint256"},{"name":"borrows","type":"uint256","internalType":"uint256"},{"name":"reserves","type":"uint256","internalType":"uint256"},{"name":"reserveFactorMantissa","type":"uint256","internalType":"uint256"}],"outputs":[{"name":"","type":"uint256","internalType":"uint256"}],"stateMutability":"view"},{"type":"function","name":"isInterestRateModel","inputs":[],"outputs":[{"name":"","type":"bool","internalType":"bool"}],"stateMutability":"view"},{"type":"function","name":"jumpMultiplierPerBlock","inputs":[],"outputs":[{"name":"","type":"uint256","internalType":"uint256"}],"stateMutability":"view"},{"type":"function","name":"kink","inputs":[],"outputs":[{"name":"","type":"uint256","internalType":"uint256"}],"stateMutability":"view"},{"type":"function","name":"multiplierPerBlock","inputs":[],"outputs":[{"name":"","type":"uint256","internalType":"uint256"}],"stateMutability":"view"},{"type":"function","name":"utilizationRate","inputs":[{"name":"cash","type":"uint256","internalType":"uint256"},{"name":"borrows","type":"uint256","internalType":"uint256"},{"name":"reserves","type":"uint256","internalType":"uint256"}],"outputs":[{"name":"","type":"uint256","internalType":"uint256"}],"stateMutability":"pure"},{"type":"event","name":"NewInterestParams","inputs":[{"name":"baseRatePerBlock","type":"uint256","indexed":false,"internalType":"uint256"},{"name":"multiplierPerBlock","type":"uint256","indexed":false,"internalType":"uint256"},{"name":"jumpMultiplierPerBlock","type":"uint256","indexed":false,"internalType":"uint256"},{"name":"kink","type":"uint256","indexed":false,"internalType":"uint256"}],"anonymous":false}],"bytecode":{"object":"0x608060405234801561001057600080fd5b506040516104f33803806104f383398101604081905261002f916100be565b61003c62201480856100f4565b60015561004c62201480846100f4565b60005561005c62201480836100f4565b60028190556003829055600154600054604080519283526020830191909152810191909152606081018290527f6960ab234c7ef4b0c9197100f5393cfcde7c453ac910a27bd2000aa1dd4c068d9060800160405180910390a150505050610116565b600080600080608085870312156100d457600080fd5b505082516020840151604085015160609095015191969095509092509050565b60008261011157634e487b7160e01b600052601260045260246000fd5b500490565b6103ce806101256000396000f3fe608060405234801561001057600080fd5b50600436106100935760003560e01c8063a385fb9611610066578063a385fb96146100f2578063b8168816146100fc578063b9f9850a1461010f578063f14039de14610118578063fd2da3391461012157600080fd5b806315f24053146100985780632191f92a146100be5780636e71e2d8146100d65780638726bb89146100e9575b600080fd5b6100ab6100a63660046102bf565b61012a565b6040519081526020015b60405180910390f35b6100c6600181565b60405190151581526020016100b5565b6100ab6100e43660046102bf565b6101f8565b6100ab60005481565b6100ab6220148081565b6100ab61010a3660046102eb565b610243565b6100ab60025481565b6100ab60015481565b6100ab60035481565b6000806101388585856101f8565b9050600354811161017957600154670de0b6b3a76400006000548361015d9190610333565b6101679190610350565b6101719190610372565b9150506101f1565b6000600154670de0b6b3a76400006000546003546101979190610333565b6101a19190610350565b6101ab9190610372565b90506000600354836101bd9190610385565b905081670de0b6b3a7640000600254836101d79190610333565b6101e19190610350565b6101eb9190610372565b93505050505b9392505050565b60008260000361020a575060006101f1565b816102158486610372565b61021f9190610385565b610231670de0b6b3a764000085610333565b61023b9190610350565b949350505050565b60008061025883670de0b6b3a7640000610385565b9050600061026787878761012a565b90506000670de0b6b3a764000061027e8484610333565b6102889190610350565b9050670de0b6b3a76400008161029f8a8a8a6101f8565b6102a99190610333565b6102b39190610350565b98975050505050505050565b6000806000606084860312156102d457600080fd5b505081359360208301359350604090920135919050565b6000806000806080858703121561030157600080fd5b5050823594602084013594506040840135936060013592509050565b634e487b7160e01b600052601160045260246000fd5b808202811582820484141761034a5761034a61031d565b92915050565b60008261036d57634e487b7160e01b600052601260045260246000fd5b500490565b8082018082111561034a5761034a61031d565b8181038181111561034a5761034a61031d56fea2646970667358221220a55fd7f662ef27bac7047e1bf8e7f65cd02fbf4e0d122911fa059cef0aa3743a64736f6c634300081b0033","linkReferences":{}},"methodIdentifiers":{"baseRatePerBlock()":"f14039de","blocksPerYear()":"a385fb96","getBorrowRate(uint256,uint256,uint256)":"15f24053","getSupplyRate(uint256,uint256,uint256,uint256)":"b8168816","isInterestRateModel()":"2191f92a","jumpMultiplierPerBlock()":"b9f9850a","kink()":"fd2da339","multiplierPerBlock()":"8726bb89","utilizationRate(uint256,uint256,uint256)":"6e71e2d8"},"id":48}