{"abi":[{"type":"constructor","inputs":[],"stateMutability":"nonpayable"},{"type":"function","name":"_become","inputs":[{"name":"unitroller","type":"address","internalType":"contract Unitroller"}],"outputs":[],"stateMutability":"nonpayable"},{"type":"function","name":"_borrowGuardianPaused","inputs":[],"outputs":[{"name":"","type":"bool","internalType":"bool"}],"stateMutability":"view"},{"type":"function","name":"_grantComp","inputs":[{"name":"recipient","type":"address","internalType":"address"},{"name":"amount","type":"uint256","internalType":"uint256"}],"outputs":[],"stateMutability":"nonpayable"},{"type":"function","name":"_mintGuardianPaused","inputs":[],"outputs":[{"name":"","type":"bool","internalType":"bool"}],"stateMutability":"view"},{"type":"function","name":"_setBorrowCapGuardian","inputs":[{"name":"newBorrowCapGuardian","type":"address","internalType":"address"}],"outputs":[],"stateMutability":"nonpayable"},{"type":"function","name":"_setBorrowPaused","inputs":[{"name":"cToken","type":"address","internalType":"contract CToken"},{"name":"state","type":"bool","internalType":"bool"}],"outputs":[{"name":"","type":"bool","internalType":"bool"}],"stateMutability":"nonpayable"},{"type":"function","name":"_setCloseFactor","inputs":[{"name":"newCloseFactorMantissa","type":"uint256","internalType":"uint256"}],"outputs":[{"name":"","type":"uint256","internalType":"uint256"}],"stateMutability":"nonpayable"},{"type":"function","name":"_setCollateralFactor","inputs":[{"name":"cToken","type":"address","internalType":"contract CToken"},{"name":"newCollateralFactorMantissa","type":"uint256","internalType":"uint256"}],"outputs":[{"name":"","type":"uint256","internalType":"uint256"}],"stateMutability":"nonpayable"},{"type":"function","name":"_setCompSpeeds","inputs":[{"name":"cTokens","type":"address[]","internalType":"contract CToken[]"},{"name":"supplySpeeds","type":"uint256[]","internalType":"uint256[]"},{"name":"borrowSpeeds","type":"uint256[]","internalType":"uint256[]"}],"outputs":[],"stateMutability":"nonpayable"},{"type":"function","name":"_setContributorCompSpeed","inputs":[{"name":"contributor","type":"address","internalType":"address"},{"name":"compSpeed","type":"uint256","internalType":"uint256"}],"outputs":[],"stateMutability":"nonpayable"},{"type":"function","name":"_setLiquidationIncentive","inputs":[{"name":"newLiquidationIncentiveMantissa","type":"uint256","internalType":"uint256"}],"outputs":[{"name":"","type":"uint256","internalType":"uint256"}],"stateMutability":"nonpayable"},{"type":"function","name":"_setMarketBorrowCaps","inputs":[{"name":"cTokens","type":"address[]","internalType":"contract CToken[]"},{"name":"newBorrowCaps","type":"uint256[]","internalType":"uint256[]"}],"outputs":[],"stateMutability":"nonpayable"},{"type":"function","name":"_setMintPaused","inputs":[{"name":"cToken","type":"address","internalType":"contract CToken"},{"name":"state","type":"bool","internalType":"bool"}],"outputs":[{"name":"","type":"bool","internalType":"bool"}],"stateMutability":"nonpayable"},{"type":"function","name":"_setPauseGuardian","inputs":[{"name":"newPauseGuardian","type":"address","internalType":"address"}],"outputs":[{"name":"","type":"uint256","internalType":"uint256"}],"stateMutability":"nonpayable"},{"type":"function","name":"_setPriceOracle","inputs":[{"name":"newOracle","type":"address","internalType":"contract PriceOracle"}],"outputs":[{"name":"","type":"uint256","internalType":"uint256"}],"stateMutability":"nonpayable"},{"type":"function","name":"_setSeizePaused","inputs":[{"name":"state","type":"bool","internalType":"bool"}],"outputs":[{"name":"","type":"bool","internalType":"bool"}],"stateMutability":"nonpayable"},{"type":"function","name":"_setTransferPaused","inputs":[{"name":"state","type":"bool","internalType":"bool"}],"outputs":[{"name":"","type":"bool","internalType":"bool"}],"stateMutability":"nonpayable"},{"type":"function","name":"_supportMarket","inputs":[{"name":"cToken","type":"address","internalType":"contract CToken"}],"outputs":[{"name":"","type":"uint256","internalType":"uint256"}],"stateMutability":"nonpayable"},{"type":"function","name":"accountAssets","inputs":[{"name":"","type":"address","internalType":"address"},{"name":"","type":"uint256","internalType":"uint256"}],"outputs":[{"name":"","type":"address","internalType":"contract CToken"}],"stateMutability":"view"},{"type":"function","name":"admin","inputs":[],"outputs":[{"name":"","type":"address","internalType":"address"}],"stateMutability":"view"},{"type":"function","name":"allMarkets","inputs":[{"name":"","type":"uint256","internalType":"uint256"}],"outputs":[{"name":"","type":"address","internalType":"contract CToken"}],"stateMutability":"view"},{"type":"function","name":"borrowAllowed","inputs":[{"name":"cToken","type":"address","internalType":"address"},{"name":"borrower","type":"address","internalType":"address"},{"name":"borrowAmount","type":"uint256","internalType":"uint256"}],"outputs":[{"name":"","type":"uint256","internalType":"uint256"}],"stateMutability":"nonpayable"},{"type":"function","name":"borrowCapGuardian","inputs":[],"outputs":[{"name":"","type":"address","internalType":"address"}],"stateMutability":"view"},{"type":"function","name":"borrowCaps","inputs":[{"name":"","type":"address","internalType":"address"}],"outputs":[{"name":"","type":"uint256","internalType":"uint256"}],"stateMutability":"view"},{"type":"function","name":"borrowGuardianPaused","inputs":[{"name":"","type":"address","internalType":"address"}],"outputs":[{"name":"","type":"bool","internalType":"bool"}],"stateMutability":"view"},{"type":"function","name":"borrowVerify","inputs":[{"name":"cToken","type":"address","internalType":"address"},{"name":"borrower","type":"address","internalType":"address"},{"name":"borrowAmount","type":"uint256","internalType":"uint256"}],"outputs":[],"stateMutability":"nonpayable"},{"type":"function","name":"checkMembership","inputs":[{"name":"account","type":"address","internalType":"address"},{"name":"cToken","type":"address","internalType":"contract CToken"}],"outputs":[{"name":"","type":"bool","internalType":"bool"}],"stateMutability":"view"},{"type":"function","name":"claimComp","inputs":[{"name":"holder","type":"address","internalType":"address"},{"name":"cTokens","type":"address[]","internalType":"contract CToken[]"}],"outputs":[],"stateMutability":"nonpayable"},{"type":"function","name":"claimComp","inputs":[{"name":"holders","type":"address[]","internalType":"address[]"},{"name":"cTokens","type":"address[]","internalType":"contract CToken[]"},{"name":"borrowers","type":"bool","internalType":"bool"},{"name":"suppliers","type":"bool","internalType":"bool"}],"outputs":[],"stateMutability":"nonpayable"},{"type":"function","name":"claimComp","inputs":[{"name":"holder","type":"address","internalType":"address"}],"outputs":[],"stateMutability":"nonpayable"},{"type":"function","name":"closeFactorMantissa","inputs":[],"outputs":[{"name":"","type":"uint256","internalType":"uint256"}],"stateMutability":"view"},{"type":"function","name":"compAccrued","inputs":[{"name":"","type":"address","internalType":"address"}],"outputs":[{"name":"","type":"uint256","internalType":"uint256"}],"stateMutability":"view"},{"type":"function","name":"compBorrowSpeeds","inputs":[{"name":"","type":"address","internalType":"address"}],"outputs":[{"name":"","type":"uint256","internalType":"uint256"}],"stateMutability":"view"},{"type":"function","name":"compBorrowState","inputs":[{"name":"","type":"address","internalType":"address"}],"outputs":[{"name":"index","type":"uint224","internalType":"uint224"},{"name":"block","type":"uint32","internalType":"uint32"}],"stateMutability":"view"},{"type":"function","name":"compBorrowerIndex","inputs":[{"name":"","type":"address","internalType":"address"},{"name":"","type":"address","internalType":"address"}],"outputs":[{"name":"","type":"uint256","internalType":"uint256"}],"stateMutability":"view"},{"type":"function","name":"compContributorSpeeds","inputs":[{"name":"","type":"address","internalType":"address"}],"outputs":[{"name":"","type":"uint256","internalType":"uint256"}],"stateMutability":"view"},{"type":"function","name":"compInitialIndex","inputs":[],"outputs":[{"name":"","type":"uint224","internalType":"uint224"}],"stateMutability":"view"},{"type":"function","name":"compRate","inputs":[],"outputs":[{"name":"","type":"uint256","internalType":"uint256"}],"stateMutability":"view"},{"type":"function","name":"compReceivable","inputs":[{"name":"","type":"address","internalType":"address"}],"outputs":[{"name":"","type":"uint256","internalType":"uint256"}],"stateMutability":"view"},{"type":"function","name":"compSpeeds","inputs":[{"name":"","type":"address","internalType":"address"}],"outputs":[{"name":"","type":"uint256","internalType":"uint256"}],"stateMutability":"view"},{"type":"function","name":"compSupplierIndex","inputs":[{"name":"","type":"address","internalType":"address"},{"name":"","type":"address","internalType":"address"}],"outputs":[{"name":"","type":"uint256","internalType":"uint256"}],"stateMutability":"view"},{"type":"function","name":"compSupplySpeeds","inputs":[{"name":"","type":"address","internalType":"address"}],"outputs":[{"name":"","type":"uint256","internalType":"uint256"}],"stateMutability":"view"},{"type":"function","name":"compSupplyState","inputs":[{"name":"","type":"address","internalType":"address"}],"outputs":[{"name":"index","type":"uint224","internalType":"uint224"},{"name":"block","type":"uint32","internalType":"uint32"}],"stateMutability":"view"},{"type":"function","name":"comptrollerImplementation","inputs":[],"outputs":[{"name":"","type":"address","internalType":"address"}],"stateMutability":"view"},{"type":"function","name":"enterMarkets","inputs":[{"name":"cTokens","type":"address[]","internalType":"address[]"}],"outputs":[{"name":"","type":"uint256[]","internalType":"uint256[]"}],"stateMutability":"nonpayable"},{"type":"function","name":"exitMarket","inputs":[{"name":"cTokenAddress","type":"address","internalType":"address"}],"outputs":[{"name":"","type":"uint256","internalType":"uint256"}],"stateMutability":"nonpayable"},{"type":"function","name":"fixBadAccruals","inputs":[{"name":"affectedUsers","type":"address[]","internalType":"address[]"},{"name":"amounts","type":"uint256[]","internalType":"uint256[]"}],"outputs":[],"stateMutability":"nonpayable"},{"type":"function","name":"getAccountLiquidity","inputs":[{"name":"account","type":"address","internalType":"address"}],"outputs":[{"name":"","type":"uint256","internalType":"uint256"},{"name":"","type":"uint256","internalType":"uint256"},{"name":"","type":"uint256","internalType":"uint256"}],"stateMutability":"view"},{"type":"function","name":"getAllMarkets","inputs":[],"outputs":[{"name":"","type":"address[]","internalType":"contract CToken[]"}],"stateMutability":"view"},{"type":"function","name":"getAssetsIn","inputs":[{"name":"account","type":"address","internalType":"address"}],"outputs":[{"name":"","type":"address[]","internalType":"contract CToken[]"}],"stateMutability":"view"},{"type":"function","name":"getBlockNumber","inputs":[],"outputs":[{"name":"","type":"uint256","internalType":"uint256"}],"stateMutability":"view"},{"type":"function","name":"getCompAddress","inputs":[],"outputs":[{"name":"","type":"address","internalType":"address"}],"stateMutability":"view"},{"type":"function","name":"getHypotheticalAccountLiquidity","inputs":[{"name":"account","type":"address","internalType":"address"},{"name":"cTokenModify","type":"address","internalType":"address"},{"name":"redeemTokens","type":"uint256","internalType":"uint256"},{"name":"borrowAmount","type":"uint256","internalType":"uint256"}],"outputs":[{"name":"","type":"uint256","internalType":"uint256"},{"name":"","type":"uint256","internalType":"uint256"},{"name":"","type":"uint256","internalType":"uint256"}],"stateMutability":"view"},{"type":"function","name":"isComptroller","inputs":[],"outputs":[{"name":"","type":"bool","internalType":"bool"}],"stateMutability":"view"},{"type":"function","name":"isDeprecated","inputs":[{"name":"cToken","type":"address","internalType":"contract CToken"}],"outputs":[{"name":"","type":"bool","internalType":"bool"}],"stateMutability":"view"},{"type":"function","name":"lastContributorBlock","inputs":[{"name":"","type":"address","internalType":"address"}],"outputs":[{"name":"","type":"uint256","internalType":"uint256"}],"stateMutability":"view"},{"type":"function","name":"liquidateBorrowAllowed","inputs":[{"name":"cTokenBorrowed","type":"address","internalType":"address"},{"name":"cTokenCollateral","type":"address","internalType":"address"},{"name":"liquidator","type":"address","internalType":"address"},{"name":"borrower","type":"address","internalType":"address"},{"name":"repayAmount","type":"uint256","internalType":"uint256"}],"outputs":[{"name":"","type":"uint256","internalType":"uint256"}],"stateMutability":"nonpayable"},{"type":"function","name":"liquidateBorrowVerify","inputs":[{"name":"cTokenBorrowed","type":"address","internalType":"address"},{"name":"cTokenCollateral","type":"address","internalType":"address"},{"name":"liquidator","type":"address","internalType":"address"},{"name":"borrower","type":"address","internalType":"address"},{"name":"actualRepayAmount","type":"uint256","internalType":"uint256"},{"name":"seizeTokens","type":"uint256","internalType":"uint256"}],"outputs":[],"stateMutability":"nonpayable"},{"type":"function","name":"liquidateCalculateSeizeTokens","inputs":[{"name":"cTokenBorrowed","type":"address","internalType":"address"},{"name":"cTokenCollateral","type":"address","internalType":"address"},{"name":"actualRepayAmount","type":"uint256","internalType":"uint256"}],"outputs":[{"name":"","type":"uint256","internalType":"uint256"},{"name":"","type":"uint256","internalType":"uint256"}],"stateMutability":"view"},{"type":"function","name":"liquidationIncentiveMantissa","inputs":[],"outputs":[{"name":"","type":"uint256","internalType":"uint256"}],"stateMutability":"view"},{"type":"function","name":"markets","inputs":[{"name":"","type":"address","internalType":"address"}],"outputs":[{"name":"isListed","type":"bool","internalType":"bool"},{"name":"collateralFactorMantissa","type":"uint256","internalType":"uint256"},{"name":"isComped","type":"bool","internalType":"bool"}],"stateMutability":"view"},{"type":"function","name":"maxAssets","inputs":[],"outputs":[{"name":"","type":"uint256","internalType":"uint256"}],"stateMutability":"view"},{"type":"function","name":"mintAllowed","inputs":[{"name":"cToken","type":"address","internalType":"address"},{"name":"minter","type":"address","internalType":"address"},{"name":"mintAmount","type":"uint256","internalType":"uint256"}],"outputs":[{"name":"","type":"uint256","internalType":"uint256"}],"stateMutability":"nonpayable"},{"type":"function","name":"mintGuardianPaused","inputs":[{"name":"","type":"address","internalType":"address"}],"outputs":[{"name":"","type":"bool","internalType":"bool"}],"stateMutability":"view"},{"type":"function","name":"mintVerify","inputs":[{"name":"cToken","type":"address","internalType":"address"},{"name":"minter","type":"address","internalType":"address"},{"name":"actualMintAmount","type":"uint256","internalType":"uint256"},{"name":"mintTokens","type":"uint256","internalType":"uint256"}],"outputs":[],"stateMutability":"nonpayable"},{"type":"function","name":"oracle","inputs":[],"outputs":[{"name":"","type":"address","internalType":"contract PriceOracle"}],"stateMutability":"view"},{"type":"function","name":"pauseGuardian","inputs":[],"outputs":[{"name":"","type":"address","internalType":"address"}],"stateMutability":"view"},{"type":"function","name":"pendingAdmin","inputs":[],"outputs":[{"name":"","type":"address","internalType":"address"}],"stateMutability":"view"},{"type":"function","name":"pendingComptrollerImplementation","inputs":[],"outputs":[{"name":"","type":"address","internalType":"address"}],"stateMutability":"view"},{"type":"function","name":"proposal65FixExecuted","inputs":[],"outputs":[{"name":"","type":"bool","internalType":"bool"}],"stateMutability":"view"},{"type":"function","name":"redeemAllowed","inputs":[{"name":"cToken","type":"address","internalType":"address"},{"name":"redeemer","type":"address","internalType":"address"},{"name":"redeemTokens","type":"uint256","internalType":"uint256"}],"outputs":[{"name":"","type":"uint256","internalType":"uint256"}],"stateMutability":"nonpayable"},{"type":"function","name":"redeemVerify","inputs":[{"name":"cToken","type":"address","internalType":"address"},{"name":"redeemer","type":"address","internalType":"address"},{"name":"redeemAmount","type":"uint256","internalType":"uint256"},{"name":"redeemTokens","type":"uint256","internalType":"uint256"}],"outputs":[],"stateMutability":"nonpayable"},{"type":"function","name":"repayBorrowAllowed","inputs":[{"name":"cToken","type":"address","internalType":"address"},{"name":"payer","type":"address","internalType":"address"},{"name":"borrower","type":"address","internalType":"address"},{"name":"repayAmount","type":"uint256","internalType":"uint256"}],"outputs":[{"name":"","type":"uint256","internalType":"uint256"}],"stateMutability":"nonpayable"},{"type":"function","name":"repayBorrowVerify","inputs":[{"name":"cToken","type":"address","internalType":"address"},{"name":"payer","type":"address","internalType":"address"},{"name":"borrower","type":"address","internalType":"address"},{"name":"actualRepayAmount","type":"uint256","internalType":"uint256"},{"name":"borrowerIndex","type":"uint256","internalType":"uint256"}],"outputs":[],"stateMutability":"nonpayable"},{"type":"function","name":"seizeAllowed","inputs":[{"name":"cTokenCollateral","type":"address","internalType":"address"},{"name":"cTokenBorrowed","type":"address","internalType":"address"},{"name":"liquidator","type":"address","internalType":"address"},{"name":"borrower","type":"address","internalType":"address"},{"name":"seizeTokens","type":"uint256","internalType":"uint256"}],"outputs":[{"name":"","type":"uint256","internalType":"uint256"}],"stateMutability":"nonpayable"},{"type":"function","name":"seizeGuardianPaused","inputs":[],"outputs":[{"name":"","type":"bool","internalType":"bool"}],"stateMutability":"view"},{"type":"function","name":"seizeVerify","inputs":[{"name":"cTokenCollateral","type":"address","internalType":"address"},{"name":"cTokenBorrowed","type":"address","internalType":"address"},{"name":"liquidator","type":"address","internalType":"address"},{"name":"borrower","type":"address","internalType":"address"},{"name":"seizeTokens","type":"uint256","internalType":"uint256"}],"outputs":[],"stateMutability":"nonpayable"},{"type":"function","name":"transferAllowed","inputs":[{"name":"cToken","type":"address","internalType":"address"},{"name":"src","type":"address","internalType":"address"},{"name":"dst","type":"address","internalType":"address"},{"name":"transferTokens","type":"uint256","internalType":"uint256"}],"outputs":[{"name":"","type":"uint256","internalType":"uint256"}],"stateMutability":"nonpayable"},{"type":"function","name":"transferGuardianPaused","inputs":[],"outputs":[{"name":"","type":"bool","internalType":"bool"}],"stateMutability":"view"},{"type":"function","name":"transferVerify","inputs":[{"name":"cToken","type":"address","internalType":"address"},{"name":"src","type":"address","internalType":"address"},{"name":"dst","type":"address","internalType":"address"},{"name":"transferTokens","type":"uint256","internalType":"uint256"}],"outputs":[],"stateMutability":"nonpayable"},{"type":"function","name":"updateContributorRewards","inputs":[{"name":"contributor","type":"address","internalType":"address"}],"outputs":[],"stateMutability":"nonpayable"},{"type":"event","name":"ActionPaused","inputs":[{"name":"action","type":"string","indexed":false,"internalType":"string"},{"name":"pauseState","type":"bool","indexed":false,"internalType":"bool"}],"anonymous":false},{"type":"event","name":"ActionPaused","inputs":[{"name":"cToken","type":"address","indexed":false,"internalType":"contract CToken"},{"name":"action","type":"string","indexed":false,"internalType":"string"},{"name":"pauseState","type":"bool","indexed":false,"internalType":"bool"}],"anonymous":false},{"type":"event","name":"CompAccruedAdjusted","inputs":[{"name":"user","type":"address","indexed":true,"internalType":"address"},{"name":"oldCompAccrued","type":"uint256","indexed":false,"internalType":"uint256"},{"name":"newCompAccrued","type":"uint256","indexed":false,"internalType":"uint256"}],"anonymous":false},{"type":"event","name":"CompBorrowSpeedUpdated","inputs":[{"name":"cToken","type":"address","indexed":true,"internalType":"contract CToken"},{"name":"newSpeed","type":"uint256","indexed":false,"internalType":"uint256"}],"anonymous":false},{"type":"event","name":"CompGranted","inputs":[{"name":"recipient","type":"address","indexed":false,"internalType":"address"},{"name":"amount","type":"uint256","indexed":false,"internalType":"uint256"}],"anonymous":false},{"type":"event","name":"CompReceivableUpdated","inputs":[{"name":"user","type":"address","indexed":true,"internalType":"address"},{"name":"oldCompReceivable","type":"uint256","indexed":false,"internalType":"uint256"},{"name":"newCompReceivable","type":"uint256","indexed":false,"internalType":"uint256"}],"anonymous":false},{"type":"event","name":"CompSupplySpeedUpdated","inputs":[{"name":"cToken","type":"address","indexed":true,"internalType":"contract CToken"},{"name":"newSpeed","type":"uint256","indexed":false,"internalType":"uint256"}],"anonymous":false},{"type":"event","name":"ContributorCompSpeedUpdated","inputs":[{"name":"contributor","type":"address","indexed":true,"internalType":"address"},{"name":"newSpeed","type":"uint256","indexed":false,"internalType":"uint256"}],"anonymous":false},{"type":"event","name":"DistributedBorrowerComp","inputs":[{"name":"cToken","type":"address","indexed":true,"internalType":"contract CToken"},{"name":"borrower","type":"address","indexed":true,"internalType":"address"},{"name":"compDelta","type":"uint256","indexed":false,"internalType":"uint256"},{"name":"compBorrowIndex","type":"uint256","indexed":false,"internalType":"uint256"}],"anonymous":false},{"type":"event","name":"DistributedSupplierComp","inputs":[{"name":"cToken","type":"address","indexed":true,"internalType":"contract CToken"},{"name":"supplier","type":"address","indexed":true,"internalType":"address"},{"name":"compDelta","type":"uint256","indexed":false,"internalType":"uint256"},{"name":"compSupplyIndex","type":"uint256","indexed":false,"internalType":"uint256"}],"anonymous":false},{"type":"event","name":"Failure","inputs":[{"name":"error","type":"uint256","indexed":false,"internalType":"uint256"},{"name":"info","type":"uint256","indexed":false,"internalType":"uint256"},{"name":"detail","type":"uint256","indexed":false,"internalType":"uint256"}],"anonymous":false},{"type":"event","name":"MarketEntered","inputs":[{"name":"cToken","type":"address","indexed":false,"internalType":"contract CToken"},{"name":"account","type":"address","indexed":false,"internalType":"address"}],"anonymous":false},{"type":"event","name":"MarketExited","inputs":[{"name":"cToken","type":"address","indexed":false,"internalType":"contract CToken"},{"name":"account","type":"address","indexed":false,"internalType":"address"}],"anonymous":false},{"type":"event","name":"MarketListed","inputs":[{"name":"cToken","type":"address","indexed":false,"internalType":"contract CToken"}],"anonymous":false},{"type":"event","name":"NewBorrowCap","inputs":[{"name":"cToken","type":"address","indexed":true,"internalType":"contract CToken"},{"name":"newBorrowCap","type":"uint256","indexed":false,"internalType":"uint256"}],"anonymous":false},{"type":"event","name":"NewBorrowCapGuardian","inputs":[{"name":"oldBorrowCapGuardian","type":"address","indexed":false,"internalType":"address"},{"name":"newBorrowCapGuardian","type":"address","indexed":false,"internalType":"address"}],"anonymous":false},{"type":"event","name":"NewCloseFactor","inputs":[{"name":"oldCloseFactorMantissa","type":"uint256","indexed":false,"internalType":"uint256"},{"name":"newCloseFactorMantissa","type":"uint256","indexed":false,"internalType":"uint256"}],"anonymous":false},{"type":"event","name":"NewCollateralFactor","inputs":[{"name":"cToken","type":"address","indexed":false,"internalType":"contract CToken"},{"name":"oldCollateralFactorMantissa","type":"uint256","indexed":false,"internalType":"uint256"},{"name":"newCollateralFactorMantissa","type":"uint256","indexed":false,"internalType":"uint256"}],"anonymous":false},{"type":"event","name":"NewLiquidationIncentive","inputs":[{"name":"oldLiquidationIncentiveMantissa","type":"uint256","indexed":false,"internalType":"uint256"},{"name":"newLiquidationIncentiveMantissa","type":"uint256","indexed":false,"internalType":"uint256"}],"anonymous":false},{"type":"event","name":"NewPauseGuardian","inputs":[{"name":"oldPauseGuardian","type":"address","indexed":false,"internalType":"address"},{"name":"newPauseGuardian","type":"address","indexed":false,"internalType":"address"}],"anonymous":false},{"type":"event","name":"NewPriceOracle","inputs":[{"name":"oldPriceOracle","type":"address","indexed":false,"internalType":"contract PriceOracle"},{"name":"newPriceOracle","type":"address","indexed":false,"internalType":"contract PriceOracle"}],"anonymous":false}],"bytecode":{"object":"0x6080604052348015600f57600080fd5b50600080546001600160a01b0319163317905561534c806100316000396000f3fe608060405234801561001057600080fd5b506004361061048a5760003560e01c8063731f0c2b11610262578063b21be7fd11610151578063dce15449116100ce578063e9af029211610092578063e9af029214610c04578063eabe7d9114610c17578063ede4edd014610c2a578063f00a7a9214610c3d578063f4a433c014610c4a578063f851a44014610c6a57600080fd5b8063dce1544914610bae578063dcfbc0c714610bc1578063e4028eee14610bd4578063e6653f3d14610be7578063e875544614610bfb57600080fd5b8063c488847b11610115578063c488847b14610b15578063ca0af04314610b3d578063cc7ebdc414610b68578063d02f735114610b88578063da3d454c14610b9b57600080fd5b8063b21be7fd14610a84578063bb82aa5e14610aaf578063bdcdc25814610ac2578063bea6b8b814610ad5578063c299823814610af557600080fd5b806394b2294b116101df578063a8b43948116101a3578063a8b4394814610a2c578063aa90075414610a3f578063abfceffc14610a48578063ac0b0bb714610a68578063b0772d0b14610a7c57600080fd5b806394b2294b146109a9578063986ab838146109b25780639d1b5a0a146109d2578063a76b3fda146109ec578063a7f0e231146109ff57600080fd5b80638c57804e116102265780638c57804e146108b75780638e8f294b146108ef5780638ebf636414610942578063929fe9a11461095557806394543c151461099657600080fd5b8063731f0c2b1461083a578063741b25251461085d5780637dc0d1d01461087057806385b7beb81461088357806387f76303146108a357600080fd5b80634a5844321161037e5780635ec88c79116102fb5780636a56947e116102bf5780636a56947e1461077f5780636aa875b51461078d5780636b79c38d146107ad5780636d154ea5146108095780636d35bf911461082c57600080fd5b80635ec88c79146107205780635f5af1aa146107335780635fc7e71e14610746578063607ef6c1146107595780636810dfa61461076c57600080fd5b806351dff9891161034257806351dff989146106c157806352d84d1e146106d457806355ee1fe1146106e7578063598ee1cb146106fa5780635c7786051461070d57600080fd5b80634a584432146106445780634ada90af146106645780634e79238f1461066d5780634ef4c3e11461069b5780634fd42e17146106ae57600080fd5b8063267822471161040c5780633bcf7ec1116103d05780633bcf7ec1146105ed5780633c94786f1461060057806341c728b91461061457806342cbb15c1461062857806347ef3b3b1461062e57600080fd5b8063267822471461058e57806327efe3cb146105a15780632d70db78146105b4578063317b0b77146105c7578063391957d7146105da57600080fd5b80631d7b33d7116104535780631d7b33d7146104fa5780631ededc911461052857806321af45691461053d57806324008a621461056857806324a3d6221461057b57600080fd5b80627e3dd21461048f57806316b95e8f146104ac57806318c882a5146104c15780631c3db2e0146104d45780631d504dc6146104e7575b600080fd5b610497600181565b60405190151581526020015b60405180910390f35b6104bf6104ba3660046149d5565b610c7d565b005b6104976104cf366004614a67565b610f1e565b6104bf6104e2366004614b7f565b611057565b6104bf6104f5366004614bce565b6110ba565b61051a610508366004614bce565b600f6020526000908152604090205481565b6040519081526020016104a3565b6104bf610536366004614beb565b5050505050565b601554610550906001600160a01b031681565b6040516001600160a01b0390911681526020016104a3565b61051a610576366004614c46565b611238565b600a54610550906001600160a01b031681565b600154610550906001600160a01b031681565b6104bf6105af366004614c97565b6112f6565b6104976105c2366004614cc3565b6113ed565b61051a6105d5366004614ce0565b6114dd565b6104bf6105e8366004614bce565b611584565b6104976105fb366004614a67565b61164e565b600a5461049790600160a01b900460ff1681565b6104bf610622366004614cf9565b50505050565b4361051a565b6104bf61063c366004614d3f565b505050505050565b61051a610652366004614bce565b60166020526000908152604090205481565b61051a60065481565b61068061067b366004614cf9565b611778565b604080519384526020840192909252908201526060016104a3565b61051a6106a9366004614dad565b6117b8565b61051a6106bc366004614ce0565b611859565b6104bf6106cf366004614cf9565b6118b6565b6105506106e2366004614ce0565b611905565b61051a6106f5366004614bce565b61192f565b6104bf610708366004614c97565b6119a8565b6104bf61071b366004614dad565b505050565b61068061072e366004614bce565b611a9f565b61051a610741366004614bce565b611ada565b61051a610754366004614dee565b611b53565b6104bf6107673660046149d5565b611d25565b6104bf61077a366004614e52565b611ef9565b6104bf610622366004614c46565b61051a61079b366004614bce565b601a6020526000908152604090205481565b6107e56107bb366004614bce565b6010602052600090815260409020546001600160e01b03811690600160e01b900463ffffffff1682565b604080516001600160e01b03909316835263ffffffff9091166020830152016104a3565b610497610817366004614bce565b600c6020526000908152604090205460ff1681565b6104bf610536366004614dee565b610497610848366004614bce565b600b6020526000908152604090205460ff1681565b6104bf61086b366004614bce565b612150565b600454610550906001600160a01b031681565b61051a610891366004614bce565b601c6020526000908152604090205481565b600a5461049790600160b01b900460ff1681565b6107e56108c5366004614bce565b6011602052600090815260409020546001600160e01b03811690600160e01b900463ffffffff1682565b6109236108fd366004614bce565b60096020526000908152604090208054600182015460039092015460ff91821692911683565b60408051931515845260208401929092521515908201526060016104a3565b610497610950366004614cc3565b6121fc565b610497610963366004614ede565b6001600160a01b038082166000908152600960209081526040808320938616835260029093019052205460ff1692915050565b6104976109a4366004614bce565b6122e3565b61051a60075481565b61051a6109c0366004614bce565b60176020526000908152604090205481565b73c00e94cb662c3520282e6f5717214004a7f26888610550565b61051a6109fa366004614bce565b6123a2565b610a146a0c097ce7bc90715b34b9f160241b81565b6040516001600160e01b0390911681526020016104a3565b6104bf610a3a366004614f6a565b6124d4565b61051a600e5481565b610a5b610a56366004614bce565b612601565b6040516104a39190614ffb565b600a5461049790600160b81b900460ff1681565b610a5b612677565b61051a610a92366004614ede565b601260209081526000928352604080842090915290825290205481565b600254610550906001600160a01b031681565b61051a610ad0366004614c46565b6126d9565b61051a610ae3366004614bce565b60186020526000908152604090205481565b610b08610b03366004615047565b612764565b6040516104a3919061507b565b610b28610b23366004614dad565b612821565b604080519283526020830191909152016104a3565b61051a610b4b366004614ede565b601360209081526000928352604080842090915290825290205481565b61051a610b76366004614bce565b60146020526000908152604090205481565b61051a610b96366004614dee565b612a3f565b61051a610ba9366004614dad565b612be6565b610550610bbc366004614c97565b612fb9565b600354610550906001600160a01b031681565b61051a610be2366004614c97565b612ff1565b600a5461049790600160a81b900460ff1681565b61051a60055481565b6104bf610c12366004614bce565b613183565b61051a610c25366004614dad565b6131e7565b61051a610c38366004614bce565b613222565b601b546104979060ff1681565b61051a610c58366004614bce565b60196020526000908152604090205481565b600054610550906001600160a01b031681565b6000546001600160a01b03163314610ce65760405162461bcd60e51b815260206004820152602160248201527f4f6e6c792061646d696e2063616e2063616c6c20746869732066756e6374696f6044820152603760f91b60648201526084015b60405180910390fd5b601b5460ff1615610d485760405162461bcd60e51b815260206004820152602660248201527f416c72656164792065786563757465642074686973206f6e652d6f66662066756044820152653731ba34b7b760d11b6064820152608401610cdd565b828114610d875760405162461bcd60e51b815260206004820152600d60248201526c125b9d985b1a59081a5b9c1d5d609a1b6044820152606401610cdd565b60008060008060005b87811015610f0657888882818110610daa57610daa6150b3565b9050602002016020810190610dbf9190614bce565b6001600160a01b0381166000908152601460205260409020549095509350868682818110610def57610def6150b3565b90506020020135925083831115610e93576000610e0c85856150df565b6001600160a01b0387166000908152601c6020526040812054919250610e32828461357d565b6001600160a01b0389166000818152601c6020908152604091829020849055815186815290810184905292935090917f17fea09d9a7ca41b2f9f9118f18f44848a62e9c70d55dd4385131eb2cf1b7e47910160405180910390a28695505050505b8215610efe57610ea38484613589565b6001600160a01b038616600081815260146020908152604091829020849055815188815290810184905292945090917f4a5c134e28b537a76546993ea37f3b60d9190476df7356d3842aa40902e20f04910160405180910390a25b600101610d90565b5050601b805460ff1916600117905550505050505050565b6001600160a01b03821660009081526009602052604081205460ff16610f565760405162461bcd60e51b8152600401610cdd906150f2565b600a546001600160a01b0316331480610f7957506000546001600160a01b031633145b610f955760405162461bcd60e51b8152600401610cdd9061513a565b6000546001600160a01b0316331480610fb057506001821515145b610fcc5760405162461bcd60e51b8152600401610cdd90615181565b6001600160a01b0383166000818152600c6020908152604091829020805460ff19168615159081179091558251938452606091840182905260069184019190915265426f72726f7760d01b6080840152908201527f71aec636243f9709bb0007ae15e9afb8150ab01716d75fd7573be5cc096e03b09060a0015b60405180910390a150805b92915050565b60408051600180825281830190925260009160208083019080368337019050509050828160008151811061108d5761108d6150b3565b60200260200101906001600160a01b031690816001600160a01b03168152505061071b8183600180611ef9565b806001600160a01b031663f851a4406040518163ffffffff1660e01b8152600401602060405180830381865afa1580156110f8573d6000803e3d6000fd5b505050506040513d601f19601f8201168201806040525081019061111c91906151b1565b6001600160a01b0316336001600160a01b03161461118c5760405162461bcd60e51b815260206004820152602760248201527f6f6e6c7920756e6974726f6c6c65722061646d696e2063616e206368616e676560448201526620627261696e7360c81b6064820152608401610cdd565b806001600160a01b031663c1e803346040518163ffffffff1660e01b81526004016020604051808303816000875af11580156111cc573d6000803e3d6000fd5b505050506040513d601f19601f820116820180604052508101906111f091906151ce565b156112355760405162461bcd60e51b815260206004820152601560248201527418da185b99d9481b9bdd08185d5d1a1bdc9a5e9959605a1b6044820152606401610cdd565b50565b6001600160a01b03841660009081526009602052604081205460ff16611260575060096112ee565b60006040518060200160405280876001600160a01b031663aa5af0fd6040518163ffffffff1660e01b8152600401602060405180830381865afa1580156112ab573d6000803e3d6000fd5b505050506040513d601f19601f820116820180604052508101906112cf91906151ce565b905290506112dd8682613595565b6112e8868583613788565b60009150505b949350505050565b6112fe613908565b61134a5760405162461bcd60e51b815260206004820152601960248201527f6f6e6c792061646d696e2063616e206772616e7420636f6d70000000000000006044820152606401610cdd565b60006113568383613931565b905080156113a65760405162461bcd60e51b815260206004820152601b60248201527f696e73756666696369656e7420636f6d7020666f72206772616e7400000000006044820152606401610cdd565b604080516001600160a01b0385168152602081018490527f98b2f82a3a07f223a0be64b3d0f47711c64dccd1feafb94aa28156b38cd9695c910160405180910390a1505050565b600a546000906001600160a01b031633148061141357506000546001600160a01b031633145b61142f5760405162461bcd60e51b8152600401610cdd9061513a565b6000546001600160a01b031633148061144a57506001821515145b6114665760405162461bcd60e51b8152600401610cdd90615181565b600a8054831515600160b81b0260ff60b81b199091161790556040517fef159d9a32b2472e32b098f954f3ce62d232939f1c207070b584df1814de2de0906114d19084906040808252600590820152645365697a6560d81b6060820152901515602082015260800190565b60405180910390a15090565b600080546001600160a01b031633146115385760405162461bcd60e51b815260206004820152601f60248201527f6f6e6c792061646d696e2063616e2073657420636c6f736520666163746f72006044820152606401610cdd565b600580549083905560408051828152602081018590527f3b9670cf975d26958e754b57098eaa2ac914d8d2a31b83257997b9f346110fd991015b60405180910390a160005b9392505050565b6000546001600160a01b031633146115ed5760405162461bcd60e51b815260206004820152602660248201527f6f6e6c792061646d696e2063616e2073657420626f72726f772063617020677560448201526530b93234b0b760d11b6064820152608401610cdd565b601580546001600160a01b038381166001600160a01b031983168117909355604080519190921680825260208201939093527feda98690e518e9a05f8ec6837663e188211b2da8f4906648b323f2c1d4434e29910160405180910390a15050565b6001600160a01b03821660009081526009602052604081205460ff166116865760405162461bcd60e51b8152600401610cdd906150f2565b600a546001600160a01b03163314806116a957506000546001600160a01b031633145b6116c55760405162461bcd60e51b8152600401610cdd9061513a565b6000546001600160a01b03163314806116e057506001821515145b6116fc5760405162461bcd60e51b8152600401610cdd90615181565b6001600160a01b0383166000818152600b6020908152604091829020805460ff19168615159081179091558251938452606091840182905260049184019190915263135a5b9d60e21b6080840152908201527f71aec636243f9709bb0007ae15e9afb8150ab01716d75fd7573be5cc096e03b09060a001611046565b60008060008060008061178d8a8a8a8a613a56565b9250925092508260118111156117a5576117a56151e7565b95509093509150505b9450945094915050565b6001600160a01b0383166000908152600b602052604081205460ff16156118125760405162461bcd60e51b815260206004820152600e60248201526d1b5a5b9d081a5cc81c185d5cd95960921b6044820152606401610cdd565b6001600160a01b03841660009081526009602052604090205460ff1661183c5760095b905061157d565b61184584613d7c565b61184f8484613ef4565b6000949350505050565b600080546001600160a01b03163314611878576110516001600b614092565b600680549083905560408051828152602081018590527faeba5a6c40a8ac138134bff1aaa65debf25971188a58804bad717f82f0ec13169101611572565b801580156118c45750600082115b156106225760405162461bcd60e51b815260206004820152601160248201527072656465656d546f6b656e73207a65726f60781b6044820152606401610cdd565b600d818154811061191557600080fd5b6000918252602090912001546001600160a01b0316905081565b600080546001600160a01b0316331461194e5761105160016010614092565b600480546001600160a01b038481166001600160a01b031983168117909355604080519190921680825260208201939093527fd52b2b9b7e9ee655fcb95d2e5b9e0c9f69e7ef2b8e9d2d0ea78402d576d22e229101611572565b6119b0613908565b6119fc5760405162461bcd60e51b815260206004820152601d60248201527f6f6e6c792061646d696e2063616e2073657420636f6d702073706565640000006044820152606401610cdd565b611a0582612150565b80600003611a2b576001600160a01b038216600090815260186020526040812055611a46565b436001600160a01b0383166000908152601860205260409020555b6001600160a01b03821660008181526017602052604090819020839055517f386537fa92edc3319af95f1f904dcf1900021e4f3f4e08169a577a09076e66b390611a939084815260200190565b60405180910390a25050565b600080600080600080611ab6876000806000613a56565b925092509250826011811115611ace57611ace6151e7565b97919650945092505050565b600080546001600160a01b03163314611af95761105160016013614092565b600a80546001600160a01b038481166001600160a01b031983168117909355604080519190921680825260208201939093527f0613b6ee6a04f0d09f390e4d9318894b9f6ac7fd83897cd8d18896ba579c401e9101611572565b6001600160a01b03851660009081526009602052604081205460ff161580611b9457506001600160a01b03851660009081526009602052604090205460ff16155b15611ba35760095b9050611d1c565b6040516395dd919360e01b81526001600160a01b038481166004830152600091908816906395dd919390602401602060405180830381865afa158015611bed573d6000803e3d6000fd5b505050506040513d601f19601f82011682018060405250810190611c1191906151ce565b9050611c1c876122e3565b15611c875782811015611c825760405162461bcd60e51b815260206004820152602860248201527f43616e206e6f74207265706179206d6f7265207468616e2074686520746f74616044820152676c20626f72726f7760c01b6064820152608401610cdd565b611d16565b600080611c938661410b565b91935090915060009050826011811115611caf57611caf6151e7565b14611cd057816011811115611cc657611cc66151e7565b9350505050611d1c565b80600003611cdf576003611cc6565b6000611cfb60405180602001604052806005548152508561412b565b905080861115611d12576011945050505050611d1c565b5050505b60009150505b95945050505050565b6000546001600160a01b0316331480611d4857506015546001600160a01b031633145b611db25760405162461bcd60e51b815260206004820152603560248201527f6f6e6c792061646d696e206f7220626f72726f772063617020677561726469616044820152746e2063616e2073657420626f72726f77206361707360581b6064820152608401610cdd565b82818115801590611dc257508082145b611dfe5760405162461bcd60e51b815260206004820152600d60248201526c1a5b9d985b1a59081a5b9c1d5d609a1b6044820152606401610cdd565b60005b82811015611ef057848482818110611e1b57611e1b6150b3565b9050602002013560166000898985818110611e3857611e386150b3565b9050602002016020810190611e4d9190614bce565b6001600160a01b03168152602081019190915260400160002055868682818110611e7957611e796150b3565b9050602002016020810190611e8e9190614bce565b6001600160a01b03167f6f1951b2aad10f3fc81b86d91105b413a5b3f847a34bbc5ce1904201b14438f6868684818110611eca57611eca6150b3565b90506020020135604051611ee091815260200190565b60405180910390a2600101611e01565b50505050505050565b60005b83518110156120a0576000848281518110611f1957611f196150b3565b6020908102919091018101516001600160a01b0381166000908152600990925260409091205490915060ff16611f895760405162461bcd60e51b81526020600482015260156024820152741b585c9ad95d081b5d5cdd081899481b1a5cdd1959605a1b6044820152606401610cdd565b83151560010361204b5760006040518060200160405280836001600160a01b031663aa5af0fd6040518163ffffffff1660e01b8152600401602060405180830381865afa158015611fde573d6000803e3d6000fd5b505050506040513d601f19601f8201168201806040525081019061200291906151ce565b905290506120108282613595565b60005b87518110156120485761204083898381518110612032576120326150b3565b602002602001015184613788565b600101612013565b50505b8215156001036120975761205e81613d7c565b60005b86518110156120955761208d82888381518110612080576120806150b3565b6020026020010151613ef4565b600101612061565b505b50600101611efc565b5060005b84518110156105365761210e8582815181106120c2576120c26150b3565b6020026020010151601460008885815181106120e0576120e06150b3565b60200260200101516001600160a01b03166001600160a01b0316815260200190815260200160002054613931565b60146000878481518110612124576121246150b3565b6020908102919091018101516001600160a01b03168252810191909152604001600020556001016120a4565b6001600160a01b038116600090815260176020908152604080832054601890925282205490914391612183908390613589565b90506000811180156121955750600083115b156106225760006121a68285614143565b6001600160a01b038616600090815260146020526040812054919250906121cd908361357d565b6001600160a01b0387166000908152601460209081526040808320939093556018905220849055505050505050565b600a546000906001600160a01b031633148061222257506000546001600160a01b031633145b61223e5760405162461bcd60e51b8152600401610cdd9061513a565b6000546001600160a01b031633148061225957506001821515145b6122755760405162461bcd60e51b8152600401610cdd90615181565b600a8054831515600160b01b0260ff60b01b199091161790556040517fef159d9a32b2472e32b098f954f3ce62d232939f1c207070b584df1814de2de0906114d19084906040808252600890820152672a3930b739b332b960c11b6060820152901515602082015260800190565b6001600160a01b03811660009081526009602052604081206001015415801561232957506001600160a01b0382166000908152600c602052604090205460ff1615156001145b80156110515750816001600160a01b031663173b99046040518163ffffffff1660e01b8152600401602060405180830381865afa15801561236e573d6000803e3d6000fd5b505050506040513d601f19601f8201168201806040525081019061239291906151ce565b670de0b6b3a76400001492915050565b600080546001600160a01b031633146123c15761105160016012614092565b6001600160a01b03821660009081526009602052604090205460ff16156123ee57611051600a6011614092565b816001600160a01b031663fe9c44ae6040518163ffffffff1660e01b8152600401602060405180830381865afa15801561242c573d6000803e3d6000fd5b505050506040513d601f19601f8201168201806040525081019061245091906151fd565b506001600160a01b03821660009081526009602052604081208054600160ff19918216811783556003830180549092169091558101919091556124928361414f565b61249b8361422d565b6040516001600160a01b03841681527fcf583bb0c569eb967f806b11601c4cb93c10310485c67add5f8362c2f212321f90602001611572565b6124dc613908565b6125285760405162461bcd60e51b815260206004820152601d60248201527f6f6e6c792061646d696e2063616e2073657420636f6d702073706565640000006044820152606401610cdd565b825182518114801561253a5750815181145b6125985760405162461bcd60e51b815260206004820152602960248201527f436f6d7074726f6c6c65723a3a5f736574436f6d7053706565647320696e76616044820152681b1a59081a5b9c1d5d60ba1b6064820152608401610cdd565b60005b81811015610536576125f98582815181106125b8576125b86150b3565b60200260200101518583815181106125d2576125d26150b3565b60200260200101518584815181106125ec576125ec6150b3565b60200260200101516142f1565b60010161259b565b6001600160a01b038116600090815260086020908152604080832080548251818502810185019093528083526060949383018282801561266a57602002820191906000526020600020905b81546001600160a01b0316815260019091019060200180831161264c575b5093979650505050505050565b6060600d8054806020026020016040519081016040528092919081815260200182805480156126cf57602002820191906000526020600020905b81546001600160a01b031681526001909101906020018083116126b1575b5050505050905090565b600a54600090600160b01b900460ff161561272b5760405162461bcd60e51b81526020600482015260126024820152711d1c985b9cd9995c881a5cc81c185d5cd95960721b6044820152606401610cdd565b60006127388686856144d0565b905080156127475790506112ee565b61275086613d7c565b61275a8686613ef4565b6112e88685613ef4565b80516060906000816001600160401b0381111561278357612783614aa0565b6040519080825280602002602001820160405280156127ac578160200160208202803683370190505b50905060005b828110156128195760008582815181106127ce576127ce6150b3565b602002602001015190506127e28133614588565b60118111156127f3576127f36151e7565b838381518110612805576128056150b3565b6020908102919091010152506001016127b2565b509392505050565b6004805460405163fc57d4df60e01b81526001600160a01b03868116938201939093526000928392839291169063fc57d4df90602401602060405180830381865afa158015612874573d6000803e3d6000fd5b505050506040513d601f19601f8201168201806040525081019061289891906151ce565b6004805460405163fc57d4df60e01b81526001600160a01b038981169382019390935292935060009291169063fc57d4df90602401602060405180830381865afa1580156128ea573d6000803e3d6000fd5b505050506040513d601f19601f8201168201806040525081019061290e91906151ce565b905081158061291b575080155b1561292f57600d6000935093505050612a37565b6000866001600160a01b031663182df0f56040518163ffffffff1660e01b8152600401602060405180830381865afa15801561296f573d6000803e3d6000fd5b505050506040513d601f19601f8201168201806040525081019061299391906151ce565b905060006129ad6040518060200160405280600081525090565b6040805160208082018352600080835283518083018552908152835180830185526006548152845192830190945288825291926129e99161467c565b9250612a1160405180602001604052808881525060405180602001604052808881525061467c565b9150612a1d83836146c4565b9050612a29818b61412b565b600099509750505050505050505b935093915050565b600a54600090600160b81b900460ff1615612a8e5760405162461bcd60e51b815260206004820152600f60248201526e1cd95a5e99481a5cc81c185d5cd959608a1b6044820152606401610cdd565b6001600160a01b03861660009081526009602052604090205460ff161580612acf57506001600160a01b03851660009081526009602052604090205460ff16155b15612adb576009611b9c565b846001600160a01b0316635fe3b5676040518163ffffffff1660e01b8152600401602060405180830381865afa158015612b19573d6000803e3d6000fd5b505050506040513d601f19601f82011682018060405250810190612b3d91906151b1565b6001600160a01b0316866001600160a01b0316635fe3b5676040518163ffffffff1660e01b8152600401602060405180830381865afa158015612b84573d6000803e3d6000fd5b505050506040513d601f19601f82011682018060405250810190612ba891906151b1565b6001600160a01b031614612bbd576002611b9c565b612bc686613d7c565b612bd08684613ef4565b612bda8685613ef4565b60009695505050505050565b6001600160a01b0383166000908152600c602052604081205460ff1615612c425760405162461bcd60e51b815260206004820152601060248201526f189bdc9c9bddc81a5cc81c185d5cd95960821b6044820152606401610cdd565b6001600160a01b03841660009081526009602052604090205460ff16612c69576009611835565b6001600160a01b038085166000908152600960209081526040808320938716835260029093019052205460ff16612d6657336001600160a01b03851614612cea5760405162461bcd60e51b815260206004820152601560248201527439b2b73232b91036bab9ba1031329031aa37b5b2b760591b6044820152606401610cdd565b6000612cf63385614588565b90506000816011811115612d0c57612d0c6151e7565b14612d2b57806011811115612d2357612d236151e7565b91505061157d565b6001600160a01b038086166000908152600960209081526040808320938816835260029093019052205460ff16612d6457612d6461521a565b505b6004805460405163fc57d4df60e01b81526001600160a01b038781169382019390935291169063fc57d4df90602401602060405180830381865afa158015612db2573d6000803e3d6000fd5b505050506040513d601f19601f82011682018060405250810190612dd691906151ce565b600003612de457600d611835565b6001600160a01b0384166000908152601660205260409020548015612ec9576000856001600160a01b03166347bd37186040518163ffffffff1660e01b8152600401602060405180830381865afa158015612e43573d6000803e3d6000fd5b505050506040513d601f19601f82011682018060405250810190612e6791906151ce565b90506000612e75828661357d565b9050828110612ec65760405162461bcd60e51b815260206004820152601960248201527f6d61726b657420626f72726f77206361702072656163686564000000000000006044820152606401610cdd565b50505b600080612ed98688600088613a56565b91935090915060009050826011811115612ef557612ef56151e7565b14612f1657816011811115612f0c57612f0c6151e7565b935050505061157d565b8015612f23576004612f0c565b60006040518060200160405280896001600160a01b031663aa5af0fd6040518163ffffffff1660e01b8152600401602060405180830381865afa158015612f6e573d6000803e3d6000fd5b505050506040513d601f19601f82011682018060405250810190612f9291906151ce565b90529050612fa08882613595565b612fab888883613788565b600098975050505050505050565b60086020528160005260406000208181548110612fd557600080fd5b6000918252602090912001546001600160a01b03169150829050565b600080546001600160a01b031633146130175761301060016006614092565b9050611051565b6001600160a01b0383166000908152600960205260409020805460ff1661304c5761304460096007614092565b915050611051565b60408051602080820183528582528251908101909252670c7d713b49da000082529061307a81835190511090565b156130955761308b60066008614092565b9350505050611051565b841580159061311157506004805460405163fc57d4df60e01b81526001600160a01b038981169382019390935291169063fc57d4df90602401602060405180830381865afa1580156130eb573d6000803e3d6000fd5b505050506040513d601f19601f8201168201806040525081019061310f91906151ce565b155b156131225761308b600d6009614092565b60018301805490869055604080516001600160a01b0389168152602081018390529081018790527f70483e6592cd5182d45ac970e05bc62cdcc90e9d8ef2c2dbe686cf383bcd7fc59060600160405180910390a16000979650505050505050565b61123581600d8054806020026020016040519081016040528092919081815260200182805480156131dd57602002820191906000526020600020905b81546001600160a01b031681526001909101906020018083116131bf575b5050505050611057565b6000806131f58585856144d0565b9050801561320457905061157d565b61320d85613d7c565b6132178585613ef4565b600095945050505050565b6040516361bfb47160e11b815233600482015260009082908290819081906001600160a01b0385169063c37f68e290602401608060405180830381865afa158015613271573d6000803e3d6000fd5b505050506040513d601f19601f820116820180604052508101906132959190615230565b50925092509250826000146132fa5760405162461bcd60e51b815260206004820152602560248201527f657869744d61726b65743a206765744163636f756e74536e617073686f742066604482015264185a5b195960da1b6064820152608401610cdd565b80156133165761330c600c6002614092565b9695505050505050565b60006133238733856144d0565b9050801561334357613338600e6003836146fe565b979650505050505050565b6001600160a01b0385166000908152600960209081526040808320338452600281019092529091205460ff1661338157600098975050505050505050565b3360009081526002820160209081526040808320805460ff1916905560088252808320805482518185028101850190935280835291929091908301828280156133f357602002820191906000526020600020905b81546001600160a01b031681526001909101906020018083116133d5575b5050835193945083925060009150505b8281101561344d57896001600160a01b0316848281518110613427576134276150b3565b60200260200101516001600160a01b0316036134455780915061344d565b600101613403565b5081811061345d5761345d61521a565b3360009081526008602052604090208054819061347c906001906150df565b8154811061348c5761348c6150b3565b9060005260206000200160009054906101000a90046001600160a01b03168183815481106134bc576134bc6150b3565b9060005260206000200160006101000a8154816001600160a01b0302191690836001600160a01b03160217905550808054806134fa576134fa615266565b600082815260209020810160001990810180546001600160a01b03191690550190556040517fe699a64c18b07ac5b7301aa273f36a2287239eb9501d81950672794afba29a0d90613563908c9033906001600160a01b0392831681529116602082015260400190565b60405180910390a160009c9b505050505050505050505050565b600061157d828461527c565b600061157d82846150df565b6001600160a01b0382166000908152601160209081526040808320601990925282205490916135fa435b6040518060400160405280601c81526020017f626c6f636b206e756d6265722065786365656473203332206269747300000000815250614776565b835490915060009061361c9063ffffffff80851691600160e01b900416613589565b905060008111801561362e5750600083115b1561375d5760006136a0876001600160a01b03166347bd37186040518163ffffffff1660e01b8152600401602060405180830381865afa158015613676573d6000803e3d6000fd5b505050506040513d601f19601f8201168201806040525081019061369a91906151ce565b876147a6565b905060006136ae8386614143565b905060008083116136ce57604051806020016040528060008152506136d8565b6136d882846147c4565b604080516020810190915288546001600160e01b0316815290915061373b9061370190836147ff565b5160408051808201909152601a81527f6e657720696e6465782065786365656473203232342062697473000000000000602082015261482b565b6001600160e01b0316600160e01b63ffffffff8716021787555061063c915050565b801561063c57835463ffffffff8316600160e01b026001600160e01b03909116178455505050505050565b6001600160a01b03838116600090815260116020908152604080832080546013845282852095881685529490925290912080546001600160e01b03909316908190559091801580156137e857506a0c097ce7bc90715b34b9f160241b8210155b156137fe57506a0c097ce7bc90715b34b9f160241b5b600060405180602001604052806138158585613589565b90526040516395dd919360e01b81526001600160a01b03888116600483015291925060009161386891908a16906395dd919390602401602060405180830381865afa158015613676573d6000803e3d6000fd5b905060006138768284614852565b6001600160a01b0389166000908152601460205260408120549192509061389d908361357d565b6001600160a01b038a811660008181526014602090815260409182902085905581518781529081018b90529394509092918d16917f1fc3ecc087d8d2d15e23d0032af5a47059c3892d003d8e139fdcb6bb327c99a6910160405180910390a350505050505050505050565b600080546001600160a01b031633148061392c57506002546001600160a01b031633145b905090565b60008073c00e94cb662c3520282e6f5717214004a7f268886040516370a0823160e01b81523060048201529091506000906001600160a01b038316906370a0823190602401602060405180830381865afa158015613993573d6000803e3d6000fd5b505050506040513d601f19601f820116820180604052508101906139b791906151ce565b90506000841180156139c95750808411155b15613a4d5760405163a9059cbb60e01b81526001600160a01b0386811660048301526024820186905283169063a9059cbb906044016020604051808303816000875af1158015613a1d573d6000803e3d6000fd5b505050506040513d601f19601f82011682018060405250810190613a4191906151fd565b50600092505050611051565b50919392505050565b6000806000613a636148e8565b6001600160a01b038816600090815260086020908152604080832080548251818502810185019093528083528493830182828015613aca57602002820191906000526020600020905b81546001600160a01b03168152600190910190602001808311613aac575b5050505050905060005b8151811015613d26576000828281518110613af157613af16150b3565b60209081029190910101516040516361bfb47160e11b81526001600160a01b038e811660048301529192509082169063c37f68e290602401608060405180830381865afa158015613b46573d6000803e3d6000fd5b505050506040513d601f19601f82011682018060405250810190613b6a9190615230565b60808901526060880152604087015293508315613b9657600f60008097509750975050505050506117ae565b60408051602080820183526001600160a01b0384811660008181526009845285902060010154845260c08a01939093528351808301855260808a0151815260e08a015260048054855163fc57d4df60e01b815291820194909452935192169263fc57d4df92602480830193928290030181865afa158015613c1b573d6000803e3d6000fd5b505050506040513d601f19601f82011682018060405250810190613c3f91906151ce565b60a08601819052600003613c6257600d60008097509750975050505050506117ae565b604080516020810190915260a0860151815261010086015260c085015160e0860151613c9c91613c919161467c565b86610100015161467c565b610120860181905260408601518651613cb692919061487b565b855261010085015160608601516020870151613cd392919061487b565b60208601526001600160a01b03808c1690821603613d1d57613cff8561012001518b876020015161487b565b60208601819052610100860151613d17918b9061487b565b60208601525b50600101613ad4565b50602083015183511115613d575760208301518351600091613d47916150df565b60009550955095505050506117ae565b60008084600001518560200151613d6e91906150df565b9550955095505050506117ae565b6001600160a01b0381166000908152601060209081526040808320601a9092528220549091613daa436135bf565b8354909150600090613dcc9063ffffffff80851691600160e01b900416613589565b9050600081118015613dde5750600083115b15613eca576000856001600160a01b03166318160ddd6040518163ffffffff1660e01b8152600401602060405180830381865afa158015613e23573d6000803e3d6000fd5b505050506040513d601f19601f82011682018060405250810190613e4791906151ce565b90506000613e558386614143565b90506000808311613e755760405180602001604052806000815250613e7f565b613e7f82846147c4565b604080516020810190915288546001600160e01b03168152909150613ea89061370190836147ff565b6001600160e01b0316600160e01b63ffffffff87160217875550610536915050565b801561053657835463ffffffff8316600160e01b026001600160e01b039091161784555050505050565b6001600160a01b03828116600090815260106020908152604080832080546012845282852095871685529490925290912080546001600160e01b0390931690819055909180158015613f5457506a0c097ce7bc90715b34b9f160241b8210155b15613f6a57506a0c097ce7bc90715b34b9f160241b5b60006040518060200160405280613f818585613589565b90526040516370a0823160e01b81526001600160a01b0387811660048301529192506000918816906370a0823190602401602060405180830381865afa158015613fcf573d6000803e3d6000fd5b505050506040513d601f19601f82011682018060405250810190613ff391906151ce565b905060006140018284614852565b6001600160a01b03881660009081526014602052604081205491925090614028908361357d565b6001600160a01b0389811660008181526014602090815260409182902085905581518781529081018b90529394509092918c16917f2caecd17d02f56fa897705dcc740da2d237c373f70686f4e0d9bd3bf0400ea7a910160405180910390a3505050505050505050565b60007f45b96fe442630264581b197e84bbada861235052c5a1aadfff9ea4e40a969aa08360118111156140c7576140c76151e7565b8360138111156140d9576140d96151e7565b60408051928352602083019190915260009082015260600160405180910390a182601181111561157d5761157d6151e7565b600080600061411e846000806000613a56565b9250925092509193909250565b600080614138848461489c565b90506112ee816148c4565b600061157d828461528f565b60005b600d548110156141da57816001600160a01b0316600d8281548110614179576141796150b3565b6000918252602090912001546001600160a01b0316036141d25760405162461bcd60e51b81526020600482015260146024820152731b585c9ad95d08185b1c9958591e48185919195960621b6044820152606401610cdd565b600101614152565b50600d80546001810182556000919091527fd7b6990105719101dabeb77144f2a3385c8033acd3af97e9423a695e81ad1eb50180546001600160a01b0319166001600160a01b0392909216919091179055565b6000614238436135bf565b6001600160a01b0383166000908152601060209081526040808320601190925282208154939450909290916001600160e01b0390911690036142935781546001600160e01b0319166a0c097ce7bc90715b34b9f160241b1782555b80546001600160e01b03166000036142c45780546001600160e01b0319166a0c097ce7bc90715b34b9f160241b1781555b805463ffffffff909316600160e01b026001600160e01b0393841681179091558154909216909117905550565b6001600160a01b0383166000908152600960205260409020805460ff1661435a5760405162461bcd60e51b815260206004820152601960248201527f636f6d70206d61726b6574206973206e6f74206c6973746564000000000000006044820152606401610cdd565b6001600160a01b0384166000908152601a602052604090205483146143d85761438284613d7c565b6001600160a01b0384166000818152601a602052604090819020859055517fdeafccd0c0b768b2529f7dcbbe58e155d6023059150b7490ed4535cc3744b92d906143cf9086815260200190565b60405180910390a25b6001600160a01b03841660009081526019602052604090205482146106225760006040518060200160405280866001600160a01b031663aa5af0fd6040518163ffffffff1660e01b8152600401602060405180830381865afa158015614442573d6000803e3d6000fd5b505050506040513d601f19601f8201168201806040525081019061446691906151ce565b905290506144748582613595565b6001600160a01b03851660008181526019602052604090819020859055517f20af8e791cc98f74b2d7a391c80980ca8e5aebf3d4060bf581997b6acae2e537906144c19086815260200190565b60405180910390a25050505050565b6001600160a01b03831660009081526009602052604081205460ff166144f7576009611835565b6001600160a01b038085166000908152600960209081526040808320938716835260029093019052205460ff1661452f576000611835565b60008061453f8587866000613a56565b9193509091506000905082601181111561455b5761455b6151e7565b1461457b57816011811115614572576145726151e7565b9250505061157d565b8015612bda576004614572565b6001600160a01b0382166000908152600960205260408120805460ff166145b3576009915050611051565b6001600160a01b038316600090815260028201602052604090205460ff1615156001036145e4576000915050611051565b6001600160a01b03838116600081815260028401602090815260408083208054600160ff199091168117909155600883528184208054918201815584529282902090920180546001600160a01b031916948916948517905581519384528301919091527f3ab23ab0d51cccc0c3085aec51f99228625aa1a922b3a8ca89a26b0f2027a1a5910160405180910390a15060009392505050565b6040805160208101909152600081526040518060200160405280670de0b6b3a76400006146b186600001518660000151614143565b6146bb91906152a6565b90529392505050565b60408051602081019091526000815260405180602001604052806146bb6146f78660000151670de0b6b3a7640000614143565b85516148dc565b60007f45b96fe442630264581b197e84bbada861235052c5a1aadfff9ea4e40a969aa0846011811115614733576147336151e7565b846013811115614745576147456151e7565b604080519283526020830191909152810184905260600160405180910390a18360118111156112ee576112ee6151e7565b600081640100000000841061479e5760405162461bcd60e51b8152600401610cdd91906152c8565b509192915050565b600061157d6147bd84670de0b6b3a7640000614143565b83516148dc565b60408051602081019091526000815260405180602001604052806146bb6147f9866a0c097ce7bc90715b34b9f160241b614143565b856148dc565b60408051602081019091526000815260405180602001604052806146bb8560000151856000015161357d565b600081600160e01b841061479e5760405162461bcd60e51b8152600401610cdd91906152c8565b60006a0c097ce7bc90715b34b9f160241b614871848460000151614143565b61157d91906152a6565b600080614888858561489c565b9050611d1c614896826148c4565b8461357d565b60408051602081019091526000815260405180602001604052806146bb856000015185614143565b805160009061105190670de0b6b3a7640000906152a6565b600061157d82846152a6565b6040518061014001604052806000815260200160008152602001600081526020016000815260200160008152602001600081526020016149346040518060200160405280600081525090565b815260200161494f6040518060200160405280600081525090565b815260200161496a6040518060200160405280600081525090565b81526020016149856040518060200160405280600081525090565b905290565b60008083601f84011261499c57600080fd5b5081356001600160401b038111156149b357600080fd5b6020830191508360208260051b85010111156149ce57600080fd5b9250929050565b600080600080604085870312156149eb57600080fd5b84356001600160401b03811115614a0157600080fd5b614a0d8782880161498a565b90955093505060208501356001600160401b03811115614a2c57600080fd5b614a388782880161498a565b95989497509550505050565b6001600160a01b038116811461123557600080fd5b801515811461123557600080fd5b60008060408385031215614a7a57600080fd5b8235614a8581614a44565b91506020830135614a9581614a59565b809150509250929050565b634e487b7160e01b600052604160045260246000fd5b604051601f8201601f191681016001600160401b0381118282101715614ade57614ade614aa0565b604052919050565b60006001600160401b03821115614aff57614aff614aa0565b5060051b60200190565b600082601f830112614b1a57600080fd5b8135614b2d614b2882614ae6565b614ab6565b8082825260208201915060208360051b860101925085831115614b4f57600080fd5b602085015b83811015614b75578035614b6781614a44565b835260209283019201614b54565b5095945050505050565b60008060408385031215614b9257600080fd5b8235614b9d81614a44565b915060208301356001600160401b03811115614bb857600080fd5b614bc485828601614b09565b9150509250929050565b600060208284031215614be057600080fd5b813561157d81614a44565b600080600080600060a08688031215614c0357600080fd5b8535614c0e81614a44565b94506020860135614c1e81614a44565b93506040860135614c2e81614a44565b94979396509394606081013594506080013592915050565b60008060008060808587031215614c5c57600080fd5b8435614c6781614a44565b93506020850135614c7781614a44565b92506040850135614c8781614a44565b9396929550929360600135925050565b60008060408385031215614caa57600080fd5b8235614cb581614a44565b946020939093013593505050565b600060208284031215614cd557600080fd5b813561157d81614a59565b600060208284031215614cf257600080fd5b5035919050565b60008060008060808587031215614d0f57600080fd5b8435614d1a81614a44565b93506020850135614d2a81614a44565b93969395505050506040820135916060013590565b60008060008060008060c08789031215614d5857600080fd5b8635614d6381614a44565b95506020870135614d7381614a44565b94506040870135614d8381614a44565b93506060870135614d9381614a44565b9598949750929560808101359460a0909101359350915050565b600080600060608486031215614dc257600080fd5b8335614dcd81614a44565b92506020840135614ddd81614a44565b929592945050506040919091013590565b600080600080600060a08688031215614e0657600080fd5b8535614e1181614a44565b94506020860135614e2181614a44565b93506040860135614e3181614a44565b92506060860135614e4181614a44565b949793965091946080013592915050565b60008060008060808587031215614e6857600080fd5b84356001600160401b03811115614e7e57600080fd5b614e8a87828801614b09565b94505060208501356001600160401b03811115614ea657600080fd5b614eb287828801614b09565b9350506040850135614ec381614a59565b91506060850135614ed381614a59565b939692955090935050565b60008060408385031215614ef157600080fd5b8235614efc81614a44565b91506020830135614a9581614a44565b600082601f830112614f1d57600080fd5b8135614f2b614b2882614ae6565b8082825260208201915060208360051b860101925085831115614f4d57600080fd5b602085015b83811015614b75578035835260209283019201614f52565b600080600060608486031215614f7f57600080fd5b83356001600160401b03811115614f9557600080fd5b614fa186828701614b09565b93505060208401356001600160401b03811115614fbd57600080fd5b614fc986828701614f0c565b92505060408401356001600160401b03811115614fe557600080fd5b614ff186828701614f0c565b9150509250925092565b602080825282518282018190526000918401906040840190835b8181101561503c5783516001600160a01b0316835260209384019390920191600101615015565b509095945050505050565b60006020828403121561505957600080fd5b81356001600160401b0381111561506f57600080fd5b6112ee84828501614b09565b602080825282518282018190526000918401906040840190835b8181101561503c578351835260209384019390920191600101615095565b634e487b7160e01b600052603260045260246000fd5b634e487b7160e01b600052601160045260246000fd5b81810381811115611051576110516150c9565b60208082526028908201527f63616e6e6f742070617573652061206d61726b65742074686174206973206e6f6040820152671d081b1a5cdd195960c21b606082015260800190565b60208082526027908201527f6f6e6c7920706175736520677561726469616e20616e642061646d696e2063616040820152666e20706175736560c81b606082015260800190565b6020808252601690820152756f6e6c792061646d696e2063616e20756e706175736560501b604082015260600190565b6000602082840312156151c357600080fd5b815161157d81614a44565b6000602082840312156151e057600080fd5b5051919050565b634e487b7160e01b600052602160045260246000fd5b60006020828403121561520f57600080fd5b815161157d81614a59565b634e487b7160e01b600052600160045260246000fd5b6000806000806080858703121561524657600080fd5b505082516020840151604085015160609095015191969095509092509050565b634e487b7160e01b600052603160045260246000fd5b80820180821115611051576110516150c9565b8082028115828204841417611051576110516150c9565b6000826152c357634e487b7160e01b600052601260045260246000fd5b500490565b602081526000825180602084015260005b818110156152f657602081860181015160408684010152016152d9565b506000604082850101526040601f19601f8301168401019150509291505056fea264697066735822122065d177e43bf3aa649b602c40b349490c3e482c277efd8943e310dd76c3e695d264736f6c634300081b0033","linkReferences":{}},"methodIdentifiers":{"_become(address)":"1d504dc6","_borrowGuardianPaused()":"e6653f3d","_grantComp(address,uint256)":"27efe3cb","_mintGuardianPaused()":"3c94786f","_setBorrowCapGuardian(address)":"391957d7","_setBorrowPaused(address,bool)":"18c882a5","_setCloseFactor(uint256)":"317b0b77","_setCollateralFactor(address,uint256)":"e4028eee","_setCompSpeeds(address[],uint256[],uint256[])":"a8b43948","_setContributorCompSpeed(address,uint256)":"598ee1cb","_setLiquidationIncentive(uint256)":"4fd42e17","_setMarketBorrowCaps(address[],uint256[])":"607ef6c1","_setMintPaused(address,bool)":"3bcf7ec1","_setPauseGuardian(address)":"5f5af1aa","_setPriceOracle(address)":"55ee1fe1","_setSeizePaused(bool)":"2d70db78","_setTransferPaused(bool)":"8ebf6364","_supportMarket(address)":"a76b3fda","accountAssets(address,uint256)":"dce15449","admin()":"f851a440","allMarkets(uint256)":"52d84d1e","borrowAllowed(address,address,uint256)":"da3d454c","borrowCapGuardian()":"21af4569","borrowCaps(address)":"4a584432","borrowGuardianPaused(address)":"6d154ea5","borrowVerify(address,address,uint256)":"5c778605","checkMembership(address,address)":"929fe9a1","claimComp(address)":"e9af0292","claimComp(address,address[])":"1c3db2e0","claimComp(address[],address[],bool,bool)":"6810dfa6","closeFactorMantissa()":"e8755446","compAccrued(address)":"cc7ebdc4","compBorrowSpeeds(address)":"f4a433c0","compBorrowState(address)":"8c57804e","compBorrowerIndex(address,address)":"ca0af043","compContributorSpeeds(address)":"986ab838","compInitialIndex()":"a7f0e231","compRate()":"aa900754","compReceivable(address)":"85b7beb8","compSpeeds(address)":"1d7b33d7","compSupplierIndex(address,address)":"b21be7fd","compSupplySpeeds(address)":"6aa875b5","compSupplyState(address)":"6b79c38d","comptrollerImplementation()":"bb82aa5e","enterMarkets(address[])":"c2998238","exitMarket(address)":"ede4edd0","fixBadAccruals(address[],uint256[])":"16b95e8f","getAccountLiquidity(address)":"5ec88c79","getAllMarkets()":"b0772d0b","getAssetsIn(address)":"abfceffc","getBlockNumber()":"42cbb15c","getCompAddress()":"9d1b5a0a","getHypotheticalAccountLiquidity(address,address,uint256,uint256)":"4e79238f","isComptroller()":"007e3dd2","isDeprecated(address)":"94543c15","lastContributorBlock(address)":"bea6b8b8","liquidateBorrowAllowed(address,address,address,address,uint256)":"5fc7e71e","liquidateBorrowVerify(address,address,address,address,uint256,uint256)":"47ef3b3b","liquidateCalculateSeizeTokens(address,address,uint256)":"c488847b","liquidationIncentiveMantissa()":"4ada90af","markets(address)":"8e8f294b","maxAssets()":"94b2294b","mintAllowed(address,address,uint256)":"4ef4c3e1","mintGuardianPaused(address)":"731f0c2b","mintVerify(address,address,uint256,uint256)":"41c728b9","oracle()":"7dc0d1d0","pauseGuardian()":"24a3d622","pendingAdmin()":"26782247","pendingComptrollerImplementation()":"dcfbc0c7","proposal65FixExecuted()":"f00a7a92","redeemAllowed(address,address,uint256)":"eabe7d91","redeemVerify(address,address,uint256,uint256)":"51dff989","repayBorrowAllowed(address,address,address,uint256)":"24008a62","repayBorrowVerify(address,address,address,uint256,uint256)":"1ededc91","seizeAllowed(address,address,address,address,uint256)":"d02f7351","seizeGuardianPaused()":"ac0b0bb7","seizeVerify(address,address,address,address,uint256)":"6d35bf91","transferAllowed(address,address,address,uint256)":"bdcdc258","transferGuardianPaused()":"87f76303","transferVerify(address,address,address,uint256)":"6a56947e","updateContributorRewards(address)":"741b2525"},"id":29}