{"abi":[{"type":"constructor","inputs":[{"name":"borrowRate_","type":"uint256","internalType":"uint256"}],"stateMutability":"nonpayable"},{"type":"function","name":"borrowRate","inputs":[],"outputs":[{"name":"","type":"uint256","internalType":"uint256"}],"stateMutability":"view"},{"type":"function","name":"failBorrowRate","inputs":[],"outputs":[{"name":"","type":"bool","internalType":"bool"}],"stateMutability":"view"},{"type":"function","name":"getBorrowRate","inputs":[{"name":"_cash","type":"uint256","internalType":"uint256"},{"name":"_borrows","type":"uint256","internalType":"uint256"},{"name":"_reserves","type":"uint256","internalType":"uint256"}],"outputs":[{"name":"","type":"uint256","internalType":"uint256"}],"stateMutability":"view"},{"type":"function","name":"getSupplyRate","inputs":[{"name":"_cash","type":"uint256","internalType":"uint256"},{"name":"_borrows","type":"uint256","internalType":"uint256"},{"name":"_reserves","type":"uint256","internalType":"uint256"},{"name":"_reserveFactor","type":"uint256","internalType":"uint256"}],"outputs":[{"name":"","type":"uint256","internalType":"uint256"}],"stateMutability":"view"},{"type":"function","name":"isInterestRateModel","inputs":[],"outputs":[{"name":"","type":"bool","internalType":"bool"}],"stateMutability":"view"},{"type":"function","name":"opaqueBorrowFailureCode","inputs":[],"outputs":[{"name":"","type":"uint256","internalType":"uint256"}],"stateMutability":"view"},{"type":"function","name":"setBorrowRate","inputs":[{"name":"borrowRate_","type":"uint256","internalType":"uint256"}],"outputs":[],"stateMutability":"nonpayable"},{"type":"function","name":"setFailBorrowRate","inputs":[{"name":"failBorrowRate_","type":"bool","internalType":"bool"}],"outputs":[],"stateMutability":"nonpayable"}],"bytecode":{"object":"0x6080604052348015600f57600080fd5b5060405161032e38038061032e833981016040819052602c916033565b600155604b565b600060208284031215604457600080fd5b5051919050565b6102d48061005a6000396000f3fe608060405234801561001057600080fd5b50600436106100885760003560e01c8063b81688161161005b578063b8168816146100f6578063c4fd6b2d14610109578063c914b43714610116578063dd3eaf041461011f57600080fd5b806315f240531461008d5780631f64eb4e146100b35780632191f92a146100d65780637ddeded1146100ee575b600080fd5b6100a061009b3660046101b8565b610132565b6040519081526020015b60405180910390f35b6100d46100c13660046101e4565b6000805460ff1916911515919091179055565b005b6100de600181565b60405190151581526020016100aa565b6100a0601481565b6100a061010436600461020d565b610195565b6000546100de9060ff1681565b6100a060015481565b6100d461012d36600461023f565b600155565b6000805460ff161561018a5760405162461bcd60e51b815260206004820152601960248201527f494e5445524553545f524154455f4d4f44454c5f4552524f5200000000000000604482015260640160405180910390fd5b506001549392505050565b60006101a282600161026e565b6001546101af9190610287565b95945050505050565b6000806000606084860312156101cd57600080fd5b505081359360208301359350604090920135919050565b6000602082840312156101f657600080fd5b8135801515811461020657600080fd5b9392505050565b6000806000806080858703121561022357600080fd5b5050823594602084013594506040840135936060013592509050565b60006020828403121561025157600080fd5b5035919050565b634e487b7160e01b600052601160045260246000fd5b8181038181111561028157610281610258565b92915050565b80820281158282048414176102815761028161025856fea2646970667358221220bf8e296263bde309a4d616beee0de16acbd0fcf245f6f1f4e65809907438681364736f6c634300081b0033","linkReferences":{}},"methodIdentifiers":{"borrowRate()":"c914b437","failBorrowRate()":"c4fd6b2d","getBorrowRate(uint256,uint256,uint256)":"15f24053","getSupplyRate(uint256,uint256,uint256,uint256)":"b8168816","isInterestRateModel()":"2191f92a","opaqueBorrowFailureCode()":"7ddeded1","setBorrowRate(uint256)":"dd3eaf04","setFailBorrowRate(bool)":"1f64eb4e"},"id":46}