{"abi":[{"type":"constructor","inputs":[],"stateMutability":"nonpayable"},{"type":"function","name":"_become","inputs":[{"name":"unitroller","type":"address","internalType":"contract Unitroller"}],"outputs":[],"stateMutability":"nonpayable"},{"type":"function","name":"_borrowGuardianPaused","inputs":[],"outputs":[{"name":"","type":"bool","internalType":"bool"}],"stateMutability":"view"},{"type":"function","name":"_grantComp","inputs":[{"name":"recipient","type":"address","internalType":"address"},{"name":"amount","type":"uint256","internalType":"uint256"}],"outputs":[],"stateMutability":"nonpayable"},{"type":"function","name":"_mintGuardianPaused","inputs":[],"outputs":[{"name":"","type":"bool","internalType":"bool"}],"stateMutability":"view"},{"type":"function","name":"_setBorrowCapGuardian","inputs":[{"name":"newBorrowCapGuardian","type":"address","internalType":"address"}],"outputs":[],"stateMutability":"nonpayable"},{"type":"function","name":"_setBorrowPaused","inputs":[{"name":"cToken","type":"address","internalType":"contract CToken"},{"name":"state","type":"bool","internalType":"bool"}],"outputs":[{"name":"","type":"bool","internalType":"bool"}],"stateMutability":"nonpayable"},{"type":"function","name":"_setCloseFactor","inputs":[{"name":"newCloseFactorMantissa","type":"uint256","internalType":"uint256"}],"outputs":[{"name":"","type":"uint256","internalType":"uint256"}],"stateMutability":"nonpayable"},{"type":"function","name":"_setCollateralFactor","inputs":[{"name":"cToken","type":"address","internalType":"contract CToken"},{"name":"newCollateralFactorMantissa","type":"uint256","internalType":"uint256"}],"outputs":[{"name":"","type":"uint256","internalType":"uint256"}],"stateMutability":"nonpayable"},{"type":"function","name":"_setCompSpeed","inputs":[{"name":"cToken","type":"address","internalType":"contract CToken"},{"name":"compSpeed","type":"uint256","internalType":"uint256"}],"outputs":[],"stateMutability":"nonpayable"},{"type":"function","name":"_setContributorCompSpeed","inputs":[{"name":"contributor","type":"address","internalType":"address"},{"name":"compSpeed","type":"uint256","internalType":"uint256"}],"outputs":[],"stateMutability":"nonpayable"},{"type":"function","name":"_setLiquidationIncentive","inputs":[{"name":"newLiquidationIncentiveMantissa","type":"uint256","internalType":"uint256"}],"outputs":[{"name":"","type":"uint256","internalType":"uint256"}],"stateMutability":"nonpayable"},{"type":"function","name":"_setMarketBorrowCaps","inputs":[{"name":"cTokens","type":"address[]","internalType":"contract CToken[]"},{"name":"newBorrowCaps","type":"uint256[]","internalType":"uint256[]"}],"outputs":[],"stateMutability":"nonpayable"},{"type":"function","name":"_setMintPaused","inputs":[{"name":"cToken","type":"address","internalType":"contract CToken"},{"name":"state","type":"bool","internalType":"bool"}],"outputs":[{"name":"","type":"bool","internalType":"bool"}],"stateMutability":"nonpayable"},{"type":"function","name":"_setPauseGuardian","inputs":[{"name":"newPauseGuardian","type":"address","internalType":"address"}],"outputs":[{"name":"","type":"uint256","internalType":"uint256"}],"stateMutability":"nonpayable"},{"type":"function","name":"_setPriceOracle","inputs":[{"name":"newOracle","type":"address","internalType":"contract PriceOracle"}],"outputs":[{"name":"","type":"uint256","internalType":"uint256"}],"stateMutability":"nonpayable"},{"type":"function","name":"_setSeizePaused","inputs":[{"name":"state","type":"bool","internalType":"bool"}],"outputs":[{"name":"","type":"bool","internalType":"bool"}],"stateMutability":"nonpayable"},{"type":"function","name":"_setTransferPaused","inputs":[{"name":"state","type":"bool","internalType":"bool"}],"outputs":[{"name":"","type":"bool","internalType":"bool"}],"stateMutability":"nonpayable"},{"type":"function","name":"_supportMarket","inputs":[{"name":"cToken","type":"address","internalType":"contract CToken"}],"outputs":[{"name":"","type":"uint256","internalType":"uint256"}],"stateMutability":"nonpayable"},{"type":"function","name":"accountAssets","inputs":[{"name":"","type":"address","internalType":"address"},{"name":"","type":"uint256","internalType":"uint256"}],"outputs":[{"name":"","type":"address","internalType":"contract CToken"}],"stateMutability":"view"},{"type":"function","name":"admin","inputs":[],"outputs":[{"name":"","type":"address","internalType":"address"}],"stateMutability":"view"},{"type":"function","name":"allMarkets","inputs":[{"name":"","type":"uint256","internalType":"uint256"}],"outputs":[{"name":"","type":"address","internalType":"contract CToken"}],"stateMutability":"view"},{"type":"function","name":"borrowAllowed","inputs":[{"name":"cToken","type":"address","internalType":"address"},{"name":"borrower","type":"address","internalType":"address"},{"name":"borrowAmount","type":"uint256","internalType":"uint256"}],"outputs":[{"name":"","type":"uint256","internalType":"uint256"}],"stateMutability":"nonpayable"},{"type":"function","name":"borrowCapGuardian","inputs":[],"outputs":[{"name":"","type":"address","internalType":"address"}],"stateMutability":"view"},{"type":"function","name":"borrowCaps","inputs":[{"name":"","type":"address","internalType":"address"}],"outputs":[{"name":"","type":"uint256","internalType":"uint256"}],"stateMutability":"view"},{"type":"function","name":"borrowGuardianPaused","inputs":[{"name":"","type":"address","internalType":"address"}],"outputs":[{"name":"","type":"bool","internalType":"bool"}],"stateMutability":"view"},{"type":"function","name":"borrowVerify","inputs":[{"name":"cToken","type":"address","internalType":"address"},{"name":"borrower","type":"address","internalType":"address"},{"name":"borrowAmount","type":"uint256","internalType":"uint256"}],"outputs":[],"stateMutability":"nonpayable"},{"type":"function","name":"checkMembership","inputs":[{"name":"account","type":"address","internalType":"address"},{"name":"cToken","type":"address","internalType":"contract CToken"}],"outputs":[{"name":"","type":"bool","internalType":"bool"}],"stateMutability":"view"},{"type":"function","name":"claimComp","inputs":[{"name":"holder","type":"address","internalType":"address"},{"name":"cTokens","type":"address[]","internalType":"contract CToken[]"}],"outputs":[],"stateMutability":"nonpayable"},{"type":"function","name":"claimComp","inputs":[{"name":"holders","type":"address[]","internalType":"address[]"},{"name":"cTokens","type":"address[]","internalType":"contract CToken[]"},{"name":"borrowers","type":"bool","internalType":"bool"},{"name":"suppliers","type":"bool","internalType":"bool"}],"outputs":[],"stateMutability":"nonpayable"},{"type":"function","name":"claimComp","inputs":[{"name":"holder","type":"address","internalType":"address"}],"outputs":[],"stateMutability":"nonpayable"},{"type":"function","name":"closeFactorMantissa","inputs":[],"outputs":[{"name":"","type":"uint256","internalType":"uint256"}],"stateMutability":"view"},{"type":"function","name":"compAccrued","inputs":[{"name":"","type":"address","internalType":"address"}],"outputs":[{"name":"","type":"uint256","internalType":"uint256"}],"stateMutability":"view"},{"type":"function","name":"compBorrowState","inputs":[{"name":"","type":"address","internalType":"address"}],"outputs":[{"name":"index","type":"uint224","internalType":"uint224"},{"name":"block","type":"uint32","internalType":"uint32"}],"stateMutability":"view"},{"type":"function","name":"compBorrowerIndex","inputs":[{"name":"","type":"address","internalType":"address"},{"name":"","type":"address","internalType":"address"}],"outputs":[{"name":"","type":"uint256","internalType":"uint256"}],"stateMutability":"view"},{"type":"function","name":"compContributorSpeeds","inputs":[{"name":"","type":"address","internalType":"address"}],"outputs":[{"name":"","type":"uint256","internalType":"uint256"}],"stateMutability":"view"},{"type":"function","name":"compInitialIndex","inputs":[],"outputs":[{"name":"","type":"uint224","internalType":"uint224"}],"stateMutability":"view"},{"type":"function","name":"compRate","inputs":[],"outputs":[{"name":"","type":"uint256","internalType":"uint256"}],"stateMutability":"view"},{"type":"function","name":"compSpeeds","inputs":[{"name":"","type":"address","internalType":"address"}],"outputs":[{"name":"","type":"uint256","internalType":"uint256"}],"stateMutability":"view"},{"type":"function","name":"compSupplierIndex","inputs":[{"name":"","type":"address","internalType":"address"},{"name":"","type":"address","internalType":"address"}],"outputs":[{"name":"","type":"uint256","internalType":"uint256"}],"stateMutability":"view"},{"type":"function","name":"compSupplyState","inputs":[{"name":"","type":"address","internalType":"address"}],"outputs":[{"name":"index","type":"uint224","internalType":"uint224"},{"name":"block","type":"uint32","internalType":"uint32"}],"stateMutability":"view"},{"type":"function","name":"comptrollerImplementation","inputs":[],"outputs":[{"name":"","type":"address","internalType":"address"}],"stateMutability":"view"},{"type":"function","name":"enterMarkets","inputs":[{"name":"cTokens","type":"address[]","internalType":"address[]"}],"outputs":[{"name":"","type":"uint256[]","internalType":"uint256[]"}],"stateMutability":"nonpayable"},{"type":"function","name":"exitMarket","inputs":[{"name":"cTokenAddress","type":"address","internalType":"address"}],"outputs":[{"name":"","type":"uint256","internalType":"uint256"}],"stateMutability":"nonpayable"},{"type":"function","name":"getAccountLiquidity","inputs":[{"name":"account","type":"address","internalType":"address"}],"outputs":[{"name":"","type":"uint256","internalType":"uint256"},{"name":"","type":"uint256","internalType":"uint256"},{"name":"","type":"uint256","internalType":"uint256"}],"stateMutability":"view"},{"type":"function","name":"getAllMarkets","inputs":[],"outputs":[{"name":"","type":"address[]","internalType":"contract CToken[]"}],"stateMutability":"view"},{"type":"function","name":"getAssetsIn","inputs":[{"name":"account","type":"address","internalType":"address"}],"outputs":[{"name":"","type":"address[]","internalType":"contract CToken[]"}],"stateMutability":"view"},{"type":"function","name":"getBlockNumber","inputs":[],"outputs":[{"name":"","type":"uint256","internalType":"uint256"}],"stateMutability":"view"},{"type":"function","name":"getCompAddress","inputs":[],"outputs":[{"name":"","type":"address","internalType":"address"}],"stateMutability":"view"},{"type":"function","name":"getHypotheticalAccountLiquidity","inputs":[{"name":"account","type":"address","internalType":"address"},{"name":"cTokenModify","type":"address","internalType":"address"},{"name":"redeemTokens","type":"uint256","internalType":"uint256"},{"name":"borrowAmount","type":"uint256","internalType":"uint256"}],"outputs":[{"name":"","type":"uint256","internalType":"uint256"},{"name":"","type":"uint256","internalType":"uint256"},{"name":"","type":"uint256","internalType":"uint256"}],"stateMutability":"view"},{"type":"function","name":"isComptroller","inputs":[],"outputs":[{"name":"","type":"bool","internalType":"bool"}],"stateMutability":"view"},{"type":"function","name":"lastContributorBlock","inputs":[{"name":"","type":"address","internalType":"address"}],"outputs":[{"name":"","type":"uint256","internalType":"uint256"}],"stateMutability":"view"},{"type":"function","name":"liquidateBorrowAllowed","inputs":[{"name":"cTokenBorrowed","type":"address","internalType":"address"},{"name":"cTokenCollateral","type":"address","internalType":"address"},{"name":"liquidator","type":"address","internalType":"address"},{"name":"borrower","type":"address","internalType":"address"},{"name":"repayAmount","type":"uint256","internalType":"uint256"}],"outputs":[{"name":"","type":"uint256","internalType":"uint256"}],"stateMutability":"nonpayable"},{"type":"function","name":"liquidateBorrowVerify","inputs":[{"name":"cTokenBorrowed","type":"address","internalType":"address"},{"name":"cTokenCollateral","type":"address","internalType":"address"},{"name":"liquidator","type":"address","internalType":"address"},{"name":"borrower","type":"address","internalType":"address"},{"name":"actualRepayAmount","type":"uint256","internalType":"uint256"},{"name":"seizeTokens","type":"uint256","internalType":"uint256"}],"outputs":[],"stateMutability":"nonpayable"},{"type":"function","name":"liquidateCalculateSeizeTokens","inputs":[{"name":"cTokenBorrowed","type":"address","internalType":"address"},{"name":"cTokenCollateral","type":"address","internalType":"address"},{"name":"actualRepayAmount","type":"uint256","internalType":"uint256"}],"outputs":[{"name":"","type":"uint256","internalType":"uint256"},{"name":"","type":"uint256","internalType":"uint256"}],"stateMutability":"view"},{"type":"function","name":"liquidationIncentiveMantissa","inputs":[],"outputs":[{"name":"","type":"uint256","internalType":"uint256"}],"stateMutability":"view"},{"type":"function","name":"markets","inputs":[{"name":"","type":"address","internalType":"address"}],"outputs":[{"name":"isListed","type":"bool","internalType":"bool"},{"name":"collateralFactorMantissa","type":"uint256","internalType":"uint256"},{"name":"isComped","type":"bool","internalType":"bool"}],"stateMutability":"view"},{"type":"function","name":"maxAssets","inputs":[],"outputs":[{"name":"","type":"uint256","internalType":"uint256"}],"stateMutability":"view"},{"type":"function","name":"mintAllowed","inputs":[{"name":"cToken","type":"address","internalType":"address"},{"name":"minter","type":"address","internalType":"address"},{"name":"mintAmount","type":"uint256","internalType":"uint256"}],"outputs":[{"name":"","type":"uint256","internalType":"uint256"}],"stateMutability":"nonpayable"},{"type":"function","name":"mintGuardianPaused","inputs":[{"name":"","type":"address","internalType":"address"}],"outputs":[{"name":"","type":"bool","internalType":"bool"}],"stateMutability":"view"},{"type":"function","name":"mintVerify","inputs":[{"name":"cToken","type":"address","internalType":"address"},{"name":"minter","type":"address","internalType":"address"},{"name":"actualMintAmount","type":"uint256","internalType":"uint256"},{"name":"mintTokens","type":"uint256","internalType":"uint256"}],"outputs":[],"stateMutability":"nonpayable"},{"type":"function","name":"oracle","inputs":[],"outputs":[{"name":"","type":"address","internalType":"contract PriceOracle"}],"stateMutability":"view"},{"type":"function","name":"pauseGuardian","inputs":[],"outputs":[{"name":"","type":"address","internalType":"address"}],"stateMutability":"view"},{"type":"function","name":"pendingAdmin","inputs":[],"outputs":[{"name":"","type":"address","internalType":"address"}],"stateMutability":"view"},{"type":"function","name":"pendingComptrollerImplementation","inputs":[],"outputs":[{"name":"","type":"address","internalType":"address"}],"stateMutability":"view"},{"type":"function","name":"redeemAllowed","inputs":[{"name":"cToken","type":"address","internalType":"address"},{"name":"redeemer","type":"address","internalType":"address"},{"name":"redeemTokens","type":"uint256","internalType":"uint256"}],"outputs":[{"name":"","type":"uint256","internalType":"uint256"}],"stateMutability":"nonpayable"},{"type":"function","name":"redeemVerify","inputs":[{"name":"cToken","type":"address","internalType":"address"},{"name":"redeemer","type":"address","internalType":"address"},{"name":"redeemAmount","type":"uint256","internalType":"uint256"},{"name":"redeemTokens","type":"uint256","internalType":"uint256"}],"outputs":[],"stateMutability":"nonpayable"},{"type":"function","name":"repayBorrowAllowed","inputs":[{"name":"cToken","type":"address","internalType":"address"},{"name":"payer","type":"address","internalType":"address"},{"name":"borrower","type":"address","internalType":"address"},{"name":"repayAmount","type":"uint256","internalType":"uint256"}],"outputs":[{"name":"","type":"uint256","internalType":"uint256"}],"stateMutability":"nonpayable"},{"type":"function","name":"repayBorrowVerify","inputs":[{"name":"cToken","type":"address","internalType":"address"},{"name":"payer","type":"address","internalType":"address"},{"name":"borrower","type":"address","internalType":"address"},{"name":"actualRepayAmount","type":"uint256","internalType":"uint256"},{"name":"borrowerIndex","type":"uint256","internalType":"uint256"}],"outputs":[],"stateMutability":"nonpayable"},{"type":"function","name":"seizeAllowed","inputs":[{"name":"cTokenCollateral","type":"address","internalType":"address"},{"name":"cTokenBorrowed","type":"address","internalType":"address"},{"name":"liquidator","type":"address","internalType":"address"},{"name":"borrower","type":"address","internalType":"address"},{"name":"seizeTokens","type":"uint256","internalType":"uint256"}],"outputs":[{"name":"","type":"uint256","internalType":"uint256"}],"stateMutability":"nonpayable"},{"type":"function","name":"seizeGuardianPaused","inputs":[],"outputs":[{"name":"","type":"bool","internalType":"bool"}],"stateMutability":"view"},{"type":"function","name":"seizeVerify","inputs":[{"name":"cTokenCollateral","type":"address","internalType":"address"},{"name":"cTokenBorrowed","type":"address","internalType":"address"},{"name":"liquidator","type":"address","internalType":"address"},{"name":"borrower","type":"address","internalType":"address"},{"name":"seizeTokens","type":"uint256","internalType":"uint256"}],"outputs":[],"stateMutability":"nonpayable"},{"type":"function","name":"transferAllowed","inputs":[{"name":"cToken","type":"address","internalType":"address"},{"name":"src","type":"address","internalType":"address"},{"name":"dst","type":"address","internalType":"address"},{"name":"transferTokens","type":"uint256","internalType":"uint256"}],"outputs":[{"name":"","type":"uint256","internalType":"uint256"}],"stateMutability":"nonpayable"},{"type":"function","name":"transferGuardianPaused","inputs":[],"outputs":[{"name":"","type":"bool","internalType":"bool"}],"stateMutability":"view"},{"type":"function","name":"transferVerify","inputs":[{"name":"cToken","type":"address","internalType":"address"},{"name":"src","type":"address","internalType":"address"},{"name":"dst","type":"address","internalType":"address"},{"name":"transferTokens","type":"uint256","internalType":"uint256"}],"outputs":[],"stateMutability":"nonpayable"},{"type":"function","name":"updateContributorRewards","inputs":[{"name":"contributor","type":"address","internalType":"address"}],"outputs":[],"stateMutability":"nonpayable"},{"type":"event","name":"ActionPaused","inputs":[{"name":"action","type":"string","indexed":false,"internalType":"string"},{"name":"pauseState","type":"bool","indexed":false,"internalType":"bool"}],"anonymous":false},{"type":"event","name":"ActionPaused","inputs":[{"name":"cToken","type":"address","indexed":false,"internalType":"contract CToken"},{"name":"action","type":"string","indexed":false,"internalType":"string"},{"name":"pauseState","type":"bool","indexed":false,"internalType":"bool"}],"anonymous":false},{"type":"event","name":"CompGranted","inputs":[{"name":"recipient","type":"address","indexed":false,"internalType":"address"},{"name":"amount","type":"uint256","indexed":false,"internalType":"uint256"}],"anonymous":false},{"type":"event","name":"CompSpeedUpdated","inputs":[{"name":"cToken","type":"address","indexed":true,"internalType":"contract CToken"},{"name":"newSpeed","type":"uint256","indexed":false,"internalType":"uint256"}],"anonymous":false},{"type":"event","name":"ContributorCompSpeedUpdated","inputs":[{"name":"contributor","type":"address","indexed":true,"internalType":"address"},{"name":"newSpeed","type":"uint256","indexed":false,"internalType":"uint256"}],"anonymous":false},{"type":"event","name":"DistributedBorrowerComp","inputs":[{"name":"cToken","type":"address","indexed":true,"internalType":"contract CToken"},{"name":"borrower","type":"address","indexed":true,"internalType":"address"},{"name":"compDelta","type":"uint256","indexed":false,"internalType":"uint256"},{"name":"compBorrowIndex","type":"uint256","indexed":false,"internalType":"uint256"}],"anonymous":false},{"type":"event","name":"DistributedSupplierComp","inputs":[{"name":"cToken","type":"address","indexed":true,"internalType":"contract CToken"},{"name":"supplier","type":"address","indexed":true,"internalType":"address"},{"name":"compDelta","type":"uint256","indexed":false,"internalType":"uint256"},{"name":"compSupplyIndex","type":"uint256","indexed":false,"internalType":"uint256"}],"anonymous":false},{"type":"event","name":"Failure","inputs":[{"name":"error","type":"uint256","indexed":false,"internalType":"uint256"},{"name":"info","type":"uint256","indexed":false,"internalType":"uint256"},{"name":"detail","type":"uint256","indexed":false,"internalType":"uint256"}],"anonymous":false},{"type":"event","name":"MarketEntered","inputs":[{"name":"cToken","type":"address","indexed":false,"internalType":"contract CToken"},{"name":"account","type":"address","indexed":false,"internalType":"address"}],"anonymous":false},{"type":"event","name":"MarketExited","inputs":[{"name":"cToken","type":"address","indexed":false,"internalType":"contract CToken"},{"name":"account","type":"address","indexed":false,"internalType":"address"}],"anonymous":false},{"type":"event","name":"MarketListed","inputs":[{"name":"cToken","type":"address","indexed":false,"internalType":"contract CToken"}],"anonymous":false},{"type":"event","name":"NewBorrowCap","inputs":[{"name":"cToken","type":"address","indexed":true,"internalType":"contract CToken"},{"name":"newBorrowCap","type":"uint256","indexed":false,"internalType":"uint256"}],"anonymous":false},{"type":"event","name":"NewBorrowCapGuardian","inputs":[{"name":"oldBorrowCapGuardian","type":"address","indexed":false,"internalType":"address"},{"name":"newBorrowCapGuardian","type":"address","indexed":false,"internalType":"address"}],"anonymous":false},{"type":"event","name":"NewCloseFactor","inputs":[{"name":"oldCloseFactorMantissa","type":"uint256","indexed":false,"internalType":"uint256"},{"name":"newCloseFactorMantissa","type":"uint256","indexed":false,"internalType":"uint256"}],"anonymous":false},{"type":"event","name":"NewCollateralFactor","inputs":[{"name":"cToken","type":"address","indexed":false,"internalType":"contract CToken"},{"name":"oldCollateralFactorMantissa","type":"uint256","indexed":false,"internalType":"uint256"},{"name":"newCollateralFactorMantissa","type":"uint256","indexed":false,"internalType":"uint256"}],"anonymous":false},{"type":"event","name":"NewLiquidationIncentive","inputs":[{"name":"oldLiquidationIncentiveMantissa","type":"uint256","indexed":false,"internalType":"uint256"},{"name":"newLiquidationIncentiveMantissa","type":"uint256","indexed":false,"internalType":"uint256"}],"anonymous":false},{"type":"event","name":"NewPauseGuardian","inputs":[{"name":"oldPauseGuardian","type":"address","indexed":false,"internalType":"address"},{"name":"newPauseGuardian","type":"address","indexed":false,"internalType":"address"}],"anonymous":false},{"type":"event","name":"NewPriceOracle","inputs":[{"name":"oldPriceOracle","type":"address","indexed":false,"internalType":"contract PriceOracle"},{"name":"newPriceOracle","type":"address","indexed":false,"internalType":"contract PriceOracle"}],"anonymous":false}],"bytecode":{"object":"0x6080604052348015600f57600080fd5b50600080546001600160a01b03191633179055614f63806100316000396000f3fe608060405234801561001057600080fd5b50600436106104485760003560e01c80636d154ea511610241578063b21be7fd1161013b578063da3d454c116100c3578063e875544611610087578063e875544614610b54578063e9af029214610b5d578063eabe7d9114610b70578063ede4edd014610b83578063f851a44014610b9657600080fd5b8063da3d454c14610af4578063dce1544914610b07578063dcfbc0c714610b1a578063e4028eee14610b2d578063e6653f3d14610b4057600080fd5b8063c29982381161010a578063c299823814610a4e578063c488847b14610a6e578063ca0af04314610a96578063cc7ebdc414610ac1578063d02f735114610ae157600080fd5b8063b21be7fd146109dd578063bb82aa5e14610a08578063bdcdc25814610a1b578063bea6b8b814610a2e57600080fd5b8063929fe9a1116101c9578063a7f0e2311161018d578063a7f0e2311461096a578063aa90075414610998578063abfceffc146109a1578063ac0b0bb7146109c1578063b0772d0b146109d557600080fd5b8063929fe9a1146108d357806394b2294b14610914578063986ab8381461091d5780639d1b5a0a1461093d578063a76b3fda1461095757600080fd5b80637dc0d1d0116102105780637dc0d1d01461080e57806387f76303146108215780638c57804e146108355780638e8f294b1461086d5780638ebf6364146108c057600080fd5b80636d154ea5146107a75780636d35bf91146107ca578063731f0c2b146107d8578063741b2525146107fb57600080fd5b8063434caf251161035257806355ee1fe1116102da5780635fc7e71e1161029e5780635fc7e71e14610704578063607ef6c1146107175780636810dfa61461072a5780636a56947e1461073d5780636b79c38d1461074b57600080fd5b806355ee1fe1146106a5578063598ee1cb146106b85780635c778605146106cb5780635ec88c79146106de5780635f5af1aa146106f157600080fd5b80634e79238f116103215780634e79238f1461062b5780634ef4c3e1146106595780634fd42e171461066c57806351dff9891461067f57806352d84d1e1461069257600080fd5b8063434caf25146105d957806347ef3b3b146105ec5780634a584432146106025780634ada90af1461062257600080fd5b806326782247116103d5578063391957d7116103a4578063391957d7146105855780633bcf7ec1146105985780633c94786f146105ab57806341c728b9146105bf57806342cbb15c146105d357600080fd5b8063267822471461053957806327efe3cb1461054c5780632d70db781461055f578063317b0b771461057257600080fd5b80631d7b33d71161041c5780631d7b33d7146104a55780631ededc91146104d357806321af4569146104e857806324008a621461051357806324a3d6221461052657600080fd5b80627e3dd21461044d57806318c882a51461046a5780631c3db2e01461047d5780631d504dc614610492575b600080fd5b610455600181565b60405190151581526020015b60405180910390f35b61045561047836600461468a565b610ba9565b61049061048b3660046147a4565b610ceb565b005b6104906104a03660046147f4565b610d4e565b6104c56104b33660046147f4565b600f6020526000908152604090205481565b604051908152602001610461565b6104906104e1366004614811565b5050505050565b6015546104fb906001600160a01b031681565b6040516001600160a01b039091168152602001610461565b6104c561052136600461486c565b610ecc565b600a546104fb906001600160a01b031681565b6001546104fb906001600160a01b031681565b61049061055a3660046148bd565b610f8a565b61045561056d3660046148e9565b611081565b6104c5610580366004614906565b611171565b6104906105933660046147f4565b611218565b6104556105a636600461468a565b6112e2565b600a5461045590600160a01b900460ff1681565b6104906105cd36600461491f565b50505050565b436104c5565b6104906105e73660046148bd565b61140c565b6104906105fa366004614965565b505050505050565b6104c56106103660046147f4565b60166020526000908152604090205481565b6104c560065481565b61063e61063936600461491f565b61146e565b60408051938452602084019290925290820152606001610461565b6104c56106673660046149d3565b6114ae565b6104c561067a366004614906565b61154f565b61049061068d36600461491f565b6115ac565b6104fb6106a0366004614906565b6115fb565b6104c56106b33660046147f4565b611625565b6104906106c63660046148bd565b61169e565b6104906106d93660046149d3565b505050565b61063e6106ec3660046147f4565b611795565b6104c56106ff3660046147f4565b6117d0565b6104c5610712366004614a14565b611849565b610490610725366004614ac4565b6119a5565b610490610738366004614b35565b611b79565b6104906105cd36600461486c565b6107836107593660046147f4565b6010602052600090815260409020546001600160e01b03811690600160e01b900463ffffffff1682565b604080516001600160e01b03909316835263ffffffff909116602083015201610461565b6104556107b53660046147f4565b600c6020526000908152604090205460ff1681565b6104906104e1366004614a14565b6104556107e63660046147f4565b600b6020526000908152604090205460ff1681565b6104906108093660046147f4565b611e28565b6004546104fb906001600160a01b031681565b600a5461045590600160b01b900460ff1681565b6107836108433660046147f4565b6011602052600090815260409020546001600160e01b03811690600160e01b900463ffffffff1682565b6108a161087b3660046147f4565b60096020526000908152604090208054600182015460039092015460ff91821692911683565b6040805193151584526020840192909252151590820152606001610461565b6104556108ce3660046148e9565b611ed4565b6104556108e1366004614bc3565b6001600160a01b038082166000908152600960209081526040808320938616835260029093019052205460ff1692915050565b6104c560075481565b6104c561092b3660046147f4565b60176020526000908152604090205481565b73c00e94cb662c3520282e6f5717214004a7f268886104fb565b6104c56109653660046147f4565b611fbb565b6109806ec097ce7bc90715b34b9f100000000081565b6040516001600160e01b039091168152602001610461565b6104c5600e5481565b6109b46109af3660046147f4565b6120e4565b6040516104619190614bf1565b600a5461045590600160b81b900460ff1681565b6109b461215a565b6104c56109eb366004614bc3565b601260209081526000928352604080842090915290825290205481565b6002546104fb906001600160a01b031681565b6104c5610a2936600461486c565b6121bc565b6104c5610a3c3660046147f4565b60186020526000908152604090205481565b610a61610a5c366004614c3d565b612247565b6040516104619190614c72565b610a81610a7c3660046149d3565b612305565b60408051928352602083019190915201610461565b6104c5610aa4366004614bc3565b601360209081526000928352604080842090915290825290205481565b6104c5610acf3660046147f4565b60146020526000908152604090205481565b6104c5610aef366004614a14565b612523565b6104c5610b023660046149d3565b6126ca565b6104fb610b153660046148bd565b612a9d565b6003546104fb906001600160a01b031681565b6104c5610b3b3660046148bd565b612ad5565b600a5461045590600160a81b900460ff1681565b6104c560055481565b610490610b6b3660046147f4565b612c67565b6104c5610b7e3660046149d3565b612ccb565b6104c5610b913660046147f4565b612d06565b6000546104fb906001600160a01b031681565b6001600160a01b03821660009081526009602052604081205460ff16610bea5760405162461bcd60e51b8152600401610be190614caa565b60405180910390fd5b600a546001600160a01b0316331480610c0d57506000546001600160a01b031633145b610c295760405162461bcd60e51b8152600401610be190614cf2565b6000546001600160a01b0316331480610c4457506001821515145b610c605760405162461bcd60e51b8152600401610be190614d39565b6001600160a01b0383166000818152600c6020908152604091829020805460ff19168615159081179091558251938452606091840182905260069184019190915265426f72726f7760d01b6080840152908201527f71aec636243f9709bb0007ae15e9afb8150ab01716d75fd7573be5cc096e03b09060a0015b60405180910390a150805b92915050565b604080516001808252818301909252600091602080830190803683370190505090508281600081518110610d2157610d21614d69565b60200260200101906001600160a01b031690816001600160a01b0316815250506106d98183600180611b79565b806001600160a01b031663f851a4406040518163ffffffff1660e01b8152600401602060405180830381865afa158015610d8c573d6000803e3d6000fd5b505050506040513d601f19601f82011682018060405250810190610db09190614d7f565b6001600160a01b0316336001600160a01b031614610e205760405162461bcd60e51b815260206004820152602760248201527f6f6e6c7920756e6974726f6c6c65722061646d696e2063616e206368616e676560448201526620627261696e7360c81b6064820152608401610be1565b806001600160a01b031663c1e803346040518163ffffffff1660e01b81526004016020604051808303816000875af1158015610e60573d6000803e3d6000fd5b505050506040513d601f19601f82011682018060405250810190610e849190614d9c565b15610ec95760405162461bcd60e51b815260206004820152601560248201527418da185b99d9481b9bdd08185d5d1a1bdc9a5e9959605a1b6044820152606401610be1565b50565b6001600160a01b03841660009081526009602052604081205460ff16610ef457506009610f82565b60006040518060200160405280876001600160a01b031663aa5af0fd6040518163ffffffff1660e01b8152600401602060405180830381865afa158015610f3f573d6000803e3d6000fd5b505050506040513d601f19601f82011682018060405250810190610f639190614d9c565b90529050610f718682613061565b610f7c8685836132c1565b60009150505b949350505050565b610f92613427565b610fde5760405162461bcd60e51b815260206004820152601960248201527f6f6e6c792061646d696e2063616e206772616e7420636f6d70000000000000006044820152606401610be1565b6000610fea8383613450565b9050801561103a5760405162461bcd60e51b815260206004820152601b60248201527f696e73756666696369656e7420636f6d7020666f72206772616e7400000000006044820152606401610be1565b604080516001600160a01b0385168152602081018490527f98b2f82a3a07f223a0be64b3d0f47711c64dccd1feafb94aa28156b38cd9695c910160405180910390a1505050565b600a546000906001600160a01b03163314806110a757506000546001600160a01b031633145b6110c35760405162461bcd60e51b8152600401610be190614cf2565b6000546001600160a01b03163314806110de57506001821515145b6110fa5760405162461bcd60e51b8152600401610be190614d39565b600a8054831515600160b81b0260ff60b81b199091161790556040517fef159d9a32b2472e32b098f954f3ce62d232939f1c207070b584df1814de2de0906111659084906040808252600590820152645365697a6560d81b6060820152901515602082015260800190565b60405180910390a15090565b600080546001600160a01b031633146111cc5760405162461bcd60e51b815260206004820152601f60248201527f6f6e6c792061646d696e2063616e2073657420636c6f736520666163746f72006044820152606401610be1565b600580549083905560408051828152602081018590527f3b9670cf975d26958e754b57098eaa2ac914d8d2a31b83257997b9f346110fd991015b60405180910390a160005b9392505050565b6000546001600160a01b031633146112815760405162461bcd60e51b815260206004820152602660248201527f6f6e6c792061646d696e2063616e2073657420626f72726f772063617020677560448201526530b93234b0b760d11b6064820152608401610be1565b601580546001600160a01b038381166001600160a01b031983168117909355604080519190921680825260208201939093527feda98690e518e9a05f8ec6837663e188211b2da8f4906648b323f2c1d4434e29910160405180910390a15050565b6001600160a01b03821660009081526009602052604081205460ff1661131a5760405162461bcd60e51b8152600401610be190614caa565b600a546001600160a01b031633148061133d57506000546001600160a01b031633145b6113595760405162461bcd60e51b8152600401610be190614cf2565b6000546001600160a01b031633148061137457506001821515145b6113905760405162461bcd60e51b8152600401610be190614d39565b6001600160a01b0383166000818152600b6020908152604091829020805460ff19168615159081179091558251938452606091840182905260049184019190915263135a5b9d60e21b6080840152908201527f71aec636243f9709bb0007ae15e9afb8150ab01716d75fd7573be5cc096e03b09060a001610cda565b611414613427565b6114605760405162461bcd60e51b815260206004820152601d60248201527f6f6e6c792061646d696e2063616e2073657420636f6d702073706565640000006044820152606401610be1565b61146a8282613575565b5050565b6000806000806000806114838a8a8a8a6138ac565b92509250925082601181111561149b5761149b614db5565b95509093509150505b9450945094915050565b6001600160a01b0383166000908152600b602052604081205460ff16156115085760405162461bcd60e51b815260206004820152600e60248201526d1b5a5b9d081a5cc81c185d5cd95960921b6044820152606401610be1565b6001600160a01b03841660009081526009602052604090205460ff166115325760095b9050611211565b61153b84613bd2565b6115458484613e28565b6000949350505050565b600080546001600160a01b0316331461156e57610ce56001600b613fcc565b600680549083905560408051828152602081018590527faeba5a6c40a8ac138134bff1aaa65debf25971188a58804bad717f82f0ec13169101611206565b801580156115ba5750600082115b156105cd5760405162461bcd60e51b815260206004820152601160248201527072656465656d546f6b656e73207a65726f60781b6044820152606401610be1565b600d818154811061160b57600080fd5b6000918252602090912001546001600160a01b0316905081565b600080546001600160a01b0316331461164457610ce560016010613fcc565b600480546001600160a01b038481166001600160a01b031983168117909355604080519190921680825260208201939093527fd52b2b9b7e9ee655fcb95d2e5b9e0c9f69e7ef2b8e9d2d0ea78402d576d22e229101611206565b6116a6613427565b6116f25760405162461bcd60e51b815260206004820152601d60248201527f6f6e6c792061646d696e2063616e2073657420636f6d702073706565640000006044820152606401610be1565b6116fb82611e28565b80600003611721576001600160a01b03821660009081526018602052604081205561173c565b436001600160a01b0383166000908152601860205260409020555b6001600160a01b03821660008181526017602052604090819020839055517f386537fa92edc3319af95f1f904dcf1900021e4f3f4e08169a577a09076e66b3906117899084815260200190565b60405180910390a25050565b6000806000806000806117ac8760008060006138ac565b9250925092508260118111156117c4576117c4614db5565b97919650945092505050565b600080546001600160a01b031633146117ef57610ce560016013613fcc565b600a80546001600160a01b038481166001600160a01b031983168117909355604080519190921680825260208201939093527f0613b6ee6a04f0d09f390e4d9318894b9f6ac7fd83897cd8d18896ba579c401e9101611206565b6001600160a01b03851660009081526009602052604081205460ff16158061188a57506001600160a01b03851660009081526009602052604090205460ff16155b156118995760095b905061199c565b6000806118a585614045565b919350909150600090508260118111156118c1576118c1614db5565b146118e1578160118111156118d8576118d8614db5565b9250505061199c565b806000036118f05760036118d8565b6040516395dd919360e01b81526001600160a01b038681166004830152600091908a16906395dd919390602401602060405180830381865afa15801561193a573d6000803e3d6000fd5b505050506040513d601f19601f8201168201806040525081019061195e9190614d9c565b9050600061197c604051806020016040528060055481525083614065565b90508086111561199357601194505050505061199c565b60009450505050505b95945050505050565b6000546001600160a01b03163314806119c857506015546001600160a01b031633145b611a325760405162461bcd60e51b815260206004820152603560248201527f6f6e6c792061646d696e206f7220626f72726f772063617020677561726469616044820152746e2063616e2073657420626f72726f77206361707360581b6064820152608401610be1565b82818115801590611a4257508082145b611a7e5760405162461bcd60e51b815260206004820152600d60248201526c1a5b9d985b1a59081a5b9c1d5d609a1b6044820152606401610be1565b60005b82811015611b7057848482818110611a9b57611a9b614d69565b9050602002013560166000898985818110611ab857611ab8614d69565b9050602002016020810190611acd91906147f4565b6001600160a01b03168152602081019190915260400160002055868682818110611af957611af9614d69565b9050602002016020810190611b0e91906147f4565b6001600160a01b03167f6f1951b2aad10f3fc81b86d91105b413a5b3f847a34bbc5ce1904201b14438f6868684818110611b4a57611b4a614d69565b90506020020135604051611b6091815260200190565b60405180910390a2600101611a81565b50505050505050565b60005b83518110156104e1576000848281518110611b9957611b99614d69565b6020908102919091018101516001600160a01b0381166000908152600990925260409091205490915060ff16611c095760405162461bcd60e51b81526020600482015260156024820152741b585c9ad95d081b5d5cdd081899481b1a5cdd1959605a1b6044820152606401610be1565b831515600103611d665760006040518060200160405280836001600160a01b031663aa5af0fd6040518163ffffffff1660e01b8152600401602060405180830381865afa158015611c5e573d6000803e3d6000fd5b505050506040513d601f19601f82011682018060405250810190611c829190614d9c565b90529050611c908282613061565b60005b8751811015611d6357611cc083898381518110611cb257611cb2614d69565b6020026020010151846132c1565b611d21888281518110611cd557611cd5614d69565b6020026020010151601460008b8581518110611cf357611cf3614d69565b60200260200101516001600160a01b03166001600160a01b0316815260200190815260200160002054613450565b601460008a8481518110611d3757611d37614d69565b6020908102919091018101516001600160a01b0316825281019190915260400160002055600101611c93565b50505b821515600103611e1f57611d7981613bd2565b60005b8651811015611e1d57611da882888381518110611d9b57611d9b614d69565b6020026020010151613e28565b611ddb878281518110611dbd57611dbd614d69565b6020026020010151601460008a8581518110611cf357611cf3614d69565b60146000898481518110611df157611df1614d69565b6020908102919091018101516001600160a01b0316825281019190915260400160002055600101611d7c565b505b50600101611b7c565b6001600160a01b038116600090815260176020908152604080832054601890925282205490914391611e5b90839061407d565b9050600081118015611e6d5750600083115b156105cd576000611e7e8285614089565b6001600160a01b03861660009081526014602052604081205491925090611ea59083614095565b6001600160a01b0387166000908152601460209081526040808320939093556018905220849055505050505050565b600a546000906001600160a01b0316331480611efa57506000546001600160a01b031633145b611f165760405162461bcd60e51b8152600401610be190614cf2565b6000546001600160a01b0316331480611f3157506001821515145b611f4d5760405162461bcd60e51b8152600401610be190614d39565b600a8054831515600160b01b0260ff60b01b199091161790556040517fef159d9a32b2472e32b098f954f3ce62d232939f1c207070b584df1814de2de0906111659084906040808252600890820152672a3930b739b332b960c11b6060820152901515602082015260800190565b600080546001600160a01b03163314611fda57610ce560016012613fcc565b6001600160a01b03821660009081526009602052604090205460ff161561200757610ce5600a6011613fcc565b816001600160a01b031663fe9c44ae6040518163ffffffff1660e01b8152600401602060405180830381865afa158015612045573d6000803e3d6000fd5b505050506040513d601f19601f820116820180604052508101906120699190614dcb565b506001600160a01b03821660009081526009602052604081208054600160ff19918216811783556003830180549092169091558101919091556120ab836140a1565b6040516001600160a01b03841681527fcf583bb0c569eb967f806b11601c4cb93c10310485c67add5f8362c2f212321f90602001611206565b6001600160a01b038116600090815260086020908152604080832080548251818502810185019093528083526060949383018282801561214d57602002820191906000526020600020905b81546001600160a01b0316815260019091019060200180831161212f575b5093979650505050505050565b6060600d8054806020026020016040519081016040528092919081815260200182805480156121b257602002820191906000526020600020905b81546001600160a01b03168152600190910190602001808311612194575b5050505050905090565b600a54600090600160b01b900460ff161561220e5760405162461bcd60e51b81526020600482015260126024820152711d1c985b9cd9995c881a5cc81c185d5cd95960721b6044820152606401610be1565b600061221b86868561417f565b9050801561222a579050610f82565b61223386613bd2565b61223d8686613e28565b610f7c8685613e28565b805160609060008167ffffffffffffffff811115612267576122676146c3565b604051908082528060200260200182016040528015612290578160200160208202803683370190505b50905060005b828110156122fd5760008582815181106122b2576122b2614d69565b602002602001015190506122c68133614237565b60118111156122d7576122d7614db5565b8383815181106122e9576122e9614d69565b602090810291909101015250600101612296565b509392505050565b6004805460405163fc57d4df60e01b81526001600160a01b03868116938201939093526000928392839291169063fc57d4df90602401602060405180830381865afa158015612358573d6000803e3d6000fd5b505050506040513d601f19601f8201168201806040525081019061237c9190614d9c565b6004805460405163fc57d4df60e01b81526001600160a01b038981169382019390935292935060009291169063fc57d4df90602401602060405180830381865afa1580156123ce573d6000803e3d6000fd5b505050506040513d601f19601f820116820180604052508101906123f29190614d9c565b90508115806123ff575080155b1561241357600d600093509350505061251b565b6000866001600160a01b031663182df0f56040518163ffffffff1660e01b8152600401602060405180830381865afa158015612453573d6000803e3d6000fd5b505050506040513d601f19601f820116820180604052508101906124779190614d9c565b905060006124916040518060200160405280600081525090565b6040805160208082018352600080835283518083018552908152835180830185526006548152845192830190945288825291926124cd9161432b565b92506124f560405180602001604052808881525060405180602001604052808881525061432b565b91506125018383614373565b905061250d818b614065565b600099509750505050505050505b935093915050565b600a54600090600160b81b900460ff16156125725760405162461bcd60e51b815260206004820152600f60248201526e1cd95a5e99481a5cc81c185d5cd959608a1b6044820152606401610be1565b6001600160a01b03861660009081526009602052604090205460ff1615806125b357506001600160a01b03851660009081526009602052604090205460ff16155b156125bf576009611892565b846001600160a01b0316635fe3b5676040518163ffffffff1660e01b8152600401602060405180830381865afa1580156125fd573d6000803e3d6000fd5b505050506040513d601f19601f820116820180604052508101906126219190614d7f565b6001600160a01b0316866001600160a01b0316635fe3b5676040518163ffffffff1660e01b8152600401602060405180830381865afa158015612668573d6000803e3d6000fd5b505050506040513d601f19601f8201168201806040525081019061268c9190614d7f565b6001600160a01b0316146126a1576002611892565b6126aa86613bd2565b6126b48684613e28565b6126be8685613e28565b60009695505050505050565b6001600160a01b0383166000908152600c602052604081205460ff16156127265760405162461bcd60e51b815260206004820152601060248201526f189bdc9c9bddc81a5cc81c185d5cd95960821b6044820152606401610be1565b6001600160a01b03841660009081526009602052604090205460ff1661274d57600961152b565b6001600160a01b038085166000908152600960209081526040808320938716835260029093019052205460ff1661284a57336001600160a01b038516146127ce5760405162461bcd60e51b815260206004820152601560248201527439b2b73232b91036bab9ba1031329031aa37b5b2b760591b6044820152606401610be1565b60006127da3385614237565b905060008160118111156127f0576127f0614db5565b1461280f5780601181111561280757612807614db5565b915050611211565b6001600160a01b038086166000908152600960209081526040808320938816835260029093019052205460ff1661284857612848614de8565b505b6004805460405163fc57d4df60e01b81526001600160a01b038781169382019390935291169063fc57d4df90602401602060405180830381865afa158015612896573d6000803e3d6000fd5b505050506040513d601f19601f820116820180604052508101906128ba9190614d9c565b6000036128c857600d61152b565b6001600160a01b03841660009081526016602052604090205480156129ad576000856001600160a01b03166347bd37186040518163ffffffff1660e01b8152600401602060405180830381865afa158015612927573d6000803e3d6000fd5b505050506040513d601f19601f8201168201806040525081019061294b9190614d9c565b905060006129598286614095565b90508281106129aa5760405162461bcd60e51b815260206004820152601960248201527f6d61726b657420626f72726f77206361702072656163686564000000000000006044820152606401610be1565b50505b6000806129bd86886000886138ac565b919350909150600090508260118111156129d9576129d9614db5565b146129fa578160118111156129f0576129f0614db5565b9350505050611211565b8015612a075760046129f0565b60006040518060200160405280896001600160a01b031663aa5af0fd6040518163ffffffff1660e01b8152600401602060405180830381865afa158015612a52573d6000803e3d6000fd5b505050506040513d601f19601f82011682018060405250810190612a769190614d9c565b90529050612a848882613061565b612a8f8888836132c1565b600098975050505050505050565b60086020528160005260406000208181548110612ab957600080fd5b6000918252602090912001546001600160a01b03169150829050565b600080546001600160a01b03163314612afb57612af460016006613fcc565b9050610ce5565b6001600160a01b0383166000908152600960205260409020805460ff16612b3057612b2860096007613fcc565b915050610ce5565b60408051602080820183528582528251908101909252670c7d713b49da0000825290612b5e81835190511090565b15612b7957612b6f60066008613fcc565b9350505050610ce5565b8415801590612bf557506004805460405163fc57d4df60e01b81526001600160a01b038981169382019390935291169063fc57d4df90602401602060405180830381865afa158015612bcf573d6000803e3d6000fd5b505050506040513d601f19601f82011682018060405250810190612bf39190614d9c565b155b15612c0657612b6f600d6009613fcc565b60018301805490869055604080516001600160a01b0389168152602081018390529081018790527f70483e6592cd5182d45ac970e05bc62cdcc90e9d8ef2c2dbe686cf383bcd7fc59060600160405180910390a16000979650505050505050565b610ec981600d805480602002602001604051908101604052809291908181526020018280548015612cc157602002820191906000526020600020905b81546001600160a01b03168152600190910190602001808311612ca3575b5050505050610ceb565b600080612cd985858561417f565b90508015612ce8579050611211565b612cf185613bd2565b612cfb8585613e28565b600095945050505050565b6040516361bfb47160e11b815233600482015260009082908290819081906001600160a01b0385169063c37f68e290602401608060405180830381865afa158015612d55573d6000803e3d6000fd5b505050506040513d601f19601f82011682018060405250810190612d799190614dfe565b5092509250925082600014612dde5760405162461bcd60e51b815260206004820152602560248201527f657869744d61726b65743a206765744163636f756e74536e617073686f742066604482015264185a5b195960da1b6064820152608401610be1565b8015612dfa57612df0600c6002613fcc565b9695505050505050565b6000612e0787338561417f565b90508015612e2757612e1c600e6003836143ad565b979650505050505050565b6001600160a01b0385166000908152600960209081526040808320338452600281019092529091205460ff16612e6557600098975050505050505050565b3360009081526002820160209081526040808320805460ff191690556008825280832080548251818502810185019093528083529192909190830182828015612ed757602002820191906000526020600020905b81546001600160a01b03168152600190910190602001808311612eb9575b5050835193945083925060009150505b82811015612f3157896001600160a01b0316848281518110612f0b57612f0b614d69565b60200260200101516001600160a01b031603612f2957809150612f31565b600101612ee7565b50818110612f4157612f41614de8565b33600090815260086020526040902080548190612f6090600190614e4a565b81548110612f7057612f70614d69565b9060005260206000200160009054906101000a90046001600160a01b0316818381548110612fa057612fa0614d69565b9060005260206000200160006101000a8154816001600160a01b0302191690836001600160a01b0316021790555080805480612fde57612fde614e5d565b600082815260209020810160001990810180546001600160a01b03191690550190556040517fe699a64c18b07ac5b7301aa273f36a2287239eb9501d81950672794afba29a0d90613047908c9033906001600160a01b0392831681529116602082015260400190565b60405180910390a160009c9b505050505050505050505050565b6001600160a01b0382166000908152601160209081526040808320600f90925282205490914383549091506000906130a7908390600160e01b900463ffffffff1661407d565b90506000811180156130b95750600083115b1561326757600061312b876001600160a01b03166347bd37186040518163ffffffff1660e01b8152600401602060405180830381865afa158015613101573d6000803e3d6000fd5b505050506040513d601f19601f820116820180604052508101906131259190614d9c565b87614425565b905060006131398386614089565b905060008083116131595760405180602001604052806000815250613163565b6131638284614443565b604080516020810190915288546001600160e01b0316815290915060009061318b908361447f565b905060405180604001604052806131db83600001516040518060400160405280601a81526020017f6e657720696e64657820657863656564732032323420626974730000000000008152506144ab565b6001600160e01b03168152602001613216886040518060400160405280601c8152602001600080516020614f0e8339815191528152506144da565b63ffffffff9081169091526001600160a01b038c16600090815260116020908152604090912083519390910151909116600160e01b026001600160e01b03909216919091179055506105fa92505050565b80156105fa5761329a826040518060400160405280601c8152602001600080516020614f0e8339815191528152506144da565b845463ffffffff91909116600160e01b026001600160e01b03909116178455505050505050565b6001600160a01b0380841660008181526011602090815260408083208151808401835281546001600160e01b0316815282518085018452958552601384528285209689168086528785529285208054875281519390955295909252909155815190929190156105fa5760006133368383614502565b6040516395dd919360e01b81526001600160a01b03888116600483015291925060009161338791908a16906395dd919390602401602060405180830381865afa158015613101573d6000803e3d6000fd5b90506000613395828461452e565b6001600160a01b038916600090815260146020526040812054919250906133bc9083614095565b6001600160a01b038a81166000818152601460209081526040918290208590558a518251888152918201529394509092918d16917f1fc3ecc087d8d2d15e23d0032af5a47059c3892d003d8e139fdcb6bb327c99a6910160405180910390a350505050505050505050565b600080546001600160a01b031633148061344b57506002546001600160a01b031633145b905090565b60008073c00e94cb662c3520282e6f5717214004a7f268886040516370a0823160e01b81523060048201529091506000906001600160a01b038316906370a0823190602401602060405180830381865afa1580156134b2573d6000803e3d6000fd5b505050506040513d601f19601f820116820180604052508101906134d69190614d9c565b90506000841180156134e85750808411155b1561356c5760405163a9059cbb60e01b81526001600160a01b0386811660048301526024820186905283169063a9059cbb906044016020604051808303816000875af115801561353c573d6000803e3d6000fd5b505050506040513d601f19601f820116820180604052508101906135609190614dcb565b50600092505050610ce5565b50919392505050565b6001600160a01b0382166000908152600f602052604090205480156136205760006040518060200160405280856001600160a01b031663aa5af0fd6040518163ffffffff1660e01b8152600401602060405180830381865afa1580156135df573d6000803e3d6000fd5b505050506040513d601f19601f820116820180604052508101906136039190614d9c565b9052905061361084613bd2565b61361a8482613061565b5061384b565b811561384b576001600160a01b0383166000908152600960205260409020805460ff1615156001146136945760405162461bcd60e51b815260206004820152601960248201527f636f6d70206d61726b6574206973206e6f74206c6973746564000000000000006044820152606401610be1565b6001600160a01b0384166000908152601060205260409020546001600160e01b03161580156136e657506001600160a01b038416600090815260106020526040902054600160e01b900463ffffffff16155b1561378157604080518082019091526ec097ce7bc90715b34b9f1000000000815260208101613739435b6040518060400160405280601c8152602001600080516020614f0e8339815191528152506144da565b63ffffffff9081169091526001600160a01b038616600090815260106020908152604090912083519390910151909116600160e01b026001600160e01b039092169190911790555b6001600160a01b0384166000908152601160205260409020546001600160e01b03161580156137d357506001600160a01b038416600090815260116020526040902054600160e01b900463ffffffff16155b1561384957604080518082019091526ec097ce7bc90715b34b9f100000000081526020810161380143613710565b63ffffffff9081169091526001600160a01b038616600090815260116020908152604090912083519390910151909116600160e01b026001600160e01b039092169190911790555b505b8181146106d9576001600160a01b0383166000818152600f602052604090819020849055517f2ab93f65628379309f36cb125e90d7c902454a545c4f8b8cb0794af75c24b8079061389f9085815260200190565b60405180910390a2505050565b60008060006138b96145c5565b6001600160a01b03881660009081526008602090815260408083208054825181850281018501909352808352849383018282801561392057602002820191906000526020600020905b81546001600160a01b03168152600190910190602001808311613902575b5050505050905060005b8151811015613b7c57600082828151811061394757613947614d69565b60209081029190910101516040516361bfb47160e11b81526001600160a01b038e811660048301529192509082169063c37f68e290602401608060405180830381865afa15801561399c573d6000803e3d6000fd5b505050506040513d601f19601f820116820180604052508101906139c09190614dfe565b608089015260608801526040870152935083156139ec57600f60008097509750975050505050506114a4565b60408051602080820183526001600160a01b0384811660008181526009845285902060010154845260c08a01939093528351808301855260808a0151815260e08a015260048054855163fc57d4df60e01b815291820194909452935192169263fc57d4df92602480830193928290030181865afa158015613a71573d6000803e3d6000fd5b505050506040513d601f19601f82011682018060405250810190613a959190614d9c565b60a08601819052600003613ab857600d60008097509750975050505050506114a4565b604080516020810190915260a0860151815261010086015260c085015160e0860151613af291613ae79161432b565b86610100015161432b565b610120860181905260408601518651613b0c929190614558565b855261010085015160608601516020870151613b29929190614558565b60208601526001600160a01b03808c1690821603613b7357613b558561012001518b8760200151614558565b60208601819052610100860151613b6d918b90614558565b60208601525b5060010161392a565b50602083015183511115613bad5760208301518351600091613b9d91614e4a565b60009550955095505050506114a4565b60008084600001518560200151613bc49190614e4a565b9550955095505050506114a4565b6001600160a01b0381166000908152601060209081526040808320600f9092528220549091438354909150600090613c18908390600160e01b900463ffffffff1661407d565b9050600081118015613c2a5750600083115b15613dcf576000856001600160a01b03166318160ddd6040518163ffffffff1660e01b8152600401602060405180830381865afa158015613c6f573d6000803e3d6000fd5b505050506040513d601f19601f82011682018060405250810190613c939190614d9c565b90506000613ca18386614089565b90506000808311613cc15760405180602001604052806000815250613ccb565b613ccb8284614443565b604080516020810190915288546001600160e01b03168152909150600090613cf3908361447f565b90506040518060400160405280613d4383600001516040518060400160405280601a81526020017f6e657720696e64657820657863656564732032323420626974730000000000008152506144ab565b6001600160e01b03168152602001613d7e886040518060400160405280601c8152602001600080516020614f0e8339815191528152506144da565b63ffffffff9081169091526001600160a01b038b16600090815260106020908152604090912083519390910151909116600160e01b026001600160e01b03909216919091179055506104e192505050565b80156104e157613e02826040518060400160405280601c8152602001600080516020614f0e8339815191528152506144da565b845463ffffffff91909116600160e01b026001600160e01b039091161784555050505050565b6001600160a01b0380831660008181526010602090815260408083208151808401835281546001600160e01b0316815282518085018452958552601284528285209688168086528785529285208054875281519390955295909252909155815190929190158015613e995750815115155b15613eb1576ec097ce7bc90715b34b9f100000000081525b6000613ebd8383614502565b6040516370a0823160e01b81526001600160a01b0387811660048301529192506000918816906370a0823190602401602060405180830381865afa158015613f09573d6000803e3d6000fd5b505050506040513d601f19601f82011682018060405250810190613f2d9190614d9c565b90506000613f3b828461452e565b6001600160a01b03881660009081526014602052604081205491925090613f629083614095565b6001600160a01b038981166000818152601460209081526040918290208590558a518251888152918201529394509092918c16917f2caecd17d02f56fa897705dcc740da2d237c373f70686f4e0d9bd3bf0400ea7a910160405180910390a3505050505050505050565b60007f45b96fe442630264581b197e84bbada861235052c5a1aadfff9ea4e40a969aa083601181111561400157614001614db5565b83601381111561401357614013614db5565b60408051928352602083019190915260009082015260600160405180910390a182601181111561121157611211614db5565b60008060006140588460008060006138ac565b9250925092509193909250565b6000806140728484614579565b9050610f82816145a1565b60006112118284614e4a565b60006112118284614e73565b60006112118284614e8a565b60005b600d5481101561412c57816001600160a01b0316600d82815481106140cb576140cb614d69565b6000918252602090912001546001600160a01b0316036141245760405162461bcd60e51b81526020600482015260146024820152731b585c9ad95d08185b1c9958591e48185919195960621b6044820152606401610be1565b6001016140a4565b50600d80546001810182556000919091527fd7b6990105719101dabeb77144f2a3385c8033acd3af97e9423a695e81ad1eb50180546001600160a01b0319166001600160a01b0392909216919091179055565b6001600160a01b03831660009081526009602052604081205460ff166141a657600961152b565b6001600160a01b038085166000908152600960209081526040808320938716835260029093019052205460ff166141de57600061152b565b6000806141ee85878660006138ac565b9193509091506000905082601181111561420a5761420a614db5565b1461422a5781601181111561422157614221614db5565b92505050611211565b80156126be576004614221565b6001600160a01b0382166000908152600960205260408120805460ff16614262576009915050610ce5565b6001600160a01b038316600090815260028201602052604090205460ff161515600103614293576000915050610ce5565b6001600160a01b03838116600081815260028401602090815260408083208054600160ff199091168117909155600883528184208054918201815584529282902090920180546001600160a01b031916948916948517905581519384528301919091527f3ab23ab0d51cccc0c3085aec51f99228625aa1a922b3a8ca89a26b0f2027a1a5910160405180910390a15060009392505050565b6040805160208101909152600081526040518060200160405280670de0b6b3a764000061436086600001518660000151614089565b61436a9190614e9d565b90529392505050565b604080516020810190915260008152604051806020016040528061436a6143a68660000151670de0b6b3a7640000614089565b85516145b9565b60007f45b96fe442630264581b197e84bbada861235052c5a1aadfff9ea4e40a969aa08460118111156143e2576143e2614db5565b8460138111156143f4576143f4614db5565b604080519283526020830191909152810184905260600160405180910390a1836011811115610f8257610f82614db5565b600061121161443c84670de0b6b3a7640000614089565b83516145b9565b604080516020810190915260008152604051806020016040528061436a614479866ec097ce7bc90715b34b9f1000000000614089565b856145b9565b604080516020810190915260008152604051806020016040528061436a85600001518560000151614095565b600081600160e01b84106144d25760405162461bcd60e51b8152600401610be19190614ebf565b509192915050565b60008164010000000084106144d25760405162461bcd60e51b8152600401610be19190614ebf565b604080516020810190915260008152604051806020016040528061436a8560000151856000015161407d565b60006ec097ce7bc90715b34b9f100000000061454e848460000151614089565b6112119190614e9d565b6000806145658585614579565b905061199c614573826145a1565b84614095565b604080516020810190915260008152604051806020016040528061436a856000015185614089565b8051600090610ce590670de0b6b3a764000090614e9d565b60006112118284614e9d565b6040518061014001604052806000815260200160008152602001600081526020016000815260200160008152602001600081526020016146116040518060200160405280600081525090565b815260200161462c6040518060200160405280600081525090565b81526020016146476040518060200160405280600081525090565b81526020016146626040518060200160405280600081525090565b905290565b6001600160a01b0381168114610ec957600080fd5b8015158114610ec957600080fd5b6000806040838503121561469d57600080fd5b82356146a881614667565b915060208301356146b88161467c565b809150509250929050565b634e487b7160e01b600052604160045260246000fd5b604051601f8201601f1916810167ffffffffffffffff81118282101715614702576147026146c3565b604052919050565b600067ffffffffffffffff821115614724576147246146c3565b5060051b60200190565b600082601f83011261473f57600080fd5b813561475261474d8261470a565b6146d9565b8082825260208201915060208360051b86010192508583111561477457600080fd5b602085015b8381101561479a57803561478c81614667565b835260209283019201614779565b5095945050505050565b600080604083850312156147b757600080fd5b82356147c281614667565b9150602083013567ffffffffffffffff8111156147de57600080fd5b6147ea8582860161472e565b9150509250929050565b60006020828403121561480657600080fd5b813561121181614667565b600080600080600060a0868803121561482957600080fd5b853561483481614667565b9450602086013561484481614667565b9350604086013561485481614667565b94979396509394606081013594506080013592915050565b6000806000806080858703121561488257600080fd5b843561488d81614667565b9350602085013561489d81614667565b925060408501356148ad81614667565b9396929550929360600135925050565b600080604083850312156148d057600080fd5b82356148db81614667565b946020939093013593505050565b6000602082840312156148fb57600080fd5b81356112118161467c565b60006020828403121561491857600080fd5b5035919050565b6000806000806080858703121561493557600080fd5b843561494081614667565b9350602085013561495081614667565b93969395505050506040820135916060013590565b60008060008060008060c0878903121561497e57600080fd5b863561498981614667565b9550602087013561499981614667565b945060408701356149a981614667565b935060608701356149b981614667565b9598949750929560808101359460a0909101359350915050565b6000806000606084860312156149e857600080fd5b83356149f381614667565b92506020840135614a0381614667565b929592945050506040919091013590565b600080600080600060a08688031215614a2c57600080fd5b8535614a3781614667565b94506020860135614a4781614667565b93506040860135614a5781614667565b92506060860135614a6781614667565b949793965091946080013592915050565b60008083601f840112614a8a57600080fd5b50813567ffffffffffffffff811115614aa257600080fd5b6020830191508360208260051b8501011115614abd57600080fd5b9250929050565b60008060008060408587031215614ada57600080fd5b843567ffffffffffffffff811115614af157600080fd5b614afd87828801614a78565b909550935050602085013567ffffffffffffffff811115614b1d57600080fd5b614b2987828801614a78565b95989497509550505050565b60008060008060808587031215614b4b57600080fd5b843567ffffffffffffffff811115614b6257600080fd5b614b6e8782880161472e565b945050602085013567ffffffffffffffff811115614b8b57600080fd5b614b978782880161472e565b9350506040850135614ba88161467c565b91506060850135614bb88161467c565b939692955090935050565b60008060408385031215614bd657600080fd5b8235614be181614667565b915060208301356146b881614667565b602080825282518282018190526000918401906040840190835b81811015614c325783516001600160a01b0316835260209384019390920191600101614c0b565b509095945050505050565b600060208284031215614c4f57600080fd5b813567ffffffffffffffff811115614c6657600080fd5b610f828482850161472e565b602080825282518282018190526000918401906040840190835b81811015614c32578351835260209384019390920191600101614c8c565b60208082526028908201527f63616e6e6f742070617573652061206d61726b65742074686174206973206e6f6040820152671d081b1a5cdd195960c21b606082015260800190565b60208082526027908201527f6f6e6c7920706175736520677561726469616e20616e642061646d696e2063616040820152666e20706175736560c81b606082015260800190565b6020808252601690820152756f6e6c792061646d696e2063616e20756e706175736560501b604082015260600190565b634e487b7160e01b600052603260045260246000fd5b600060208284031215614d9157600080fd5b815161121181614667565b600060208284031215614dae57600080fd5b5051919050565b634e487b7160e01b600052602160045260246000fd5b600060208284031215614ddd57600080fd5b81516112118161467c565b634e487b7160e01b600052600160045260246000fd5b60008060008060808587031215614e1457600080fd5b505082516020840151604085015160609095015191969095509092509050565b634e487b7160e01b600052601160045260246000fd5b81810381811115610ce557610ce5614e34565b634e487b7160e01b600052603160045260246000fd5b8082028115828204841417610ce557610ce5614e34565b80820180821115610ce557610ce5614e34565b600082614eba57634e487b7160e01b600052601260045260246000fd5b500490565b602081526000825180602084015260005b81811015614eed5760208186018101516040868401015201614ed0565b506000604082850101526040601f19601f8301168401019150509291505056fe626c6f636b206e756d6265722065786365656473203332206269747300000000a2646970667358221220ba64b9096ba2cdcba9973b7fe7bf7aa8b27a698bda7de5a890f4f83878ffa35164736f6c634300081b0033","linkReferences":{}},"methodIdentifiers":{"_become(address)":"1d504dc6","_borrowGuardianPaused()":"e6653f3d","_grantComp(address,uint256)":"27efe3cb","_mintGuardianPaused()":"3c94786f","_setBorrowCapGuardian(address)":"391957d7","_setBorrowPaused(address,bool)":"18c882a5","_setCloseFactor(uint256)":"317b0b77","_setCollateralFactor(address,uint256)":"e4028eee","_setCompSpeed(address,uint256)":"434caf25","_setContributorCompSpeed(address,uint256)":"598ee1cb","_setLiquidationIncentive(uint256)":"4fd42e17","_setMarketBorrowCaps(address[],uint256[])":"607ef6c1","_setMintPaused(address,bool)":"3bcf7ec1","_setPauseGuardian(address)":"5f5af1aa","_setPriceOracle(address)":"55ee1fe1","_setSeizePaused(bool)":"2d70db78","_setTransferPaused(bool)":"8ebf6364","_supportMarket(address)":"a76b3fda","accountAssets(address,uint256)":"dce15449","admin()":"f851a440","allMarkets(uint256)":"52d84d1e","borrowAllowed(address,address,uint256)":"da3d454c","borrowCapGuardian()":"21af4569","borrowCaps(address)":"4a584432","borrowGuardianPaused(address)":"6d154ea5","borrowVerify(address,address,uint256)":"5c778605","checkMembership(address,address)":"929fe9a1","claimComp(address)":"e9af0292","claimComp(address,address[])":"1c3db2e0","claimComp(address[],address[],bool,bool)":"6810dfa6","closeFactorMantissa()":"e8755446","compAccrued(address)":"cc7ebdc4","compBorrowState(address)":"8c57804e","compBorrowerIndex(address,address)":"ca0af043","compContributorSpeeds(address)":"986ab838","compInitialIndex()":"a7f0e231","compRate()":"aa900754","compSpeeds(address)":"1d7b33d7","compSupplierIndex(address,address)":"b21be7fd","compSupplyState(address)":"6b79c38d","comptrollerImplementation()":"bb82aa5e","enterMarkets(address[])":"c2998238","exitMarket(address)":"ede4edd0","getAccountLiquidity(address)":"5ec88c79","getAllMarkets()":"b0772d0b","getAssetsIn(address)":"abfceffc","getBlockNumber()":"42cbb15c","getCompAddress()":"9d1b5a0a","getHypotheticalAccountLiquidity(address,address,uint256,uint256)":"4e79238f","isComptroller()":"007e3dd2","lastContributorBlock(address)":"bea6b8b8","liquidateBorrowAllowed(address,address,address,address,uint256)":"5fc7e71e","liquidateBorrowVerify(address,address,address,address,uint256,uint256)":"47ef3b3b","liquidateCalculateSeizeTokens(address,address,uint256)":"c488847b","liquidationIncentiveMantissa()":"4ada90af","markets(address)":"8e8f294b","maxAssets()":"94b2294b","mintAllowed(address,address,uint256)":"4ef4c3e1","mintGuardianPaused(address)":"731f0c2b","mintVerify(address,address,uint256,uint256)":"41c728b9","oracle()":"7dc0d1d0","pauseGuardian()":"24a3d622","pendingAdmin()":"26782247","pendingComptrollerImplementation()":"dcfbc0c7","redeemAllowed(address,address,uint256)":"eabe7d91","redeemVerify(address,address,uint256,uint256)":"51dff989","repayBorrowAllowed(address,address,address,uint256)":"24008a62","repayBorrowVerify(address,address,address,uint256,uint256)":"1ededc91","seizeAllowed(address,address,address,address,uint256)":"d02f7351","seizeGuardianPaused()":"ac0b0bb7","seizeVerify(address,address,address,address,uint256)":"6d35bf91","transferAllowed(address,address,address,uint256)":"bdcdc258","transferGuardianPaused()":"87f76303","transferVerify(address,address,address,uint256)":"6a56947e","updateContributorRewards(address)":"741b2525"},"id":31}