{"abi":[{"type":"constructor","inputs":[{"name":"timelock_","type":"address","internalType":"address"},{"name":"comp_","type":"address","internalType":"address"},{"name":"guardian_","type":"address","internalType":"address"}],"stateMutability":"nonpayable"},{"type":"function","name":"BALLOT_TYPEHASH","inputs":[],"outputs":[{"name":"","type":"bytes32","internalType":"bytes32"}],"stateMutability":"view"},{"type":"function","name":"DOMAIN_TYPEHASH","inputs":[],"outputs":[{"name":"","type":"bytes32","internalType":"bytes32"}],"stateMutability":"view"},{"type":"function","name":"__abdicate","inputs":[],"outputs":[],"stateMutability":"nonpayable"},{"type":"function","name":"__acceptAdmin","inputs":[],"outputs":[],"stateMutability":"nonpayable"},{"type":"function","name":"__executeSetTimelockPendingAdmin","inputs":[{"name":"newPendingAdmin","type":"address","internalType":"address"},{"name":"eta","type":"uint256","internalType":"uint256"}],"outputs":[],"stateMutability":"nonpayable"},{"type":"function","name":"__queueSetTimelockPendingAdmin","inputs":[{"name":"newPendingAdmin","type":"address","internalType":"address"},{"name":"eta","type":"uint256","internalType":"uint256"}],"outputs":[],"stateMutability":"nonpayable"},{"type":"function","name":"cancel","inputs":[{"name":"proposalId","type":"uint256","internalType":"uint256"}],"outputs":[],"stateMutability":"nonpayable"},{"type":"function","name":"castVote","inputs":[{"name":"proposalId","type":"uint256","internalType":"uint256"},{"name":"support","type":"bool","internalType":"bool"}],"outputs":[],"stateMutability":"nonpayable"},{"type":"function","name":"castVoteBySig","inputs":[{"name":"proposalId","type":"uint256","internalType":"uint256"},{"name":"support","type":"bool","internalType":"bool"},{"name":"v","type":"uint8","internalType":"uint8"},{"name":"r","type":"bytes32","internalType":"bytes32"},{"name":"s","type":"bytes32","internalType":"bytes32"}],"outputs":[],"stateMutability":"nonpayable"},{"type":"function","name":"comp","inputs":[],"outputs":[{"name":"","type":"address","internalType":"contract CompInterface"}],"stateMutability":"view"},{"type":"function","name":"execute","inputs":[{"name":"proposalId","type":"uint256","internalType":"uint256"}],"outputs":[],"stateMutability":"payable"},{"type":"function","name":"getActions","inputs":[{"name":"proposalId","type":"uint256","internalType":"uint256"}],"outputs":[{"name":"targets","type":"address[]","internalType":"address[]"},{"name":"values","type":"uint256[]","internalType":"uint256[]"},{"name":"signatures","type":"string[]","internalType":"string[]"},{"name":"calldatas","type":"bytes[]","internalType":"bytes[]"}],"stateMutability":"view"},{"type":"function","name":"getReceipt","inputs":[{"name":"proposalId","type":"uint256","internalType":"uint256"},{"name":"voter","type":"address","internalType":"address"}],"outputs":[{"name":"","type":"tuple","internalType":"struct GovernorAlpha.Receipt","components":[{"name":"hasVoted","type":"bool","internalType":"bool"},{"name":"support","type":"bool","internalType":"bool"},{"name":"votes","type":"uint96","internalType":"uint96"}]}],"stateMutability":"view"},{"type":"function","name":"guardian","inputs":[],"outputs":[{"name":"","type":"address","internalType":"address"}],"stateMutability":"view"},{"type":"function","name":"latestProposalIds","inputs":[{"name":"","type":"address","internalType":"address"}],"outputs":[{"name":"","type":"uint256","internalType":"uint256"}],"stateMutability":"view"},{"type":"function","name":"name","inputs":[],"outputs":[{"name":"","type":"string","internalType":"string"}],"stateMutability":"view"},{"type":"function","name":"proposalCount","inputs":[],"outputs":[{"name":"","type":"uint256","internalType":"uint256"}],"stateMutability":"view"},{"type":"function","name":"proposalMaxOperations","inputs":[],"outputs":[{"name":"","type":"uint256","internalType":"uint256"}],"stateMutability":"pure"},{"type":"function","name":"proposalThreshold","inputs":[],"outputs":[{"name":"","type":"uint256","internalType":"uint256"}],"stateMutability":"pure"},{"type":"function","name":"proposals","inputs":[{"name":"","type":"uint256","internalType":"uint256"}],"outputs":[{"name":"id","type":"uint256","internalType":"uint256"},{"name":"proposer","type":"address","internalType":"address"},{"name":"eta","type":"uint256","internalType":"uint256"},{"name":"startBlock","type":"uint256","internalType":"uint256"},{"name":"endBlock","type":"uint256","internalType":"uint256"},{"name":"forVotes","type":"uint256","internalType":"uint256"},{"name":"againstVotes","type":"uint256","internalType":"uint256"},{"name":"canceled","type":"bool","internalType":"bool"},{"name":"executed","type":"bool","internalType":"bool"}],"stateMutability":"view"},{"type":"function","name":"propose","inputs":[{"name":"targets","type":"address[]","internalType":"address[]"},{"name":"values","type":"uint256[]","internalType":"uint256[]"},{"name":"signatures","type":"string[]","internalType":"string[]"},{"name":"calldatas","type":"bytes[]","internalType":"bytes[]"},{"name":"description","type":"string","internalType":"string"}],"outputs":[{"name":"","type":"uint256","internalType":"uint256"}],"stateMutability":"nonpayable"},{"type":"function","name":"queue","inputs":[{"name":"proposalId","type":"uint256","internalType":"uint256"}],"outputs":[],"stateMutability":"nonpayable"},{"type":"function","name":"quorumVotes","inputs":[],"outputs":[{"name":"","type":"uint256","internalType":"uint256"}],"stateMutability":"pure"},{"type":"function","name":"state","inputs":[{"name":"proposalId","type":"uint256","internalType":"uint256"}],"outputs":[{"name":"","type":"uint8","internalType":"enum GovernorAlpha.ProposalState"}],"stateMutability":"view"},{"type":"function","name":"timelock","inputs":[],"outputs":[{"name":"","type":"address","internalType":"contract TimelockInterface"}],"stateMutability":"view"},{"type":"function","name":"votingDelay","inputs":[],"outputs":[{"name":"","type":"uint256","internalType":"uint256"}],"stateMutability":"pure"},{"type":"function","name":"votingPeriod","inputs":[],"outputs":[{"name":"","type":"uint256","internalType":"uint256"}],"stateMutability":"pure"},{"type":"event","name":"ProposalCanceled","inputs":[{"name":"id","type":"uint256","indexed":false,"internalType":"uint256"}],"anonymous":false},{"type":"event","name":"ProposalCreated","inputs":[{"name":"id","type":"uint256","indexed":false,"internalType":"uint256"},{"name":"proposer","type":"address","indexed":false,"internalType":"address"},{"name":"targets","type":"address[]","indexed":false,"internalType":"address[]"},{"name":"values","type":"uint256[]","indexed":false,"internalType":"uint256[]"},{"name":"signatures","type":"string[]","indexed":false,"internalType":"string[]"},{"name":"calldatas","type":"bytes[]","indexed":false,"internalType":"bytes[]"},{"name":"startBlock","type":"uint256","indexed":false,"internalType":"uint256"},{"name":"endBlock","type":"uint256","indexed":false,"internalType":"uint256"},{"name":"description","type":"string","indexed":false,"internalType":"string"}],"anonymous":false},{"type":"event","name":"ProposalExecuted","inputs":[{"name":"id","type":"uint256","indexed":false,"internalType":"uint256"}],"anonymous":false},{"type":"event","name":"ProposalQueued","inputs":[{"name":"id","type":"uint256","indexed":false,"internalType":"uint256"},{"name":"eta","type":"uint256","indexed":false,"internalType":"uint256"}],"anonymous":false},{"type":"event","name":"VoteCast","inputs":[{"name":"voter","type":"address","indexed":false,"internalType":"address"},{"name":"proposalId","type":"uint256","indexed":false,"internalType":"uint256"},{"name":"support","type":"bool","indexed":false,"internalType":"bool"},{"name":"votes","type":"uint256","indexed":false,"internalType":"uint256"}],"anonymous":false}],"bytecode":{"object":"0x6080604052348015600f57600080fd5b5060405161323a38038061323a833981016040819052602c916088565b600080546001600160a01b039485166001600160a01b03199182161790915560018054938516938216939093179092556002805491909316911617905560c4565b80516001600160a01b0381168114608357600080fd5b919050565b600080600060608486031215609c57600080fd5b60a384606d565b925060af60208501606d565b915060bb60408501606d565b90509250925092565b613167806100d36000396000f3fe60806040526004361061019c5760003560e01c8063452a9320116100ec578063d33219b41161008a578063ddf0b00911610064578063ddf0b00914610573578063deaaa7cc14610593578063e23a9a52146105c7578063fe0d94c11461061657600080fd5b8063d33219b41461051d578063da35c6641461053d578063da95691a1461055357600080fd5b80637bdbe4d0116100c65780637bdbe4d0146104b757806391500671146104cb578063b58131b0146104eb578063b9a619611461050857600080fd5b8063452a9320146104625780634634c61f14610482578063760fbc13146104a257600080fd5b806320606b7011610159578063328dd98211610133578063328dd982146103d15780633932abb1146104015780633e4f49e61461041557806340e58ee51461044257600080fd5b806320606b701461036057806321f43e421461039457806324bc1a64146103b457600080fd5b8063013cf08b146101a157806302a251a31461026a57806306fdde0314610289578063109d0af8146102d957806315373e3d1461031157806317977c6114610333575b600080fd5b3480156101ad57600080fd5b506102156101bc3660046125e0565b6004602052600090815260409020805460018201546002830154600784015460088501546009860154600a870154600b9097015495966001600160a01b0390951695939492939192909160ff8082169161010090041689565b60408051998a526001600160a01b0390981660208a0152968801959095526060870193909352608086019190915260a085015260c0840152151560e08301521515610100820152610120015b60405180910390f35b34801561027657600080fd5b506143805b604051908152602001610261565b34801561029557600080fd5b506102cc60405180604001604052806017815260200176436f6d706f756e6420476f7665726e6f7220416c70686160481b81525081565b6040516102619190612649565b3480156102e557600080fd5b506001546102f9906001600160a01b031681565b6040516001600160a01b039091168152602001610261565b34801561031d57600080fd5b5061033161032c36600461266a565b610629565b005b34801561033f57600080fd5b5061027b61034e3660046126b6565b60056020526000908152604090205481565b34801561036c57600080fd5b5061027b7f8cad95687ba82c2ce50e74f7b754645e5117c3a5bec8151c0726d5857980a86681565b3480156103a057600080fd5b506103316103af3660046126d1565b610638565b3480156103c057600080fd5b506954b40b1f852bda00000061027b565b3480156103dd57600080fd5b506103f16103ec3660046125e0565b610772565b60405161026194939291906127ce565b34801561040d57600080fd5b50600161027b565b34801561042157600080fd5b506104356104303660046125e0565b610a03565b604051610261919061283c565b34801561044e57600080fd5b5061033161045d3660046125e0565b610bc3565b34801561046e57600080fd5b506002546102f9906001600160a01b031681565b34801561048e57600080fd5b5061033161049d366004612864565b610edf565b3480156104ae57600080fd5b506103316110f7565b3480156104c357600080fd5b50600a61027b565b3480156104d757600080fd5b506103316104e63660046126d1565b611182565b3480156104f757600080fd5b5069152d02c7e14af680000061027b565b34801561051457600080fd5b506103316112ac565b34801561052957600080fd5b506000546102f9906001600160a01b031681565b34801561054957600080fd5b5061027b60035481565b34801561055f57600080fd5b5061027b61056e366004612b94565b611387565b34801561057f57600080fd5b5061033161058e3660046125e0565b6119a2565b34801561059f57600080fd5b5061027b7f8e25870c07e0b0b3884c78da52790939a455c275406c44ae8b434b692fb916ee81565b3480156105d357600080fd5b506105e76105e2366004612c80565b611c97565b60408051825115158152602080840151151590820152918101516001600160601b031690820152606001610261565b6103316106243660046125e0565b611d11565b610634338383611f4b565b5050565b6002546001600160a01b031633146106d25760405162461bcd60e51b815260206004820152604c60248201527f476f7665726e6f72416c7068613a3a5f5f6578656375746553657454696d656c60448201527f6f636b50656e64696e6741646d696e3a2073656e646572206d7573742062652060648201526b33b7bb1033bab0b93234b0b760a11b608482015260a4015b60405180910390fd5b60008054604080516001600160a01b03868116602083015290921692630825f38f92849201604051602081830303815290604052856040518563ffffffff1660e01b81526004016107269493929190612cac565b6000604051808303816000875af1158015610745573d6000803e3d6000fd5b505050506040513d6000823e601f3d908101601f1916820160405261076d9190810190612d18565b505050565b606080606080600060046000878152602001908152602001600020905080600301816004018260050183600601838054806020026020016040519081016040528092919081815260200182805480156107f457602002820191906000526020600020905b81546001600160a01b031681526001909101906020018083116107d6575b505050505093508280548060200260200160405190810160405280929190818152602001828054801561084657602002820191906000526020600020905b815481526020019060010190808311610832575b5050505050925081805480602002602001604051908101604052809291908181526020016000905b8282101561091a57838290600052602060002001805461088d90612d8f565b80601f01602080910402602001604051908101604052809291908181526020018280546108b990612d8f565b80156109065780601f106108db57610100808354040283529160200191610906565b820191906000526020600020905b8154815290600101906020018083116108e957829003601f168201915b50505050508152602001906001019061086e565b50505050915080805480602002602001604051908101604052809291908181526020016000905b828210156109ed57838290600052602060002001805461096090612d8f565b80601f016020809104026020016040519081016040528092919081815260200182805461098c90612d8f565b80156109d95780601f106109ae576101008083540402835291602001916109d9565b820191906000526020600020905b8154815290600101906020018083116109bc57829003601f168201915b505050505081526020019060010190610941565b5050505090509450945094509450509193509193565b60008160035410158015610a175750600082115b610a755760405162461bcd60e51b815260206004820152602960248201527f476f7665726e6f72416c7068613a3a73746174653a20696e76616c69642070726044820152681bdc1bdcd85b081a5960ba1b60648201526084016106c9565b6000828152600460205260409020600b81015460ff1615610a995750600292915050565b80600701544311610aad5750600092915050565b80600801544311610ac15750600192915050565b80600a01548160090154111580610ae557506954b40b1f852bda0000008160090154105b15610af35750600392915050565b8060020154600003610b085750600492915050565b600b810154610100900460ff1615610b235750600792915050565b610ba5816002015460008054906101000a90046001600160a01b03166001600160a01b031663c1a287e26040518163ffffffff1660e01b8152600401602060405180830381865afa158015610b7c573d6000803e3d6000fd5b505050506040513d601f19601f82011682018060405250810190610ba09190612dc3565b6121bb565b4210610bb45750600692915050565b50600592915050565b50919050565b6000610bce82610a03565b90506007816007811115610be457610be4612826565b03610c505760405162461bcd60e51b815260206004820152603660248201527f476f7665726e6f72416c7068613a3a63616e63656c3a2063616e6e6f742063616044820152751b98d95b08195e1958dd5d1959081c1c9bdc1bdcd85b60521b60648201526084016106c9565b60008281526004602052604090206002546001600160a01b0316331480610d1d5750600180548282015469152d02c7e14af6800000926001600160a01b039283169263782d6fe1921690610ca5904390612215565b6040516001600160e01b031960e085901b1681526001600160a01b0390921660048301526024820152604401602060405180830381865afa158015610cee573d6000803e3d6000fd5b505050506040513d601f19601f82011682018060405250810190610d129190612ddc565b6001600160601b0316105b610d815760405162461bcd60e51b815260206004820152602f60248201527f476f7665726e6f72416c7068613a3a63616e63656c3a2070726f706f7365722060448201526e18589bdd99481d1a1c995cda1bdb19608a1b60648201526084016106c9565b600b8101805460ff1916600117905560005b6003820154811015610ea5576000546003830180546001600160a01b039092169163591fcdfe919084908110610dcb57610dcb612e05565b6000918252602090912001546004850180546001600160a01b039092169185908110610df957610df9612e05565b9060005260206000200154856005018581548110610e1957610e19612e05565b90600052602060002001866006018681548110610e3857610e38612e05565b9060005260206000200187600201546040518663ffffffff1660e01b8152600401610e67959493929190612e9e565b600060405180830381600087803b158015610e8157600080fd5b505af1158015610e95573d6000803e3d6000fd5b505060019092019150610d939050565b506040518381527f789cf55be980739dad1d0699b93b58e806b51c9d96619bfa8fe0a28abaa7b30c906020015b60405180910390a1505050565b6040805180820182526017815276436f6d706f756e6420476f7665726e6f7220416c70686160481b60209182015281517f8cad95687ba82c2ce50e74f7b754645e5117c3a5bec8151c0726d5857980a866818301527ff5eb22c2e7100465020c98b00537528808db4fec6eb24c550685a92742247bc581840152466060820152306080808301919091528351808303909101815260a0820184528051908301207f8e25870c07e0b0b3884c78da52790939a455c275406c44ae8b434b692fb916ee60c083015260e08201899052871515610100808401919091528451808403909101815261012083019094528351939092019290922061190160f01b6101408401526101428301829052610162830181905290916000906101820160408051601f198184030181528282528051602091820120600080855291840180845281905260ff8a169284019290925260608301889052608083018790529092509060019060a0016020604051602081039080840390855afa158015611065573d6000803e3d6000fd5b5050604051601f1901519150506001600160a01b0381166110e05760405162461bcd60e51b815260206004820152602f60248201527f476f7665726e6f72416c7068613a3a63617374566f746542795369673a20696e60448201526e76616c6964207369676e617475726560881b60648201526084016106c9565b6110eb818a8a611f4b565b505050505b5050505050565b6002546001600160a01b031633146111705760405162461bcd60e51b815260206004820152603660248201527f476f7665726e6f72416c7068613a3a5f5f61626469636174653a2073656e6465604482015275391036bab9ba1031329033b7bb1033bab0b93234b0b760511b60648201526084016106c9565b600280546001600160a01b0319169055565b6002546001600160a01b031633146112155760405162461bcd60e51b815260206004820152604a60248201527f476f7665726e6f72416c7068613a3a5f5f717565756553657454696d656c6f6360448201527f6b50656e64696e6741646d696e3a2073656e646572206d75737420626520676f6064820152693b1033bab0b93234b0b760b11b608482015260a4016106c9565b60008054604080516001600160a01b03868116602083015290921692633a66f90192849201604051602081830303815290604052856040518563ffffffff1660e01b81526004016112699493929190612cac565b6020604051808303816000875af1158015611288573d6000803e3d6000fd5b505050506040513d601f19601f8201168201806040525081019061076d9190612dc3565b6002546001600160a01b0316331461132c5760405162461bcd60e51b815260206004820152603960248201527f476f7665726e6f72416c7068613a3a5f5f61636365707441646d696e3a20736560448201527f6e646572206d75737420626520676f7620677561726469616e0000000000000060648201526084016106c9565b6000805460408051630e18b68160e01b815290516001600160a01b0390921692630e18b6819260048084019382900301818387803b15801561136d57600080fd5b505af1158015611381573d6000803e3d6000fd5b50505050565b600069152d02c7e14af6800000600180546001600160a01b03169063782d6fe19033906113b5904390612215565b6040516001600160e01b031960e085901b1681526001600160a01b0390921660048301526024820152604401602060405180830381865afa1580156113fe573d6000803e3d6000fd5b505050506040513d601f19601f820116820180604052508101906114229190612ddc565b6001600160601b03161161149e5760405162461bcd60e51b815260206004820152603f60248201527f476f7665726e6f72416c7068613a3a70726f706f73653a2070726f706f73657260448201527f20766f7465732062656c6f772070726f706f73616c207468726573686f6c640060648201526084016106c9565b845186511480156114b0575083518651145b80156114bd575082518651145b61153d5760405162461bcd60e51b8152602060048201526044602482018190527f476f7665726e6f72416c7068613a3a70726f706f73653a2070726f706f73616c908201527f2066756e6374696f6e20696e666f726d6174696f6e206172697479206d69736d6064820152630c2e8c6d60e31b608482015260a4016106c9565b85516000036115a35760405162461bcd60e51b815260206004820152602c60248201527f476f7665726e6f72416c7068613a3a70726f706f73653a206d7573742070726f60448201526b7669646520616374696f6e7360a01b60648201526084016106c9565b600a865111156116065760405162461bcd60e51b815260206004820152602860248201527f476f7665726e6f72416c7068613a3a70726f706f73653a20746f6f206d616e7960448201526720616374696f6e7360c01b60648201526084016106c9565b33600090815260056020526040902054801561178557600061162782610a03565b9050600181600781111561163d5761163d612826565b036116d65760405162461bcd60e51b815260206004820152605860248201527f476f7665726e6f72416c7068613a3a70726f706f73653a206f6e65206c69766560448201527f2070726f706f73616c207065722070726f706f7365722c20666f756e6420616e60648201527f20616c7265616479206163746976652070726f706f73616c0000000000000000608482015260a4016106c9565b60008160078111156116ea576116ea612826565b036117835760405162461bcd60e51b815260206004820152605960248201527f476f7665726e6f72416c7068613a3a70726f706f73653a206f6e65206c69766560448201527f2070726f706f73616c207065722070726f706f7365722c20666f756e6420616e60648201527f20616c72656164792070656e64696e672070726f706f73616c00000000000000608482015260a4016106c9565b505b60006117924360016121bb565b905060006117a2826143806121bb565b6003805491925060006117b483612f00565b9091555050600354600081815260046020526040902080541561182d5760405162461bcd60e51b815260206004820152602b60248201527f476f7665726e6f72416c7068613a3a70726f706f73653a2050726f706f73616c60448201526a24a21031b7b63639b4b7b760a91b60648201526084016106c9565b8181556001810180546001600160a01b03191633179055600060028201558a5161186090600383019060208e0190612410565b50895161187690600483019060208d0190612475565b50885161188c90600583019060208c01906124b0565b5087516118a290600683019060208b0190612502565b5083816007018190555082816008018190555060008160090181905550600081600a0181905550600081600b0160006101000a81548160ff021916908315150217905550600081600b0160016101000a81548160ff0219169083151502179055508060000154600560008360010160009054906101000a90046001600160a01b03166001600160a01b03166001600160a01b03168152602001908152602001600020819055507f7d84a6263ae0d98d3329bd7b46bb4e8d6f98cd35a7adb45c274c8b7fd5ebd5e08160000154338d8d8d8d8a8a8f60405161198b99989796959493929190612f19565b60405180910390a1549a9950505050505050505050565b60046119ad82610a03565b60078111156119be576119be612826565b14611a3f5760405162461bcd60e51b8152602060048201526044602482018190527f476f7665726e6f72416c7068613a3a71756575653a2070726f706f73616c2063908201527f616e206f6e6c79206265207175657565642069662069742069732073756363656064820152631959195960e21b608482015260a4016106c9565b600081815260046020818152604080842084548251630d48571f60e31b81529251919594611a999442946001600160a01b0390931693636a42b8f89380840193908290030181865afa158015610b7c573d6000803e3d6000fd5b905060005b6003830154811015611c5957611c51836003018281548110611ac257611ac2612e05565b6000918252602090912001546004850180546001600160a01b039092169184908110611af057611af0612e05565b9060005260206000200154856005018481548110611b1057611b10612e05565b906000526020600020018054611b2590612d8f565b80601f0160208091040260200160405190810160405280929190818152602001828054611b5190612d8f565b8015611b9e5780601f10611b7357610100808354040283529160200191611b9e565b820191906000526020600020905b815481529060010190602001808311611b8157829003601f168201915b5050505050866006018581548110611bb857611bb8612e05565b906000526020600020018054611bcd90612d8f565b80601f0160208091040260200160405190810160405280929190818152602001828054611bf990612d8f565b8015611c465780601f10611c1b57610100808354040283529160200191611c46565b820191906000526020600020905b815481529060010190602001808311611c2957829003601f168201915b505050505086612269565b600101611a9e565b506002820181905560408051848152602081018390527f9a2e42fd6722813d69113e7d0079d3d940171428df7373df9c7f7617cfda28929101610ed2565b604080516060808201835260008083526020808401829052928401819052858152600483528381206001600160a01b0386168252600c018352839020835191820184525460ff80821615158352610100820416151592820192909252620100009091046001600160601b0316918101919091525b92915050565b6005611d1c82610a03565b6007811115611d2d57611d2d612826565b14611dae5760405162461bcd60e51b815260206004820152604560248201527f476f7665726e6f72416c7068613a3a657865637574653a2070726f706f73616c60448201527f2063616e206f6e6c7920626520657865637574656420696620697420697320716064820152641d595d595960da1b608482015260a4016106c9565b6000818152600460205260408120600b8101805461ff001916610100179055905b6003820154811015611f13576000546004830180546001600160a01b0390921691630825f38f919084908110611e0757611e07612e05565b9060005260206000200154846003018481548110611e2757611e27612e05565b6000918252602090912001546004860180546001600160a01b039092169186908110611e5557611e55612e05565b9060005260206000200154866005018681548110611e7557611e75612e05565b90600052602060002001876006018781548110611e9457611e94612e05565b9060005260206000200188600201546040518763ffffffff1660e01b8152600401611ec3959493929190612e9e565b60006040518083038185885af1158015611ee1573d6000803e3d6000fd5b50505050506040513d6000823e601f3d908101601f19168201604052611f0a9190810190612d18565b50600101611dcf565b506040518281527f712ae1383f79ac853f8d882153778e0260ef8f03b504e2866e0593e04d2b291f9060200160405180910390a15050565b6001611f5683610a03565b6007811115611f6757611f67612826565b14611fc75760405162461bcd60e51b815260206004820152602a60248201527f476f7665726e6f72416c7068613a3a5f63617374566f74653a20766f74696e67604482015269081a5cc818db1bdcd95960b21b60648201526084016106c9565b60008281526004602090815260408083206001600160a01b0387168452600c8101909252909120805460ff16156120565760405162461bcd60e51b815260206004820152602d60248201527f476f7665726e6f72416c7068613a3a5f63617374566f74653a20766f7465722060448201526c185b1c9958591e481d9bdd1959609a1b60648201526084016106c9565b600154600783015460405163782d6fe160e01b81526000926001600160a01b03169163782d6fe1916120a0918a916004016001600160a01b03929092168252602082015260400190565b602060405180830381865afa1580156120bd573d6000803e3d6000fd5b505050506040513d601f19601f820116820180604052508101906120e19190612ddc565b9050831561210a576121008360090154826001600160601b03166121bb565b6009840155612127565b61212183600a0154826001600160601b03166121bb565b600a8401555b81546001600160601b0382166201000081026dffffffffffffffffffffffff000019871515610100810261ffff199095169490941760011716178455604080516001600160a01b038a168152602081018990529081019290925260608201527f877856338e13f63d0c36822ff0ef736b80934cd90574a3a5bc9262c39d217c469060800160405180910390a1505050505050565b6000806121c88385612faf565b90508381101561220e5760405162461bcd60e51b81526020600482015260116024820152706164646974696f6e206f766572666c6f7760781b60448201526064016106c9565b9392505050565b60008282111561225f5760405162461bcd60e51b81526020600482015260156024820152747375627472616374696f6e20756e646572666c6f7760581b60448201526064016106c9565b61220e8284612fc2565b6000546040516001600160a01b039091169063f2b06537906122979088908890889088908890602001612fd5565b604051602081830303815290604052805190602001206040518263ffffffff1660e01b81526004016122cb91815260200190565b602060405180830381865afa1580156122e8573d6000803e3d6000fd5b505050506040513d601f19601f8201168201806040525081019061230c919061300e565b1561238d5760405162461bcd60e51b8152602060048201526044602482018190527f476f7665726e6f72416c7068613a3a5f71756575654f725265766572743a2070908201527f726f706f73616c20616374696f6e20616c7265616479207175657565642061746064820152632065746160e01b608482015260a4016106c9565b600054604051633a66f90160e01b81526001600160a01b0390911690633a66f901906123c59088908890889088908890600401612fd5565b6020604051808303816000875af11580156123e4573d6000803e3d6000fd5b505050506040513d601f19601f820116820180604052508101906124089190612dc3565b505050505050565b828054828255906000526020600020908101928215612465579160200282015b8281111561246557825182546001600160a01b0319166001600160a01b03909116178255602090920191600190910190612430565b50612471929150612554565b5090565b828054828255906000526020600020908101928215612465579160200282015b82811115612465578251825591602001919060010190612495565b8280548282559060005260206000209081019282156124f6579160200282015b828111156124f657825182906124e69082613072565b50916020019190600101906124d0565b50612471929150612569565b828054828255906000526020600020908101928215612548579160200282015b8281111561254857825182906125389082613072565b5091602001919060010190612522565b50612471929150612586565b5b808211156124715760008155600101612555565b8082111561247157600061257d82826125a3565b50600101612569565b8082111561247157600061259a82826125a3565b50600101612586565b5080546125af90612d8f565b6000825580601f106125bf575050565b601f0160209004906000526020600020908101906125dd9190612554565b50565b6000602082840312156125f257600080fd5b5035919050565b60005b838110156126145781810151838201526020016125fc565b50506000910152565b600081518084526126358160208601602086016125f9565b601f01601f19169290920160200192915050565b60208152600061220e602083018461261d565b80151581146125dd57600080fd5b6000806040838503121561267d57600080fd5b82359150602083013561268f8161265c565b809150509250929050565b80356001600160a01b03811681146126b157600080fd5b919050565b6000602082840312156126c857600080fd5b61220e8261269a565b600080604083850312156126e457600080fd5b6126ed8361269a565b946020939093013593505050565b600081518084526020840193506020830160005b828110156127365781516001600160a01b031686526020958601959091019060010161270f565b5093949350505050565b600081518084526020840193506020830160005b82811015612736578151865260209586019590910190600101612754565b600082825180855260208501945060208160051b8301016020850160005b838110156127c257601f198584030188526127ac83835161261d565b6020988901989093509190910190600101612790565b50909695505050505050565b6080815260006127e160808301876126fb565b82810360208401526127f38187612740565b905082810360408401526128078186612772565b9050828103606084015261281b8185612772565b979650505050505050565b634e487b7160e01b600052602160045260246000fd5b602081016008831061285e57634e487b7160e01b600052602160045260246000fd5b91905290565b600080600080600060a0868803121561287c57600080fd5b85359450602086013561288e8161265c565b9350604086013560ff811681146128a457600080fd5b94979396509394606081013594506080013592915050565b634e487b7160e01b600052604160045260246000fd5b604051601f8201601f1916810167ffffffffffffffff811182821017156128fb576128fb6128bc565b604052919050565b600067ffffffffffffffff82111561291d5761291d6128bc565b5060051b60200190565b600082601f83011261293857600080fd5b813561294b61294682612903565b6128d2565b8082825260208201915060208360051b86010192508583111561296d57600080fd5b602085015b83811015612991576129838161269a565b835260209283019201612972565b5095945050505050565b600082601f8301126129ac57600080fd5b81356129ba61294682612903565b8082825260208201915060208360051b8601019250858311156129dc57600080fd5b602085015b838110156129915780358352602092830192016129e1565b600067ffffffffffffffff821115612a1357612a136128bc565b50601f01601f191660200190565b6000612a2f612946846129f9565b9050828152838383011115612a4357600080fd5b828260208301376000602084830101529392505050565b600082601f830112612a6b57600080fd5b61220e83833560208501612a21565b600082601f830112612a8b57600080fd5b8135612a9961294682612903565b8082825260208201915060208360051b860101925085831115612abb57600080fd5b602085015b8381101561299157803567ffffffffffffffff811115612adf57600080fd5b612aee886020838a0101612a5a565b84525060209283019201612ac0565b600082601f830112612b0e57600080fd5b8135612b1c61294682612903565b8082825260208201915060208360051b860101925085831115612b3e57600080fd5b602085015b8381101561299157803567ffffffffffffffff811115612b6257600080fd5b8601603f81018813612b7357600080fd5b612b8588602083013560408401612a21565b84525060209283019201612b43565b600080600080600060a08688031215612bac57600080fd5b853567ffffffffffffffff811115612bc357600080fd5b612bcf88828901612927565b955050602086013567ffffffffffffffff811115612bec57600080fd5b612bf88882890161299b565b945050604086013567ffffffffffffffff811115612c1557600080fd5b612c2188828901612a7a565b935050606086013567ffffffffffffffff811115612c3e57600080fd5b612c4a88828901612afd565b925050608086013567ffffffffffffffff811115612c6757600080fd5b612c7388828901612a5a565b9150509295509295909350565b60008060408385031215612c9357600080fd5b82359150612ca36020840161269a565b90509250929050565b60018060a01b038516815283602082015260a06040820152601860a08201527f73657450656e64696e6741646d696e286164647265737329000000000000000060c082015260e060608201526000612d0760e083018561261d565b905082608083015295945050505050565b600060208284031215612d2a57600080fd5b815167ffffffffffffffff811115612d4157600080fd5b8201601f81018413612d5257600080fd5b8051612d60612946826129f9565b818152856020838501011115612d7557600080fd5b612d868260208301602086016125f9565b95945050505050565b600181811c90821680612da357607f821691505b602082108103610bbd57634e487b7160e01b600052602260045260246000fd5b600060208284031215612dd557600080fd5b5051919050565b600060208284031215612dee57600080fd5b81516001600160601b038116811461220e57600080fd5b634e487b7160e01b600052603260045260246000fd5b60008154612e2881612d8f565b808552600182168015612e425760018114612e5e57612e95565b60ff1983166020870152602082151560051b8701019350612e95565b84600052602060002060005b83811015612e8c5781546020828a010152600182019150602081019050612e6a565b87016020019450505b50505092915050565b60018060a01b038616815284602082015260a060408201526000612ec560a0830186612e1b565b8281036060840152612ed78186612e1b565b9150508260808301529695505050505050565b634e487b7160e01b600052601160045260246000fd5b600060018201612f1257612f12612eea565b5060010190565b8981526001600160a01b038916602082015261012060408201819052600090612f449083018a6126fb565b8281036060840152612f56818a612740565b90508281036080840152612f6a8189612772565b905082810360a0840152612f7e8188612772565b90508560c08401528460e0840152828103610100840152612f9f818561261d565b9c9b505050505050505050505050565b80820180821115611d0b57611d0b612eea565b81810381811115611d0b57611d0b612eea565b60018060a01b038616815284602082015260a060408201526000612ffc60a083018661261d565b8281036060840152612ed7818661261d565b60006020828403121561302057600080fd5b815161220e8161265c565b601f82111561076d57806000526020600020601f840160051c810160208510156130525750805b601f840160051c820191505b818110156110f0576000815560010161305e565b815167ffffffffffffffff81111561308c5761308c6128bc565b6130a08161309a8454612d8f565b8461302b565b6020601f8211600181146130d457600083156130bc5750848201515b600019600385901b1c1916600184901b1784556110f0565b600084815260208120601f198516915b8281101561310457878501518255602094850194600190920191016130e4565b50848210156131225786840151600019600387901b60f8161c191681555b50505050600190811b0190555056fea2646970667358221220d9be2610cb458ba17a0d9c443a3b42c6856c5437d9cb25cb0529f2d0b3fd97c864736f6c634300081b0033","linkReferences":{}},"methodIdentifiers":{"BALLOT_TYPEHASH()":"deaaa7cc","DOMAIN_TYPEHASH()":"20606b70","__abdicate()":"760fbc13","__acceptAdmin()":"b9a61961","__executeSetTimelockPendingAdmin(address,uint256)":"21f43e42","__queueSetTimelockPendingAdmin(address,uint256)":"91500671","cancel(uint256)":"40e58ee5","castVote(uint256,bool)":"15373e3d","castVoteBySig(uint256,bool,uint8,bytes32,bytes32)":"4634c61f","comp()":"109d0af8","execute(uint256)":"fe0d94c1","getActions(uint256)":"328dd982","getReceipt(uint256,address)":"e23a9a52","guardian()":"452a9320","latestProposalIds(address)":"17977c61","name()":"06fdde03","proposalCount()":"da35c664","proposalMaxOperations()":"7bdbe4d0","proposalThreshold()":"b58131b0","proposals(uint256)":"013cf08b","propose(address[],uint256[],string[],bytes[],string)":"da95691a","queue(uint256)":"ddf0b009","quorumVotes()":"24bc1a64","state(uint256)":"3e4f49e6","timelock()":"d33219b4","votingDelay()":"3932abb1","votingPeriod()":"02a251a3"},"id":41}